:10000000FAC0000029C1000027C1000025C100007E
:1000100023C1000021C100001FC100001DC100005C
:100020001BC1000019C1000017C1000015C100006C
:1000300013C1000011C100000FC100000DC100007C
:100040000BC1000009C1000007C1000005C100008C
:1000500003C1000001C10000FFC00000ADC20000EC
:10006000FBC000000C94660B0C943C0BF5C0000028
:10007000F3C00000F1C00000EFC00000EDC00000C0
:10008000EBC00000E9C00000E7C00000E5C00000D0
:10009000E3C00000E1C00000DFC00000D7C20000E4
:1000A000DBC00000D9C00000D7C00000D5C00000F0
:1000B000D3C00000D1C00000CFC00000CDC0000000
:1000C000CBC00000C9C00000C7C00000C5C0000010
:1000D000C3C00000C1C00000BFC00000BDC0000020
:1000E000BBC000005B085E084D0851085508950824
:1000F000620866086C08700874087A087E0882082E
:10010000950888088C089008000022002500280027
:100110002B002E003100340002010000050108010F
:100120000B0105050505070508080808020202027B
:100130000A0A080804040404010101010101010183
:100140000303030303030303040707070C0C0C0C4E
:100150000C0C0C0C02020202060606060606060637
:100160000B0B0B0B0B0B0B0B0102102020080810C4
:100170002040102040800201020108040201010217
:1001800004081020408080402010080402018004F0
:10019000020180402010080402010804020101024B
:1001A0000408102040800102040810204080000054
:1001B0000A0B02090C0D0E080703040100000000E1
:1001C000000000000000000000000000000000002F
:1001D00000000000000000000000121110000000EC
:1001E000000000000000000000000000000000000F
:1001F000000000009C0B11241FBECFEFD1E2DEBF38
:10020000CDBF00E00CBF25E0A6E0B3E001C01D9229
:10021000AB3FB207E1F713E0A0E0B2E0E8E0FEE1B7
:1002200000E00BBF02C007900D92A630B107D9F7CE
:1002300010E0CBEFD0E000E006C021970109802F4D
:10024000FE010E94ED0ECA3FD10780E00807A9F722
:100250000E94120C0C94020FD3CEFC01538D448DDE
:10026000252F30E0842F90E0821B930B541710F061
:10027000CF96089501970895FC01918D828D98176E
:1002800061F0828DDF01A80FB11D5D968C91928D7A
:100290009F5F9F73928F90E008958FEF9FEF089577
:1002A000FC01918D828D981731F0828DE80FF11D40
:1002B000858D90E008958FEF9FEF0895FC01918D5B
:1002C000228D892F90E0805C9F4F821B91098F7354
:1002D0009927089580E090E0892B19F060D781116B
:1002E00025C080E090E0892B41F080E090E0892BF0
:1002F00021F00E94000081111CC080E090E0892B59
:1003000041F080E090E0892B21F00E9400008111F3
:1003100013C080E090E0892BA1F080E090E0892B71
:1003200081F00E94000081110AC008950E9400001F
:10033000D8CF0E940000E1CF0E940000EACF0C94C9
:10034000000008953FB7F894809128049091290403
:10035000A0912A04B0912B0426B5A89B05C02F3F7D
:1003600019F00196A11DB11D3FBFBA2FA92F982FDB
:100370008827820F911DA11DB11DBC01CD0142E056
:10038000660F771F881F991F4A95D1F7089585ED4D
:100390008093BC008091BC0084FDFCCF1092580477
:1003A00008954091FE03262F30E0240F311D2132A5
:1003B0003105DCF4209158042430C9F4FC0180E0BC
:1003C00090E0861758F43091FE032191DC01A4528D
:1003D000BC4FA30FB11D2C930196F3CF8091FE0368
:1003E000680F6093FE0380E0089581E0089582E045
:1003F0000895089581E090E030912D0420912C041F
:10040000321710F480E090E091958195910908955C
:1004100080912D0490912C04891730F48F5F809384
:100420002D0480E090E008958FEF9FEF0895809174
:100430002C0490E020912D04821B91090895CF9205
:10044000DF92EF92FF920F931F93CF93DF937C0184
:10045000262F972F8A0180917B04882391F0C62F45
:10046000D72F6E01C40ED51ECC15DD0569F069913C
:10047000D701ED91FC910190F081E02DC701199514
:10048000F3CF642F822F8DDFC801DF91CF911F91B1
:100490000F91FF90EF90DF90CF900895CF93DF936F
:1004A0001F92CDB7DEB7698320917B042223D1F060
:1004B00020917904203240F021E030E0FC013383C8
:1004C000228380E090E014C080917A04E82FF0E06D
:1004D000E75AFB4F998190838F5F80937A048093D2
:1004E000790404C061E0CE0101965BDF81E090E019
:1004F0000F90DF91CF910895089580E090E00895E6
:10050000FC0126813781620F731F848195818617D4
:10051000970738F08281938177836683820F931FD8
:10052000089580E090E008950E94F50E0F931F93C8
:10053000CF93DF938B01FC01C281D3812097A9F077
:100540006A817B810115110519F06115710521F48E
:100550000617170731F409C0C8010E94F90E892B4C
:1005600021F00990D881C02DE9CFCE01DF91CF9144
:100570001F910F910895FC01848DDF01A80FB11D1B
:10058000A35ABF4F2C91848D90E001968F739927C9
:10059000848FA689B7892C93A089B1898C918064B6
:1005A0008C93938D848D981306C00288F389E02D77
:1005B00080818F7D808308951F920F920FB60F92D6
:1005C00011242F933F938F939F93AF93BF93809169
:1005D000240490912504A0912604B0912704309121
:1005E000230423E0230F2D3720F40196A11DB11D14
:1005F00005C026E8230F0296A11DB11D20932304F8
:100600008093240490932504A0932604B093270498
:100610008091280490912904A0912A04B0912B0480
:100620000196A11DB11D8093280490932904A093E5
:100630002A04B0932B04BF91AF919F918F913F916A
:100640002F910F900FBE0F901F9018951F920F9231
:100650000FB60F9211240BB60F922F933F934F9327
:100660005F936F937F938F939F93AF93BF93EF931A
:10067000FF938091B900887F803609F49CC068F5AB
:10068000883209F45BC090F4803109F454C038F426
:10069000882309F4F6C0883009F44DC0F5C08831CC
:1006A00009F44CC0803209F45DC0EEC0803409F416
:1006B00068C048F4803309F455C0883309F0E4C0B9
:1006C00080935604D8C0803509F44FC0883509F4AA
:1006D0005DC0883409F0D8C0D6C0883909F4C7C0D5
:1006E000A8F4883709F467C038F4883609F463C081
:1006F000803709F460C0C8C0883809F4B8C08039B0
:1007000009F45FC0803809F0BFC05BC0803B09F4CA
:1007100086C038F4803A09F466C0883A09F47FC08C
:10072000B3C0803C09F4A7C0883C09F4A4C0883B4E
:1007300009F48AC0A9C08091330410C09091550477
:1007400080915404981770F5E091550481E08E0F64
:1007500080935504F0E0EC5CFB4F80818093BB00FC
:1007600085EC86C0809356048EC0E091550481E0EC
:100770008E0F809355048091BB00F0E0EC5CFB4F42
:10078000808390915504809154046EC0E09155048B
:1007900081E08E0F809355048091BB00F0E0EC5C0B
:1007A000FB4F80838091570481116DC081E080935D
:1007B000320484EA61C083E08093580410922204DA
:1007C000CFCF80912204803208F051C0E091220402
:1007D00081E08E0F809322048091BB00F0E0EE5FF9
:1007E000FB4F8083BDCF85EC8093BC0010925804F2
:1007F00080912204803230F4E0912204F0E0EE5F38
:10080000FB4F10826091220470E0E0910004F091AF
:10081000010482E094E019951092220435C084E02E
:10082000809358041092FF031092FE03E091FC03A2
:10083000F091FD0319958091FE03811105C081E0BF
:100840008093FE031092DC03E091FF0381E08E0FA2
:100850008093FF03F0E0E452FC4F80818093BB0063
:100860009091FF038091FE03981708F479CF85E8F3
:100870008093BC0009C085EC8093BC0010925804A2
:1008800003C01092560483DDFF91EF91BF91AF91A9
:100890009F918F917F916F915F914F913F912F9198
:1008A0000F900BBE0F900FBE0F901F901895FC017C
:1008B000A081B1818C918D3051F024F48950823027
:1008C000B8F505C0803219F08F3219F008951196ED
:1008D0002CC011968C9111978A3219F08F32D1F079
:1008E00008951196B183A083A081B181CD010196B5
:1008F0009183808311968C9111978823C9F08A3255
:1009000099F712968C9112978F3271F713960DC04A
:100910008A3071F2A081B181CD01019691838083EB
:1009200011968C918111F4CF03C0B183A083C0CF05
:1009300008950F931F93CF93DF931F92CDB7DEB728
:100940008C016983B4DFD801ED91FC91119780810E
:100950006981861305C03196ED93FC9381E001C057
:1009600080E00F90DF91CF911F910F9108950F9329
:100970001F93CF93DF93EC010C811D81029697DFCB
:10098000EA81FB819081973231F1923221F180ED41
:10099000890F8A3070F081EA890F8C3150F08FEB2B
:1009A000890F8A3130F09B3221F083ED890F82303C
:1009B000F0F52A813B812F5F3F4F3B832A83EC81F7
:1009C000FD819F012F5F3F4F3D832C839083EA8100
:1009D000FB819081DCCF3196FB83EA83EA81FB8146
:1009E0002081222321F1AF014F5F5F4F5B834A8358
:1009F0002917E9F02C3591F42181AFE2B2E08C9116
:100A0000882339F0821303C011962C9102C01296EC
:100A1000F6CF222361F03296FB83EA83EC81FD81DD
:100A2000AF014F5F5F4F5D834C832083D7CFEC8155
:100A3000FD81CF0101969D838C831082C801DF91D7
:100A4000CF911F910F910895DB01109749F0ED911F
:100A5000FC9111970190F081E02DBC01CD0119941A
:100A600080E090E008959F92AF92BF92CF92DF9284
:100A7000EF92FF920F931F93CF93DF9300D000D09C
:100A8000CDB7DEB7FC019681911112C08091D403DD
:100A900081110BC01092D1031092D0031092D30396
:100AA0001092D20381E08093D40300ED13E091C053
:100AB0007F019150968300811181B80184E090E01C
:100AC000C3DF009739F0FC01118300831382128287
:100AD0008C0111C08091D40381110BC01092D103FD
:100AE0001092D0031092D3031092D20381E080932E
:100AF000D40300ED13E06701F2E0CF0ED11C6BE7E9
:100B0000C60117DF882309F4C1CF6DE7C60111DFE5
:100B100081115BC086E0982EC70129DF5C01892B1B
:100B200009F4B4CF6AE3C60104DF882309F4AECF29
:100B30001A821982BE016F5F7F4FC70119D48823C3
:100B400009F4A4CFB501C801F1DCDC01892B51F512
:100B5000F801608171818AE090E076DFDC01892B09
:100B600039F011961C921E9215961C921E921497A3
:100B7000F801228133812115310551F0F90180817D
:100B80009181009711F09C01F9CFB183A08303C03C
:100B9000F801B383A283109709F478CF1396BC921F
:100BA000AE921297FE0131961496892D01900D9206
:100BB0008A95E1F76DE7C601BCDE811106C06CE2E3
:100BC000C601B7DE8111A8CF61CFF70186818F5FA3
:100BD0008683C80126960FB6F894DEBF0FBECDBF40
:100BE000DF91CF911F910F91FF90EF90DF90CF9009
:100BF000BF90AF909F900895CF92DF92EF92FF92B7
:100C00000F931F93CF93DF93CDB7DEB7CF59D1406A
:100C10000FB6F894DEBF0FBECDBF1092CF03109277
:100C2000CE0389E392E090933104809330041092D4
:100C30002F0410922E0400E010E08CE794E03EDBDD
:100C4000892BC1F0E090CE03F090CF038CE794E0C5
:100C500013DBF701EA5FFC4F80838B3711F08D3790
:100C600011F40F5F1F4F8FEFE81AF80AF092CF03CD
:100C7000E092CE030230110501F786E093E00ED337
:100C8000CE0109969C838B8380E991E09E838D83BE
:100C900018861F8284E092E09A83898386E093E03D
:100CA0009E012F5F3F4FC756DE4F39832883C959B6
:100CB000D140C556DE4F99838883CB59D140C35666
:100CC000DE4F99838883CD59D1408AE0C156DE4FEB
:100CD0008883CF59D140CE0187569E4FC4DE6C0128
:100CE0006AE372E023DC8C010097F1F0FC01E48000
:100CF000F580F1E0EF16F10461F4FC016681778183
:100D00006115710531F081E492E00E94F90E892BA2
:100D100059F0F1E0EF1AF10882E0E816F10420F44E
:100D2000F8012681378102C020E030E030933104A1
:100D30002093300466E472E0C601F8DBFC01892BE5
:100D400009F44BC0648175816330710544F46130EE
:100D500071058CF46115710509F444C038C0653023
:100D6000710534F06530710591F5668177812BC08E
:100D70006681778137C00680F781E02D309769F171
:100D80008081843769F18B3229F08D3221F43196DC
:100D900091E002C0319690E060E070E03AE081912D
:100DA00020ED280F2A3068F4369FA001379F500DA0
:100DB0001124682F880F770B60537109640F751F1A
:100DC000EECF992379F07195619571090BC0668119
:100DD000778180859185AED705C060E070E002C064
:100DE00061E070E070932F0460932E0480913004D2
:100DF0009091310453D260912E0470912F04072EEC
:100E0000000C880B990B97FF02C001D402C04AE086
:100E1000AED33FD2C156DE4F0FB6F894DEBF0FBE41
:100E2000CDBFDF91CF911F910F91FF90EF90DF9099
:100E3000CF9008956115710579F0FB0101900020B4
:100E4000E9F73197AF01461B570BDC01ED91FC919F
:100E50000280F381E02D199480E090E008954F9294
:100E60005F926F927F928F929F92AF92BF92CF923A
:100E7000DF92EF92FF920F931F93CF93DF93CDB743
:100E8000DEB72C970FB6F894DEBF0FBECDBF7B0147
:100E90008A01BC01990F880B990B58D626E636E6D5
:100EA00046EE5DE3DFD646D72B01770F660877085D
:100EB00049865A866B867C86B701FF0C880B990B96
:100EC00045D626E636E646EE5DE3CCD633D74B0173
:100ED000770FAA08BB088D829E82AF82B886B801C0
:100EE000110F880B990B32D626E636E646EE5DE307
:100EF000B9D620D76B01770FEE08FF08C982DA82D6
:100F0000EB82FC82C301B201A8D3C501B401A5D311
:100F1000C701B601A2D381E0B2D16BE472E089E1EE
:100F200095E088DFC8D182E0AAD16BE472E089E164
:100F300095E080DFC0D183E0A2D16BE472E089E16B
:100F400095E078DFB8D182E592E0A8D1FBD94B01DA
:100F50005C0184E1C82ED12CE12CF12CF3D9DC0109
:100F6000CB0188199909AA09BB09883E9340A105BC
:100F7000B10558F021E0C21AD108E108F10888EE65
:100F8000880E83E0981EA11CB11CC114D104E10499
:100F9000F10421F781E073D18E01075F1F4F6E01CD
:100FA000FDE0CF0ED11C5801F801F1908F01F11036
:100FB0000CC081D16ED188E692E070D182E05FD121
:100FC0008E010B5F1F4F680113C06F2D89E195E003
:100FD00065DA8F2D0DD30C151D0531F7EACF6F2D76
:100FE00089E195E05BDA8F2D03D30A151B0529F003
:100FF000F801F1908F01F110F2CF5DD14AD18EE767
:1010000092E04CD183E03BD18E010F5F1F4F09C0AE
:101010006F2D89E195E042DA8F2DEAD20C151D057E
:1010200029F0F801F1908F01F110F2CF44D12C9604
:101030000FB6F894DEBF0FBECDBFDF91CF911F91E9
:101040000F91FF90EF90DF90CF90BF90AF909F9067
:101050008F907F906F905F904F901BC190E0FC014C
:10106000E255FE4F4491FC01E859FE4F2491FC01EA
:10107000EE5DFE4F9491992309F465C0442309F471
:1010800054C050E0FA013197E231F10508F04DC04B
:101090008827EE58FF4F8F4FA0C6809180008F7732
:1010A00007C0809180008F7D03C080918000877F82
:1010B000809380003AC084B58F7702C084B58F7D5D
:1010C00084BD33C08091B0008F7703C08091B000A1
:1010D0008F7D8093B00029C0809190008F7707C0EA
:1010E000809190008F7D03C080919000877F8093D6
:1010F00090001BC08091A0008F7707C08091A00056
:101100008F7D03C08091A000877F8093A0000DC0D9
:10111000809120018F7707C0809120018F7D03C0CF
:1011200080912001877F80932001E92FF0E0EE0F6E
:10113000FF1FE85FFE4FA591B4918FB7F894EC9133
:101140002E2B2C938FBF0895CF92DF92EF92FF92B8
:101150000F931F93CF93DF936C017A018B01C0E053
:10116000D0E0CE15DF0589F0D8016D918D01D60153
:10117000ED91FC910190F081E02DC6011995892B2C
:1011800011F47E0102C02196ECCFC701DF91CF910F
:101190001F910F91FF90EF90DF90CF9008958CE713
:1011A00094E08CD821E0892B09F420E0822F089567
:1011B000EF92FF920F931F93CF93DF93EC0181E0A7
:1011C000888F9B8D8C8D981305C0E889F989808163
:1011D00085FD23C0F62E0B8D10E00F5F1F4F0F73A0
:1011E0001127E02E8C8DE8120BC00FB607FCFACF4A
:1011F000E889F989808185FFF5CFCE01BCD9F2CF8E
:101200008B8DFE01E80FF11DE35AFF4FF0820B8F2B
:10121000EA89FB898081806207C0EE89FF8960834B
:10122000E889F98980818064808381E090E0DF91A2
:10123000CF911F910F91FF90EF900895CF93DF937F
:10124000EC01888D8823C1F0EA89FB89808185FDC6
:1012500005C0A889B9898C9186FD0EC00FB607FC20
:10126000F5CF808185FFF2CFA889B9898C9185FF60
:10127000EDCFCE0180D9E8CFDF91CF91089591E0F5
:1012800090937B048093490510927A04109279041C
:10129000089564E972E08CE794E0CCCDCF93DF93BE
:1012A000BC018CE794E0C6DDEC01F3DF8C0F9D1FE1
:1012B000DF91CF91089520917904909149052132D1
:1012C00008F04AC0809158048111FCCF32E030937D
:1012D000580431E0309357043FEF30935604109296
:1012E000550420935404A9E5B4E044E354E0FA0122
:1012F0003E2F341B321718F43D913193F9CF1092E1
:10130000330420913304990F922B909333049091DE
:101310003204913061F4109232049091330490932E
:10132000BB009091BC0093FDF8CF95EC01C095EE09
:101330009093BC00909158049230E1F39091560440
:101340009F3F79F080915604803241F0809156049D
:10135000803331F084E005C081E003C082E001C049
:1013600083E010927A041092790410927B0408951D
:101370009F92AF92BF92CF92DF92EF92FF920F9324
:101380001F93CF93DF9300D000D0CDB7DEB77C01A1
:101390006B015C0182E0A80EB11CC50188DAD7019F
:1013A0001296ED91FC91139780818B3521F08B374C
:1013B00009F4A1C0AAC0F7018681811112C08091F1
:1013C000410581110BC010923E0510923D0510920F
:1013D000400510923F0581E0809341050DE315E043
:1013E00078C08150868300811181B80184E090E04B
:1013F0002BDB009739F0FC011183008313821282EA
:101400008C0111C08091410581110BC010923E05E5
:1014100010923D051092400510923F0581E08093A7
:1014200041050DE315E06BE5C50183DA882339F248
:101430006DE5C5017EDA811145C086E0982E1A82DD
:101440001982BE016F5F7F4FC70192DF882309F4C5
:10145000B6CFD8016D917C9188E090E0F5DADC019F
:10146000892B39F011961C921E9213961C921E9293
:101470001297F801228133812115310551F0F901CC
:1014800080819181009711F09C01F9CFB183A083F5
:1014900003C0F801B383A283109709F490CFFE0133
:1014A00031961296892D01900D928A95E1F76DE59E
:1014B000C5013FDA811106C06CE2C5013ADA81113B
:1014C000BECF7DCFD70116968C9116978F5F16965B
:1014D0008C93F80180819181892B11F410E034C044
:1014E00086E090E0D60111969C938E9313961C9300
:1014F0000E93129728C0C701B6DAFC012081318112
:10150000232B61F327E030E016C011E0873219F099
:10151000823209F010E0C7012ADA0097F9F21123AC
:1015200041F022E030E0F60131832083938382830F
:101530000BC021E030E0D60111963C932E93139618
:101540009C938E93129711E0812F26960FB6F894F4
:10155000DEBF0FBECDBFDF91CF911F910F91FF90E6
:10156000EF90DF90CF90BF90AF909F9008958F92B3
:101570009F92AF92BF920F931F93CF93DF93CDB7FC
:10158000DEB7A1970FB6F894DEBF0FBECDBF19A28C
:10159000423008F44AE08E010F5D1F4F842E912CDB
:1015A000A12CB12CA5019401F6D3E62FB901CA01F3
:1015B00001501109EA3014F4E05D01C0E95CD80182
:1015C000EC93232B242B252B69F7B8018CE794E0AF
:1015D00031DCA1960FB6F894DEBF0FBECDBFDF9110
:1015E000CF911F910F91BF90AF909F908F900895D2
:1015F000CF93DF93682F70E080E090E04AE0B7DFA0
:10160000EC0147DE8C0F9D1FDF91CF910895CF92A3
:10161000DF92EF92FF92CF93DF936B017C01E09119
:101620007C04F0917D040190F081E02D6DE28CE767
:1016300094E01995EC0166277727CB016C197D0999
:101640008E099F094AE093DF8C0F9D1FDF91CF9198
:10165000FF90EF90DF90CF900895CF93DF9397FFA7
:1016600002C0D5DF02C04AE082DFEC0112DE8C0F3F
:101670009D1FDF91CF9108951F920F920FB60F9289
:1016800011240BB60F922F933F934F935F936F9359
:101690007F938F939F93AF93BF93EF93FF938CE7C9
:1016A00094E00E94BB02FF91EF91BF91AF919F9197
:1016B0008F917F916F915F914F913F912F910F90FB
:1016C0000BBE0F900FBE0F901F9018951F920F9298
:1016D0000FB60F9211240BB60F922F938F939F93F7
:1016E000EF93FF93E0918C04F0918D048081E09161
:1016F0009204F091930482FD12C090818091950430
:101700008F5F8F7320919604821751F0E0919504BA
:10171000F0E0E458FB4F958F8093950401C08081E1
:10172000FF91EF919F918F912F910F900BBE0F9092
:101730000FBE0F901F901895ECE7F4E01382128211
:1017400088EE93E0A0E0B0E084839583A683B7831E
:101750002BE032E03183208325EC30E0358724878D
:1017600024EC30E03787268720EC30E0318B208B6B
:1017700021EC30E0338B228B22EC30E0358B248B54
:1017800026EC30E0378B268B118E128E138E148E42
:10179000E9E1F5E01382128284839583A683B783FF
:1017A0008DE192E091838083EAE4F5E08FE892ECAA
:1017B000A5EFBDE3858B968BA78BB08F85E89BEE5D
:1017C000A1E9BEE3818F928FA38FB48F88EB9EE156
:1017D000A5E0BEE3858F968FA78FB0A384EF9DEF22
:1017E000A4E5BCE381A392A3A3A3B4A384EF9DEFDC
:1017F000A4EDBCE385A396A3A7A3B0A78CEE91E5C7
:10180000A8E3BDE381A792A7A3A7B4A71686158670
:1018100080EE9EE2A5E6B2E4818B928BA38BB48B23
:1018200010820895789484B5826084BD84B5816007
:1018300084BD85B5826085BD85B5816085BD80919B
:101840006E00816080936E00109281008091810013
:10185000826080938100809181008160809381000B
:10186000809180008160809380008091B1008460CD
:101870008093B1008091B00081608093B00080912E
:1018800091008260809391008091910081608093AB
:101890009100809190008160809390008091A100E0
:1018A00082608093A1008091A10081608093A1005B
:1018B0008091A00081608093A000809121018260CE
:1018C0008093210180912101816080932101809189
:1018D000200181608093200180917A008460809350
:1018E0007A0080917A00826080937A0080917A00F9
:1018F000816080937A0080917A00806880937A007A
:101900001092C100E0918C04F0918D0482E08083FC
:10191000E0918804F09189041082E0918A04F091AA
:101920008B048FEC808310929404E0919004F091EA
:10193000910486E08083E0918E04F0918F04808191
:1019400080618083E0918E04F0918F0480818860B3
:101950008083E0918E04F0918F0480818068808381
:10196000E0918E04F0918F0480818F7D80831092AE
:101970002D0410922C0410927A0410927904109283
:10198000580481E0809357041092320484E166DBAE
:1019900085E164DB8091B9008E7F8093B9008091EE
:1019A000B9008D7F8093B90088E48093B80085E406
:1019B0008093BC0010924A0587E992E06FDC69DCF5
:1019C00010922505109226051092270510922805E1
:1019D0001092290510922A0510922B0510922C05C1
:1019E00010922D0510922E0510922F0510923005A1
:1019F0001092310510923205109233051092340581
:101A00001092350510923605109237051092380560
:101A10001092390510923A0510923B0510923C0540
:101A2000EBD88FE992E03ADCC0913004D0913104D8
:101A300068EF72E0CE01DDD1892BD9F484EA92E01F
:101A40002DDC81E01CDC6BEA72E089E195E0F2D9E3
:101A500032DC82E014DC6BEA72E089E195E0EAD9DD
:101A60002ADC83E00CDC6BEA72E089E195E0E2D9E4
:101A700067C064E073E0CE01BCD1892B41F481EBF7
:101A800092E00CDC49E950E069E170E02DC060E5CE
:101A900072E0CE01AED1892B51F48EEB92E0FEDBE9
:101AA00047E050E066E170E087E090E01FC06BEC3B
:101AB00072E0CE019ED1892B51F48EEB92E0EEDBE9
:101AC00040E050E060E070E087E890E00FC06DEC2F
:101AD00072E0CE018ED1892B59F48EEB92E0DEDBE1
:101AE0004AE050E06AE070E080E090E0B8D929C0B8
:101AF0006FEC72E0CE017DD1892B19F581ED92E07A
:101B0000CDDB88ED92E0CADB80912E0490912F040A
:101B1000009751F484E0B3DB6DEE72E089E195E06B
:101B200089D983EF92E00BC0019759F484E0A7DBD9
:101B30006AEF72E089E195E07DD98FEF92E0AEDB4C
:101B4000BADB0E946A016CCFE89409C097FB3EF4AF
:101B500090958095709561957F4F8F4F9F4F9923FA
:101B6000A9F0F92F96E9BB279395F6958795779578
:101B70006795B795F111F8CFFAF4BB0F11F460FF38
:101B80001BC06F5F7F4F8F4F9F4F16C0882311F090
:101B900096E911C0772321F09EE8872F762F05C0A4
:101BA000662371F096E8862F70E060E02AF09A953F
:101BB000660F771F881FDAF7880F9695879597F934
:101BC000089597F99F6780E870E060E008959FEFBF
:101BD00080EC089500240A941616170618060906C4
:101BE000089500240A941216130614060506089593
:101BF000092E0394000C11F4882352F0BB0F40F41B
:101C0000BF2B11F460FF04C06F5F7F4F8F4F9F4F5A
:101C1000089557FD9058440F551F59F05F3F71F0DC
:101C20004795880F97FB991F61F09F3F79F0879543
:101C30000895121613061406551FF2CF4695F1DFCC
:101C400008C0161617061806991FF1CF869571055C
:101C5000610508940895E894BB2766277727CB0190
:101C600097F908950CD0C4CFBCDF40F0B3DF30F05B
:101C700021F45F3F19F0A5CF5111EECFA8CFC9DFF6
:101C800098F39923C9F35523B1F3951B550BBB2743
:101C9000AA2762177307840738F09F5F5F4F220FF0
:101CA000331F441FAA1FA9F333D00E2E3AF0E0E8E9
:101CB00030D091505040E695001CCAF729D0FE2F35
:101CC00027D0660F771F881FBB1F261737074807C7
:101CD000AB07B0E809F0BB0B802DBF01FF2793587D
:101CE0005F4F2AF09E3F510568F06BCFB5CF5F3F45
:101CF000ECF3983EDCF3869577956795B795F79565
:101D00009F5FC9F7880F911D9695879597F908955C
:101D1000E1E0660F771F881FBB1F621773078407F8
:101D2000BA0720F0621B730B840BBA0BEE1F88F707
:101D3000E095089504D06894B1118ECF089571DFB5
:101D400088F09F5790F0B92F9927B751A0F0D1F0A4
:101D5000660F771F881F991F1AF0BA95C9F712C02E
:101D6000B13081F078DFB1E0089575CF672F782F1B
:101D70008827B85F39F0B93FCCF38695779567959A
:101D8000B395D9F73EF490958095709561957F4F06
:101D90008F4F9F4F0895A1E21A2EAA1BBB1BFD0176
:101DA0000DC0AA1FBB1FEE1FFF1FA217B307E4073A
:101DB000F50720F0A21BB30BE40BF50B661F771F92
:101DC000881F991F1A9469F7609570958095909572
:101DD0009B01AC01BD01CF010895EE0FFF1F881FCD
:101DE0008BBF0790F691E02D199481E090E0F89474
:101DF00009C0FB01DC018D91019080190110D9F31C
:081E0000990B0895F894FFCF3F
:101E08000000000080020100000000D808A4082D8E
:101E1800011E095E013C015001000000004E021F36
:101E2800027D02F90117020802FA0122225C5C62B3
:101E380008660C6E0A720D74090063686F6F73652B
:101E4800006E756C6C007375636B007374617274EB
:101E58003200626567696E5472616E736D6973737F
:101E6800696F6E2831293B00626567696E5472613B
:101E78006E736D697373696F6E2832293B006265F2
:101E880067696E5472616E736D697373696F6E28DA
:101E980033293B000D0A00207374617274200053CB
:101EA800686F7700E6ADB8E99BB600726573657434
:101EB80000E8BD89E58B952028E79FAD2900E8BD9E
:101EC80089E58B952028E995B7290034003500333A
:101ED80000E590B8E79BA400626567696E5472617B
:101EE8006E736D697373696F6E28342900636C6F44
:101EF8007365007375636B2030006F70656E0073D7
:061F080075636B2031003F
:020000023000CC
:10E000000D9489F10D94B2F10D94B2F10D94B2F129
:10E010000D94B2F10D94B2F10D94B2F10D94B2F1F0
:10E020000D94B2F10D94B2F10D94B2F10D94B2F1E0
:10E030000D94B2F10D94B2F10D94B2F10D94B2F1D0
:10E040000D94B2F10D94B2F10D94B2F10D94B2F1C0
:10E050000D94B2F10D94B2F10D94B2F10D94B2F1B0
:10E060000D94B2F10D94B2F10D94B2F10D94B2F1A0
:10E070000D94B2F10D94B2F10D94B2F10D94B2F190
:10E080000D94B2F10D94B2F10D94B2F10D94B2F180
:10E090000D94B2F10D94B2F10D94B2F10D94B2F170
:10E0A0000D94B2F10D94B2F10D94B2F10D94B2F160
:10E0B0000D94B2F10D94B2F10D94B2F10D94B2F150
:10E0C0000D94B2F10D94B2F10D94B2F10D94B2F140
:10E0D0000D94B2F10D94B2F10D94B2F10D94B2F130
:10E0E0000D94B2F141546D656761323536300041AF
:10E0F000726475696E6F206578706C6F72657220DE
:10E1000073746B3530305632206279204D4C530099
:10E11000426F6F746C6F616465723E004875683F52
:10E1200000436F6D70696C6564206F6E203D200048
:10E130004350552054797065202020203D20005FF9
:10E140005F4156525F415243485F5F3D2000415658
:10E1500052204C696243205665723D20004743437C
:10E160002056657273696F6E203D20004350552024
:10E1700049442020202020203D20004C6F7720663D
:10E18000757365202020203D20004869676820665F
:10E190007573652020203D200045787420667573D6
:10E1A00065202020203D20004C6F636B2066757336
:10E1B000652020203D20004D617220203720323024
:10E1C000313300312E362E3800342E332E350056A2
:10E1D00023202020414444522020206F7020636F70
:10E1E00064652020202020696E73747275637469E1
:10E1F0006F6E2061646472202020496E74657272B3
:10E20000757074006E6F20766563746F7200726A49
:10E210006D702020006A6D70200057686174207056
:10E220006F72743A00506F7274206E6F7420737541
:10E2300070706F72746564004D7573742062652030
:10E2400061206C6574746572002000577269747483
:10E25000696E672045450052656164696E672045B7
:10E26000450045452065727220636E743D00504F35
:10E27000525400303D5A65726F2061646472003FF1
:10E280003D43505520737461747300403D454550C3
:10E29000524F4D207465737400423D426C696E6B41
:10E2A000204C454400453D44756D70204545505215
:10E2B0004F4D00463D44756D7020464C415348001B
:10E2C000483D48656C70004C3D4C69737420492F83
:10E2D0004F20506F72747300513D51756974005234
:10E2E0003D44756D702052414D00563D73686F7707
:10E2F00020696E7465727275707420566563746FF0
:10E30000727300593D506F727420626C696E6B00BD
:10E310002A0011241FBECFEFD1E2DEBFCDBF01E046
:10E320000CBF12E0A0E0B2E0EEE1FDEF03E00BBFB6
:10E3300002C007900D92A030B107D9F712E0A0E01B
:10E34000B2E001C01D92AE30B107E1F70F9460F367
:10E350000D948DFE01E20EBF0FEF0DBF11241FBE05
:10E360000D9460F30D9400F020E030E040ED57E0B4
:10E3700005C0FA013197F1F72F5F3F4F2817390792
:10E38000C0F308959C01260F311DC901A0E0B0E043
:10E390002F5F3F4FABBFFC018791882361F08093D3
:10E3A000C6008091C00086FFFCCF8091C0008064D1
:10E3B0008093C000EACF08958DE08093C6008091DD
:10E3C000C00086FFFCCF8091C00080648093C000B5
:10E3D0008AE08093C6008091C00086FFFCCF8091C8
:10E3E000C00080648093C00008950F94C2F10F9420
:10E3F000DCF10895FC019081992359F09093C600B7
:10E400008091C00086FFFCCF8091C0008064809323
:10E41000C0003196992379F70895282F982F929567
:10E420009F70892F805D8A3308F0895F8093C600D2
:10E430008091C00086FFFCCF8091C00080648093F3
:10E44000C000822F8F70982F905D9A3308F0995FEB
:10E450009093C6008091C00086FFFCCF8091C000E1
:10E4600080648093C00008959C01FB01853691056E
:10E470001CF46330710594F0C90164E670E00F94F8
:10E480002EFE605D7F4F6093C6008091C00086FFC6
:10E49000FCCF8091C00080648093C0002B30310598
:10E4A00014F43297B4F0C90164E670E00F942EFEC4
:10E4B0006AE070E00F942EFE605D7F4F6093C600AF
:10E4C0008091C00086FFFCCF8091C0008064809363
:10E4D000C000C9016AE070E00F942EFEC0968093E0
:10E4E000C6008091C00086FFFCCF8091C000806490
:10E4F0008093C00008951F93182F8EE692EE60E07F
:10E500000F94C2F11093C6008091C00086FFFCCF2B
:10E510008091C00080648093C0000F94DCF11F9153
:10E5200008952F923F924F925F926F927F928F92B7
:10E530009F92AF92BF92CF92DF92EF92FF920F9392
:10E540001F93DF93CF93CDB7DEB762970FB6F894E2
:10E55000DEBF0FBECDBF382E622ECA01DB015C01CB
:10E560006D01772420E2222E2E010894411C511CBB
:10E570008BC081E0A81680E0B80681E0C80680E084
:10E58000D80628F0C601AA27BB270F940DF2BB2797
:10E59000AD2D9C2D8B2D0F940DF28A2D0F940DF225
:10E5A0002092C6008091C00086FFFCCF8091C00001
:10E5B00080648093C0009DE29093C6008091C0006B
:10E5C00086FFFCCF8091C00080648093C0002092C1
:10E5D000C6008091C00086FFFCCF8091C00080649F
:10E5E0008093C00019828601750188249924A1E0D6
:10E5F0003A1651F03A1620F0B2E03B1661F409C029
:10E600000BBFF701779007C0C7010F9477FE782EF4
:10E6100002C0F7017080872D0F940DF22092C60082
:10E620008091C00086FFFCCF8091C0008064809301
:10E63000C000872D8052F401EF70F0708F3520F408
:10E64000E40DF51D708204C0E40DF51D8EE280839B
:10E650000894E11CF11C011D111D0894811C911CE2
:10E6600090E18916910409F0C2CF80E190E0A0E02A
:10E67000B0E0A80EB91ECA1EDB1E198AC2010F9493
:10E68000FAF10F94DCF16A94662009F072CF629679
:10E690000FB6F894DEBF0FBECDBFCF91DF911F91B3
:10E6A0000F91FF90EF90DF90CF90BF90AF909F9031
:10E6B0008F907F906F905F904F903F902F90089534
:10E6C0002F923F924F925F926F927F928F929F9282
:10E6D000AF92BF92CF92DF92EF92FF920F931F9370
:10E6E000DF93CF93CDB7DEB7CD53D1400FB6F894BB
:10E6F000DEBF0FBECDBF01E20EBF0FEF0DBF94B75F
:10E70000F894A89514BE80916000886180936000A1
:10E7100010926000789493FF05C0E0910002F091A0
:10E7200001021995279A2F9A8091C00082608093E8
:10E73000C00080E18093C40088E18093C1000000A4
:10E74000EE24FF24870144E0A42EB12CCC24DD2448
:10E7500024C0C5010197F1F70894E11CF11C011DCB
:10E76000111D21E2E2162EE4F20620E0020720E06D
:10E77000120718F031E0C32ED12CC801B70127ECE5
:10E780003BE140E050E00F9441FE611571058105C9
:10E79000910519F485B1805885B98091C00087FD35
:10E7A00003C0C114D104A9F2A6014F5F5F4FC25E3E
:10E7B000DE4F59834883CE51D140C25EDE4F8881FF
:10E7C0009981CE51D140019711F00D9410FEC05D9A
:10E7D000DE4F19821882C053D14060E0C15DDE4F28
:10E7E0001882CF52D14088249924C35DDE4F19820C
:10E7F0001882CD52D140C05EDE4F188219821A8233
:10E800001B82C052D140CE5CDE4F188219821A8220
:10E810001B82C253D140EE24FF2487010BBFF701B6
:10E8200007911691C45CDE4F19830883CC53D14005
:10E830000D940BFEC25EDE4F28813981CE51D1404E
:10E840002130310509F52091C600C25EDE4F1982E4
:10E850001882CE51D14022C02F5F3F4F4F4F5F4FA4
:10E86000213082E138078AE7480780E0580780F0C6
:10E87000C45CDE4FE881F981CC53D140EF5FFF4F9C
:10E8800019F0EE27FF27099420E030E040E050E047
:10E890008091C00087FFE0CF2091C600C35DDE4FAE
:10E8A00048815981CD52D1404F5F5F4FC35DDE4FEC
:10E8B00059834883CD52D140213209F063C64A3092
:10E8C000510508F05FC60894811C911C53E0851621
:10E8D000910409F059C600E010E018C081E280936D
:10E8E000C6008091C00086FFFCCF8091C00080648C
:10E8F0008093C0002F5F3F4F2931310579F70F9486
:10E90000DCF10F5F1F4F0530110519F020E030E0FA
:10E91000E5CF10920A0210920B0210920C02109294
:10E920000D02109206021092070210920802109235
:10E930000902109202021092030210920402109235
:10E9400005028FEE90EE60E00F94F5F180E191EE1C
:10E9500060E00F94C2F18091C00087FFFCCF9091DE
:10E96000C600903608F09F759032B8F09093C600BC
:10E970008091C00086FFFCCF8091C00080648093AE
:10E98000C000A0E2A093C6008091C00086FFFCCF2B
:10E990008091C00080648093C000983409F4D7C18E
:10E9A0009934B8F4923409F459C1933458F490333B
:10E9B00019F1903308F4E3C59F33A1F1903409F0C5
:10E9C000DEC5BDC0953409F470C1963409F0D7C5D1
:10E9D00098C1923509F42BC2933538F49C3409F46C
:10E9E000F5C1913509F0CBC518C2963509F445C279
:10E9F000993509F0C4C567C483E792EE62E00F94CD
:10EA0000F5F110920602109207021092080210927D
:10EA1000090210920A0210920B0210920C0210923C
:10EA20000D0213C18FE792EE62E00F94F5F18FEEC5
:10EA300090EE60E00F94F5F181E291EE60E00F94CA
:10EA4000C2F187EB91EE60E00F94F5F180E391EE77
:10EA500060E00F94C2F184EE90EE60E00F94F5F167
:10EA60008FE391EE60E00F94C2F186E090E061E008
:10EA700070E00F9434F20F94DCF18DE591EE60E0DC
:10EA80000F94C2F189EC91EE60E00F94F5F18EE401
:10EA900091EE60E00F94C2F183EC91EE60E00F9490
:10EAA000F5F18CE691EE60E00F94C2F18EE10F94E7
:10EAB0000DF288E90F940DF281E00F940DF20F949E
:10EAC000DCF18BE791EE60E00F94C2F119E0E0E039
:10EAD000F0E010935700E4918E2F0F940DF20F94F5
:10EAE000DCF18AE891EE60E00F94C2F1E3E0F0E03F
:10EAF00010935700E4918E2F0F940DF20F94DCF1D8
:10EB000089E991EE60E00F94C2F1E2E0F0E0109349
:10EB10005700E4918E2F0F940DF20F94DCF188EAE8
:10EB200091EE60E00F94C2F1E1E0F0E01093570045
:10EB30001491812F0F940DF20F94DCF107CF8BE825
:10EB400092EE62E00F94F5F18BE492EE60E00F94A8
:10EB5000F5F10F94DCF100E010E019C0C8016F2D51
:10EB60000F947FFEFF2031F489E492EE60E00F9471
:10EB7000C2F10BC0F092C6008091C00086FFFCCFAE
:10EB80008091C00080648093C0000F5F1F4FC80158
:10EB900081519F41A0E0B0E0ABBFFC01F790BAE229
:10EBA000FB1621F0E2E000301E07C1F60F94DCF105
:10EBB0000F94DCF187E592EE60E00F94F5F10F948D
:10EBC000DCF1CC24DD2400E010E01EC0C8010F946D
:10EBD00077FEF82E882331F489E492EE60E00F94FA
:10EBE000C2F10BC08093C6008091C00086FFFCCFAD
:10EBF0008091C00080648093C000FE1419F00894D6
:10EC0000C11CD11C0F5F1F4FC80181519F41A0E063
:10EC1000B0E0ABBFFC01E790FAE2EF1621F022E092
:10EC20000030120799F60F94DCF10F94DCF182E6C4
:10EC300092EE60E00F94C2F1C60161E070E00F94C3
:10EC400034F20F94DCF10F94DCF110920202109276
:10EC50000302109204021092050278CE89E992EE26
:10EC600062E00F94F5F1279A2F9A16C02F9880E052
:10EC700090E0E0EDF7E03197F1F7019684369105E9
:10EC8000C1F72F9A80E090E0E0EDF7E03197F1F7DF
:10EC9000019684369105C1F78091C00087FFE6CFC9
:10ECA0008091C00087FFFCCF64C485EA92EE62E0E9
:10ECB0000F94F5F140910202509103026091040219
:10ECC0007091050281E020E10F9491F2809102029F
:10ECD00090910302A0910402B091050280509F4FD1
:10ECE000AF4FBF4F8093020290930302A0930402A0
:10ECF000B093050280509041A040B04008F426CE69
:10ED0000A4CF83EB92EE62E00F94F5F140910602FE
:10ED100050910702609108027091090280E020E1A1
:10ED20000F9491F28091060290910702A09108023F
:10ED3000B091090280509F4FAF4FBF4F80930602A2
:10ED400090930702A0930802B0930902FFCD80ECD4
:10ED500092EE62E00F94F5F183E792EE60E00F949B
:10ED6000F5F18FE792EE60E00F94F5F18BE892EE0B
:10ED700060E00F94F5F189E992EE60E00F94F5F10F
:10ED800085EA92EE60E00F94F5F183EB92EE60E09D
:10ED90000F94F5F180EC92EE60E00F94F5F187ECC2
:10EDA00092EE60E00F94F5F188ED92EE60E00F9442
:10EDB000F5F18FED92EE60E00F94F5F18AEE92EEB0
:10EDC00060E00F94F5F183E093EEBDCD87EC92EE19
:10EDD00062E00F94F5F181E40F947BF282E40F94EA
:10EDE0007BF283E40F947BF284E40F947BF285E45E
:10EDF0000F947BF286E40F947BF287E40F947BF20E
:10EE000088E40F947BF28AE40F947BF28BE40F94F6
:10EE10007BF28CE40F947BF299CD88ED92EE62E068
:10EE20000F94F5F1772473948824992409C48FED05
:10EE300092EE62E00F94F5F140910A0250910B02BC
:10EE400060910C0270910D0282E020E10F9491F22A
:10EE500080910A0290910B02A0910C02B0910D02D8
:10EE600080509F4FAF4FBF4F80930A0290930B0289
:10EE7000A0930C02B0930D0269CD8AEE92EE62E08F
:10EE80000F94F5F184EE90EE60E00F94F5F18FECC5
:10EE900091EE60E00F94F5F1662477244301CC5D98
:10EEA000DE4F19821882C452D140D401C301B695F5
:10EEB000A79597958795CA5DDE4F88839983AA8326
:10EEC000BB83C652D140CC5DDE4FA881B981C4520C
:10EED000D1401196CC5DDE4FB983A883C452D14096
:10EEE000CD0162E070E00F9434F2B0E2B093C6005E
:10EEF0008091C00086FFFCCF8091C0008064809329
:10EF0000C000EDE2E093C6008091C00086FFFCCF18
:10EF10008091C00080648093C000F0E2F093C6004E
:10EF20008091C00086FFFCCF8091C00080648093F8
:10EF3000C000CA5DDE4FE880F9800A811B81C6529D
:10EF4000D140BB27A12F902F8F2D0F940DF2CA5DBA
:10EF5000DE4F8881C652D1400F940DF2B0E2FB2EF5
:10EF6000F092C6008091C00086FFFCCF8091C00067
:10EF700080648093C0000DE30093C6008091C000C0
:10EF800086FFFCCF8091C00080648093C00010E2B7
:10EF90001093C6008091C00086FFFCCF8091C00016
:10EFA00080648093C0008BBEF3012791C65DDE4F65
:10EFB0002883CA52D140A22EBB24CC24DD2408943D
:10EFC000611C711C811C911C8BBEF3018791282E42
:10EFD0003324442455240894611C711C811C911C09
:10EFE0008BBEF3013791C55DDE4F3883CB52D140E4
:10EFF0000894611C711C811C911C8BBEF30147910C
:10F00000C45DDE4F4883CC52D140ADEFEA2EAFEF66
:10F01000FA2EAFEF0A2FAFEF1A2F6E0C7F1C801E57
:10F02000911E142D032DF22CEE24EA0CFB1C0C1D5A
:10F030001D1D0F940DF220E22093C6008091C000A8
:10F0400086FFFCCF8091C00080648093C000C65DC5
:10F05000DE4F8881CA52D1400F940DF230E23093D6
:10F06000C6008091C00086FFFCCF8091C000806404
:10F070008093C000C45DDE4F8881CC52D1400F9494
:10F080000DF240E24093C6008091C00086FFFCCFA5
:10F090008091C00080648093C000C55DDE4F888190
:10F0A000CB52D1400F940DF250E25093C6008091A4
:10F0B000C00086FFFCCF8091C00080648093C000B8
:10F0C0008FEFE8168FEFF80680E0080780E018075A
:10F0D00031F484E092EE60E00F94C2F1DFC0D80119
:10F0E000C7018070907CA070B0708050904CA040A0
:10F0F000B040D1F52FEF3FE340E050E0E222F322B1
:10F1000004231523CA5DDE4FA880B980CA80DB8046
:10F11000C652D140AE0CBF1CC01ED11EAA0CBB1CD7
:10F12000CC1CDD1C8EE092EE60E00F94C2F1BB2798
:10F13000A12F902F8F2D0F940DF28E2D0F940DF285
:10F1400030E23093C6008091C00086FFFCCF8091F2
:10F15000C00080648093C0004EE34093C60080915D
:10F16000C00086FFFCCF87C08EE09EEFA0E0B0E03D
:10F17000E822F9220A231B239CE0E91694E9F90608
:10F1800090E0090790E0190709F088C0C45DDE4FE0
:10F19000A881CC52D140EA2EFF2400E010E0102FCD
:10F1A0000F2DFE2CEE24C55DDE4FB881CB52D14031
:10F1B000EB0EF11C011D111DD601C501817090706F
:10F1C000A070B070DC0199278827E80EF91E0A1F8D
:10F1D0001B1F20EF30E040E050E0A222B322C42207
:10F1E000D52241E1AA0CBB1CCC1CDD1C4A95D1F7F1
:10F1F000EA0CFB1C0C1D1D1D81E090E0A0E0B0E0BE
:10F20000282239224A225B2235E1220C331C441C7D
:10F21000551C3A95D1F7E20CF31C041D151D57013E
:10F220006801AA0CBB1CCC1CDD1C85E192EE60E0E1
:10F230000F94C2F1C801AA27BB270F940DF2BB2778
:10F24000A12F902F8F2D0F940DF28E2D0F940DF274
:10F2500090E29093C6008091C00086FFFCCF809121
:10F26000C00080648093C000AEE3A093C60080918C
:10F27000C00086FFFCCF8091C00080648093C000F6
:10F28000C601AA27BB270F940DF2BB27AD2D9C2DDD
:10F290008B2D0F940DF28A2D0F940DF20F94DCF14B
:10F2A000CC5DDE4FE881F981C452D140F99709F471
:10F2B0004DCBF4E0EF2EF12C012D112D6E0C7F1CA7
:10F2C000801E911EF2CD83E093EE62E00F94F5F183
:10F2D0008AE192EE60E00F94C2F18091C00087FF56
:10F2E000FCCF1091C6001F751093C6008091C0001E
:10F2F00086FFFCCF8091C00080648093C0000F9493
:10F30000DCF1812F81548A3108F036C1163409F4BA
:10F3100095C0173490F4133409F44EC0143430F40B
:10F320001134F1F0123409F01DC130C0143409F465
:10F3300059C0153409F016C16BC01A3409F4C4C0A1
:10F340001B3438F4173409F48FC0183409F00AC19B
:10F35000A1C01B3409F4D2C01C3409F003C1E8C0B9
:10F360008FEF81B90DC082B1809582B980E090E0C5
:10F37000E0EDF7E03197F1F70196883C9105C1F790
:10F380008091C00087FFEFCF12B8EFC08FEF84B934
:10F390000DC085B1809585B980E090E0E0EDF7E0A3
:10F3A0003197F1F70196883C9105C1F78091C00033
:10F3B00087FFEFCF15B8D9C08FEF87B90DC088B1DF
:10F3C000809588B980E090E0E0EDF7E03197F1F7C3
:10F3D0000196883C9105C1F78091C00087FFEFCF6F
:10F3E00018B8C3C08FEF8AB90DC08BB180958BB9A7
:10F3F00080E090E0E0EDF7E03197F1F70196883C8E
:10F400009105C1F78091C00087FFEFCF1BB8ADC059
:10F410008FEF8DB90DC08EB180958EB980E090E0F0
:10F42000E0EDF7E03197F1F70196883C9105C1F7DF
:10F430008091C00087FFEFCF1EB897C08FEF80BBD1
:10F440000DC081B3809581BB80E090E0E0EDF7E0F6
:10F450003197F1F70196883C9105C1F78091C00082
:10F4600087FFEFCF11BA81C08FEF83BB0DC084B38C
:10F47000809584BB80E090E0E0EDF7E03197F1F714
:10F480000196883C9105C1F78091C00087FFEFCFBE
:10F4900014BA6BC08FEF809301010FC080910201FD
:10F4A00080958093020180E090E0E0EDF7E03197F5
:10F4B000F1F70196883C9105C1F78091C00087FF64
:10F4C000EDCF1092020151C08FEF809304010FC065
:10F4D0008091050180958093050180E090E0E0ED4A
:10F4E000F7E03197F1F70196883C9105C1F78091DB
:10F4F000C00087FFEDCF1092050137C08FEF8093DA
:10F5000007010FC08091080180958093080180E079
:10F5100090E0E0EDF7E03197F1F70196883C910536
:10F52000C1F78091C00087FFEDCF109208011DC088
:10F530008FEF80930A010FC080910B01809580931B
:10F540000B0180E090E0E0EDF7E03197F1F70196F4
:10F55000883C9105C1F78091C00087FFEDCF1092E4
:10F560000B0103C085E292EEEEC98091C00087FFD7
:10F57000FCCF8091C600EAC988E392EEE4C98CE131
:10F5800091EEE1C988249924933011F1943028F444
:10F59000913089F09230B8F408C0953061F195301F
:10F5A000F0F0963009F048C043C02B3109F042C951
:10F5B00091E06BE13FC96227C15DDE4F2883CF52E6
:10F5C000D14092E037C9B22FA0E0622793E032C960
:10F5D000822F90E0A82BB92B622794E02BC92E3004
:10F5E00009F039C3622795E0C05DDE4F19821882A9
:10F5F000C053D1401FC9E1E0F0E0EC0FFD1FC05D3A
:10F60000DE4F08811981C053D140E00FF11F2083E4
:10F610000F5F1F4FC05DDE4F19830883C053D14079
:10F6200062270A171B0709F005C9D80196E002C92D
:10F63000261709F010C303C0973009F0FBC87724E0
:10F640009981933109F412C19431C8F4963009F4C8
:10F65000D8C0973050F4923009F406C1933009F4C1
:10F660006DC0913009F059C253C0913109F477C08F
:10F67000923108F0BBC0903109F04FC2F5C098310B
:10F6800009F487C0993150F4953109F4EFC09531F0
:10F6900008F4C6C1963109F040C2C2C19A3109F4DA
:10F6A0006CC09A3108F491C09B3109F45BC09D3164
:10F6B00009F033C29D81903359F48F81882311F46E
:10F6C0009EE11CC0813011F091E018C098E916C08D
:10F6D000892F807591F0903539F4E0E0F0E089E011
:10F6E0008093570094910AC0983539F4E3E0F0E034
:10F6F00089E080935700949101C090E01A821B82A8
:10F700008D818C831D829E831F8227E030E009C299
:10F710001A8288E08B8381E48C8386E58D8382E581
:10F720008E8389E48F8383E5888780E589878FE5E9
:10F730008A8782E38B872BE030E0F3C18A818139AD
:10F7400041F0823941F0803911F48FE005C080E04A
:10F7500003C082E001C08AE01A828B8344C0772410
:10F76000739482C08D81882311F48EE12CC0813086
:10F7700011F081E028C088E926C01A82E1E0F0E0BB
:10F7800089E08093570084918B831C8224E030E0D1
:10F79000C8C18B81803589F48C81883039F4E2E0EE
:10F7A000F0E089E08093570084910DC0E0E0F0E044
:10F7B00089E080935700849106C0E3E0F0E089E09F
:10F7C0008093570084911A82DFCF8D81836C99E0FA
:10F7D000E1E0F0E0082E90935700E89507B600FCB2
:10F7E000FDCF1A821B8223E030E09BC180EC8A832C
:10F7F000CE5CDE4F188219821A821B82C253D1401E
:10F800008EC18A8190E0A0E0B0E0582F44273327D2
:10F8100022278B8190E0A0E0B0E0DC0199278827C7
:10F82000282B392B4A2B5B2B8D8190E0A0E0B0E098
:10F83000282B392B4A2B5B2B8C8190E0A0E0B0E089
:10F84000BA2FA92F982F8827282B392B4A2B5B2BCF
:10F85000220F331F441F551FC05EDE4F288339839C
:10F860004A835B83C052D1401A8259C13A81C95C34
:10F87000DE4F3883C753D140CA5CDE4F1882C6536F
:10F88000D1408B81C82EDD24CA5CDE4F488159816E
:10F89000C653D140C42AD52A933109F082C0CE5C28
:10F8A000DE4F88819981AA81BB81C253D1408050AB
:10F8B000904CA340B04030F583E0CE5CDE4FE88052
:10F8C000F9800A811B81C253D140F70100935B008C
:10F8D00080935700E89507B600FCFDCFCE5CDE4F65
:10F8E000088119812A813B81C253D14000501F4FAA
:10F8F0002F4F3F4FCE5CDE4F088319832A833B8313
:10F90000C253D140C05EDE4F488159816A817B81FC
:10F91000C052D140DE011B9631E08C9111962C91A2
:10F9200011971296C75CDE4F2883C953D140C85C3B
:10F93000DE4F1882C853D14090E0C85CDE4FE881AA
:10F94000F981C853D1408E2B9F2B0C01FA01609393
:10F950005B0030935700E89511244E5F5F4F6F4F67
:10F960007F4F0EEFE02E0FEFF02ECE0CDF1CC114F8
:10F97000D10499F685E0C05EDE4F088119812A81A5
:10F980003B81C052D140F80120935B008093570027
:10F99000E89507B600FCFDCF81E180935700E8951C
:10F9A00035C0C05EDE4F88819981AA81BB81C0527B
:10F9B000D140B695A795979587957C018601ABE0D8
:10F9C000AA2EB12CAC0EBD1E0BC0D5016D915D01F0
:10F9D000C7010F947FFE0894E11CF11C01501040F8
:10F9E0000115110591F7A60160E070E0440F551F65
:10F9F000661F771FC05EDE4FE880F9800A811B8199
:10FA0000C052D1404E0D5F1D601F711F1A82C05E33
:10FA1000DE4F488359836A837B83C052D1407FC0C5
:10FA2000FA80C55CDE4FF882CB53D140C65CDE4F16
:10FA30001882CA53D1408B81C82EDD24C65CDE4FAC
:10FA400008811981CA53D140C02AD12A1A828981DA
:10FA5000BE016D5F7F4F843121F59601C05EDE4FA0
:10FA6000E880F9800A811B81C052D1400BBFF701A9
:10FA700087919691DB018C9311969C936E5F7F4FDB
:10FA8000D801C7010296A11DB11DC05EDE4F88835B
:10FA90009983AA83BB83C052D14022503040F1F6F3
:10FAA00036C0C05EDE4F288139814A815B81C052F9
:10FAB000D1400894C108D108760100E010E0089414
:10FAC000C11CD11C0894E11CF11C011D111DE20E8A
:10FAD000F31E041F151F21BDBB27A52F942F832FB5
:10FAE00082BD2F5F3F4F4F4F5F4FF89A80B5DB01CC
:10FAF0008D93BD012E153F054007510761F7C05E8C
:10FB0000DE4F288339834A835B83C052D1409601FC
:10FB10002D5F3F4FFB01108204C080EC8A8322E0FE
:10FB200030E08BE18093C6008091C00086FFFCCF5F
:10FB30008091C00080648093C000C15DDE4FF88179
:10FB4000CF52D140F093C6008091C00086FFFCCF19
:10FB50008091C00080648093C000432F3093C60022
:10FB60008091C00086FFFCCF8091C00080648093AC
:10FB7000C000922F2093C6008091C00086FFFCCF6A
:10FB80008091C00080648093C0008EE08093C600A6
:10FB90008091C00086FFFCCF8091C000806480937C
:10FBA000C00065E1C15DDE4FE880CF52D1406E25D7
:10FBB00069276427FE01319610C090819093C6009A
:10FBC0008091C00086FFFCCF31968091C000806498
:10FBD0008093C0006927215030402115310569F715
:10FBE0006093C6008091C00086FFFCCF8091C0006A
:10FBF00080648093C00085B1805885B9772081F4F6
:10FC0000C15DDE4F0881CF52D1400F5FC15DDE4F35
:10FC10000883CF52D14090E0A0E0B0E00D941AF4F8
:10FC200027982F9880E090E020ED37E0F901319798
:10FC3000F1F7019684369105C9F700008091C00064
:10FC40008D7F8093C00081E180935700E895EE2777
:10FC5000FF270994FFCF90E00D941AF497FB092E2B
:10FC600007260AD077FD04D02ED006D000201AF443
:10FC7000709561957F4F0895F6F7909581959F4F08
:10FC80000895A1E21A2EAA1BBB1BFD010DC0AA1FDD
:10FC9000BB1FEE1FFF1FA217B307E407F50720F0F5
:10FCA000A21BB30BE40BF50B661F771F881F991F70
:10FCB0001A9469F760957095809590959B01AC01B9
:10FCC000BD01CF010895AA1BBB1B51E107C0AA1FAC
:10FCD000BB1FA617B70710F0A61BB70B881F991FED
:10FCE0005A95A9F780959095BC01CD010895F99991
:10FCF000FECF92BD81BDF89A992780B50895262F31
:10FD0000F999FECF1FBA92BD81BD20BD0FB6F89400
:0EFD1000FA9AF99A0FBE01960895F894FFCF63
:040000033000E000E9
:00000001FF