:100000000C94A4000C94CC000C94CC000C94CC0068
:100010000C94CC000C94CC000C94CC000C94CC0030
:100020000C94CC000C94CC000C94CC000C94CC0020
:100030000C94CC000C94CC000C94CC000C94CC0010
:100040000C9465050C94CC000C9464030C943E0352
:100050000C94CC000C94CC000C94CC000C94CC00F0
:100060000C94DE060C94CC0007634236B79BD8A7ED
:100070001A39685618AEBAAB558C1D3CB7CC5763CD
:10008000BD6DEDFD753EF6177231BF000000803F7B
:1000900008000000BE922449123EABAAAA2ABECD97
:1000A000CCCC4C3E00000080BEABAAAAAA3E000009
:1000B0000000BF000000803F000000000008417801
:1000C000D3BB4387D1133D190E3CC3BD4282AD2B38
:1000D0003E68EC8276BED98FE1A93E4C80EFFFBE30
:1000E00001C4FF7F3F000000000000000000250069
:1000F00028002B0000000000230026002900040433
:1001000004040404040402020202020203030303BF
:10011000030301020408102040800102040810209B
:100120000102040810200000000800020100000382
:100130000407000000000000000000000000240090
:1001400027002A000C080F0A11241FBECFEFD8E0A9
:10015000DEBFCDBF23E0A6EBB1E001C01D92AC3104
:10016000B207E1F711E0A0E0B1E0E8EAF0E202C096
:1001700005900D92A63BB107D9F710E0C3EAD0E095
:1001800004C02197FE010E942C0EC23AD107C9F784
:100190000E945F080C9447100C940000CF92DF92ED
:1001A000EF92FF920F931F93CF93DF936C017A012D
:1001B0008B01C0E0D0E0CE15DF0589F0D8016D914C
:1001C0008D01D601ED91FC910190F081E02DC601E9
:1001D0000995892B11F47E0102C02196ECCFC7014D
:1001E000DF91CF911F910F91FF90EF90DF90CF9013
:1001F0000895FC01538D448D252F30E0842F90E02D
:10020000821B930B541710F0CF9608950197089511
:10021000FC01918D828D981761F0828DDF01A80F0E
:10022000B11D5D968C91928D9F5F9F73928F90E030
:1002300008958FEF9FEF0895FC01918D828D98179F
:1002400031F0828DE80FF11D858D90E008958FEFDC
:100250009FEF0895FC01918D228D892F90E0805CA5
:100260009F4F821B91098F739927089585EC91E028
:100270000E942A0121E0892B09F420E0822F0895B1
:10028000FC01848DDF01A80FB11DA35ABF4F2C9133
:10029000848D90E001968F739927848FA689B78902
:1002A0002C93A089B1898C9180648C93938D848DDB
:1002B000981306C00288F389E02D80818F7D8083AA
:1002C0000895EF92FF920F931F93CF93DF93EC016A
:1002D00081E0888F9B8D8C8D981305C0E889F98902
:1002E000808185FD24C0F62E0B8D10E00F5F1F4F1F
:1002F0000F731127E02E8C8DE8120CC00FB607FC8F
:10030000FACFE889F989808185FFF5CFCE010E9477
:100310004001F1CF8B8DFE01E80FF11DE35AFF4F35
:10032000F0820B8FEA89FB898081806207C0EE89A9
:10033000FF896083E889F98980818064808381E016
:1003400090E0DF91CF911F910F91FF90EF90089572
:10035000CF93DF93EC01888D8823C9F0EA89FB896C
:10036000808185FD05C0A889B9898C9186FD0FC063
:100370000FB607FCF5CF808185FFF2CFA889B98938
:100380008C9185FFEDCFCE010E944001E7CFDF9138
:10039000CF91089580E090E0892B29F00E943601EA
:1003A00081110C9400000895CF93DF93E8E2F1E00F
:1003B0008491E4E1F1E0D491E0E0F1E0C491CC2358
:1003C00091F081110E940005EC2FF0E0EE0FFF1F6D
:1003D000EC50FF4FA591B491EC91ED2381E090E0BA
:1003E00021F480E002C080E090E0DF91CF91089599
:1003F0001F93CF93DF93282F30E0F901EA5DFE4F82
:100400008491F901EE5EFE4FD491F901E250FF4F65
:10041000C491CC23C9F0162F81110E940005EC2F46
:10042000F0E0EE0FFF1FE651FF4FA591B4918FB79B
:10043000F894111105C09C91ED2FE095E92302C0BD
:10044000EC91ED2BEC938FBFDF91CF911F9108952D
:100450000E942910009769F0FC0101900020E9F743
:100460003197AF01481B590BBC0185EC91E00C940E
:10047000CE0080E090E00895CF93DF930E942A029F
:10048000EC018CE291E00E942A028C0F9D1FDF910B
:10049000CF9108958F929F92AF92BF920F931F9327
:1004A000CF93DF93CDB7DEB7A1970FB6F894DEBF39
:1004B0000FBECDBF19A2423008F44AE08E010F5D95
:1004C0001F4F842E912CA12CB12CA50194010E94C8
:1004D0000A0EE62FB901CA0101501109EA3014F4DD
:1004E000E05D01C0E95CD801EC93232B242B252B84
:1004F00061F7C8010E942A02A1960FB6F894DEBFE8
:100500000FBECDBFDF91CF911F910F91BF90AF90E4
:100510009F908F900895CF93DF934AE00E944A0204
:10052000EC018CE291E00E942A028C0F9D1FDF916A
:10053000CF910895CF92DF92EF92FF92CF93DF9306
:100540006B017C01E091C501F091C6010190F08141
:10055000E02D6DE285EC91E00995EC0166277727A7
:10056000CB016C197D098E099F094AE00E944A025D
:100570008C0F9D1FDF91CF91FF90EF90DF90CF9078
:100580000895CF93DF93BC01990F880B990B97FFC8
:1005900003C00E949A0203C04AE00E944A02EC0192
:1005A0008CE291E00E942A028C0F9D1FDF91CF9177
:1005B00008950F931F93CF93DF93EC018881998166
:1005C000009729F02A813B812617370788F48B0191
:1005D0006F5F7F4F0E945F0F009761F09983888360
:1005E0001B830A832C813D81232B11F4FC01108293
:1005F00081E001C080E0DF91CF911F910F910895BC
:10060000CF93DF93EC0188819981009711F00E94CC
:10061000C70E198218821D821C821B821A82DF91EA
:10062000CF910895EF92FF920F931F93CF93DF9393
:10063000EC017B018A01BA010E94D902811104C038
:10064000CE010E94000307C01D830C83B70188817F
:1006500099810E944010CE01DF91CF911F910F919F
:10066000FF90EF90089540E050E06EE271E08CE77B
:1006700092E00E9412038CE792E008951F920F927D
:100680000FB60F9211242F933F934F935F936F9365
:100690007F938F939F93AF93BF93EF93FF9385ECDB
:1006A00091E00E944001FF91EF91BF91AF919F9126
:1006B0008F917F916F915F914F913F912F910F900B
:1006C0000FBE0F901F9018951F920F920FB60F92AA
:1006D00011242F938F939F93EF93FF93E091D50174
:1006E000F091D6018081E091DB01F091DC0182FD87
:1006F00012C090818091DE018F5F8F732091DF01A6
:10070000821751F0E091DE01F0E0EB53FE4F958F40
:100710008093DE0101C08081FF91EF919F918F91C5
:100720002F910F900FBE0F901F9018958091BB01D5
:1007300090E02091BC01821B9109089585ED809382
:10074000BC008091BC0084FDFCCF1092B8010895DC
:100750004091C802262F30E0240F311D213231058F
:10076000DCF42091B8012430C9F4FC0180E090E071
:10077000861758F43091C8022191DC01A855BD4F6D
:10078000A30FB11D2C930196F3CF8091C802680F7F
:100790006093C80280E0089581E0089582E00895A2
:1007A000E091A602F091A702309729F01092BA01C9
:1007B0001092B90109940895CF93DF93AC01E091B1
:1007C000C101F091C2013097F1F09091BC0180918C
:1007D000BB019817C0F090E0292F30E026173707AB
:1007E00054F4D901AA57BD4FEA01C20FD31F888123
:1007F0008C939F5FF1CF1092BC016093BB01CB0142
:10080000DF91CF910994DF91CF9108950895E09100
:10081000BC018091BB01E81730F4F0E0EA57FD4FCE
:10082000808190E008958FEF9FEF08959091BC0133
:100830008091BB01981750F4E92FF0E0EA57FD4F83
:10084000208130E09F5F9093BC0102C02FEF3FEF0B
:10085000C9010895CF93DF9300D0CDB7DEB7CB01A8
:10086000642F49835A830E94A8034981842F5A81A7
:10087000952F0F900F90DF91CF910895CF93DF9335
:100880001F92CDB7DEB7698361E0CE0101960E9469
:10089000A80381E090E00F90DF91CF910895089533
:1008A00080E090E008950F931F93CF93DF93CDB72F
:1008B000DEB728970FB6F894DEBF0FBECDBF8EE728
:1008C00091E00E943C020E9433039091BB01809111
:1008D000BC01981709F465C082E692E00E941604F4
:1008E000182F809300011A8219821C821B821E829B
:1008F0001D8260917C0270917D026115710549F045
:100900004091800250918102CE0101960E94120313
:1009100004C0CE0101960E9400031F8318860D813A
:100920001E810F5F1F4FB801CE0101960E94D902B0
:10093000882371F029813A818D819E81BE01695F92
:100940007F4F820F931F0E9440101E830D8304C0AF
:10095000CE0101960E94000369817A8161157105BB
:1009600039F04D815E818CE792E00E94120304C051
:100970008CE792E00E94000389819A810E94C70E51
:10098000409180025091810260917C0270917D02C1
:1009900085EC91E00E94CE008CE291E00E942A0258
:1009A00094CF8091800290918102892BF1F0009187
:1009B0007C0210917D0268E671E0C8010E94371048
:1009C000892B31F48FEC96E09093C2018093C101A2
:1009D00062E971E0C8010E943710892B31F480EC84
:1009E00096E09093C2018093C10128960FB6F894C7
:1009F000DEBF0FBECDBFDF91CF911F910F91089544
:100A0000833081F028F4813099F08230A1F008958C
:100A10008730A9F08830B9F08430D1F4809180001B
:100A20008F7D03C0809180008F7780938000089530
:100A300084B58F7702C084B58F7D84BD0895809181
:100A4000B0008F7703C08091B0008F7D8093B0009D
:100A50000895CF93DF9390E0FC01EE5EFE4F24916A
:100A6000FC01E250FF4F8491882361F190E0880FF0
:100A7000991FFC01E65CFE4FC591D491FC01E65143
:100A8000FF4FA591B491611109C09FB7F894888177
:100A9000209582238883EC912E230BC0623061F471
:100AA0009FB7F8943881822F809583238883EC91B7
:100AB0002E2B2C939FBF06C08FB7F894E8812E2B66
:100AC00028838FBFDF91CF9108951F920F920FB6A9
:100AD0000F9211242F933F938F939F93AF93BF93C4
:100AE0008091140390911503A0911603B091170300
:100AF0003091130323E0230F2D3720F40196A11D1D
:100B0000B11D05C026E8230F0296A11DB11D20933B
:100B100013038093140390931503A0931603B093CB
:100B2000170380910F0390911003A0911103B091CE
:100B300012030196A11DB11D80930F039093100322
:100B4000A0931103B0931203BF91AF919F918F9126
:100B50003F912F910F900FBE0F901F9018956F929D
:100B60007F928F929F92AF92BF92CF92DF92EF923D
:100B7000FF920F931F93CF93DF9300D000D0CDB798
:100B8000DEB73C01FC0115821482178216821186A1
:100B900010861386128689E991E00E943C02730157
:100BA000F4E0EF0EF11C670100E010E09091BB0152
:100BB0008091BC019817C1F082E692E00E94160471
:100BC0005601F601819391936F0188EA91E00E94AA
:100BD0002A02C8010E94C102F501808191810E9410
:100BE000C1020F5F1F4FE2CF8DEA91E00E943C02ED
:100BF000F30110821182128213821586148600E09E
:100C000010E0CC24C394D12CF7018081918197FF0F
:100C100016C081EB91E00F900F900F900F90DF9135
:100C2000CF911F910F91FF90EF90DF90CF90BF90E9
:100C3000AF909F908F907F906F900C943C020E9499
:100C4000C1020115110599F4F30184819581092EE2
:100C5000000CAA0BBB0B4081518162817381840F10
:100C6000951FA61FB71F80839183A283B383F701CB
:100C7000A190B1907F01A114B10459F2B801012EE5
:100C8000000C880B990B0E94170A9B01AC0160E0D5
:100C900070E080E893E40E94130C9B01AC01B50165
:100CA0000B2C000C880B990B29833A834B835C83B4
:100CB0000E94170A29813A814B815C810E94760A41
:100CC0009B01AC0129833A834B835C830E94D80B40
:100CD00029813A814B815C81F301A616B70619F090
:100CE0007587648702C0D586C486F301A484B58461
:100CF000B5010B2C000C880B990B29833A834B838D
:100D00005C830E94170A29813A814B815C810E9491
:100D10006B0B20E030E0A9010E940E0C181634F491
:100D2000FFEFAF1ABF0AF301B586A486F30164850D
:100D30007585AB01770F660B770B80819181A2815E
:100D4000B3814A015B01880E991EAA1EBB1EC50114
:100D5000B40180829182A282B382B7FE03C00E9456
:100D60009A0203C04AE00E944A028CE291E00E948B
:100D70002A020F5F1F4F0430110509F045CF49CFFC
:100D80008EE692E00E94AF0581EB91E00E943C026A
:100D900082E090E09093C4018093C30108958EE6B1
:100DA00092E00E94AF0581EB91E00E943C0281E05D
:100DB00090E09093C4018093C30108951F920F9215
:100DC0000FB60F9211242F933F934F935F936F931E
:100DD0007F938F939F93AF93BF93EF93FF938091F4
:100DE000B900887F803609F49CC068F5883209F420
:100DF0005BC090F4803109F454C038F4882309F4BE
:100E0000F6C0883009F44DC0F6C0883109F44CC0F2
:100E1000803209F45DC0EFC0803409F468C048F442
:100E2000803309F455C0883309F0E5C08093EB02A4
:100E3000D8C0803509F44FC0883509F45DC08834C6
:100E400009F0D9C0D6C0883909F4C7C0A8F48837DA
:100E500009F467C038F4883609F463C0803709F4B0
:100E600060C0C9C0883809F4B8C0803909F45FC0CF
:100E7000803809F0C0C05BC0803B09F486C038F4FC
:100E8000803A09F466C0883A09F47FC0B4C0803C57
:100E900009F4A7C0883C09F4A4C0883B09F48AC0BF
:100EA000AAC080910E0310C090910D0380910C0395
:100EB000981770F5E0910D0381E08E0F80930D037C
:100EC000F0E0E451FD4F80818093BB0085EC86C04B
:100ED0008093EB028EC0E0910D0381E08E0F809332
:100EE0000D038091BB00F0E0E451FD4F80839091B1
:100EF0000D0380910C036EC0E0910D0381E08E0F15
:100F000080930D038091BB00F0E0E451FD4F80839E
:100F10008091B70181116DC081E08093B60184EAB0
:100F200061C083E08093B8011092EA02CFCF809134
:100F3000EA02803208F051C0E091EA0281E08E0FAF
:100F40008093EA028091BB00F0E0E653FD4F80837E
:100F5000BDCF85EC8093BC001092B8018091EA026D
:100F6000803230F4E091EA02F0E0E653FD4F108267
:100F70006091EA0270E0E091BD01F091BE018AEC5F
:100F800092E009951092EA0236C084E08093B8019D
:100F90001092C9021092C802E091BF01F091C00105
:100FA00009958091C802811105C081E08093C80233
:100FB0001092A802E091C90281E08E0F8093C902CD
:100FC000F0E0E855FD4F80818093BB009091C9020D
:100FD0008091C802981708F479CF85E88093BC0007
:100FE0000AC085EC8093BC001092B80104C0109236
:100FF000EB020E949E03FF91EF91BF91AF919F91F1
:101000008F917F916F915F914F913F912F910F90B1
:101010000FBE0F901F901895E5ECF1E0138212823D
:1010200088EE93E0A0E0B0E084839583A683B78345
:101030002CE031E03183208325EC30E035872487B4
:1010400024EC30E03787268720EC30E0318B208B92
:1010500021EC30E0338B228B22EC30E0358B248B7B
:1010600026EC30E0378B268B118E128E138E148E69
:10107000E2E6F2E01382128284839583A683B7832B
:101080008EE191E091838083ECE7F2E0118210829F
:10109000138212821582148240E050E06EE271E009
:1010A000CF010E94120310926E0210926F021092F2
:1010B0007002109271028EE692E00C94AF05789463
:1010C00084B5826084BD84B5816084BD85B582604D
:1010D00085BD85B5816085BD80916E0081608093FE
:1010E0006E00109281008091810082608093810067
:1010F0008091810081608093810080918000816077
:10110000809380008091B10084608093B1008091D1
:10111000B00081608093B00080917A0084608093F9
:101120007A0080917A00826080937A0080917A00C0
:10113000816080937A0080917A00806880937A0041
:101140001092C100C6E0C093BA0080ED93E0909386
:10115000C0018093BF018CED93E09093BE0180931A
:10116000BD011092BC011092BB011092BA01109205
:10117000B9011092B80181E08093B7011092B601D5
:1011800061E082E10E94F80161E083E10E94F801E0
:101190008091B9008E7F8093B9008091B9008D7FD6
:1011A0008093B90088E48093B80085E48093BC0004
:1011B00083E594E09093C2018093C101E091D50151
:1011C000F091D60182E08083E091D101F091D201CB
:1011D0001082E091D301F091D4018FEC80831092C2
:1011E000DD01E091D901F091DA01C083E091D701EE
:1011F000F091D801808180618083E091D701F091E6
:10120000D801808188608083E091D701F091D80176
:10121000808180688083E091D701F091D80180813E
:101220008F7D808361E080E10E9429058FE291E05B
:101230000E943C0260E082E00E94290561E08FE0AC
:101240000E94290561E08EE00E94290561E080E1AD
:101250000E94290560E082E00E94F801C3EED3E01D
:1012600003E514E08091800290918102892BA1F125
:1012700061E471E080917C0290917D020E943710C0
:10128000892B51F581E491E00E943C020E943303D6
:1012900061E08EE00E94F8010E94D401019771F490
:1012A00061E08FE00E94F801CE010197F1F760E064
:1012B0008FE00E94F801CE010197F1F70E94D4015E
:1012C000892B31F787E491E00E943C020E943303AE
:1012D00082E591E00E943C028091C3019091C4019B
:1012E000019709F04BC08EE591E00E943C026091AD
:1012F0006E0270916F028091700290917102609302
:1013000082027093830280938402909385020E94EC
:101310008B0260E080E10E94F80161E08EE00E94B3
:10132000F801C0908202D0908302E0908402F09095
:101330008502C701B6010E948B02C114D104E104E9
:10134000F104A1F061E08FE00E94F801CE01019765
:10135000F1F760E08FE00E94F801CE010197F1F70C
:1013600081E0C81AD108E108F108E7CF1092C40162
:101370001092C3011093C2010093C1018091C30177
:101380009091C401029709F047C08EE691E00E9457
:101390003C0260916E0270916F0280917002909198
:1013A000710260938202709383028093840290930F
:1013B00085020E948B0260E080E10E94F80160E0FB
:1013C0008EE00E94F801C0908202D0908302E090EB
:1013D0008402F0908502C114D104E104F104A1F06B
:1013E00061E08FE00E94F801CE010197F1F760E023
:1013F0008FE00E94F801CE010197F1F781E0C81A51
:10140000D108E108F108E7CF1092C4011092C3019E
:101410001093C2010093C1010E94CA0123CF8091A1
:101420007C0290917D020C94C70EE89409C097FB52
:101430003EF490958095709561957F4F8F4F9F4FAB
:101440009923A9F0F92F96E9BB279395F6958795EF
:1014500077956795B795F111F8CFFAF4BB0F11F4B2
:1014600060FF1BC06F5F7F4F8F4F9F4F16C0882359
:1014700011F096E911C0772321F09EE8872F762F8F
:1014800005C0662371F096E8862F70E060E02AF0D0
:101490009A95660F771F881FDAF7880F96958795BC
:1014A00097F90895990F0008550FAA0BE0E8FEEF91
:1014B00016161706E807F907C0F012161306E40718
:1014C000F50798F0621B730B840B950B39F40A2611
:1014D00061F0232B242B252B21F408950A2609F4EF
:1014E000A140A6958FEF811D811D08950E94890A54
:1014F0000C94FA0A0E94EC0A38F00E94F30A20F0D9
:10150000952311F00C94E30A0C94E90A11240C942D
:101510002E0B0E940B0B70F3959FC1F3950F50E0BB
:10152000551F629FF001729FBB27F00DB11D639F95
:10153000AA27F00DB11DAA1F649F6627B00DA11D3B
:10154000661F829F2227B00DA11D621F739FB00DE1
:10155000A11D621F839FA00D611D221F749F332751
:10156000A00D611D231F849F600D211D822F762FEA
:101570006A2F11249F5750409AF0F1F088234AF0C7
:10158000EE0FFF1FBB1F661F771F881F9150504033
:10159000A9F79E3F510580F00C94E30A0C942E0BA2
:1015A0005F3FE4F3983ED4F3869577956795B795BA
:1015B000F795E7959F5FC1F7FE2B880F911D9695D4
:1015C000879597F9089597F99F6780E870E060E044
:1015D00008959FEF80EC089500240A9416161706CC
:1015E00018060906089500240A9412161306140614
:1015F00005060895092E0394000C11F4882352F077
:10160000BB0F40F4BF2B11F460FF04C06F5F7F4F2E
:101610008F4F9F4F089557FD9058440F551F59F015
:101620005F3F71F04795880F97FB991F61F09F3FCF
:1016300079F087950895121613061406551FF2CFF8
:101640004695F1DF08C0161617061806991FF1CF48
:1016500086957105610508940895E894BB2766276F
:101660007727CB0197F908952F923F924F925F927F
:101670006F927F928F929F92AF92BF92CF92DF92A2
:10168000EF92FF920F931F93CF93DF93CDB7DEB707
:10169000CA1BDB0B0FB6F894DEBF0FBECDBF09949B
:1016A0002A88398848885F846E847D848C849B84F2
:1016B000AA84B984C884DF80EE80FD800C811B8100
:1016C000AA81B981CE0FD11D0FB6F894DEBF0FBE2F
:1016D000CDBFED0108955058BB27AA270E94830B68
:1016E0000C94FA0A0E94EC0A38F00E94F30A20F0E7
:1016F00039F49F3F19F426F40C94E90A0EF4E095AE
:10170000E7FB0C94E30AE92F0E940B0B58F3BA177E
:10171000620773078407950720F079F4A6F50C9407
:101720002D0B0EF4E0950B2EBA2FA02D0B01B90155
:1017300090010C01CA01A0011124FF27591B99F047
:10174000593F50F4503E68F11A16F040A22F232F53
:10175000342F4427585FF3CF469537952795A795A3
:10176000F0405395C9F77EF41F16BA0B620B730B4A
:10177000840BBAF09150A1F0FF0FBB1F661F771FBB
:10178000881FC2F70EC0BA0F621F731F841F48F470
:10179000879577956795B795F7959E3F08F0B0CFF9
:1017A0009395880F08F09927EE0F979587950895E0
:1017B0000E94DF0B6894B1110C942E0B08950E94C7
:1017C000130B88F09F5798F0B92F9927B751B0F0B5
:1017D000E1F0660F771F881F991F1AF0BA95C9F7B5
:1017E00014C0B13091F00E942D0BB1E008950C941B
:1017F0002D0B672F782F8827B85F39F0B93FCCF3CE
:10180000869577956795B395D9F73EF49095809531
:10181000709561957F4F8F4F9F4F08950E94520A98
:1018200008F48FEF0895FA01EE0FFF1F309621059F
:101830003105A1F16115710561F48038BFE39B07A3
:1018400049F168949038810561F08038BFEF9B07BB
:1018500041F099234AF5FF3FE1053105210519F1D2
:10186000E8940894E795D901AA2329F4AB2FBE2F59
:10187000F85FD0F310C0FF5F70F4A695E0F7F7397A
:1018800050F019F0FF3A38F49F779F930DD00F90E6
:1018900007FC9058089546F00C94E90A60E070E067
:1018A00080E89FE308954FE79F775F934F933F93BF
:1018B0002F930E940E0D2F913F914F915F910E94A7
:1018C000760A0C946B0C29F416F00C94E30A0C9431
:1018D0002D0B0C94E90A0E94130BA8F39638A0F77D
:1018E00007F80F92E8942BE33AEA48EB5FE70E948F
:1018F0008C0A0F920F920F924DB75EB70F920E9413
:10190000560DE8E6F0E00E949D0C4F915F91EF913B
:10191000FF91E595EE1FFF1F49F0FE57E068442751
:10192000EE0F441FFA95E1F74195550B0E94D00C3C
:101930000F9007FE0C94C40C0895DF93CF931F9370
:101940000F93FF92EF92DF927B018C01689406C0A7
:10195000DA2EEF010E94890AFE01E894A5912591F3
:10196000359145915591A6F3EF010E94830BFE013D
:101970009701A801DA9469F7DF90EF90FF900F913B
:101980001F91CF91DF9108959B01AC0160E070E061
:1019900080E89FE30C948A0D0C94E30A0C94FC0DF0
:1019A0000E94130BD8F39923C9F3940F511DA3F38D
:1019B0009150504094F059F0882332F0660F771F11
:1019C000881F91505040C1F79E3F51052CF7880F5A
:1019D000911D9695879597F908955F3FACF0983ED5
:1019E0009CF0BB27869577956795B79508F4B1600D
:1019F0009395C1F7BB0F58F711F460FFE8CF6F5F05
:101A00007F4F8F4F9F4FE3CF0C942E0B16F00C940B
:101A1000FC0D0C94E90A68940C94E30A0E94130BE1
:101A2000A8F39923C1F3AEF3DF93CF931F930F93E2
:101A3000FF92C92FDD2788232AF02197660F771F91
:101A4000881FDAF720E030E040E85FEB9FE3883959
:101A500020F0803E38F021968F770E946C0BE0E9F1
:101A6000F0E004C00E946C0BEDEBF0E00E949D0CD6
:101A70008B01BE01EC01FB2E6F5771097595771F25
:101A8000880B990B0E94170A28E132E741E35FE3D4
:101A90000E94890AAF2D9801AE01FF900F911F910E
:101AA000CF91DF910E94830B0C94FA0AFA01DC01BA
:101AB000AA0FBB1F9B01AC01BF5728F42227332775
:101AC0004427507820C0B75190F4AB2F002446959E
:101AD00037952795011CA395D2F3002071F0220FB2
:101AE000331F441FB395DAF30ED00C946B0B6130A7
:101AF0007105A0E88A07B94630F49B01AC0166275E
:101B0000772788279078309621F02083318342838D
:101B1000538308950E949E0D0C94FA0A0E94F30AC2
:101B200058F00E94EC0A40F029F45F3F29F00C9431
:101B3000E30A51110C942E0B0C94E90A0E940B0B32
:101B400068F39923B1F3552391F3951B550BBB27EC
:101B5000AA2762177307840738F09F5F5F4F220F31
:101B6000331F441FAA1FA9F335D00E2E3AF0E0E828
:101B700032D091505040E695001CCAF72BD0FE2F72
:101B800029D0660F771F881FBB1F26173707480706
:101B9000AB07B0E809F0BB0B802DBF01FF279358BE
:101BA0005F4F3AF09E3F510578F00C94E30A0C9495
:101BB0002E0B5F3FE4F3983ED4F3869577956795B7
:101BC000B795F7959F5FC9F7880F911D96958795F3
:101BD00097F90895E1E0660F771F881FBB1F621712
:101BE00073078407BA0720F0621B730B840BBA0BD0
:101BF000EE1F88F7E09508959F3F31F0915020F453
:101C0000879577956795B795880F911D96958795D8
:101C100097F90895A1E21A2EAA1BBB1BFD010DC066
:101C2000AA1FBB1FEE1FFF1FA217B307E407F5078C
:101C300020F0A21BB30BE40BF50B661F771F881F68
:101C4000991F1A9469F760957095809590959B01FE
:101C5000AC01BD01CF010895EE0FFF1F0590F49177
:101C6000E02D0994CF93DF938230910510F482E048
:101C700090E0E0911A03F0911B0320E030E0C0E017
:101C8000D0E0309711F14081518148175907C0F0D9
:101C90004817590761F482819381209719F09B833B
:101CA0008A832BC090931B0380931A0326C02115AF
:101CB000310519F04217530718F49A01BE01DF01EC
:101CC000EF010280F381E02DDCCF2115310509F110
:101CD000281B390B2430310590F412968D919C917C
:101CE00013976115710521F0FB019383828304C072
:101CF00090931B0380931A03FD01329644C0FD01AB
:101D0000E20FF31F81939193225031092D933C935D
:101D10003AC02091180330911903232B41F42091EC
:101D2000030130910401309319032093180320918B
:101D30000101309102012115310541F42DB73EB763
:101D40004091050150910601241B350BE0911803C9
:101D5000F0911903E217F307A0F42E1B3F0B28178D
:101D6000390778F0AC014E5F5F4F2417350748F014
:101D70004E0F5F1F50931903409318038193919363
:101D800002C0E0E0F0E0CF01DF91CF9108950F9322
:101D90001F93CF93DF93009709F48CC0FC01329717
:101DA0001382128200911A0310911B030115110571
:101DB00081F420813181820F931F2091180330918B
:101DC00019032817390779F5F0931903E0931803DD
:101DD00071C0D80140E050E0AE17BF0750F4129632
:101DE0002D913C911397AD012115310509F1D901D0
:101DF000F3CF9D01DA013383228360817181860FE5
:101E0000971F8217930769F4EC0128813981260F07
:101E1000371F2E5F3F4F318320838A819B819383BD
:101E20008283452B29F4F0931B03E0931A0342C0ED
:101E30001396FC93EE931297ED01499159919E01EF
:101E4000240F351FE217F30771F480819181840F0D
:101E5000951F029611969C938E938281938113967F
:101E60009C938E931297E0E0F0E0D80112968D914A
:101E70009C911397009719F0F8018C01F6CF8D9182
:101E80009C9198012E5F3F4F820F931F2091180362
:101E9000309119032817390769F4309729F4109203
:101EA0001B0310921A0302C01382128210931903AB
:101EB00000931803DF91CF911F910F910895A0E037
:101EC000B0E0E5E6FFE00C94380BEC01009721F45C
:101ED000CB010E94320EB8C0FC01E60FF71F9C0137
:101EE00022503109E217F30708F4ACC0D9010D9173
:101EF0001C91119706171707B0F00530110508F46B
:101F00009FC0C80104978617970708F499C002502C
:101F10001109061B170B019311936D937C93CF014D
:101F20000E94C70E8DC05B01A01AB10A4C01800E41
:101F3000911EA0911A03B0911B0340E050E0E12CE8
:101F4000F12C109709F44AC0A815B905D1F56D9088
:101F50007C901197630182E0C80ED11CCA14DB0487
:101F600080F1A3014A195B096A0182E0C80ED11C05
:101F70001296BC9012971396AC91B5E0CB16D10493
:101F800040F0B282A38351834083D9016D937C9347
:101F90000AC00E5F1F4FC301800F911FF90191838B
:101FA0008083EB2DFA2FE114F10431F0D701139661
:101FB000FC93EE93129744C0F0931B03E0931A0333
:101FC0003FC08D919C9111974817590708F4AC01B7
:101FD0007D0112960D90BC91A02DB3CF8091180376
:101FE0009091190388159905E1F446175707C8F42D
:101FF0008091010190910201009741F48DB79EB745
:102000004091050150910601841B950BE817F907D3
:10201000C8F4F0931903E0931803F9017183608306
:102020000FC0CB010E94320E7C01009759F0A8012D
:10203000BE010E942E10CE010E94C70EC70104C02F
:10204000CE0102C080E090E0CDB7DEB7EEE00C94A8
:10205000540B81E090E0F8940C944710FB01DC01F4
:1020600002C001900D9241505040D8F70895FB01F5
:10207000DC018D91019080190110D9F3990B08951D
:10208000FB01DC0101900D920020E1F7089510E0C2
:10209000C3EAD0E004C0FE010E942C0E2196C43A8F
:0820A000D107C9F7F894FFCF46
:1020A8003000001C03800001000000006101CE0028
:1020B800F900A8012A0108011C01000000003E04E3
:1020C8002A04500406049603160407040D0A002D7A
:1020D8002D3E20536C61766520332052656164790A
:1020E8000072657365740073656E73657220204FA6
:1020F8004B0072657365742020454E4420002D2DD9
:102108003E205475726E31207374617274002D2DE7
:102118003E205475726E3220737461727400536C71
:102128006176652033207265636569766520676529
:10213800740073746172743200576972652E617627
:1021480061696C61626C650069203D2000416464CE
:0621580000656E6400004A
:00000001FF
