:100000000C949F000C94C7000C94C7000C94C7007C
:100010000C94C7000C94C7000C94C7000C94C70044
:100020000C94C7000C94C7000C94C7000C94C70034
:100030000C94C7000C94C7000C94C7000C94C70024
:100040000C94D0040C94C7000C9440050C941A0531
:100050000C94C7000C94C7000C94C7000C94C70004
:100060000C9472050C94C70007634236B79BD8A75F
:100070001A39685618AEBAAB558C1D3CB7CC5763CD
:10008000BD6DEDFD753EF6177231BF000000803F7B
:1000900008000000BE922449123EABAAAA2ABECD97
:1000A000CCCC4C3E00000080BEABAAAAAA3E000009
:1000B0000000BF000000803F000000000008417801
:1000C000D3BB4387D1133D190E3CC3BD4282AD2B38
:1000D0003E68EC8276BED98FE1A93E4C80EFFFBE30
:1000E00001C4FF7F3F00000000000000000024006A
:1000F00027002A0000000000250028002B0004042F
:1001000004040404040402020202020203030303BF
:10011000030301020408102040800102040810209B
:100120000102040810200000000800020100000382
:1001300004070000000000000000A0063909112497
:100140001FBECFEFD8E0DEBFCDBF22E0ACE8B1E00C
:1001500001C01D92AE3EB207E1F711E0A0E0B1E0B0
:10016000ECEFFEE102C005900D92AC38B107D9F773
:1001700010E0CEE9D0E004C02197FE010E94560DA8
:10018000CD39D107C9F70E9440080C94710F0C9427
:10019000000080912C0290E020912B02821B91099B
:1001A0000895CF92DF92EF92FF920F931F93CF9318
:1001B000DF936C017A018B01C0E0D0E0CE15DF0542
:1001C00089F0D8016D918D01D601ED91FC910190DE
:1001D000F081E02DC6010995892B11F47E0102C042
:1001E0002196ECCFC701DF91CF911F910F91FF9026
:1001F000EF90DF90CF900895E091AC01F091AD01C8
:10020000309729F01092190210921802099408955B
:10021000CF93DF93AC01E0911E02F0911F02309763
:10022000F1F090912B0280912C029817C0F090E091
:10023000292F30E02617370754F4D901A457BE4FB1
:10024000EA01C20FD31F88818C939F5FF1CF109278
:100250002B0260932C02CB01DF91CF910994DF91A7
:10026000CF910895FC01538D448D252F30E0842FCC
:1002700090E0821B930B541710F0CF9608950197CE
:100280000895FC01918D828D981761F0828DDF01B8
:10029000A80FB11D5D968C91928D9F5F9F73928F79
:1002A00090E008958FEF9FEF0895FC01918D828D6E
:1002B000981731F0828DE80FF11D858D90E008953B
:1002C0008FEF9FEF0895FC01918D228D892F90E093
:1002D000805C9F4F821B91098F739927089589E352
:1002E00092E00E94630121E0892B09F420E0822F33
:1002F0000895FC01848DDF01A80FB11DA35ABF4FE3
:100300002C91848D90E001968F739927848FA68914
:10031000B7892C93A089B1898C9180648C93938D3B
:10032000848D981306C00288F389E02D80818F7D2B
:1003300080830895EF92FF920F931F93CF93DF93E3
:10034000EC0181E0888F9B8D8C8D981305C0E88926
:10035000F989808185FD24C0F62E0B8D10E00F5F9A
:100360001F4F0F731127E02E8C8DE8120CC00FB6B3
:1003700007FCFACFE889F989808185FFF5CFCE01A6
:100380000E947901F1CF8B8DFE01E80FF11DE35A38
:10039000FF4FF0820B8FEA89FB898081806207C062
:1003A000EE89FF896083E889F98980818064808390
:1003B00081E090E0DF91CF911F910F91FF90EF903E
:1003C0000895CF93DF93EC01888D8823C9F0EA89E3
:1003D000FB89808185FD05C0A889B9898C9186FD3E
:1003E0000FC00FB607FCF5CF808185FFF2CFA8893B
:1003F000B9898C9185FFEDCFCE010E947901E7CFBD
:10040000DF91CF91089580E090E0892B29F00E9440
:100410006F0181110C940000089590E0FC01EA5DE9
:10042000FE4F3491FC01EE5EFE4F2491FC01E25040
:10043000FF4FE491EE2309F43BC0332339F133300D
:1004400091F038F43130A9F0323001F584B58F7D68
:1004500012C0373091F03830A1F03430B9F48091C7
:1004600080008F7D03C0809180008F778093800013
:100470000DC084B58F7784BD09C08091B0008F779F
:1004800003C08091B0008F7D8093B000F0E0EE0F4C
:10049000FF1FEC50FF4FA591B4918FB7F894EC91EA
:1004A000611103C020952E2301C02E2B2C938FBFEA
:1004B0000895CF93DF9390E0FC01EE5EFE4F249110
:1004C000FC01E250FF4F8491882361F190E0880F96
:1004D000991FFC01E651FF4FC591D491FC01EC50EE
:1004E000FF4FA591B491611109C09FB7F89488811D
:1004F000209582238883EC912E230BC0623061F417
:100500009FB7F8943881822F809583238883EC915C
:100510002E2B2C939FBF06C08FB7F894E8812E2B0B
:1005200028838FBFDF91CF91089585ED8093BC0024
:100530008091BC0084FDFCCF109217020895409179
:10054000CE01262F30E0240F311D21323105DCF49D
:10055000209117022430C9F4FC0180E090E0861756
:1005600058F43091CE012191DC01A255BE4FA30F6A
:10057000B11D2C930196F3CF8091CE01680F60934B
:10058000CE0180E0089581E0089582E00895089505
:10059000E0912B0280912C02E81730F4F0E0E45750
:1005A000FE4F808190E008958FEF9FEF0895909126
:1005B0002B0280912C02981750F4E92FF0E0E457B9
:1005C000FE4F208130E09F5F90932B0202C02FEFFF
:1005D0003FEFC9010895CF93DF9300D0CDB7DEB7C9
:1005E000CB01642F49835A830E949F024981842F43
:1005F0005A81952F0F900F90DF91CF910895CF934F
:10060000DF931F92CDB7DEB7698361E0CE0101961B
:100610000E949F0281E090E00F90DF91CF910895BA
:10062000089580E090E00895009769F0FC01019042
:100630000020E9F73197AF01481B590BBC0189E352
:1006400092E00C94D10080E090E00895CF93DF9386
:100650000E941403EC018BE291E00E9414038C0FC2
:100660009D1FDF91CF9108958F929F92AF92BF927D
:100670000F931F93CF93DF93CDB7DEB7A1970FB63C
:10068000F894DEBF0FBECDBF19A2423008F44AE095
:100690008E010F5D1F4F842E912CA12CB12CA50132
:1006A00094010E94340DE62FB901CA0101501109CD
:1006B000EA3014F4E05D01C0E95CD801EC93232B2F
:1006C000242B252B61F7C8010E941403A1960FB6B5
:1006D000F894DEBF0FBECDBFDF91CF911F910F9178
:1006E000BF90AF909F908F900895CF92DF92EF923E
:1006F000FF92CF93DF936B017C01E0913902F0917F
:100700003A020190F081E02D6DE289E392E00995D3
:10071000EC0166277727CB016C197D098E099F09AB
:100720004AE00E9434038C0F9D1FDF91CF91FF9010
:10073000EF90DF90CF900895CF93DF93BC01990F96
:10074000880B990B97FF03C00E94750303C04AE012
:100750000E943403EC018BE291E00E9414038C0FA1
:100760009D1FDF91CF9108950F931F93CF93DF9338
:10077000EC0188819981009729F02A813B81261715
:10078000370788F48B016F5F7F4F0E94890E0097B7
:1007900061F0998388831B830A832C813D81232BFD
:1007A00011F4FC01108281E001C080E0DF91CF9163
:1007B0001F910F910895CF93DF93EC018881998168
:1007C000009711F00E94F10D198218821D821C827F
:1007D0001B821A82DF91CF910895EF92FF920F93BF
:1007E0001F93CF93DF93EC017B018A01BA010E9432
:1007F000B403811104C0CE010E94DB0307C01D8336
:100800000C83B701888199810E946A0FCE01DF9124
:10081000CF911F910F91FF90EF9008950E94530F79
:100820000F931F93CF93DF93CDB7DEB728970FB603
:10083000F894DEBF0FBECDBF8EE291E00E9426038A
:1008400040E050E06DE271E084EE92E00E94ED0342
:1008500090912C0280912B02981709F465C08DE2CB
:1008600092E00E94D702182F809300011A82198209
:100870001C821B821E821D826091E4027091E5023F
:100880006115710549F04091E8025091E902CE01ED
:1008900001960E94ED0304C0CE0101960E94DB0385
:1008A0001F8318860D811E810F5F1F4FB801CE0177
:1008B00001960E94B403882371F029813A818D81C9
:1008C0009E81BE01695F7F4F820F931F0E946A0F56
:1008D0001E830D8304C0CE0101960E94DB03698153
:1008E0007A816115710539F04D815E8184EE92E067
:1008F0000E94ED0304C084EE92E00E94DB03898134
:100900009A810E94F10D4091E8025091E9026091B4
:10091000E4027091E50289E392E00E94D1008BE24B
:1009200091E00E94140394CF8091E8029091E90233
:10093000892B59F10091E4021091E50262E471E023
:10094000C8010E94610F892B31F481E090E09093FF
:1009500021028093200267E471E0C8010E94610FC8
:10096000892B31F482E090E0909321028093200261
:100970006DE471E0C8010E94610F892B31F483E0BE
:1009800090E0909321028093200228960FB6F8946D
:10099000DEBF0FBECDBFDF91CF911F910F910895A4
:1009A0001F920F920FB60F9211242F933F938F93A4
:1009B0009F93AF93BF938091270290912802A091BB
:1009C0002902B0912A023091260223E0230F2D370D
:1009D00020F40196A11DB11D05C026E8230F029643
:1009E000A11DB11D20932602809327029093280217
:1009F000A0932902B0932A028091220290912302AF
:100A0000A0912402B09125020196A11DB11D8093F1
:100A1000220290932302A0932402B0932502BF9157
:100A2000AF919F918F913F912F910F900FBE0F909B
:100A30001F9018951F920F920FB60F9211242F93AB
:100A40003F934F935F936F937F938F939F93AF9356
:100A5000BF93EF93FF9389E392E00E947901FF91A6
:100A6000EF91BF91AF919F918F917F916F915F9126
:100A70004F913F912F910F900FBE0F901F9018959F
:100A80001F920F920FB60F9211242F938F939F9363
:100A9000EF93FF93E0914902F0914A028081E09147
:100AA0004F02F091500282FD12C09081809152025B
:100AB0008F5F8F7320915302821751F0E0915202A1
:100AC000F0E0E75CFD4F958F8093520201C080817A
:100AD000FF91EF919F918F912F910F900FBE0F90EB
:100AE0001F9018951F920F920FB60F9211242F93FB
:100AF0003F934F935F936F937F938F939F93AF93A6
:100B0000BF93EF93FF938091B900887F803609F4FB
:100B10009CC068F5883209F45BC090F4803109F418
:100B200054C038F4882309F4F6C0883009F44DC065
:100B3000F6C0883109F44CC0803209F45DC0EFC0C2
:100B4000803409F468C048F4803309F455C0883310
:100B500009F0E5C08093F101D8C0803509F44FC099
:100B6000883509F45DC0883409F0D9C0D6C0883909
:100B700009F4C7C0A8F4883709F467C038F4883688
:100B800009F463C0803709F460C0C9C0883809F42B
:100B9000B8C0803909F45FC0803809F0C0C05BC0BC
:100BA000803B09F486C038F4803A09F466C0883A7C
:100BB00009F47FC0B4C0803C09F4A7C0883C09F4A4
:100BC000A4C0883B09F48AC0AAC08091140210C056
:100BD0009091130280911202981770F5E091130220
:100BE00081E08E0F80931302F0E0EE50FE4F808183
:100BF0008093BB0085EC86C08093F1018EC0E091AC
:100C0000130281E08E0F809313028091BB00F0E00D
:100C1000EE50FE4F808390911302809112026EC0BD
:100C2000E091130281E08E0F809313028091BB004C
:100C3000F0E0EE50FE4F80838091160281116DC06E
:100C400081E08093150284EA61C083E080931702FB
:100C50001092F001CFCF8091F001803208F051C0A6
:100C6000E091F00181E08E0F8093F0018091BB0054
:100C7000F0E0E053FE4F8083BDCF85EC8093BC0055
:100C8000109217028091F001803230F4E091F0016F
:100C9000F0E0E053FE4F10826091F00170E0E091CF
:100CA0001A02F0911B0280ED91E009951092F0017B
:100CB00036C084E0809317021092CF011092CE01CB
:100CC000E0911C02F0911D0209958091CE018111E5
:100CD00005C081E08093CE011092AE01E091CF017A
:100CE00081E08E0F8093CF01F0E0E255FE4F8081CE
:100CF0008093BB009091CF018091CE01981708F4AA
:100D000079CF85E88093BC000AC085EC8093BC0055
:100D10001092170204C01092F1010E949502FF91F7
:100D2000EF91BF91AF919F918F917F916F915F9163
:100D30004F913F912F910F900FBE0F901F901895DC
:100D40008F929F92AF92BF92CF92DF92EF92FF92DB
:100D50000F931F93CF93DF9300D000D0CDB7DEB7B2
:100D600010923C0210923B0288EE93E0A0E0B0E0CB
:100D700080933D0290933E02A0933F02B0934002C5
:100D80002BE031E030933A022093390225EC30E039
:100D9000309346022093450224EC30E03093480221
:100DA0002093470220EC30E030934A02209349021E
:100DB00021EC30E030934C0220934B0222EC30E0E7
:100DC00030934E0220934D0226EC30E030935002D7
:100DD00020934F021092520210925302109254022A
:100DE000109255021092300210922F02809331021D
:100DF00090933202A0933302B09334028DE191E0DC
:100E000090932E0280932D021092E5021092E4023C
:100E10001092E7021092E6021092E9021092E802A4
:100E200040E050E06DE271E084EE92E00E94ED035C
:100E30001092D6021092D7021092D8021092D902C4
:100E40001092DB021092DA021092DD021092DC02A4
:100E50001092DF021092DE021092E1021092E00284
:100E600082E591E00E9426030AED12E07801A12CB0
:100E7000B12C90912C0280912B029817C9F08DE231
:100E800092E00E94D7026701F701819391937F015D
:100E900081E691E00E941403C5010E949C03F601C3
:100EA000808191810E949C03FFEFAF1ABF0AE1CFBE
:100EB00086E691E00E9426031092D6021092D70295
:100EC0001092D8021092D9021092E3021092E2021C
:100ED000812C912CEE24E394F12CF80180819181F6
:100EE00097FF14C08AE691E00F900F900F900F903B
:100EF000DF91CF911F910F91FF90EF90DF90CF90F6
:100F0000BF90AF909F908F900C9426030E949C03FB
:100F100081149104E1F48091DA029091DB02092EB0
:100F2000000CAA0BBB0B4091D6025091D7026091E6
:100F3000D8027091D902840F951FA61FB71F809306
:100F4000D6029093D702A093D802B093D902F801A9
:100F5000C190D1908F01C114D10421F2B401092CA8
:100F6000000C880B990B0E9441099B01AC0160E0C9
:100F700070E080E893E40E943D0B9B01AC01B60158
:100F80000D2C000C880B990B29833A834B835C83CF
:100F90000E94410929813A814B815C810E94A0090C
:100FA0009B01AC0129833A834B835C830E94020B33
:100FB00029813A814B815C81C616D70629F070934E
:100FC000E3026093E20204C0F092E302E092E202E4
:100FD000C090E202D090E302B6010D2C000C880B09
:100FE000990B29833A834B835C830E9441092981B1
:100FF0003A814B815C810E94950A20E030E0A90192
:101000000E94380B18163CF4FFEFCF1ADF0AD0927B
:10101000E302C092E2026091E2027091E302AB014E
:10102000770F660B770B8091D6029091D702A09133
:10103000D802B091D9025A016B01A80EB91ECA1E7E
:10104000DB1EC601B501A092D602B092D702C092B3
:10105000D802D092D902D7FE03C00E94750303C004
:101060004AE00E9434038BE291E00E9414038FEF68
:10107000881A980AE4E08E16910409F02ECF32CF38
:10108000789484B5826084BD84B5816084BD85B563
:10109000826085BD85B5816085BD80916E0081606F
:1010A00080936E0010928100809181008260809315
:1010B0008100809181008160809381008091800017
:1010C0008160809380008091B10084608093B10042
:1010D0008091B00081608093B00080917A0084603C
:1010E00080937A0080917A00826080937A00809168
:1010F0007A00816080937A0080917A008068809382
:101100007A001092C100E0914902F0914A0282E017
:101110008083E0914502F09146021082E0914702FF
:10112000F09148028FEC808310925102E0914D02C1
:10113000F0914E0286E08083E0914B02F0914C02E8
:10114000808180618083E0914B02F0914C0280812C
:1011500088608083E0914B02F0914C02808180682E
:101160008083E0914B02F0914C0280818F7D8083DF
:1011700088E08093BA008CEF90E090931D028093FA
:101180001C0288E091E090931B0280931A02109257
:101190002B0210922C021092190210921802109237
:1011A000170281E0809316021092150261E082E13D
:1011B0000E940D0261E083E10E940D028091B9005E
:1011C0008E7F8093B9008091B9008D7F8093B900A4
:1011D00088E48093B80085E48093BC0080E194E0CB
:1011E00090931F0280931E0261E080E10E945902E9
:1011F0008EE691E00E94260361E08FE00E94590292
:1012000061E08EE00E94590260E082E00E94590293
:1012100061E083E00E94590261E080E10E9459028E
:1012200060E082E00E940D0260E080E10E940D0219
:101230008091200290912102019731F480E891E0A1
:101240000E94260361E00BC0809120029091210250
:10125000029761F485E891E00E94260360E083E054
:101260000E940D0210922102109220020E9403029D
:10127000DBCF8091E4029091E5020C94F10DE894AB
:1012800009C097FB3EF490958095709561957F4FCE
:101290008F4F9F4F9923A9F0F92F96E9BB2793957C
:1012A000F695879577956795B795F111F8CFFAF48C
:1012B000BB0F11F460FF1BC06F5F7F4F8F4F9F4FBD
:1012C00016C0882311F096E911C0772321F09EE81B
:1012D000872F762F05C0662371F096E8862F70E081
:1012E00060E02AF09A95660F771F881FDAF7880F5B
:1012F0009695879597F90895990F0008550FAA0BB1
:10130000E0E8FEEF16161706E807F907C0F0121618
:101310001306E407F50798F0621B730B840B950B1B
:1013200039F40A2661F0232B242B252B21F4089570
:101330000A2609F4A140A6958FEF811D811D08950D
:101340000E94B3090C94240A0E94160A38F00E94E5
:101350001D0A20F0952311F00C940D0A0C94130A29
:1013600011240C94580A0E94350A70F3959FC1F31A
:10137000950F50E0551F629FF001729FBB27F00D43
:10138000B11D639FAA27F00DB11DAA1F649F662798
:10139000B00DA11D661F829F2227B00DA11D621FE7
:1013A000739FB00DA11D621F839FA00D611D221FA1
:1013B000749F3327A00D611D231F849F600D211D85
:1013C000822F762F6A2F11249F5750409AF0F1F008
:1013D00088234AF0EE0FFF1FBB1F661F771F881F71
:1013E00091505040A9F79E3F510580F00C940D0A92
:1013F0000C94580A5F3FE4F3983ED4F386957795B2
:101400006795B795F795E7959F5FC1F7FE2B880F16
:10141000911D9695879597F9089597F99F6780E8AC
:1014200070E060E008959FEF80EC089500240A9436
:101430001616170618060906089500240A941216AF
:101440001306140605060895092E0394000C11F4E2
:10145000882352F0BB0F40F4BF2B11F460FF04C08F
:101460006F5F7F4F8F4F9F4F089557FD9058440FE8
:10147000551F59F05F3F71F04795880F97FB991FF3
:1014800061F09F3F79F087950895121613061406B0
:10149000551FF2CF4695F1DF08C01616170618063D
:1014A000991FF1CF86957105610508940895E89418
:1014B000BB2766277727CB0197F908952F923F9294
:1014C0004F925F926F927F928F929F92AF92BF9254
:1014D000CF92DF92EF92FF920F931F93CF93DF9300
:1014E000CDB7DEB7CA1BDB0B0FB6F894DEBF0FBE5D
:1014F000CDBF09942A88398848885F846E847D84AA
:101500008C849B84AA84B984C884DF80EE80FD80AB
:101510000C811B81AA81B981CE0FD11D0FB6F89421
:10152000DEBF0FBECDBFED0108955058BB27AA27DF
:101530000E94AD0A0C94240A0E94160A38F00E94F8
:101540001D0A20F039F49F3F19F426F40C94130A75
:101550000EF4E095E7FB0C940D0AE92F0E94350A82
:1015600058F3BA17620773078407950720F079F4D8
:10157000A6F50C94570A0EF4E0950B2EBA2FA02D69
:101580000B01B90190010C01CA01A0011124FF2730
:10159000591B99F0593F50F4503E68F11A16F0402B
:1015A000A22F232F342F4427585FF3CF469537952A
:1015B0002795A795F0405395C9F77EF41F16BA0BEF
:1015C000620B730B840BBAF09150A1F0FF0FBB1F9D
:1015D000661F771F881FC2F70EC0BA0F621F731FE6
:1015E000841F48F4879577956795B795F7959E3F43
:1015F00008F0B0CF9395880F08F09927EE0F9795D4
:10160000879508950E94090B6894B1110C94580AAB
:1016100008950E943D0A88F09F5798F0B92F9927A6
:10162000B751B0F0E1F0660F771F881F991F1AF0CD
:10163000BA95C9F714C0B13091F00E94570AB1E0D1
:1016400008950C94570A672F782F8827B85F39F0D0
:10165000B93FCCF3869577956795B395D9F73EF466
:1016600090958095709561957F4F8F4F9F4F08950E
:101670000E947C0908F48FEF0895FA01EE0FFF1F16
:10168000309621053105A1F16115710561F48038AD
:10169000BFE39B0749F168949038810561F0803879
:1016A000BFEF9B0741F099234AF5FF3FE105310564
:1016B000210519F1E8940894E795D901AA2329F4A2
:1016C000AB2FBE2FF85FD0F310C0FF5F70F4A6956C
:1016D000E0F7F73950F019F0FF3A38F49F779F930D
:1016E0000DD00F9007FC9058089546F00C94130A03
:1016F00060E070E080E89FE308954FE79F775F9395
:101700004F933F932F930E94380C2F913F914F910D
:101710005F910E94A0090C94950B29F416F00C948B
:101720000D0A0C94570A0C94130A0E943D0AA8F360
:101730009638A0F707F80F92E8942BE33AEA48EBC3
:101740005FE70E94B6090F920F920F924DB75EB7F6
:101750000F920E94800CE8E6F0E00E94C70B4F91C8
:101760005F91EF91FF91E595EE1FFF1F49F0FE5746
:10177000E0684427EE0F441FFA95E1F74195550BB9
:101780000E94FA0B0F9007FE0C94EE0B0895DF9366
:10179000CF931F930F93FF92EF92DF927B018C0107
:1017A000689406C0DA2EEF010E94B309FE01E894A6
:1017B000A5912591359145915591A6F3EF010E9490
:1017C000AD0AFE019701A801DA9469F7DF90EF9066
:1017D000FF900F911F91CF91DF9108959B01AC0174
:1017E00060E070E080E89FE30C94B40C0C940D0A68
:1017F0000C94260D0E943D0AD8F39923C9F3940F47
:10180000511DA3F39150504094F059F0882332F0C9
:10181000660F771F881F91505040C1F79E3F5105BA
:101820002CF7880F911D9695879597F908955F3F3E
:10183000ACF0983E9CF0BB27869577956795B79559
:1018400008F4B1609395C1F7BB0F58F711F460FF2E
:10185000E8CF6F5F7F4F8F4F9F4FE3CF0C94580AB5
:1018600016F00C94260D0C94130A68940C940D0A2F
:101870000E943D0AA8F39923C1F3AEF3DF93CF93FF
:101880001F930F93FF92C92FDD2788232AF02197FA
:10189000660F771F881FDAF720E030E040E85FEB43
:1018A0009FE3883920F0803E38F021968F770E94A0
:1018B000960AE0E9F0E004C00E94960AEDEBF0E041
:1018C0000E94C70B8B01BE01EC01FB2E6F57710903
:1018D0007595771F880B990B0E94410928E132E723
:1018E00041E35FE30E94B309AF2D9801AE01FF9081
:1018F0000F911F91CF91DF910E94AD0A0C94240AA1
:10190000FA01DC01AA0FBB1F9B01AC01BF5728F4F1
:10191000222733274427507820C0B75190F4AB2FAB
:101920000024469537952795011CA395D2F30020F6
:1019300071F0220F331F441FB395DAF30ED00C94CD
:10194000950A61307105A0E88A07B94630F49B0119
:10195000AC016627772788279078309621F020837E
:1019600031834283538308950E94C80C0C94240A47
:101970000E941D0A58F00E94160A40F029F45F3FA9
:1019800029F00C940D0A51110C94580A0C94130A66
:101990000E94350A68F39923B1F3552391F3951BFF
:1019A000550BBB27AA2762177307840738F09F5F80
:1019B0005F4F220F331F441FAA1FA9F335D00E2EED
:1019C0003AF0E0E832D091505040E695001CCAF75A
:1019D0002BD0FE2F29D0660F771F881FBB1F26171D
:1019E00037074807AB07B0E809F0BB0B802DBF01F4
:1019F000FF2793585F4F3AF09E3F510578F00C94C3
:101A00000D0A0C94580A5F3FE4F3983ED4F3869590
:101A100077956795B795F7959F5FC9F7880F911DE3
:101A20009695879597F90895E1E0660F771F881FCF
:101A3000BB1F621773078407BA0720F0621B730B82
:101A4000840BBA0BEE1F88F7E09508959F3F31F0A5
:101A5000915020F4879577956795B795880F911DDC
:101A60009695879597F90895A1E21A2EAA1BBB1B9C
:101A7000FD010DC0AA1FBB1FEE1FFF1FA217B3075A
:101A8000E407F50720F0A21BB30BE40BF50B661F70
:101A9000771F881F991F1A9469F760957095809534
:101AA00090959B01AC01BD01CF010895EE0FFF1F82
:101AB0000590F491E02D0994CF93DF938230910546
:101AC00010F482E090E0E091EC02F091ED0220E071
:101AD00030E0C0E0D0E0309711F1408151814817EB
:101AE0005907C0F04817590761F482819381209704
:101AF00019F09B838A832BC09093ED028093EC02B4
:101B000026C02115310519F04217530718F49A0120
:101B1000BE01DF01EF010280F381E02DDCCF211552
:101B2000310509F1281B390B2430310590F4129648
:101B30008D919C9113976115710521F0FB019383A1
:101B4000828304C09093ED028093EC02FD013296F3
:101B500044C0FD01E20FF31F81939193225031099C
:101B60002D933C933AC02091EA023091EB02232B53
:101B700041F420910301309104013093EB02209352
:101B8000EA0220910101309102012115310541F451
:101B90002DB73EB74091050150910601241B350B2E
:101BA000E091EA02F091EB02E217F307A0F42E1B9A
:101BB0003F0B2817390778F0AC014E5F5F4F2417B1
:101BC000350748F04E0F5F1F5093EB024093EA0237
:101BD0008193919302C0E0E0F0E0CF01DF91CF91DB
:101BE00008950F931F93CF93DF93009709F48CC050
:101BF000FC013297138212820091EC021091ED02E7
:101C00000115110581F420813181820F931F2091EC
:101C1000EA023091EB022817390779F5F093EB02CD
:101C2000E093EA0271C0D80140E050E0AE17BF0770
:101C300050F412962D913C911397AD012115310569
:101C400009F1D901F3CF9D01DA0133832283608149
:101C50007181860F971F8217930769F4EC01288121
:101C60003981260F371F2E5F3F4F318320838A81B2
:101C70009B8193838283452B29F4F093ED02E093BB
:101C8000EC0242C01396FC93EE931297ED0149913A
:101C900059919E01240F351FE217F30771F48081DB
:101CA0009181840F951F029611969C938E93828149
:101CB000938113969C938E931297E0E0F0E0D80105
:101CC00012968D919C911397009719F0F8018C0151
:101CD000F6CF8D919C9198012E5F3F4F820F931FFD
:101CE0002091EA023091EB022817390769F4309706
:101CF00029F41092ED021092EC0202C013821282BB
:101D00001093EB020093EA02DF91CF911F910F91A4
:101D10000895A0E0B0E0EFE8FEE00C94620AEC0168
:101D2000009721F4CB010E945C0DB8C0FC01E60FC6
:101D3000F71F9C0122503109E217F30708F4ACC0E9
:101D4000D9010D911C91119706171707B0F00530B6
:101D5000110508F49FC0C80104978617970708F477
:101D600099C002501109061B170B019311936D9333
:101D70007C93CF010E94F10D8DC05B01A01AB10AC6
:101D80004C01800E911EA091EC02B091ED0240E05A
:101D900050E0E12CF12C109709F44AC0A815B905C0
:101DA000D1F56D907C901197630182E0C80ED11C33
:101DB000CA14DB0480F1A3014A195B096A0182E0BD
:101DC000C80ED11C1296BC9012971396AC91B5E038
:101DD000CB16D10440F0B282A38351834083D90152
:101DE0006D937C930AC00E5F1F4FC301800F911F3C
:101DF000F90191838083EB2DFA2FE114F10431F086
:101E0000D7011396FC93EE93129744C0F093ED0222
:101E1000E093EC023FC08D919C91119748175907B0
:101E200008F4AC017D0112960D90BC91A02DB3CFAA
:101E30008091EA029091EB0288159905E1F446172A
:101E40005707C8F48091010190910201009741F475
:101E50008DB79EB74091050150910601841B950BEB
:101E6000E817F907C8F4F093EB02E093EA02F901EE
:101E7000718360830FC0CB010E945C0D7C010097D1
:101E800059F0A801BE010E94580FCE010E94F10D29
:101E9000C70104C0CE0102C080E090E0CDB7DEB73C
:101EA000EEE00C947E0A81E090E0F8940C94710FBF
:101EB000FB01DC0102C001900D9241505040D8F767
:101EC0000895FB01DC018D91019080190110D9F377
:101ED000990B0895FB01DC0101900D920020E1F7C0
:101EE000089510E0CEE9D0E004C0FE010E94560D36
:0C1EF0002196CF39D107C9F7F894FFCF35
:101EFC00300000EE028000000000009A01D1003298
:101F0C0001E10163014101550100000000FF02EBFA
:101F1C00021103C702C900D702C8020D0A00536C94
:101F2C006176652034207265636569766520676526
:101F3C0074006F70656E00636C6F736500747572FE
:101F4C006E00576972652E617661696C61626C65B1
:101F5C000069203D200041646400656E64002D2DF5
:101F6C003E20536C617665203420526561647900A3
:0C1F7C004F50454E00434C4F53450000B1
:107E0000112484B714BE81FFF0D085E080938100F7
:107E100082E08093C00088E18093C10086E0809377
:107E2000C20080E18093C4008EE0C9D0259A86E02C
:107E300020E33CEF91E0309385002093840096BBD3
:107E4000B09BFECF1D9AA8958150A9F7CC24DD24C4
:107E500088248394B5E0AB2EA1E19A2EF3E0BF2EE7
:107E6000A2D0813461F49FD0082FAFD0023811F036
:107E7000013811F484E001C083E08DD089C08234E0
:107E800011F484E103C0853419F485E0A6D080C0E4
:107E9000853579F488D0E82EFF2485D0082F10E0AE
:107EA000102F00270E291F29000F111F8ED06801E7
:107EB0006FC0863521F484E090D080E0DECF843638
:107EC00009F040C070D06FD0082F6DD080E0C81688
:107ED00080E7D80618F4F601B7BEE895C0E0D1E017
:107EE00062D089930C17E1F7F0E0CF16F0E7DF06D8
:107EF00018F0F601B7BEE89568D007B600FCFDCFD4
:107F0000A601A0E0B1E02C9130E011968C91119780
:107F100090E0982F8827822B932B1296FA010C0160
:107F200087BEE89511244E5F5F4FF1E0A038BF0790
:107F300051F7F601A7BEE89507B600FCFDCF97BE46
:107F4000E89526C08437B1F42ED02DD0F82E2BD052
:107F50003CD0F601EF2C8F010F5F1F4F84911BD097
:107F6000EA94F801C1F70894C11CD11CFA94CF0C13
:107F7000D11C0EC0853739F428D08EE10CD085E9AC
:107F80000AD08FE07ACF813511F488E018D01DD067
:107F900080E101D065CF982F8091C00085FFFCCF94
:107FA0009093C60008958091C00087FFFCCF809118
:107FB000C00084FD01C0A8958091C6000895E0E648
:107FC000F0E098E1908380830895EDDF803219F02E
:107FD00088E0F5DFFFCF84E1DECF1F93182FE3DFCA
:107FE0001150E9F7F2DF1F91089580E0E8DFEE27F6
:047FF000FF270994CA
:027FFE00040479
:0400000300007E007B
:00000001FF