:100000000C9463000C942D050C9406050C948B0045
:100010000C948B000C948B000C948B000C948B0034
:100020000C948B000C948B000C948B000C948B0024
:100030000C948B000C948B000C948B000C948B0014
:100040000C94BC040C948B000C948A040C946404EF
:100050000C948B000C948B000C948B000C948B00F4
:100060000C9454050C948B00000000002300260023
:10007000290000000000250028002B0000000000DF
:10008000240027002A0004040404040404040202D7
:100090000202020203030303030301020408102007
:1000A0004080010204081020010204081020000012
:1000B0000008000201000003040700000000000027
:1000C00000008206BE0811241FBECFEFD8E0DEBFBD
:1000D000CDBF22E0A0E8B1E001C01D92A43BB20771
:1000E000E1F711E0A0E0B1E0E0EFF6E102C0059039
:1000F0000D92A038B107D9F710E0C2E6D0E004C0F5
:100100002197FE010E945909C136D107C9F70E9403
:1001100018070C946B0B0C940000CF92DF92EF92B7
:10012000FF920F931F93CF93DF936C017A018B01A2
:10013000C0E0D0E0CE15DF0589F0D8016D918D01CA
:10014000D601ED91FC910190F081E02DC601099559
:10015000892B11F47E0102C02196ECCFC701DF91FB
:10016000CF911F910F91FF90EF90DF90CF90089566
:10017000FC01538D448D252F30E0842F90E0821BAD
:10018000930B541710F0CF96089501970895FC0132
:10019000918D828D981761F0828DDF01A80FB11DBE
:1001A0005D968C91928D9F5F9F73928F90E00895E2
:1001B0008FEF9FEF0895FC01918D828D981731F09C
:1001C000828DE80FF11D858D90E008958FEF9FEFF0
:1001D0000895FC01918D228D892F90E0805C9F4FC6
:1001E000821B91098F73992708958DEF91E00E94EA
:1001F000E90021E0892B09F420E0822F0895FC0119
:10020000848DDF01A80FB11DA35ABF4F2C91848D9F
:1002100090E001968F739927848FA689B7892C93D4
:10022000A089B1898C9180648C93938D848D98136F
:1002300006C00288F389E02D80818F7D8083089538
:10024000EF92FF920F931F93CF93DF93EC0181E026
:10025000888F9B8D8C8D981305C0E889F9898081E2
:1002600085FD24C0F62E0B8D10E00F5F1F4F0F731E
:100270001127E02E8C8DE8120CC00FB607FCFACFC8
:10028000E889F989808185FFF5CFCE010E94FF00C2
:10029000F1CF8B8DFE01E80FF11DE35AFF4FF08285
:1002A0000B8FEA89FB898081806207C0EE89FF8914
:1002B0006083E889F98980818064808381E090E0AF
:1002C000DF91CF911F910F91FF90EF900895CF9301
:1002D000DF93EC01888D8823C9F0EA89FB8980814E
:1002E00085FD05C0A889B9898C9186FD0FC00FB620
:1002F00007FCF5CF808185FFF2CFA889B9898C9161
:1003000085FFEDCFCE010E94FF00E7CFDF91CF91B7
:10031000089580E090E0892B29F00E94F50081117A
:100320000C9400000895833081F028F4813099F016
:100330008230A1F008958730A9F08830B9F0843078
:10034000D1F4809180008F7D03C0809180008F77F1
:1003500080938000089584B58F7702C084B58F7D27
:1003600084BD08958091B0008F7703C08091B00064
:100370008F7D8093B0000895CF93DF93282F30E0D6
:10038000F901E255FF4F8491F901E656FF4FD491F0
:10039000F901EA57FF4FC491CC2391F081110E94DB
:1003A0009301EC2FF0E0EE0FFF1FE859FF4FA591EE
:1003B000B491EC91ED2381E090E021F480E002C063
:1003C00080E090E0DF91CF9108951F93CF93DF936A
:1003D000282F30E0F901E255FF4F8491F901E656EC
:1003E000FF4FD491F901EA57FF4FC491CC23C9F0D4
:1003F000162F81110E949301EC2FF0E0EE0FFF1FEA
:10040000EE58FF4FA591B4918FB7F894111105C024
:100410009C91ED2FE095E92302C0EC91ED2BEC933C
:100420008FBFDF91CF911F910895E0EAF0E04491F2
:10043000ECE8F0E02491222399F030E0220F331F02
:10044000F901E458FF4FA591B491F901EE58FF4F1F
:10045000259134912FB7F894EC91E42BEC932FBFB6
:10046000009711F460E004C08F3F910521F461E032
:1004700086E00C94E501E4EBF0E0E491E330F9F080
:1004800048F4E130B9F0E230A1F594B5906294BD42
:1004900088BD0895E730E9F0E83019F1E43049F516
:1004A0002091800020622093800090938B008093A5
:1004B0008A00089594B5906894BD87BD08952091F1
:1004C00080002068209380009093890080938800AA
:1004D00008959091B00090689093B0008093B3001D
:1004E00008959091B00090629093B0008093B40012
:1004F0000895803891050CF0BACFB4CF3FB7F89487
:100500008091F4019091F501A091F601B091F7016D
:1005100026B5A89B05C02F3F19F00196A11DB11D5E
:100520003FBFBA2FA92F982F8827820F911DA11D99
:10053000B11DBC01CD0142E0660F771F881F991FD6
:100540004A95D1F708958F929F92AF92BF92CF9222
:10055000DF92EF92FF926B017C010E947E024B01C1
:100560005C01C114D104E104F104F1F00E947E02A7
:10057000DC01CB0188199909AA09BB09883E93407F
:10058000A105B10570F321E0C21AD108E108F10814
:1005900088EE880E83E0981EA11CB11CC114D10402
:1005A000E104F10419F7DDCFFF90EF90DF90CF90D9
:1005B000BF90AF909F908F900895089585ED8093A0
:1005C000BC008091BC0084FDFCCF1092C90108954D
:1005D0004091A301262F30E0240F311D2132310537
:1005E000DCF42091C9012430C9F4FC0180E090E0E2
:1005F000861758F43091A3012191DC01AF57BE4F0B
:10060000A30FB11D2C930196F3CF8091A301680F26
:100610006093A30180E0089581E0089582E0089549
:1006200008958FEF9FEF08958FEF9FEF08958091CA
:10063000800190E09195819591090895CF93DF9382
:1006400000D0CDB7DEB7CB01642F49835A830E9417
:10065000E8024981842F5A81952F0F900F90DF91E6
:10066000CF910895CF93DF931F92CDB7DEB7698303
:1006700061E0CE0101960E94E80281E090E00F90D7
:10068000DF91CF910895089580E090E0089500975C
:1006900069F0FC0101900020E9F73197AF01481B98
:1006A000590BBC018DEF91E00C948D0080E090E03F
:1006B00008950C944703CF93DF930E944703EC0106
:1006C00080E391E00E9447038C0F9D1FDF91CF9143
:1006D0000895CF93DF93E6EAF2E04481558160818B
:1006E00071818DEF91E00E948D00EC0180E391E03B
:1006F0000E9447038C0F9D1FDF91CF9108958F9229
:100700009F92AF92BF92CF92DF92EF92FF920F93A0
:100710001F93CF93DF93CDB7DEB7A1970FB6F894B1
:10072000DEBF0FBECDBF6C01990FEE08FF08F7FECC
:1007300031C0E091FD01F091FE010190F081E02DCA
:100740006DE28DEF91E009958C0122273327A901F5
:100750002C193D094E095F0919A2CE0181967C0131
:100760009AE0892E912CA12CB12CCA01B901A501C6
:1007700094010E943709605DF70162937F012115A2
:1007800031054105510589F7CF010E944703080F44
:10079000191F1EC0A701960119A28E010F5D1F4FE0
:1007A0008AE0C82ED12CE12CF12CCA01B901A70195
:1007B00096010E943709605DF80162938F0121154F
:1007C00031054105510589F7CF010E9447038C018E
:1007D00080E391E00E944703800F911FA1960FB61E
:1007E000F894DEBF0FBECDBFDF91CF911F910F9167
:1007F000FF90EF90DF90CF90BF90AF909F908F9041
:1008000008958091FA019091FB0101969093FB016C
:100810008093FA0183E391E00E9459038091FA01E9
:100820009091FB010E947F038EE391E00E945903A7
:100830008091F8019091F9010C947F038091F80167
:100840009091F90101969093F9018093F80183E367
:1008500091E00E9459038091FA019091FB010E945E
:100860007F038EE391E00E9459038091F8019091FB
:10087000F9010C947F030F931F93CF93DF93EC0147
:1008800088819981009729F02A813B8126173707B3
:1008900088F48B016F5F7F4F0E948C0A009761F094
:1008A000998388831B830A832C813D81232B11F438
:1008B000FC01108281E001C080E0DF91CF911F91A7
:1008C0000F9108950E94560B1F920F920FB60F9230
:1008D00011242F933F934F935F936F937F938F9345
:1008E0009F93AF93BF93EF93FF938DEF91E00E949F
:1008F000FF00FF91EF91BF91AF919F918F917F91F9
:100900006F915F914F913F912F910F900FBE0F907C
:100910001F9018951F920F920FB60F9211242F93CC
:100920008F939F93EF93FF93E0910D02F0910E024E
:100930008081E0911302F091140282FD12C0908137
:10094000809116028F5F8F7320911702821751F0EA
:10095000E0911602F0E0E350FE4F958F809316026F
:1009600001C08081FF91EF919F918F912F910F9006
:100970000FBE0F901F9018951F920F920FB60F92F7
:1009800011242F933F938F939F93AF93BF938091A5
:10099000F0019091F101A091F201B091F301309139
:1009A000EF0123E0230F2D3720F40196A11DB11D87
:1009B00005C026E8230F0296A11DB11D2093EF016B
:1009C0008093F0019093F101A093F201B093F301B1
:1009D0008091F4019091F501A091F601B091F70199
:1009E0000196A11DB11D8093F4019093F501A09390
:1009F000F601B093F701BF91AF919F918F913F9115
:100A00002F910F900FBE0F901F9018951F920F926D
:100A10000FB60F9211242F933F934F935F936F93D1
:100A20007F938F939F93AF93BF93EF93FF93E09147
:100A30000201F09103010995FF91EF91BF91AF91F0
:100A40009F918F917F916F915F914F913F912F91E6
:100A50000F900FBE0F901F9018951F920F920FB618
:100A60000F9211242F933F934F935F936F937F9334
:100A70008F939F93AF93BF93EF93FF93E091000108
:100A8000F09101010995FF91EF91BF91AF919F9175
:100A90008F917F916F915F914F913F912F910F9027
:100AA0000FBE0F901F9018951F920F920FB60F92C6
:100AB00011242F933F934F935F936F937F938F9363
:100AC0009F93AF93BF93EF93FF938091B900887F7B
:100AD000803609F49CC068F5883209F45BC090F454
:100AE000803109F454C038F4882309F4F6C0883002
:100AF00009F44DC0F6C0883109F44CC0803209F4C5
:100B00005DC0EFC0803409F468C048F4803309F454
:100B100055C0883309F0E5C08093C801D8C080353E
:100B200009F44FC0883509F45DC0883409F0D9C094
:100B3000D6C0883909F4C7C0A8F4883709F467C05B
:100B400038F4883609F463C0803709F460C0C9C03E
:100B5000883809F4B8C0803909F45FC0803809F0DA
:100B6000C0C05BC0803B09F486C038F4803A09F409
:100B700066C0883A09F47FC0B4C0803C09F4A7C0BD
:100B8000883C09F4A4C0883B09F48AC0AAC08091BB
:100B9000EE0110C09091ED018091EC01981770F575
:100BA000E091ED0181E08E0F8093ED01F0E0E453E0
:100BB000FE4F80818093BB0085EC86C08093C80186
:100BC0008EC0E091ED0181E08E0F8093ED01809168
:100BD000BB00F0E0E453FE4F80839091ED018091E3
:100BE000EC016EC0E091ED0181E08E0F8093ED018C
:100BF0008091BB00F0E0E453FE4F80838091CB01F5
:100C000081116DC081E08093CA0184EA61C083E0F4
:100C10008093C9011092C701CFCF8091C701803264
:100C200008F051C0E091C70181E08E0F8093C701A9
:100C30008091BB00F0E0E955FE4F8083BDCF85EC8D
:100C40008093BC001092C9018091C701803230F4BA
:100C5000E091C701F0E0E955FE4F10826091C701B5
:100C600070E0E091A501F091A60187EA91E0099575
:100C70001092C70136C084E08093C9011092A4018C
:100C80001092A301E091A101F091A2010995809138
:100C9000A301811105C081E08093A301109281011D
:100CA000E091A40181E08E0F8093A401F0E0EF5762
:100CB000FE4F80818093BB009091A4018091A3019D
:100CC000981708F479CF85E88093BC000AC085ECBA
:100CD0008093BC001092C90104C01092C8010E9408
:100CE000DE02FF91EF91BF91AF919F918F917F9124
:100CF0006F915F914F913F912F910F900FBE0F9089
:100D00001F901895109200021092FF0188EE93E058
:100D1000A0E0B0E08093010290930202A09303024E
:100D2000B093040220E131E03093FE012093FD01F5
:100D300025EC30E030930A022093090224EC30E0E5
:100D400030930C0220930B0220EC30E030930E0223
:100D500020930D0221EC30E03093100220930F021B
:100D600022EC30E0309312022093110226EC30E0A6
:100D7000309314022093130210921602109217025D
:100D8000109218021092190210929D0210929C0269
:100D900080939E0290939F02A093A002B093A10221
:100DA00082E291E090939B0280939A0282E00E94FB
:100DB000BC019093AF028093AE0283E00E94BC011D
:100DC0009093AD028093AC021092A7021092A602FB
:100DD0001092A9021092A8021092AB021092AA02DD
:100DE00060E070E086EA92E00E943B042091A60257
:100DF0003091A702811113C02115310519F0C901E5
:100E00000E94F4091092A7021092A6021092AB025F
:100E10001092AA021092A9021092A80208951092AC
:100E2000AB021092AA0262E371E0C9010C94640B58
:100E3000CF93DF9300D0CDB7DEB7789484B58260CE
:100E400084BD84B5816084BD85B5826085BD85B56E
:100E5000816085BD80916E00816080936E001092EC
:100E60008100809181008260809381008091810067
:100E700081608093810080918000816080938000F8
:100E80008091B10084608093B1008091B000816056
:100E90008093B00080917A00846080937A00809182
:100EA0007A00826080937A0080917A0081608093DA
:100EB0007A0080917A00806880937A001092C10055
:100EC000E0910D02F0910E0282E08083E091090230
:100ED000F0910A021082E0910B02F0910C028FEC6B
:100EE000808310921502E0911102F091120286E0C7
:100EF0008083E0910F02F0911002808180618083F5
:100F0000E0910F02F0911002808188608083E0916F
:100F10000F02F0911002808180688083E0910F02BF
:100F2000F091100280818F7D808381E094E0909326
:100F3000010180930001809169008C7F8260809321
:100F40006900E89A8EE194E0909303018093020196
:100F500080916900837F886080936900E99A8DEFB2
:100F600091E00E94E900892B09F4DFC08DEF91E048
:100F70000E94E900181619060CF088C062E070E0C3
:100F800080E090E00E94A3028DEF91E00E94C700F4
:100F9000182F8093FC01082E000C990BC0970A971C
:100FA00018F519831A82E090AA02F090AB028FEF35
:100FB000E81AF80AB70186EA92E00E943B04882307
:100FC00099F02091A6023091A7028091AA029091F7
:100FD000AB02BE016F5F7F4F820F931F0E94640BB5
:100FE000F092AB02E092AA021235C9F460E084E00C
:100FF0000E94E50160E085E00E94E5018FEF90E04E
:101000000E94150264EF71E080E090E00E94A3026C
:1010100061E084E00E94E50160E085E01AC01234DE
:10102000D1F460E084E00E94E50160E085E00E9488
:10103000E5018FEF90E00E94150264EF71E080E01F
:1010400090E00E94A30261E085E00E94E50160E07B
:1010500084E00E94E5018CE791E00E945903E09151
:10106000FD01F091FE010190F081E02D6091FC0105
:101070008DEF91E0099580E391E00E9447038CE7B2
:1010800091E00E9459030E94690370CF8091A602EB
:101090009091A702009719F00E94C40803C060E075
:1010A00070E0CB017093050160930401CB010E94B5
:1010B0007F038AE491E00E9459038091040190919A
:1010C00005010E947F030E94690381E591E00E946F
:1010D0005B038FE591E00E9459038091AE029091ED
:1010E000AF020E947F0386E691E00E94590380913F
:1010F000AC029091AD020E947F038DE691E00E94C8
:101100005B0383E391E00E9459038091FA0190917F
:10111000FB010E947F038EE391E00E9459038091BE
:10112000F8019091F9010E947F0382E00E94BC01C6
:101130002091AE023091AF0282179307E1F081E572
:1011400091E00E945B038FE591E00E94590380913A
:10115000AE029091AF020E947F0386E691E00E946A
:1011600059038091AC029091AD020E947F038DE6FD
:1011700091E00E945B030E948901F1CE8091A6025A
:101180009091A7020C94F4091F93FC0199278827DA
:10119000BC01E89411911032E9F3193010F01E30BF
:1011A000C8F31B3251F01D3249F4689406C00E9406
:1011B000EB08610F711D811D911D119110531A30A3
:1011C000B0F33EF490958095709561957F4F8F4F69
:1011D0009F4F1F910895592F482F372F262F660FA5
:1011E000771F881F991F660F771F881F991F620F2F
:1011F000731F841F951F660F771F881F991F0895FF
:101200002F923F924F925F926F927F928F929F9216
:10121000AF92BF92CF92DF92EF92FF920F931F9304
:10122000CF93DF93CDB7DEB7CA1BDB0B0FB6F894B5
:10123000DEBF0FBECDBF09942A88398848885F84F5
:101240006E847D848C849B84AA84B984C884DF8066
:10125000EE80FD800C811B81AA81B981CE0FD11D4A
:101260000FB6F894DEBF0FBECDBFED010895A1E229
:101270001A2EAA1BBB1BFD010DC0AA1FBB1FEE1F10
:10128000FF1FA217B307E407F50720F0A21BB30B5B
:10129000E40BF50B661F771F881F991F1A9469F7D7
:1012A00060957095809590959B01AC01BD01CF0133
:1012B0000895EE0FFF1F0590F491E02D0994CF9350
:1012C000DF938230910510F482E090E0E091B20269
:1012D000F091B30220E030E0C0E0D0E0309711F1AF
:1012E0004081518148175907C0F04817590761F4E8
:1012F00082819381209719F09B838A832BC09093DE
:10130000B3028093B20226C02115310519F04217AD
:10131000530718F49A01BE01DF01EF010280F38147
:10132000E02DDCCF2115310509F1281B390B2430C4
:10133000310590F412968D919C911397611571056A
:1013400021F0FB019383828304C09093B3028093C6
:10135000B202FD01329644C0FD01E20FF31F8193FA
:101360009193225031092D933C933AC02091B002C1
:101370003091B102232B41F42091080130910901F1
:101380003093B1022093B002209106013091070101
:101390002115310541F42DB73EB740910A01509116
:1013A0000B01241B350BE091B002F091B102E21762
:1013B000F307A0F42E1B3F0B2817390778F0AC0178
:1013C0004E5F5F4F2417350748F04E0F5F1F509355
:1013D000B1024093B0028193919302C0E0E0F0E04B
:1013E000CF01DF91CF9108950F931F93CF93DF9398
:1013F000009709F48CC0FC0132971382128200918D
:10140000B2021091B3020115110581F420813181DE
:10141000820F931F2091B0023091B1022817390733
:1014200079F5F093B102E093B00271C0D80140E0C9
:1014300050E0AE17BF0750F412962D913C911397D0
:10144000AD012115310509F1D901F3CF9D01DA0173
:101450003383228360817181860F971F82179307E0
:1014600069F4EC0128813981260F371F2E5F3F4F29
:10147000318320838A819B8193838283452B29F446
:10148000F093B302E093B20242C01396FC93EE9342
:101490001297ED01499159919E01240F351FE217D2
:1014A000F30771F480819181840F951F0296119644
:1014B0009C938E938281938113969C938E93129723
:1014C000E0E0F0E0D80112968D919C91139700977F
:1014D00019F0F8018C01F6CF8D919C9198012E5F47
:1014E0003F4F820F931F2091B0023091B102281715
:1014F000390769F4309729F41092B3021092B202BE
:1015000002C0138212821093B1020093B002DF91E5
:10151000CF911F910F910895A0E0B0E0E2E9FAE0C9
:101520000C940409EC01009721F4CB010E945F099F
:10153000B8C0FC01E60FF71F9C0122503109E217E9
:10154000F30708F4ACC0D9010D911C91119706174F
:101550001707B0F00530110508F49FC0C8010497C3
:101560008617970708F499C002501109061B170B3C
:10157000019311936D937C93CF010E94F4098DC068
:101580005B01A01AB10A4C01800E911EA091B2021B
:10159000B091B30240E050E0E12CF12C109709F437
:1015A0004AC0A815B905D1F56D907C9011976301DB
:1015B00082E0C80ED11CCA14DB0480F1A3014A19D1
:1015C0005B096A0182E0C80ED11C1296BC9012978A
:1015D0001396AC91B5E0CB16D10440F0B282A38350
:1015E00051834083D9016D937C930AC00E5F1F4FD6
:1015F000C301800F911FF90191838083EB2DFA2F96
:10160000E114F10431F0D7011396FC93EE93129795
:1016100044C0F093B302E093B2023FC08D919C911D
:1016200011974817590708F4AC017D0112960D90E7
:10163000BC91A02DB3CF8091B0029091B1028815DA
:101640009905E1F446175707C8F480910601909177
:101650000701009741F48DB79EB740910A01509160
:101660000B01841B950BE817F907C8F4F093B1023E
:10167000E093B002F901718360830FC0CB010E9437
:101680005F097C01009759F0A801BE010E945B0B25
:10169000CE010E94F409C70104C0CE0102C080E05F
:1016A00090E0CDB7DEB7EEE00C94200981E090E049
:1016B000F8940C946B0BFB01DC0102C001900D92BD
:1016C00041505040D8F70895FB01DC0101900D9284
:1016D0000020E1F7089510E0C2E6D0E004C0FE016A
:1016E0000E9459092196C336D107C9F7F894FFCF54
:1016F000DD02DD020A000000B402800000000000EC
:1017000020018D00B8006701E900C700DB00000080
:10171000000032031E0344031003170314031103D4
:101720000D0A00454E435F56414C203D2000454E7A
:10173000435F56414C32203D2000494E542D2D3EF2
:10174000002D2D2D656E636F6465722D2D2D00505B
:10175000494E313D200050494E323D20002D2D2D67
:10176000656E6420656E636F6465722D2D2D0000BB
:00000001FF
