:100000000C94AC000C94D4000C94D4000C94D40048
:100010000C94D4000C94D4000C94D4000C94D40010
:100020000C94D4000C94D4000C94D4000C94D40000
:100030000C94D4000C94D4000C94D4000C94D400F0
:100040000C941E040C94D4000C9494030C946E0332
:100050000C94D4000C94D4000C94D4000C94D400D0
:100060000C9468040C94D4000303060318032B03B8
:1000700041036B036303670307634236B79BD8A74B
:100080001A39685618AEBAAB558C1D3CB7CC5763BD
:10009000BD6DEDFD753EF6177231BF000000803F6B
:1000A00008000000BE922449123EABAAAA2ABECD87
:1000B000CCCC4C3E00000080BEABAAAAAA3E0000F9
:1000C0000000BF000000803F0000000000084178F1
:1000D000D3BB4387D1133D190E3CC3BD4282AD2B28
:1000E0003E68EC8276BED98FE1A93E4C80EFFFBE20
:1000F00001C4FF7F3F00000000000000000024005A
:1001000027002A0000000000250028002B00000026
:10011000000023002600290004040404040404044D
:1001200002020202020203030303030301020408A2
:100130001020408001020408102001020408102051
:100140000000000800020100000304070000000096
:1001500000000000610DC40B11241FBECFEFD8E0DA
:10016000DEBFCDBF23E0A6E7B2E001C01D92A53FF0
:10017000B207E1F712E0A0E0B1E0E4E4F9E202C086
:1001800005900D92A637B107D9F710E0CBEAD0E081
:1001900004C02197FE010E948A12CA3AD107C9F70A
:1001A0000E94CA0B0C9495140C940000CF92DF921D
:1001B000EF92FF920F931F93CF93DF936C017A011D
:1001C0008B01C0E0D0E0CE15DF0581F0D8016D9144
:1001D0008D01D601ED91FC910190F081E02DC601D9
:1001E0000995892B11F02196EECF7E01C701DF9191
:1001F000CF911F910F91FF90EF90DF90CF900895D6
:100200000895CF93DF93AC01E0911F03F091200399
:100210003097F1F09091290380912A039817C0F04C
:1002200090E0292F30E02617370754F4D901AA5758
:10023000BD4FEA01C20FD31F28812C939F5FF1CFDE
:100240001092290360932A03CB01DF91CF91099487
:10025000DF91CF910895FC01538D448D252F30E01F
:10026000842F90E0821B930B541710F0CF960895C3
:1002700001970895FC01918D828D981761F0828D10
:10028000DF01A80FB11D5D968C91928D9F5F9F73CA
:10029000928F90E008958FEF9FEF0895FC01918D6C
:1002A000828D981731F0828DE80FF11D858D90E0D9
:1002B00008958FEF9FEF0895FC01918D228D892F76
:1002C00090E0805C9F4F821B91098F73992708955E
:1002D0008BE293E00E945C0121E0892B09F420E08D
:1002E000822F0895FC01848DDF01A80FB11DA35A50
:1002F000BF4F2C91848D90E001968F739927848F46
:10030000A689B7892C93A089B1898C918370806468
:100310008C93938D848D981306C00288F389E02D09
:1003200080818F7D80830895EF92FF920F931F93BA
:10033000CF93DF93EC0181E0888F9B8D8C8D981398
:1003400005C0E889F989808185FD26C0F62E0B8DD0
:1003500010E00F5F1F4F0F731127E02E8C8DE812F6
:100360000CC00FB607FCFACFE889F989808185FFB8
:10037000F5CFCE010E947201F1CF8B8DFE01E80F07
:10038000F11DE35AFF4FF0829FB7F8940B8FEA8973
:10039000FB89808180620AC09FB7F894EE89FF894B
:1003A0006083E889F98980818370806480839FBF3E
:1003B00081E090E0DF91CF911F910F91FF90EF903E
:1003C0000895CF93DF93EC01888D8823C9F0EA89E3
:1003D000FB89808185FD05C0A889B9898C9186FD3E
:1003E0000FC00FB607FCF5CF808185FFF2CFA8893B
:1003F000B9898C9185FFEDCFCE010E947201E7CFC4
:10040000DF91CF91089580E090E0892B29F00E9440
:10041000680181110C9400000895CF93DF9390E060
:10042000FC01E45DFE4F2491FC01E85EFE4F8491E7
:10043000882361F190E0880F991FFC01E650FF4F7F
:10044000C591D491FC01EC5FFE4FA591B49161116F
:1004500009C09FB7F8948881209582238883EC9106
:100460002E230BC0623061F49FB7F8948881322F3D
:10047000309583238883EC912E2B2C939FBF06C04D
:100480008FB7F894E8812E2B28838FBFDF91CF910F
:1004900008958230910538F0880F991F880F991FB1
:1004A00005970197F1F7089585ED8093BC00809141
:1004B000BC0084FDFCCF10921C0308954091C6023D
:1004C000262F30E0240F311D21323105DCF420913C
:1004D0001C032430C9F4FC0180E090E0861758F436
:1004E0003091C6022191DC01AA55BD4FA30FB11D69
:1004F0002C930196F3CF8091C602680F6093C602D9
:1005000080E0089581E0089582E008950895E091E3
:10051000290380912A03E81730F4F0E0EA57FD4FF1
:10052000808190E008958FEF9FEF089590912903C7
:1005300080912A03981750F4E92FF0E0EA57FD4F15
:10054000208130E09F5F9093290302C02FEF3FEF9F
:10055000C901089580912A0390E020912903821B0C
:1005600091090895CF93DF93CB01EA01642F0E9494
:100570005E02CE01DF91CF910895CF93DF931F925A
:10058000CDB7DEB7698361E0CE0101960E945E02BD
:1005900081E090E00F90DF91CF910895089580E081
:1005A00090E0089590912A03809129039817F9F01B
:1005B0008EE291E00E94B20780912A0390E02091A0
:1005C0002903821B91090E94FC0788EC93E00E949A
:1005D0009602909377028093760289E491E00E94DC
:1005E000B20780917602909177020E94FC07E09119
:1005F0007602F0917702E830F10508F06CC0EC5C0F
:10060000FF4F0C948A128BE591E063C00E940E08A4
:100610008091D4039091D5038130910519F481E63E
:1006200091E057C0029709F056C087E691E051C0AB
:100630000E940E088091D4039091D503A091D60317
:10064000B091D7038093210390932203A0932303B7
:10065000B093240308950E940E088EE691E00E9454
:100660008E098091D4039091D50390938502809355
:1006700084020E94B20980918402909185020C94B8
:10068000FC070E940E0882E791E00E948E0980918B
:10069000D4039091D503A091D603B091D703809352
:1006A0007C0290937D02A0937E02B0937F020E9411
:1006B000B20960917C0270917D0280917E029091DE
:1006C0007F020C94E00786E791E00E948E098DE797
:1006D00091E00C948E0908950E9477141F920F9256
:1006E0000FB60F9211242F933F934F935F936F9305
:1006F0007F938F939F93AF93BF93EF93FF938BE27F
:1007000093E00E947201FF91EF91BF91AF919F9191
:100710008F917F916F915F914F913F912F910F90AA
:100720000FBE0F901F9018951F920F920FB60F9249
:1007300011242F938F939F93EF93FF93E0913B03AB
:10074000F0913C038081E0914103F091420382FDEE
:1007500012C09081809144038F5F8F732091450375
:10076000821751F0E0914403F0E0E55DFC4F958F76
:100770008093440301C08081FF91EF919F918F91FD
:100780002F910F900FBE0F901F901895833081F01E
:1007900028F4813099F08230A1F008958730A9F0D3
:1007A0008830B9F08430D1F4809180008F7D03C00F
:1007B000809180008F7780938000089584B58F7733
:1007C00002C084B58F7D84BD08958091B0008F777D
:1007D00003C08091B0008F7D8093B00008951F9377
:1007E000CF93DF93282F30E0F901E05CFE4F849136
:1007F000F901E45DFE4FD491F901E85EFE4FC4912A
:10080000CC23C1F0162F81110E94C603EC2FF0E01B
:10081000EE0FFF1FEC5FFE4FA591B4919FB7F894C8
:10082000111104C08C91D095D82302C0EC91DE2B1D
:10083000DC939FBFDF91CF911F9108951F920F927C
:100840000FB60F9211242F933F938F939F93AF93E3
:10085000BF938091120390911303A0911403B09160
:1008600015033091110323E0230F2D3720F4019657
:10087000A11DB11D05C026E8230F0296A11DB11DC3
:10088000209311038093120390931303A0931403F6
:10089000B093150380910D0390910E03A0910F0367
:1008A000B09110030196A11DB11D80930D0390938B
:1008B0000E03A0930F03B0931003BF91AF919F91CC
:1008C0008F913F912F910F900FBE0F901F90189511
:1008D0001F920F920FB60F9211242F933F934F93B5
:1008E0005F936F937F938F939F93AF93BF93EF9398
:1008F000FF938091B900887F803609F49CC068F529
:10090000883209F45BC090F4803109F454C038F4A3
:10091000882309F4F6C0883009F44DC0F6C0883148
:1009200009F44CC0803209F45DC0EFC0803409F492
:1009300068C048F4803309F455C0883309F0E5C035
:100940008093E902D8C0803509F44FC0883509F496
:100950005DC0883409F0D9C0D6C0883909F4C7C051
:10096000A8F4883709F467C038F4883609F463C0FE
:10097000803709F460C0C9C0883809F4B8C080392C
:1009800009F45FC0803809F0C0C05BC0803B09F447
:1009900086C038F4803A09F466C0883A09F47FC00A
:1009A000B4C0803C09F4A7C0883C09F4A4C0883BCB
:1009B00009F48AC0AAC080910C0310C090910B0367
:1009C00080910A03981770F5E0910B0381E08E0F78
:1009D00080930B03F0E0E651FD4F80818093BB00D4
:1009E00085EC86C08093E9028EC0E0910B0381E024
:1009F0008E0F80930B038091BB00F0E0E651FD4F1A
:100A0000808390910B0380910A036EC0E0910B03E9
:100A100081E08E0F80930B038091BB00F0E0E651E4
:100A2000FD4F808380911B0381116DC081E0809315
:100A30001A0384EA61C083E080931C031092E802E9
:100A4000CFCF8091E802803208F051C0E091E802F7
:100A500081E08E0F8093E8028091BB00F0E0E853C4
:100A6000FD4F8083BDCF85EC8093BC0010921C03AA
:100A70008091E802803230F4E091E802F0E0E8533F
:100A8000FD4F10826091E80270E0E0911603F09152
:100A9000170388EC92E009951092E80236C084E0D2
:100AA00080931C031092C7021092C602E0911803B3
:100AB000F091190309958091C602811105C081E06A
:100AC0008093C6021092A602E091C70281E08E0FC9
:100AD0008093C702F0E0EA55FD4F80818093BB0010
:100AE0009091C7028091C602981708F479CF85E8E3
:100AF0008093BC000AC085EC8093BC0010921C035C
:100B000004C01092E9020E945402FF91EF91BF913C
:100B1000AF919F918F917F916F915F914F913F9195
:100B20002F910F900FBE0F901F90189561E08FE0EE
:100B30000E94EF0380910001909101010E944902FF
:100B400060E08FE00E94EF0383E090E00197F1F70F
:100B500008958091000190910101A0910201B0914E
:100B600003014E97A105B10564F48EE190E0A0E089
:100B7000B0E08093000190930101A0930201B09333
:100B8000030108954F925F926F927F928F929F928E
:100B9000AF92BF92CF92DF92EF92FF92CF93DF930B
:100BA000CDB7DEB728970FB6F894DEBF0FBECDBF26
:100BB0006091840270918502072E000C880B990BBE
:100BC0000E94BA0D26E636E646E65DE30E947B0FFC
:100BD00060938002709381028093820290938302DB
:100BE00060917C0270917D0280917E0290917F02E3
:100BF0000E94BA0D26E636E646E65DE30E947B0FCC
:100C00004B015C010E9423106B017C019B01AC0134
:100C1000C501B4010E940E0F2AE939E949E95EE3F2
:100C20000E947B1018168CF420E030E040E85FE36F
:100C3000C701B6010E940F0F60932503709326032E
:100C4000809327039093280308C0C0922503D09275
:100C50002603E0922703F0922803809121039091CC
:100C60002203A0912303B0912403BC01CD01660FA0
:100C7000771F881F991F0E94BA0D2091250330917C
:100C8000260340912703509128030E947B0F0E9466
:100C9000D610609378027093790280937A029093D1
:100CA0007B0285E891E00E94B20760917802709122
:100CB000790280917A0290917B020E94C80988E9AA
:100CC00091E00E94B2076091250370912603809104
:100CD0002703909128030E94C80980918002909177
:100CE0008102A0918202B091830289839A83AB83AF
:100CF000BC8340902503509026036090270370909A
:100D00002803A3019201BC01CD010E947B0F6B015E
:100D10007C018091210390912203A0912303B09143
:100D200024038D839E83AF83B887BC01CD010E94CD
:100D3000BA0D4B015C01A7019601C701B6010E94E3
:100D4000190EA30192010E94190EA50194010E949F
:100D50007B1018169CF46D817E818F81988522E02E
:100D600030E040E050E00E946B12CA01B9010E94DD
:100D7000BA0D6B017C010E94930A37C0A70196014E
:100D800069817A818B819C810E94190E20E030E07C
:100D900040E05FE30E94190E6B017C010E94930A00
:100DA0000E94A905A7019601C701B6010E940F0F75
:100DB0009B01AC01C501B4010E940E0F2B013C0147
:100DC000A12CB12CB5010B2C000C880B990B0E94A7
:100DD000BA0DA30192010E94B30D87FF06C00E94C5
:100DE00096059FEFA91AB90AEDCFC701B60128965B
:100DF0000FB6F894DEBF0FBECDBFDF91CF91FF904D
:100E0000EF90DF90CF90BF90AF909F908F907F90AA
:100E10006F905F904F900C94120B009769F0FC015B
:100E200001900020E9F73197AF01481B590BBC0135
:100E30008BE293E00C94D60080E090E008958F92CE
:100E40009F92AF92BF920F931F93CF93DF93CDB733
:100E5000DEB7A1970FB6F894DEBF0FBECDBF19A2C3
:100E6000423008F44AE08E010F5D1F4F842E912C12
:100E7000A12CB12CA50194010E944912E62FB901C1
:100E8000CA0101501109EA3014F4E05D01C0E95CC7
:100E9000D801EC93232B242B252B61F7C8010E944A
:100EA0000D07A1960FB6F894DEBF0FBECDBFDF9140
:100EB000CF911F910F91BF90AF909F908F90089509
:100EC0000F931F93CF93DF938C01EB018091EB0382
:100ED0009091EC03009739F02091ED033091EE03EF
:100EE0002617370768F5BE016F5F7F4F0E94B11369
:100EF000009789F09093EC038093EB03D093EE037B
:100F0000C093ED032091EF033091F003232BC1F444
:100F1000FC01108215C08091EB039091EC030097C7
:100F200011F00E9428131092EC031092EB03109220
:100F3000F0031092EF031092EE031092ED030BC03A
:100F4000D093F003C093EF03B8018091EB0390912D
:100F5000EC030E948E148BEE93E0DF91CF911F91F2
:100F60000F9108950C940D07CF92DF92EF92FF92AC
:100F7000CF93DF9397FF1BC06B017C016DE28BE287
:100F800093E00E949401EC0166277727CB016C194E
:100F90007D098E099F094AE00E941F078C0F9D1F43
:100FA000DF91CF91FF90EF90DF90CF9008954AE0CE
:100FB000DF91CF91FF90EF90DF90CF900C941F07BF
:100FC000CF93DF930E94B407EC0186EE91E00E947C
:100FD0000D078C0F9D1FDF91CF910895CF93DF9365
:100FE0000E940D07EC0186EE91E00E940D078C0F28
:100FF0009D1FDF91CF910895CF93DF93BC01990F8F
:10100000880B990B0E94B407EC0186EE91E00E94D8
:101010000D078C0F9D1FDF91CF9108958F929F92A6
:10102000AF92BF92CF92DF92EF92FF920F931F93F6
:10103000CF93DF938091EA03882321F089EE91E03A
:101040000E94EE071092D8031092D9031092DA038F
:101050001092DB031092DC031092DD031092DE038A
:101060001092DF031092E0031092E1031092E2036A
:101070001092E3031092E4031092E5031092E6034A
:101080001092E7038091EA03882369F08AEF91E0E8
:101090000E94EE0780912A0390E020912903821B91
:1010A00091090E94FC07C4EDD3E08E01C12CD12C24
:1010B000760190912A0380912903981761F188ECB9
:1010C00093E00E949602092E000CAA0BBB0BF801BC
:1010D00084839583A683B7838091EA03882399F05C
:1010E00080E192E00E94B207C701B6010E94B407F6
:1010F00085E192E00E94B207F801648175818681E2
:1011000097810E94E0070C5F1F4FFFEFCF1ADF0AA5
:10111000EF0AFF0ACECF8091EA03882361F087EEC1
:1011200091E00E94B2078BE192E00E94B20787EE45
:1011300091E00E94B2071092D4031092D50310924E
:10114000D6031092D703C12CD12C760100E010E019
:101150008C819D81AE81BF81B7FF1CC08091EA0365
:10116000882309F468C083E492E00E94EE0789E5D1
:1011700092E00E94B2076091D4037091D5038091F0
:10118000D6039091D7030E94E00787EE91E00E947A
:10119000B20751C08091EA03882391F0C701B601DC
:1011A0000E94B40785E392E00E94B2076C817D81C2
:1011B0008E819F810E94B4078BE392E00E94B20768
:1011C0000115110509F04AC04091D4035091D5038F
:1011D0006091D6037091D7038091D8039091D90381
:1011E000A091DA03B091DB03840F951FA61FB71FF0
:1011F0008093D4039093D503A093D603B093D703E1
:101200008091EA03882351F06091D4037091D50353
:101210008091D6039091D7030E94E0070F5F1F4F84
:1012200024968FEFC81AD80AE80AF80A0430110584
:1012300009F08ECF93CF81E090E09093E903809303
:10124000E803DF91CF911F910F91FF90EF90DF9016
:10125000CF90BF90AF909F908F900895B801012ECE
:10126000000C880B990B0E94BA0D9B01AC0160E049
:1012700070E080E893E40E94801020E030E040E0DD
:101280005FE30E940F0F0E9423104B015C016C81F1
:101290007D818E819F810E94BA0DA50194010E94DB
:1012A000190E4B015C016091D4037091D5038091BC
:1012B000D6039091D7030E94BA0D9B01AC01C501E2
:1012C000B4010E940F0F0E94ED0F6093D40370933E
:1012D000D5038093D6039093D70392CFFC018091DE
:1012E000EF039091F003892B21F421E0309749F42A
:1012F00013C08091EB039091EC03309731F421E01F
:10130000FC018081882341F006C0BF010E94851442
:1013100021E0892B09F020E0822F0895009759F0F1
:10132000FC0101900020E9F73197BF01681B790BA0
:101330000E94600714C08091EB039091EC0300972A
:1013400011F00E9428131092EC031092EB031092FC
:10135000F0031092EF031092EE031092ED038BEE68
:1013600093E00895CF93DF93EBEEF3E04481558152
:10137000608171818BE293E00E94D600EC0186EEE1
:1013800091E00E940D078C0F9D1FDF91CF91089572
:101390004F925F926F927F928F929F92AF92BF9285
:1013A000CF92DF92EF92FF926B017C019B01AC0127
:1013B0000E941611882319F08AE692E01AC04601AD
:1013C0005701E894B7F82FEF3FEF4FE75FE7C5010C
:1013D000B4010E941611811110C02FEF3FEF4FE7AB
:1013E0005FE7C501B4010E94B30D181634F48EE610
:1013F00092E00E940D077C0183C02FEF3FEF4FE783
:101400005FE4C701B6010E947B1018161CF482E746
:1014100092E0EFCF2FEF3FEF4FE75FECC701B60150
:101420000E94B30D87FDF3CF20E030E0A901C70192
:10143000B6010E94B30D87FF0BC06DE28BE293E013
:101440000E9494015C01F7FAF094F7F8F09402C05E
:10145000A12CB12C2AE037ED43EA5BE3C701B601CA
:101460000E940F0F2B013C010E94F40F6B017C01C5
:101470000E94B80D9B01AC01C301B2010E940E0F86
:101480002B013C014AE0C701B6010E941F077C0105
:10149000EA0CFB1C6EE28BE293E00E949401E80EE2
:1014A000F91E20E030E040E251E4C301B2010E94A5
:1014B000190E2B013C010E94F40F4B01A12CB12C01
:1014C0004AE0C501B4010E941F07E80EF91EC501DC
:1014D000B4010E94B80D9B01AC01C301B2010E948E
:1014E0000E0F20E030E040E251E40E94190E0E940D
:1014F000F40F80E090E04AE00E941F07E80EF91E1A
:1015000086EE91E00E940D078E0D9F1DFF90EF90DB
:10151000DF90CF90BF90AF909F908F907F906F9013
:101520005F904F9008952F923F924F925F926F92EB
:101530007F928F929F92AF92BF92CF92DF92EF9263
:10154000FF920F931F93CF93DF934B015C01C090E9
:101550002503D0902603E0902703F0902803A701ED
:10156000960160E070E080E090E40E947B0F0E94B2
:10157000D61020E034E244E759E40E94190E1B0122
:101580002C01C2E0D0E0BE010D2E000C880B990B9F
:101590000E94BA0D9B01AC01C501B4010E947B10F1
:1015A00087FD2DC0BE01660F771F072E000C880B2C
:1015B000990B0E94BA0DA70196010E947B0F0E9411
:1015C000D61020E034E244E759E40E94190E3B01B2
:1015D0008C019101A2010E940E0F0E94ED0F6093F9
:1015E00000017093010180930201909303010E9416
:1015F000A9050E949605219613012801C4CFDF9109
:10160000CF911F910F91FF90EF90DF90CF90BF90FF
:10161000AF909F908F907F906F905F904F903F9092
:101620002F9008954F925F926F927F928F929F9228
:10163000AF92BF92CF92DF92EF92FF920F931F93E0
:10164000CF93DF936B017C0180902503909026035C
:10165000A0902703B09028039B01AC010E940F0FBC
:10166000A50194010E947B0F0E94D61020E034E275
:1016700044E759E40E94190E2B013C0120E030E0C0
:1016800040E85FE3C701B6010E940E0F0E94ED0F14
:101690008B01EB01CC0FDD1F17FD41C0BE010D2EEC
:1016A000000C880B990B0E94BA0DA50194010E94B1
:1016B0007B0F0E94D61020E034E244E759E40E94F8
:1016C000190E6B017C019201A3010E940E0F0E9472
:1016D000ED0F97FD09C060930001709301018093A5
:1016E00002019093030111C09B01AC018827992747
:1016F000DC01821B930BA40BB50B8093000190932C
:101700000101A0930201B09303010E94A9050E9468
:10171000960501501109229726013701BDCFDF91AF
:10172000CF911F910F91FF90EF90DF90CF90BF90DE
:10173000AF909F908F907F906F905F904F900895A3
:10174000CF93DF93E2E4F1E08491EEE2F1E0D49113
:10175000EAE1F1E0C491CC2391F081110E94C6032B
:10176000EC2FF0E0EE0FFF1FE25FFE4FA591B4916A
:10177000EC91ED2381E090E021F480E002C080E074
:1017800090E0DF91CF9108958091EB039091EC036D
:101790000C942813789484B5826084BD84B58160EC
:1017A00084BD85B5826085BD85B5816085BD80912C
:1017B0006E00816080936E001092810080918100A4
:1017C000826080938100809181008160809381009C
:1017D000809180008160809380008091B10084605E
:1017E0008093B1008091B00081608093B0008091BF
:1017F0007A00846080937A0080917A00826080937E
:101800007A0080917A00816080937A0080917A00DA
:10181000806880937A001092C100E0913B03F091C0
:101820003C03C2E0C083E0913703F091380310829B
:10183000E0913903F0913A0380E1808310924303F1
:10184000E0913F03F091400386E08083E0913D0307
:10185000F0913E03808180618083E0913D03F091AF
:101860003E03808188608083E0913D03F0913E03D8
:10187000808180688083E0913D03F0913E03808108
:101880008F7D80831092290310922A0310921E03E9
:1018900010921D0310921C0381E080931B03109291
:1018A0001A0361E082E10E94EF0361E083E10E949C
:1018B000EF038091B9008E7F8093B9008091B900C9
:1018C0008D7F8093B90088E48093B80085E480938D
:1018D000BC0080E091E0909319038093180381E0AD
:1018E00091E09093170380931603C093BA0082EDA2
:1018F00092E09093200380931F0361E080E10E94B7
:101900000D028FEA91E00E94B20761E070E080E092
:1019100090E00E94B40786EB91E00E94EE0760E041
:1019200082E00E940D0261E08FE00E940D0261E002
:101930008EE00E940D0261E080E10E940D0260E0F5
:1019400082E00E94EF0388ECC82ED12CE12CF12C10
:101950008BE591E00E946E098823E1F18BE591E02F
:101960000E94EE07C0920001D0920101E0920201B4
:10197000F092030188EE91E00E948E0961E08EE012
:101980000E94EF030E94A00B0197A1F461E08FE099
:101990000E94EF0380910001909101010E94490291
:1019A00060E08FE00E94EF038091000190910101BF
:1019B0000E9449020E94A00B892B01F780EC91E064
:1019C0000E94EE0788EE91E00E948E098BEC91E078
:1019D0000E94EE0786E791E00E946E09882391F04D
:1019E00086E791E00E94EE0788EE91E00E948E0962
:1019F0008DE791E00E946E098823B1F387ED91E0B5
:101A00000E94EE0781E691E00E946E09882341F171
:101A100081E691E00E94EE0760912103709122031C
:101A200080912303909124030E94E00760E080E10D
:101A30000E94EF0361E08EE00E94EF03809121039A
:101A400090912203A0912303B0912403892B8A2B28
:101A50008B2B11F00E94C20588EE91E00E948E0946
:101A600087E691E00E946E09882341F187E691E0C4
:101A70000E94EE076091210370912203809123035D
:101A8000909124030E94E00760E080E10E94EF0350
:101A900060E08EE00E94EF03809121039091220389
:101AA000A0912303B0912403892B8A2B8B2B11F057
:101AB0000E94C20588EE91E00E948E090E940302F6
:101AC00047CFEBE2F3E01382128288EE93E0A0E0CE
:101AD000B0E084839583A683B7832EE031E0318321
:101AE000208325EC30E03587248724EC30E03787ED
:101AF000268720EC30E0318B208B21EC30E0338BDB
:101B0000228B22EC30E0358B248B26EC30E0378BB7
:101B1000268B118E128E138E148EE8ECF3E0138256
:101B2000128284839583A683B78380E291E09183B8
:101B30008083EBEEF3E01182108213821282158211
:101B4000148260E070E088EE91E00E946007E4EDAE
:101B5000F3E0108211821282138281E0868B158A53
:101B6000148A0C940E080E94F50D08F481E0089583
:101B7000E89409C097FB3EF4909580957095619527
:101B80007F4F8F4F9F4F9923A9F0F92F96E9BB27DD
:101B90009395F695879577956795B795F111F8CF59
:101BA000FAF4BB0F11F460FF1BC06F5F7F4F8F4FC4
:101BB0009F4F16C0882311F096E911C0772321F0BA
:101BC0009EE8872F762F05C0662371F096E8862F52
:101BD00070E060E02AF09A95660F771F881FDAF7A9
:101BE000880F9695879597F90895990F0008550FD6
:101BF000AA0BE0E8FEEF16161706E807F907C0F093
:101C000012161306E407F50798F0621B730B840B9A
:101C1000950B39F40A2661F0232B242B252B21F474
:101C200008950A2609F4A140A6958FEF811D811D14
:101C300008950E942C0E0C949D0E0E948F0E38F079
:101C40000E94960E20F0952311F00C94860E0C94B1
:101C50008C0E11240C94D10E0E94AE0E70F3959F41
:101C6000C1F3950F50E0551F629FF001729FBB2793
:101C7000F00DB11D639FAA27F00DB11DAA1F649F2F
:101C80006627B00DA11D661F829F2227B00DA11DE2
:101C9000621F739FB00DA11D621F839FA00D611D68
:101CA000221F749F3327A00D611D231F849F600D89
:101CB000211D822F762F6A2F11249F5750409AF0B2
:101CC000F1F088234AF0EE0FFF1FBB1F661F771F3E
:101CD000881F91505040A9F79E3F510580F00C9409
:101CE000860E0C94D10E5F3FE4F3983ED4F38695B4
:101CF00077956795B795F795E7959F5FC1F7FE2BA9
:101D0000880F911D9695879597F9089597F99F6784
:101D100080E870E060E008959FEF80EC0895002473
:101D20000A941616170618060906089500240A9440
:101D300012161306140605060895092E0394000CC6
:101D400011F4882352F0BB0F40F4BF2B11F460FF55
:101D500004C06F5F7F4F8F4F9F4F089557FD90587E
:101D6000440F551F59F05F3F71F04795880F97FB5F
:101D7000991F61F09F3F79F0879508951216130619
:101D80001406551FF2CF4695F1DF08C01616170648
:101D90001806991FF1CF869571056105089408957D
:101DA000E894BB2766277727CB0197F908952F92F0
:101DB0003F924F925F926F927F928F929F92AF92DB
:101DC000BF92CF92DF92EF92FF920F931F93CF9328
:101DD000DF93CDB7DEB7CA1BDB0B0FB6F894DEBFBF
:101DE0000FBECDBF09942A88398848885F846E84E5
:101DF0007D848C849B84AA84B984C884DF80EE802F
:101E0000FD800C811B81AA81B981CE0FD11D0FB637
:101E1000F894DEBF0FBECDBFED0108955058BB272B
:101E2000AA270E94260F0C949D0E0E948F0E38F058
:101E30000E94960E20F039F49F3F19F426F40C947A
:101E40008C0E0EF4E095E7FB0C94860EE92F0E94B1
:101E5000AE0E58F3BA17620773078407950720F090
:101E600079F4A6F50C94D00E0EF4E0950B2EBA2F53
:101E7000A02D0B01B90190010C01CA01A001112490
:101E8000FF27591B99F0593F50F4503E68F11A163C
:101E9000F040A22F232F342F4427585FF3CF4695CD
:101EA00037952795A795F0405395C9F77EF41F16EF
:101EB000BA0B620B730B840BBAF09150A1F0FF0FB9
:101EC000BB1F661F771F881FC2F70EC0BA0F621FA5
:101ED000731F841F48F4879577956795B795F79595
:101EE0009E3F08F0B0CF9395880F08F09927EE0F2A
:101EF0009795879508950E948F0F0C949D0E0E94D0
:101F0000960E58F00E948F0E40F029F45F3F29F0A2
:101F10000C94860E51110C94D10E0C948C0E0E94D0
:101F2000AE0E68F39923B1F3552391F3951B550B2E
:101F3000BB27AA2762177307840738F09F5F5F4F9C
:101F4000220F331F441FAA1FA9F335D00E2E3AF0DB
:101F5000E0E832D091505040E695001CCAF72BD0F3
:101F6000FE2F29D0660F771F881FBB1F2617370744
:101F70004807AB07B0E809F0BB0B802DBF01FF2776
:101F800093585F4F3AF09E3F510578F00C94860EBF
:101F90000C94D10E5F3FE4F3983ED4F38695779589
:101FA0006795B795F7959F5FC9F7880F911D96952F
:101FB000879597F90895E1E0660F771F881FBB1F8B
:101FC000621773078407BA0720F0621B730B840B38
:101FD000BA0BEE1F88F7E09508950E94F40F6894FD
:101FE000B1110C94D10E08950E94B60E88F09F573F
:101FF00098F0B92F9927B751B0F0E1F0660F771F2D
:10200000881F991F1AF0BA95C9F714C0B13091F022
:102010000E94D00EB1E008950C94D00E672F782F57
:102020008827B85F39F0B93FCCF3869577956795E7
:10203000B395D9F73EF490958095709561957F4F53
:102040008F4F9F4F08950E94631090F09F3748F480
:10205000911116F00C94D10E60E070E080E89FEBD7
:10206000089526F41B16611D711D811D0C943A10F4
:102070000C945510882371F4772321F09850872B06
:10208000762F07C0662311F499270DC09051862B37
:1020900070E060E02AF09A95660F771F881FDAF7E4
:1020A000880F9695879597F908959F3F31F0915045
:1020B00020F4879577956795B795880F911D96952C
:1020C000879597F908950E94B60EA0F0BEE7B9175C
:1020D00088F4BB279F3860F41616B11D672F782F40
:1020E0008827985FF7CF869577956795B11D93956B
:1020F0009639C8F308950E94F50D08F48FEF0895FE
:10210000FA01EE0FFF1F309621053105A1F161158F
:10211000710561F48038BFE39B0749F168949038FA
:10212000810561F08038BFEF9B0741F099234AF5A4
:10213000FF3FE1053105210519F1E8940894E79581
:10214000D901AA2329F4AB2FBE2FF85FD0F310C01A
:10215000FF5F70F4A695E0F7F73950F019F0FF3AF9
:1021600038F49F779F930DD00F9007FC90580895F7
:1021700046F00C948C0E60E070E080E89FE30895D8
:102180004FE79F775F934F933F932F930E94CD111B
:102190002F913F914F915F910E94190E0C94231142
:1021A00019F416F40C948C0E0C9455100E94B60E73
:1021B000B8F39923C9F3B6F39F57550B87FF0E94D5
:1021C00055110024A0E640EA900180585695979555
:1021D00028F4805C660F771F881F20F026173707CA
:1021E000480730F4621B730B840B202931294A2BDA
:1021F000A69517940794202531254A2758F7660F8E
:10220000771F881F20F026173707480730F4620B26
:10221000730B840B200D311D411DA09581F7B90171
:10222000842F9158880F9695879508950E94F50DF3
:10223000880B990B089529F416F00C94860E0C94D3
:10224000D00E0C948C0E0E94B60EA8F39638A0F710
:1022500007F80F92E8942BE33AEA48EB5FE70E9415
:102260002F0E0F920F920F924DB75EB70F920E94F2
:102270001512E8E7F0E00E945C114F915F91EF9139
:10228000FF91E595EE1FFF1F49F0FE57E0684427D8
:10229000EE0F441FFA95E1F74195550B0E948F11FF
:1022A0000F9007FE0C948311089591505040660FD3
:1022B000771F881FD2F70895DF93CF931F930F9353
:1022C000FF92EF92DF927B018C01689406C0DA2EB8
:1022D000EF010E942C0EFE01E894A5912591359105
:1022E00045915591A6F3EF010E94260FFE0197013B
:1022F000A801DA9469F7DF90EF90FF900F911F919A
:10230000CF91DF9108959B01AC0160E070E080E81F
:102310009FE30C947B0F0C94860E0C9455100E9436
:10232000B60ED8F39923C9F3940F511DA3F391501E
:10233000504094F059F0882332F0660F771F881FC1
:1023400091505040C1F79E3F51052CF7880F911DC9
:102350009695879597F908955F3FACF0983E9CF06D
:10236000BB27869577956795B79508F4B1609395E7
:10237000C1F7BB0F58F711F460FFE8CF6F5F7F4FD5
:102380008F4F9F4FE3CF0C94D10E16F00C94551045
:102390000C948C0E68940C94860E0E94B60EA8F3D2
:1023A0009923C1F3AEF3DF93CF931F930F93FF9263
:1023B000C92FDD2788232AF02197660F771F881FF2
:1023C000DAF720E030E040E85FEB9FE3883920F067
:1023D000803E38F021968F770E940F0FE0EAF0E000
:1023E00004C00E940F0FEDECF0E00E945C118B0125
:1023F000BE01EC01FB2E6F5771097595771F880B95
:10240000990B0E94BA0D28E132E741E35FE30E9495
:102410002C0EAF2D9801AE01FF900F911F91CF911F
:10242000DF910E94260F0C949D0EFA01DC01AA0F89
:10243000BB1F9B01AC01BF5728F422273327442739
:10244000507820C0B75190F4AB2F002446953795B3
:102450002795011CA395D2F3002071F0220F331FA2
:10246000441FB395DAF30ED00C940E0F6130710552
:10247000A0E88A07B94630F49B01AC0166277727AC
:1024800088279078309621F02083318342835383CC
:102490000895A1E21A2EAA1BBB1BFD010DC0AA1FA5
:1024A000BB1FEE1FFF1FA217B307E407F50720F0BD
:1024B000A21BB30BE40BF50B661F771F881F991F38
:1024C0001A9469F760957095809590959B01AC0181
:1024D000BD01CF010895052E97FB1EF400940E94C4
:1024E000821257FD07D00E94491207FC03D04EF418
:1024F0000C94821250954095309521953F4F4F4F47
:102500005F4F089590958095709561957F4F8F4F9F
:102510009F4F0895EE0FFF1F0590F491E02D099451
:102520000F931F93CF93DF938230910510F482E0D5
:1025300090E0E091F303F091F40320E030E0A0E0BC
:10254000B0E0309719F14081518102811381481721
:102550005907C8F08417950769F4109731F012965F
:102560000C93129713961C9327C00093F3031093B8
:10257000F40322C02115310519F04217530718F44E
:102580009A01BD01EF01DF01F801DBCF2115310513
:10259000F9F0281B390B2430310580F48A819B81A6
:1025A0006115710521F0FB019383828304C0909330
:1025B000F4038093F303FE01329644C0FE01E20F60
:1025C000F31F8193919322503109398328833AC0B4
:1025D0002091F1033091F203232B41F42091060165
:1025E000309107013093F2032093F103209104010D
:1025F000309105012115310541F42DB73EB74091C9
:10260000080150910901241B350BE091F103F09171
:10261000F203E217F307A0F42E1B3F0B281739072C
:1026200078F0AC014E5F5F4F2417350748F04E0F2E
:102630005F1F5093F2034093F1038193919302C083
:10264000E0E0F0E0CF01DF91CF911F910F9108956D
:10265000CF93DF93009709F481C0FC013297138276
:102660001282A091F303B091F403109781F42081BA
:102670003181820F931F2091F1033091F2032817CB
:10268000390751F5F093F203E093F10367C0ED01D0
:1026900020E030E0CE17DF0740F44A815B819E01E5
:1026A00041155105F1F0EA01F5CFD383C283408192
:1026B0005181840F951FC817D90759F488819981D2
:1026C000840F951F0296918380838A819B819383D7
:1026D00082832115310529F4F093F403E093F30389
:1026E0003DC0E901FB83EA8349915991C40FD51F8D
:1026F000EC17FD0761F480819181840F951F02968C
:10270000E90199838883828193819B838A83E0E0B6
:10271000F0E012968D919C911397009719F0FD01AE
:10272000DC01F7CF8D919C9111979D012E5F3F4F5A
:10273000820F931F2091F1033091F203281739077C
:1027400069F4309729F41092F4031092F30302C055
:1027500013821282B093F203A093F103DF91CF9121
:102760000895A0E0B0E0E7EBF3E10C94DB0EEC01A0
:10277000009721F4CB010E949012B4C0FC01E60F37
:10278000F71F9C0122503109E217F30708F4A8C093
:10279000D9010D911C91119706171707B0F005305C
:1027A000110508F49BC0C80104978617970708F421
:1027B00095C002501109061B170B019311936D93DD
:1027C0007C93CF010E94281389C05B01A01AB10A33
:1027D0004C01800E911EA091F303B091F403612C83
:1027E000712CE12CF12C109709F446C08D919C912D
:1027F0001197A815B905B1F56C0142E0C40ED11CC2
:10280000CA14DB0478F14C018A189B08640142E089
:10281000C40ED11C1296BC9012971396AC91B5E0E1
:10282000CB16D10440F0B282A38391828082D90179
:102830006D937C9309C00E5F1F4F800F911FF901AC
:1028400091838083EB2DFA2FE114F10431F0D7014D
:102850001396FC93EE93129741C0F093F403E09328
:10286000F3033CC06816790608F43C017D0112961A
:102870000D90BC91A02DB7CF8091F1039091F20300
:1028800088169906E1F466167706C8F4809104016B
:1028900090910501009741F48DB79EB740910801D2
:1028A00050910901841B950BE817F907C8F4F093C0
:1028B000F203E093F103F901718360830FC0CB0150
:1028C0000E9490127C01009759F0A801BE010E945D
:1028D0007C14CE010E942813C70104C0CE0102C09F
:1028E00080E090E0CDB7DEB7EEE00C94F70E81E02B
:1028F00090E0F8940C949514FB01DC0102C0019067
:102900000D9241505040D8F70895FB01DC018D91A4
:10291000019080190110D9F3990B0895FB01DC0196
:1029200001900D920020E1F7089510E0CBEAD0E08D
:1029300004C0FE010E948A122196CC3AD107C9F741
:04294000F894FFCF39
:10294400C80000000000F5038000000000009401AE
:10295400D6002B01E1015C013A014E0100000000A8
:10296400BD02B202CF028602AA02960287022A2A76
:10297400206F6E526563656976655F66756E5F6E1E
:10298400756D626572203D2000436F6E7472616CD8
:10299400206E756D626572203D20007265736574EA
:1029A40000737461727400737461727432004D61E7
:1029B400780061636300455F53746F7000455F5333
:1029C4007461727400616C6C5F64656C61797469C4
:1029D4006D6520202D3E20006164645F7374657012
:1029E4002020E58AA0E9809FE5BAA62D3E20005369
:1029F4006C61766520002D2D3E205265616479005E
:102A040073656E73657220204F4B00726573657435
:102A14002020454E442000455F53746F70202D2DB7
:102A24003E20454E44000D0A002A2A20554E494FA7
:102A34004E2D2D2D5374617274002A2A2057697209
:102A4400652E617661696C61626C6520203D2000B1
:102A540069203D2000092D2D3E2000202A2A2043F4
:102A64006F6D6D696E6741646420202D2D3E205387
:102A74007461727400202D2D3E2000202D2D3E20E7
:102A84003D20002A2A20436F6D6D696E674164649E
:102A9400202D2D3E20456E6400696E636F6D6D6957
:102AA4006E6742797465203D20006E616E00696E28
:062AB40066006F7666006B
:00000001FF
