:1000000007C1000033C1000031C100002FC1000052
:100010002DC100002BC1000029C1000027C1000034
:1000200025C1000023C1000021C100001FC1000044
:100030001DC100001BC1000019C1000017C1000054
:1000400015C10000BBC3000011C100000FC10000BA
:100050000DC100000BC1000009C10000DEC200009C
:1000600005C1000003C1000001C10000FFC0000085
:10007000FDC00000FBC00000F9C00000F7C0000098
:1000800070C30000F3C00000F1C00000EFC000002A
:10009000EDC00000EBC00000E9C00000E7C00000B8
:1000A000E5C00000E3C000002FC30000DFC0000077
:1000B000DDC00000DBC00000D9C00000F8C20000B5
:1000C000D5C00000D3C00000D1C00000CFC00000E8
:1000D000CDC00000CBC00000C9C00000C7C00000F8
:1000E000C5C000009D01A0018F0193019701D701B8
:1000F000A401A801AE01B201B601BC01C001C40156
:10010000D701CA01CE01D20100000A0B02090C0D71
:100110000E080703040100000000000000000000BA
:1001200000000000000000000000000000000000CF
:10013000000000001211100000000000000000008C
:1001400000000000000000000000000000000000AF
:100150002200250028002B002E003100340002016F
:100160000000050108010B01000021002400270008
:100170002A002D00300033000101000004010701B6
:100180000A0105050505070508080808020202021C
:100190000A0A080804040404010101010101010123
:1001A0000303030303030303040707070C0C0C0CEE
:1001B0000C0C0C0C020202020606060606060606D7
:1001C0000B0B0B0B0B0B0B0B010210202008081064
:1001D00020401020408002010201080402010102B7
:1001E0000408102040808040201008040201800490
:1001F00002018040201008040201080402010102EB
:1002000004081020408001020408102040802A05C4
:1002100011241FBECFEFD1E2DEBFCDBF00E00CBF87
:1002200012E0A0E0B2E0E8EBFAE000E00BBF02C0B1
:1002300007900D92A030B107D9F722E0A0E0B2E01C
:1002400001C01D92A13AB207E1F711E0C8E0D1E088
:1002500000E005C021970109802FFE0123D4C7309B
:10026000D10780E00807B1F7D6D224C4C9CEAC01CB
:1002700090910E02903390F580910F0228E830E0C3
:10028000281B310987FD3395220F331F220F331F9F
:100290004217530784F08091100228E532E0281BB2
:1002A000310987FD3395220F331F220F331F421769
:1002B00053070CF49A0122503109220F331F4FB714
:1002C000F894892F90E0FC01EE0FFF1F8E0F9F1F07
:1002D000FC01EF5EFD4F328321834FBF0895362F1F
:1002E00090E0FC01E85FFE4F4491FC01E853FE4FB3
:1002F0002491FC01EE57FE4F9491992309F46AC0B2
:10030000442309F454C050E0FA013197E231F10579
:1003100008F04DC08827EE58FF4F8F4FC3C3809120
:1003200080008F7707C0809180008F7D03C080910F
:100330008000877F809380003AC084B58F7702C0A9
:1003400084B58F7D84BD33C08091B0008F7703C0AA
:100350008091B0008F7D8093B00029C08091900083
:100360008F7707C0809190008F7D03C080919000AF
:10037000877F809390001BC08091A0008F7707C07B
:100380008091A0008F7D03C08091A000877F809323
:10039000A0000DC0809120018F7707C080912001BF
:1003A0008F7D03C080912001877F80932001E92FFA
:1003B000F0E0EE0FFF1FE25BFE4FA591B4918FB707
:1003C000F894EC91311103C020952E2301C02E2BFF
:1003D0002C938FBF08953FB7F89480910A029091B3
:1003E0000B02A0910C02B0910D0226B5A89B05C08E
:1003F0002F3F19F00196A11DB11D3FBFBA2FA92FA4
:10040000982F8827820F911DA11DB11DBC01CD0120
:1004100042E0660F771F881F991F4A95D1F708950C
:100420008F929F92AF92BF92CF92DF92EF92FF9204
:100430006B017C01D0DF4B015C01C114D104E104EC
:10044000F104E9F0C8DFDC01CB0188199909AA0998
:10045000BB09883E9340A105B10578F321E0C21A9B
:10046000D108E108F10888EE880E83E0981EA11CEF
:10047000B11CC114D104E104F10421F7DECFFF90D7
:10048000EF90DF90CF90BF90AF909F908F900895A6
:10049000CF92DF92EF92FF920F931F93CF93DF9350
:1004A0006C018B017A01EC01CF5FDD4F888187FF02
:1004B00004C0FB011182108224C08CE08C9D90014D
:1004C0008D9D300D11248881A901480F511D87FD94
:1004D0005A958091000290E04817590794F488815A
:1004E000A901480F511D87FD5A95CA01FA01EE0F67
:1004F000FF1F8E0F9F1FFC01EF5EFD4F808186FD69
:1005000019C088818F5F88838CE08C9D90018D9DC0
:10051000300D11248881A901480F511D87FD5A957E
:100520008091000290E048175907B4F488818C301C
:100530003CF112C08881280F311D87FD3A95F901E1
:10054000EE0FFF1F2E0F3F1FF901EF5EFD4F808161
:1005500060E08F73C4DED5CFF8018081918104966D
:1005600080349C4918F480E49CE904C0F80180813F
:1005700091810496F701918380838FEF888344C033
:10058000F801408151818881B901680F711D87FD93
:100590007A95CB01FB01EE0FFF1F8E0F9F1FFC0111
:1005A000EF5EFD4F81819281840F951FF70191834A
:1005B00080838881A901480F511D87FD5A95CA0182
:1005C000FA01EE0FFF1F8E0F9F1FFC01EF5EFD4F24
:1005D000808186FF19C08881280F311D87FD3A95DB
:1005E000F901EE0FFF1F2E0F3F1FF901EF5EFD4FC8
:1005F000808161E08F73DF91CF911F910F91FF9008
:10060000EF90DF90CF906BCEDF91CF911F910F9144
:10061000FF90EF90DF90CF9008951F920F920FB64A
:100620000F9211242F933F938F939F93AF93BF9378
:100630008091060290910702A0910802B0910902F0
:100640003091050223E0230F2D3720F40196A11DE0
:10065000B11D05C026E8230F0296A11DB11D2093F0
:1006600005028093060290930702A0930802B093BC
:10067000090280910A0290910B02A0910C02B091A4
:100680000D020196A11DB11D80930A0290930B02E9
:10069000A0930C02B0930D02BF91AF919F918F91E7
:1006A0003F912F910F900FBE0F901F9018951F92A2
:1006B0000F920FB60F9211240BB60F922F933F9308
:1006C0004F935F936F937F938F939F93AF93BF935A
:1006D000EF93FF9348E251E064E271E080E090E044
:1006E000D7DEFF91EF91BF91AF919F918F917F9155
:1006F0006F915F914F913F912F910F900BBE0F9093
:100700000FBE0F901F9018951F920F920FB60F9269
:1007100011240BB60F922F933F934F935F936F93D8
:100720007F938F939F93AF93BF93EF93FF9348EA89
:1007300050E064EA70E083E090E0AADEFF91EF9180
:10074000BF91AF919F918F917F916F915F914F91E9
:100750003F912F910F900BBE0F900FBE0F901F90E7
:1007600018951F920F920FB60F9211240BB60F928D
:100770002F933F934F935F936F937F938F939F93A9
:10078000AF93BF93EF93FF9348E950E064E970E0C3
:1007900082E090E07DDEFF91EF91BF91AF919F915C
:1007A0008F917F916F915F914F913F912F910F901A
:1007B0000BBE0F900FBE0F901F9018951F920F92B7
:1007C0000FB60F9211240BB60F922F933F934F93B6
:1007D0005F936F937F938F939F93AF93BF93EF93A9
:1007E000FF9348E850E064E870E081E090E050DE7C
:1007F000FF91EF91BF91AF919F918F917F916F91F9
:100800005F914F913F912F910F900BBE0F900FBEB4
:100810000F901F901895789484B5826084BD84B53C
:10082000816084BD85B5826085BD85B5816085BDEB
:1008300080916E00816080936E00109281008091A3
:10084000810082608093810080918100816080932B
:100850008100809180008160809380008091B10050
:1008600084608093B1008091B00081608093B0007B
:1008700080919100826080939100809191008160CD
:10088000809391008091900081608093900080918E
:10089000A10082608093A1008091A100816080937B
:1008A000A1008091A00081608093A000809121012F
:1008B00082608093210180912101816080932101D8
:1008C0008091200181608093200180917A00846072
:1008D00080937A0080917A00826080937A00809180
:1008E0007A00816080937A0080917A00806880939A
:1008F0007A001092C10080910E02803308F067C028
:10090000E3EDF1E02491EDE8F1E08491882399F0A2
:1009100090E0880F991FFC01E859FE4FA591B49112
:10092000FC01E25BFE4F859194918FB7F894EC91B6
:10093000E22BEC938FBF80910E02E82FF0E09F0135
:10094000220F331FE20FF31FEF5EFD4F9081907C6B
:100950009B60908310920F02109210026CE096D070
:100960009CE0899FB001112440E050E09A01260FDD
:10097000371FF901EE0FFF1F2E0F3F1FF901EF5E2A
:10098000FD4F908196FD16C04F5F5F4F4C30510573
:1009900069F7813099F51092800082E080938100A0
:1009A0001092850010928400B19A80916F0082604D
:1009B00080936F00E0910E02F0E0CF01880F991F45
:1009C000E80FF91FEF5EFD4F808180648083C0E0F7
:1009D000D0E080EF95E04BDC64E670E080E090E0F2
:1009E0001FDD88E097E043DC64EF71E080E090E099
:1009F00017DD209771F30E940000EBCF823061F485
:100A000010929000809391001092950010929400A3
:100A100088BB80937100CECF833069F41092A00020
:100A200082E08093A1001092A5001092A40089BBDF
:100A300080937200BFCF8111BDCF1092200182E060
:100A40008093210110922501109224018ABB80938A
:100A50007300B0CF809100028033A0F491E0980F32
:100A60009093000280930E0290E0FC01EE0FFF1FB6
:100A70008E0F9F1FFC01EF5EFD4F88EB9BE0928382
:100A8000818308958FEF80930E020895991B79E07A
:100A900004C0991F961708F0961B881F7A95C9F70E
:100AA00080950895EE0FFF1F881F8BBF0790F6916A
:080AB000E02D1994F894FFCF2A
:00000001FF
