:1000000008C100007FC5000052C5000025C50000E2
:10001000F8C40000CBC400009EC4000071C40000FE
:1000200044C4000026C1000024C1000022C1000019
:1000300020C100001EC100001CC100001AC1000048
:1000400018C1000016C1000014C1000012C1000058
:1000500010C100000EC100000CC10000DCC3000094
:1000600008C100007DC3000052C3000002C10000AF
:1000700000C10000FEC00000FCC00000FAC000008B
:10008000F8C00000F6C00000F4C00000F2C000009C
:10009000F0C00000EEC00000ECC000005EC5000033
:1000A000E8C00000E6C00000E4C00000E2C00000BC
:1000B000E0C00000DEC00000DCC00000DAC00000CC
:1000C000D8C00000D6C00000D4C00000D2C00000DC
:1000D000D0C00000CEC00000CCC00000CAC00000EC
:1000E000C8C000008C028F027E0282028602C60215
:1000F000930297029D02A102A502AB02AF02B302D6
:10010000C602B902BD02C10200002100240027007E
:100110002A002D0030003300010100000401070116
:100120000A0100002200250028002B002E003100CB
:10013000340002010000050108010B010505050559
:10014000070508080808020202020A0A080804044F
:10015000040401010101010101010303030303037D
:100160000303040707070C0C0C0C0C0C0C0C02020C
:10017000020206060606060606060B0B0B0B0B0B09
:100180000B0B010210202008081020401020408096
:10019000020102010804020101020408102040804B
:1001A00080402010080402018004020180402010D9
:1001B0000804020108040201010204081020408022
:1001C000010204081020408000000A0B02090C0DF7
:1001D0000E080703040100000000000000000000FA
:1001E000000000000000000000000000000000000F
:1001F00000000000121110000000000000000000CC
:100200000000000000000000000000000000EC0AF8
:10021000E70A11241FBECFEFD1E2DEBFCDBF00E061
:100220000CBF24E0A2E8B2E001C01D92A430B207E6
:10023000E1F712E0A0E0B2E0E6E1F0E200E00BBF9F
:1002400002C007900D92A238B107D9F711E0C8E0BB
:10025000D1E000E006C021970109802FFE010E9435
:10026000CD0DC730D10780E00807A9F72CD70C9433
:10027000FA0FC6CE8091FE029091FF0201969093F4
:10028000FF028093FE028091F6029091F702A09106
:10029000F802B091F9020196A11DB11D8093F602FA
:1002A0009093F702A093F802B093F9020895FC012D
:1002B000538D448D252F30E0842F90E0821B930BCB
:1002C000541710F0CF96089501970895FC01918D71
:1002D000828D981761F0828DDF01A80FB11D5D96A8
:1002E0008C91928D9F5F9F73928F90E008958FEF16
:1002F0009FEF0895FC01918D828D981731F0828DCA
:10030000E80FF11D858D90E008958FEF9FEF089520
:10031000FC01918D228D892F90E0805C9F4F821B84
:1003200091098F739927089589E093E0F1DF21E027
:10033000892B09F420E0822F0895FC01848DDF01D0
:10034000A80FB11DA35ABF4F2C91848D90E0019648
:100350008F739927848FA689B7892C93A089B18937
:100360008C9180648C93938D848D981306C0028841
:10037000F389E02D80818F7D80830895EF92FF9235
:100380000F931F93CF93DF93EC0181E0888F9B8DB8
:100390008C8D981305C0E889F989808185FD23C07B
:1003A000F62E0B8D10E00F5F1F4F0F731127E02EFD
:1003B0008C8DE8120BC00FB607FCFACFE889F989DB
:1003C000808185FFF5CFCE01B8DFF2CF8B8DFE01A6
:1003D000E80FF11DE35AFF4FF0820B8FEA89FB898A
:1003E0008081806207C0EE89FF896083E889F9898E
:1003F00080818064808381E090E0DF91CF911F91C4
:100400000F91FF90EF900895CF93DF93EC01888DCB
:100410008823C1F0EA89FB89808185FD05C0A88910
:10042000B9898C9186FD0EC00FB607FCF5CF80818F
:1004300085FFF2CFA889B9898C9185FFEDCFCE01D8
:100440007CDFE8CFDF91CF91089580E090E0892BA9
:1004500019F06ADF811125C080E090E0892B41F01E
:1004600080E090E0892B21F00E94000081111CC0E7
:1004700080E090E0892B41F080E090E0892B21F032
:100480000E940000811113C080E090E0892BA1F050
:1004900080E090E0892B81F00E94000081110AC069
:1004A00008950E940000D8CF0E940000E1CF0E9472
:1004B0000000EACF0C9400000895362F90E0FC0174
:1004C000E853FE4F4491FC01EE57FE4F2491FC018E
:1004D000E45CFE4F9491992309F46BC0442309F422
:1004E00055C050E0FA013197E231F10508F04EC0F5
:1004F0008827EE58FF4F8F4F0C94CD0D80918000D0
:100500008F7707C0809180008F7D03C0809180002D
:10051000877F809380003AC084B58F7702C084B50E
:100520008F7D84BD33C08091B0008F7703C08091F0
:10053000B0008F7D8093B00029C0809190008F77AC
:1005400007C0809190008F7D03C080919000877FCD
:10055000809390001BC08091A0008F7707C080918E
:10056000A0008F7D03C08091A000877F8093A000B2
:100570000DC0809120018F7707C0809120018F7D71
:1005800003C080912001877F80932001E92FF0E054
:10059000EE0FFF1FEE5DFE4FA591B4918FB7F8945B
:1005A000EC91311103C020952E2301C02E2B2C93EA
:1005B0008FBF0895CF93DF9390E0FC01EE57FE4F7D
:1005C0002491FC01E45CFE4F8491882361F190E06A
:1005D000880F991FFC01E85FFE4FC591D491FC0183
:1005E000EE5DFE4FA591B491611109C09FB7F894DB
:1005F0008881209582238883EC912E230BC0623062
:1006000061F49FB7F8943881822F80958323888383
:10061000EC912E2B2C939FBF06C08FB7F894E881E6
:100620002E2B28838FBFDF91CF910895089585EDFC
:100630008093BC008091BC0084FDFCCF1092CB0263
:1006400008954091A502262F30E0240F311D21325C
:100650003105DCF42091CB022430C9F4FC0180E0A8
:1006600090E0861758F43091A5022191DC01AD5736
:10067000BD4FA30FB11D2C930196F3CF8091A5021E
:10068000680F6093A50280E0089581E0089582E0FC
:10069000089508958FEF9FEF08958FEF9FEF0895CE
:1006A0008091820290E09195819591090895CF9370
:1006B000DF931F921F92CDB7DEB7CB01642F498322
:1006C0005A83BFDF4981842F5A81952F0F900F9055
:1006D000DF91CF910895CF93DF931F92CDB7DEB70F
:1006E000698361E0CE010196ACDF81E090E00F907C
:1006F000DF91CF910895089580E090E0089561E042
:1007000085E0DBDE61E086E0D8CE0E94E60F1F9236
:100710000F920FB60F9211240BB60F922F933F93A7
:100720004F935F936F937F938F939F93AF93BF93F9
:10073000EF93FF9389E093E000DEFF91EF91BF918B
:10074000AF919F918F917F916F915F914F913F9169
:100750002F910F900BBE0F900FBE0F901F9018950A
:100760001F920F920FB60F9211240BB60F922F9378
:100770008F939F93EF93FF93E0911903F0911A03E6
:100780008081E0911F03F091200382FD12C09081CF
:10079000809122038F5F8F7320912303821751F082
:1007A000E0912203F0E0E75FFC4F958F80932203F6
:1007B00001C08081FF91EF919F918F912F910F90B8
:1007C0000BBE0F900FBE0F901F9018953FB7F89477
:1007D0008091F2029091F302A091F402B091F5029F
:1007E00026B5A89B05C02F3F19F00196A11DB11D8C
:1007F0003FBFBA2FA92F982F8827820F911DA11DC7
:10080000B11DBC01CD0142E0660F771F881F991F03
:100810004A95D1F708951F920F920FB60F921124A7
:100820002F933F938F939F93AF93BF938091050333
:1008300090910603A0910703B09108033091F10253
:1008400023E0230F2D3720F40196A11DB11D05C013
:1008500026E8230F0296A11DB11D2093F10280937B
:10086000050390930603A0930703B09308038091B8
:10087000F2029091F302A091F402B091F502019678
:10088000A11DB11D8093F2029093F302A093F40294
:10089000B093F502BF91AF919F918F913F912F91AE
:1008A0000F900FBE0F901F9018951F920F920FB6CA
:1008B0000F9211240BB60F922F933F934F935F9398
:1008C0006F937F938F939F93AF93BF93EF93FF9318
:1008D000E0910E02F0910F021995FF91EF91BF91F7
:1008E000AF919F918F917F916F915F914F913F91C8
:1008F0002F910F900BBE0F900FBE0F901F90189569
:100900001F920F920FB60F9211240BB60F922F93D6
:100910003F934F935F936F937F938F939F93AF9387
:10092000BF93EF93FF93E0910C02F0910D021995A4
:10093000FF91EF91BF91AF919F918F917F916F91B7
:100940005F914F913F912F910F900BBE0F900FBE73
:100950000F901F9018951F920F920FB60F921124AF
:100960000BB60F922F933F934F935F936F937F93A9
:100970008F939F93AF93BF93EF93FF93E091020206
:10098000F09103021995FF91EF91BF91AF919F9163
:100990008F917F916F915F914F913F912F910F9028
:1009A0000BBE0F900FBE0F901F9018951F920F92C5
:1009B0000FB60F9211240BB60F922F933F934F93C4
:1009C0005F936F937F938F939F93AF93BF93EF93B7
:1009D000FF93E0910002F09101021995FF91EF91D0
:1009E000BF91AF919F918F917F916F915F914F9147
:1009F0003F912F910F900BBE0F900FBE0F901F9045
:100A000018951F920F920FB60F9211240BB60F92EA
:100A10002F933F934F935F936F937F938F939F9306
:100A2000AF93BF93EF93FF93E0910A02F0910B0213
:100A30001995FF91EF91BF91AF919F918F917F9108
:100A40006F915F914F913F912F910F900BBE0F903F
:100A50000FBE0F901F9018951F920F920FB60F9216
:100A600011240BB60F922F933F934F935F936F9385
:100A70007F938F939F93AF93BF93EF93FF93E091F7
:100A80000802F09109021995FF91EF91BF91AF9182
:100A90009F918F917F916F915F914F913F912F9196
:100AA0000F900BBE0F900FBE0F901F9018951F92C6
:100AB0000F920FB60F9211240BB60F922F933F9304
:100AC0004F935F936F937F938F939F93AF93BF9356
:100AD000EF93FF93E0910602F09107021995FF91C1
:100AE000EF91BF91AF919F918F917F916F915F91A6
:100AF0004F913F912F910F900BBE0F900FBE0F9013
:100B00001F9018951F920F920FB60F9211240BB6DB
:100B10000F922F933F934F935F936F937F938F9396
:100B20009F93AF93BF93EF93FF93E0910402F091F3
:100B300005021995FF91EF91BF91AF919F918F9110
:100B40007F916F915F914F913F912F910F900BBECD
:100B50000F900FBE0F901F9018951F920F920FB617
:100B60000F9211240BB60F922F933F934F935F93E5
:100B70006F937F938F939F93AF93BF93EF93FF9365
:100B80008091B900887F803609F49CC068F588326E
:100B900009F45BC090F4803109F454C038F4882320
:100BA00009F4F6C0883009F44DC0F5C0883109F465
:100BB0004CC0803209F45DC0EEC0803409F468C0D6
:100BC00048F4803309F455C0883309F0E4C08093B9
:100BD000CA02D8C0803509F44FC0883509F45DC019
:100BE000883409F0D8C0D6C0883909F4C7C0A8F441
:100BF000883709F467C038F4883609F463C0803751
:100C000009F460C0C8C0883809F4B8C0803909F454
:100C10005FC0803809F0BFC05BC0803B09F486C06C
:100C200038F4803A09F466C0883A09F47FC0B3C04A
:100C3000803C09F4A7C0883C09F4A4C0883B09F4AF
:100C40008AC0A9C08091F00210C09091EF028091FB
:100C5000EE02981770F5E091EF0281E08E0F80931D
:100C6000EF02F0E0E253FD4F80818093BB0085EC02
:100C700086C08093CA028EC0E091EF0281E08E0FA1
:100C80008093EF028091BB00F0E0E253FD4F808340
:100C90009091EF028091EE026EC0E091EF0281E050
:100CA0008E0F8093EF028091BB00F0E0E253FD4F86
:100CB00080838091CD0281116DC081E08093CC0250
:100CC00084EA61C083E08093CB021092C902CFCF47
:100CD0008091C902803208F051C0E091C90281E0E0
:100CE0008E0F8093C9028091BB00F0E0E755FD4F65
:100CF0008083BDCF85EC8093BC001092CB028091A5
:100D0000C902803230F4E091C902F0E0E755FD4FAE
:100D100010826091C90270E0E091A702F091A802F0
:100D200089EA92E019951092C90235C084E0809357
:100D3000CB021092A6021092A502E091A302F091BC
:100D4000A40219958091A502811105C081E08093CC
:100D5000A50210928302E091A60281E08E0F80939B
:100D6000A602F0E0ED57FD4F80818093BB0090918B
:100D7000A6028091A502981708F479CF85E88093A0
:100D8000BC0009C085EC8093BC001092CB0203C06C
:100D90001092CA024CDCFF91EF91BF91AF919F91ED
:100DA0008F917F916F915F914F913F912F910F9014
:100DB0000BBE0F900FBE0F901F901895CF92DF9231
:100DC000EF92FF920F931F93CF93DF936C017A0101
:100DD0008B01C0E0D0E0CE15DF0589F0D8016D9120
:100DE0008D01D601ED91FC910190F081E02DC601BD
:100DF0001995892B11F47E0102C02196ECCFC70111
:100E0000DF91CF911F910F91FF90EF90DF90CF90E6
:100E10000895E9E0F3E0A089B18982E08C93A4858C
:100E2000B5851C92A685B7858FEC8C93108EA4890E
:100E3000B58986E08C93A289B3898C9180618C936B
:100E4000A289B3898C9188608C93A289B3898C9193
:100E500080688C930288F389E02D80818F7D808368
:100E60000895CF92DF92EF92FF920F931F932FB7C7
:100E7000F894C0900503D0900603E0900703F0902B
:100E800008032FBFDC01CB018C0D9D1DAE1DBF1DC6
:100E90004FB7F894009105031091060320910703C2
:100EA000309108034FBF0C151D052E053F0528F096
:100EB00080179107A207B30758F71F910F91FF9072
:100EC000EF90DF90CF9008958F929F92AF92BF9254
:100ED000CF92DF92EF92FF9279DC4B015C0184EFBD
:100EE000C82EDD24D394E12CF12C70DCDC01CB0185
:100EF00088199909AA09BB09883E9340A105B10543
:100F000058F021E0C21AD108E108F10888EE880EF5
:100F100083E0981EA11CB11CC114D104E104F104AA
:100F200021F7FF90EF90DF90CF90BF90AF909F9010
:100F30008F900895E0910903F0910A030190F081E8
:100F4000E02D682F89E093E019940F931F93CF93BE
:100F5000DF93EC0188819981009729F02A813B81F8
:100F60002617370780F48B016F5F7F4F4BD70097B1
:100F700061F0998388831B830A832C813D81232B15
:100F800011F4FC01108281E001C080E0DF91CF917B
:100F90001F910F9108956115710579F0FB01019082
:100FA0000020E9F73197AF01461B570BDC01ED91AB
:100FB000FC910280F381E02D199480E090E0089587
:100FC0004F925F926F927F92EF92FF920F931F93D7
:100FD000CF93DF93CDB7DEB7A1970FB6F894DEBFFE
:100FE0000FBECDBF7C01FA01CB0119A2223008F45B
:100FF0002AE08E010F5D1F4F422E512C612C712C67
:10100000BF01A3019201A6D4F901CA01015011093F
:101010006A3014F4605D01C0695CD8016C93232BC5
:10102000242B252B69F7B801C701B5DFA1960FB6B0
:10103000F894DEBF0FBECDBFDF91CF911F910F910E
:10104000FF90EF907F906F905F904F9008950F9377
:101050001F93CF93DF9300D01F92CDB7DEB7AC01C3
:10106000990F660B770B77FF19C08DE249835A837E
:101070006B837C835FDF8C0149815A816B817C812A
:1010800070956095509541955F4F6F4F7F4F2AE067
:1010900089E093E095DF080F191F05C02AE089E079
:1010A00093E08EDF8C0169E472E089E093E073DF06
:1010B000800F911F0F900F900F900F90DF91CF91A5
:1010C0001F910F910895CF93DF931F921F92CDB779
:1010D000DEB7789484B5826084BD84B5816084BDB8
:1010E00085B5826085BD85B5816085BD80916E00C6
:1010F000816080936E0010928100809181008260F7
:101100008093810080918100816080938100809133
:1011100080008160809380008091B1008460809322
:10112000B1008091B00081608093B0008091910007
:101130008260809391008091910081608093910002
:10114000809190008160809390008091A1008260E6
:101150008093A1008091A10081608093A100809183
:10116000A00081608093A000809121018260809323
:1011700021018091210181608093210180912001D2
:1011800081608093200180917A00846080937A004E
:1011900080917A00826080937A0080917A008160E9
:1011A00080937A0080917A00806880937A00109210
:1011B000C1001092EA031092EB031092EC0310921C
:1011C000ED031092A8031092A9031092AA031092A3
:1011D000AB0368EB7BE080E090E043DE89E093E0E6
:1011E0009093E9038093E80314DE2FB7F89480917D
:1011F000050390910603A0910703B09108032FBF48
:101200008093A8039093A903A093AA03B093AB0380
:101210006AE372E08091E8039091E903BCDE6AE042
:1012200070E080E090E01DDE81E08093BC0360E030
:1012300082E0C0D960E083E0BDD961E085E0BAD941
:1012400061E086E0B7D960E085E037D960E086E00C
:1012500034D9DFDD8AE391E09093010280930002AC
:1012600080916A008C7F826080936A00EC9A6CE4C3
:1012700072E089E093E08FDE69E472E089E093E058
:101280008ADE89E093E044D8892B09F09DC08091E3
:10129000FE029091FF028C3798430CF4C1C08091FC
:1012A000FC029091FD0201969093FD028093FC0256
:1012B0001092FF021092FE0281E090E09093FB02F8
:1012C0008093FA02ADC089E093E000D8182F809394
:1012D0000403082E000C990BC0970A9708F47DC0F0
:1012E0001F7D123559F560E085E0E7D860E086E0C3
:1012F000E4D8EADD61E085E05DD961E085E0DDD834
:1013000060E086E0DAD862E572E089E093E043DEEF
:101310002AE04FEF50E060E070E089E093E050DEBB
:1013200069E472E089E093E036DE50DA609300030E
:10133000709301038093020390930303809104034D
:101340008F7D8234F1F460E085E0B7D860E086E01C
:10135000B4D8BADD61E086E0B0D860E085E0ADD811
:101360006FE572E089E093E016DE81E090E06FDEE9
:101370002DDA60930003709301038093020390932E
:101380000303809104038F7D8334F1F4B8D91EDA0E
:10139000C0900003D0900103E0900203F09003039B
:1013A000AB01BC014C195D096E097F092AE089E097
:1013B00093E006DE69E472E089E093E0ECDD809181
:1013C000FE029091FF0243DE89E093E00E948801D3
:1013D000181619060CF477CF5ACF19831A82E090A9
:1013E000F203F090F3038FEFE81AF80AB7018EEEDC
:1013F00093E0ABDD882309F473CF2091EE033091A5
:10140000EF038091F2039091F303BE016F5F7F4F72
:10141000820F931FE8D5F092F303E092F20360CFBE
:101420008091FC029091FD02181619060CF0CCC0B8
:101430008091FA029091FB02181619060CF0C4C0B4
:101440005ED9C4D9C0900003D0900103E09002039C
:10145000F09003036C197D098E099F0966D120E085
:1014600034E244E759E4FDD26B017C014B015C019D
:101470009B01AC018ED3882319F065E772E018C098
:1014800026013701E89477F82FEF3FEF4FE75FE74A
:10149000C301B2017ED381110FC02FEF3FEF4FE7A1
:1014A0005FE7C301B2013DD1181634F469E772E079
:1014B00089E093E070DD69C02FEF3FEF4FE75FE415
:1014C000C701B60162D318161CF46DE772E0F0CFC5
:1014D0002FEF3FEF4FE75FECC701B60122D187FD49
:1014E000F4CF20E030E0A901C701B6011AD187FF8F
:1014F00008C08DE21FDD46015701B7FAB094B7F876
:10150000B0942AE037ED43EA5BE3C501B40145D26C
:101510004B015C010ED36B017C0107D19B01AC0137
:10152000C501B40139D24B015C012AE0B701A60123
:1015300089E093E045DD8EE2FDDC20E030E040E232
:1015400051E4C501B40152D14B015C01F2D26B01EF
:10155000E12CF12C2AE0B701A60189E093E030DD0F
:10156000C701B601E2D09B01AC01C501B40114D2A0
:1015700020E030E040E251E439D1DBD2AB0160E061
:1015800070E02AE089E093E01BDD8091FC029091FD
:10159000FD025DDD8091FE029091FF0258DD4091D9
:1015A000F6025091F7026091F8027091F9022AE078
:1015B00089E093E005DD69E472E089E093E0EBDC2B
:1015C0001092FB021092FA020E9425025ACE8091DC
:1015D000EE039091EF037EC310920C0310920B0365
:1015E00088EE93E0A0E0B0E080930D0390930E03AB
:1015F000A0930F03B09310032AE132E030930A0363
:101600002093090325EC30E0309316032093150353
:1016100024EC30E0309318032093170320EC30E0E3
:1016200030931A032093190321EC30E030931C030C
:1016300020931B0322EC30E030931E0320931D0304
:1016400026EC30E03093200320931F0310922203F6
:101650001092230310922403109225031092AC03DE
:101660001092AD031092AE031092AF031092B0032C
:101670001092B1031092B2031092B3031092B4030C
:101680001092B5031092B6031092B7031092B803EC
:101690001092B9031092BA031092BB031092F70391
:1016A0001092F6038093F8039093F903A093FA0342
:1016B000B093FB038CE292E09093F5038093F403E4
:1016C0001092EF031092EE031092F1031092F003C8
:1016D0001092F3031092F20360E070E08EEE93E05C
:1016E00034DC2091EE033091EF03811112C02115FB
:1016F000310511F0C901EED21092EF031092EE0302
:101700001092F3031092F2031092F1031092F0037F
:1017100008951092F3031092F2036BE472E0C90192
:1017200062C440D008F481E00895E89409C097FBB2
:101730003EF490958095709561957F4F8F4F9F4FA8
:101740009923A9F0F92F96E9BB279395F6958795EC
:1017500077956795B795F111F8CFFAF4BB0F11F4AF
:1017600060FF1BC06F5F7F4F8F4F9F4F16C0882356
:1017700011F096E911C0772321F09EE8872F762F8C
:1017800005C0662371F096E8862F70E060E02AF0CD
:101790009A95660F771F881FDAF7880F96958795B9
:1017A00097F90895990F0008550FAA0BE0E8FEEF8E
:1017B00016161706E807F907C0F012161306E40715
:1017C000F50798F0621B730B840B950B39F40A260E
:1017D00061F0232B242B252B21F408950A2609F4EC
:1017E000A140A6958FEF811D811D08950BD078C073
:1017F00069D028F06ED018F0952309F05AC05FC068
:101800001124A2C07ED0A0F3959FD1F3950F50E094
:10181000551F629FF001729FBB27F00DB11D639FA2
:10182000AA27F00DB11DAA1F649F6627B00DA11D48
:10183000661F829F2227B00DA11D621F739FB00DEE
:10184000A11D621F839FA00D611D221F749F33275E
:10185000A00D611D231F849F600D211D822F762FF7
:101860006A2F11249F5750408AF0E1F088234AF0F4
:10187000EE0FFF1FBB1F661F771F881F9150504040
:10188000A9F79E3F510570F014C05EC05F3FECF3B6
:10189000983EDCF3869577956795B795F795E7952C
:1018A0009F5FC1F7FE2B880F911D9695879597F93D
:1018B000089597F99F6780E870E060E008959FEFD2
:1018C00080EC089500240A941616170618060906D7
:1018D000089500240A9412161306140605060895A6
:1018E000092E0394000C11F4882352F0BB0F40F42E
:1018F000BF2B11F460FF04C06F5F7F4F8F4F9F4F6E
:10190000089557FD9058440F551F59F05F3F71F0EF
:101910004795880F97FB991F61F09F3F79F0879556
:101920000895121613061406551FF2CF4695F1DFDF
:1019300008C0161617061806991FF1CF869571056F
:10194000610508940895E894BB2766277727CB01A3
:1019500097F90895A1E21A2EAA1BBB1BFD010DC029
:10196000AA1FBB1FEE1FFF1FA217B307E407F5074F
:1019700020F0A21BB30BE40BF50B661F771F881F2B
:10198000991F1A9469F760957095809590959B01C1
:10199000AC01BD01CF0108955058BB27AA270ED036
:1019A0009FCF90DF30F095DF20F031F49F3F11F4AE
:1019B0001EF485CF0EF4E095E7FB7BCFE92FA1DF86
:1019C00080F3BA17620773078407950718F071F45C
:1019D0009EF5B9CF0EF4E0950B2EBA2FA02D0B017A
:1019E000B90190010C01CA01A0011124FF27591B64
:1019F00099F0593F50F4503E68F11A16F040A22F6A
:101A0000232F342F4427585FF3CF469537952795DA
:101A1000A795F0405395C9F77EF41F16BA0B620BD9
:101A2000730B840BBAF09150A1F0FF0FBB1F661F20
:101A3000771F881FC2F70EC0BA0F621F731F841F63
:101A400048F4879577956795B795F7959E3F08F089
:101A5000B3CF9395880F08F09927EE0F9795879548
:101A600008950CD03DCF35DF40F02CDF30F021F46D
:101A70005F3F19F01ECF511167CF21CF42DF98F39E
:101A80009923C9F35523B1F3951B550BBB27AA27FF
:101A900062177307840738F09F5F5F4F220F331F71
:101AA000441FAA1FA9F333D00E2E3AF0E0E830D03D
:101AB00091505040E695001CCAF729D0FE2F27D040
:101AC000660F771F881FBB1F261737074807AB070E
:101AD000B0E809F0BB0B802DBF01FF2793585F4F83
:101AE0002AF09E3F510568F0E4CE2ECF5F3FECF325
:101AF000983EDCF3869577956795B795F7959F5F48
:101B0000C9F7880F911D9695879597F90895E1E09B
:101B1000660F771F881FBB1F621773078407BA07FA
:101B200020F0621B730B840BBA0BEE1F88F7E09555
:101B30000895EFDE88F09F5790F0B92F9927B7519D
:101B4000A0F0D1F0660F771F881F991F1AF0BA9581
:101B5000C9F712C0B13081F0F6DEB1E00895F3CEDE
:101B6000672F782F8827B85F39F0B93FCCF3869577
:101B700077956795B395D9F73EF4909580957095D4
:101B800061957F4F8F4F9F4F08950CDE08F48FEFC4
:101B9000089508DE880B990B0895EE0FFF1F881F2C
:101BA0008BBF0790F691E02D1994CF93DF9382308D
:101BB000910510F482E090E0E0910204F0910304BA
:101BC00020E030E0C0E0D0E0309711F14081518159
:101BD00048175907C0F04817590761F4828193816B
:101BE000209719F09B838A832BC0909303048093E2
:101BF000020426C02115310519F04217530718F4C5
:101C00009A01BE01DF01EF010280F381E02DDCCFFC
:101C10002115310509F1281B390B2430310590F4C9
:101C200012968D919C9113976115710521F0FB011E
:101C30009383828304C09093030480930204FD0184
:101C4000329644C0FD01E20FF31F8193919322501D
:101C500031092D933C933AC0209100043091010446
:101C6000232B41F42091120230911302309301048E
:101C700020930004209110023091110221153105AA
:101C800041F42DB73EB74091140250911502241B28
:101C9000350BE0910004F0910104E217F307A0F482
:101CA0002E1B3F0B2817390778F0AC014E5F5F4FB2
:101CB0002417350748F04E0F5F1F509301044093DF
:101CC00000048193919302C0E0E0F0E0CF01DF9146
:101CD000CF9108950F931F93CF93DF93009709F44B
:101CE0008CC0FC0132971382128200910204109181
:101CF00003040115110581F420813181820F931FA6
:101D000020910004309101042817390779F5F093E8
:101D10000104E093000471C0D80140E050E0AE1728
:101D2000BF0750F412962D913C911397AD012115E8
:101D3000310509F1D901F3CF9D01DA013383228303
:101D400060817181860F971F8217930769F4EC01F8
:101D500028813981260F371F2E5F3F4F3183208323
:101D60008A819B8193838283452B29F4F09303041A
:101D7000E093020442C01396FC93EE931297ED0198
:101D8000499159919E01240F351FE217F30771F411
:101D900080819181840F951F029611969C938E935A
:101DA0008281938113969C938E931297E0E0F0E0EA
:101DB000D80112968D919C911397009719F0F80114
:101DC0008C01F6CF8D919C9198012E5F3F4F820F31
:101DD000931F20910004309101042817390769F4FA
:101DE000309729F4109203041092020402C0138267
:101DF00012821093010400930004DF91CF911F9190
:101E00000F9108956F927F928F929F92AF92BF929F
:101E1000CF92DF92EF92FF920F931F93CF93DF93B6
:101E2000EC01009781F4CB01DF91CF911F910F91CD
:101E3000FF90EF90DF90CF90BF90AF909F908F90EA
:101E40007F906F90B2CEFC01E60FF71F9C012250ED
:101E50003109E217F30708F4A8C0D9010D911C91CC
:101E6000119706171707A8F00530110508F49BC055
:101E7000C80104978617970708F495C00250110906
:101E8000061B170B019311936D937C93CF0122DFF7
:101E90008AC05B01A01AB10A4C01800E911EA0916C
:101EA0000204B091030440E050E0E12CF12C1097C3
:101EB00009F44AC0A815B905D1F56D907C90119729
:101EC000630182E0C80ED11CCA14DB0480F1A301B7
:101ED0004A195B096A0182E0C80ED11C1296BC90B7
:101EE00012971396AC91B5E0CB16D10440F0B282B4
:101EF000A38351834083D9016D937C930AC00E5F05
:101F00001F4FC301800F911FF90191838083EB2D37
:101F1000FA2FE114F10431F0D7011396FC93EE93FC
:101F2000129741C0F0930304E09302043CC08D91EA
:101F30009C9111974817590708F4AC017D0112963E
:101F40000D90BC91A02DB3CF80910004909101041D
:101F500088159905E1F446175707C8F480911002D7
:101F600090911102009741F48DB79EB740911402F1
:101F700050911502841B950BE817F907B0F4F09304
:101F80000104E0930004F901718360830CC0CB016C
:101F90000CDE7C01009749F0A801BE011BD0CE01E8
:101FA00099DEC70104C0CE0102C080E090E0DF915D
:101FB000CF911F910F91FF90EF90DF90CF90BF9046
:101FC000AF909F908F907F906F90089581E090E008
:101FD000F89410C0FB01DC0102C001900D92415049
:101FE0005040D8F70895FB01DC0101900D920020CC
:101FF000E1F7089511E0C8E0D1E000E005C0802FCE
:10200000FE01CBDD2196011DC930D10780E0080714
:06201000B1F7F894FFCFC8
:1020160016031603160316031603160316031603F2
:1020260000000404800000000000BE01DE06570127
:102036000402880166017A01000000006B03570361
:102046007C03490350034D034A03564D4450565FE3
:10205600317C315F564D4450560D0A0053746172FF
:10206600740050574D35E885B3E4BD8D3A2000E63F
:1020760095B8E4BD8DE8BCB8E587BA36E885B3E423
:10208600BD8D3A20006E616E00696E66006F7666E1
:02209600000048
:00000001FF
