:1000000026C1000055C1000053C1000051C10000CD
:100010004FC100004DC100004BC1000049C10000AC
:1000200047C1000045C1000043C1000041C10000BC
:100030003FC100003DC100003BC1000039C10000CC
:1000400037C1000035C1000033C1000031C10000DC
:100050002FC100002DC100002BC100004DC40000C5
:1000600027C1000013C40000E8C3000021C1000044
:100070001FC100001DC100001BC1000019C100000C
:1000800017C1000015C1000013C1000011C100001C
:100090000FC100000DC100000BC1000077C40000BB
:1000A00007C1000005C1000003C1000001C100003C
:1000B000FFC00000FDC00000FBC00000F9C0000050
:1000C000F7C00000F5C00000F3C00000F1C0000060
:1000D000EFC00000EDC00000EBC00000E9C0000070
:1000E000E7C00000A606A006CD06AE06AB065B067E
:1000F0007806220632103510241028102C106C10AF
:1001000039103D10431047104B1051105510591025
:100110006C105F1063106710084AD73B3BCE016E2E
:1001200084BCBFFDC12F3D6C74319ABD56833DDA4E
:100130003D00C77F11BED9E4BB4C3E916BAAAABE5D
:10014000000000803F0000002100240027002A005A
:100150002D003000330001010000040107010A01F5
:1001600000002200250028002B002E003100340062
:1001700002010000050108010B0105050505070541
:1001800008080808020202020A0A08080404040413
:10019000010101010101010103030303030303033F
:1001A000040707070C0C0C0C0C0C0C0C02020202CE
:1001B00006060606060606060B0B0B0B0B0B0B0BB7
:1001C0000102102020080810204010204080020169
:1001D000020108040201010204081020408080404E
:1001E000201008040201800402018040201008044D
:1001F00002010804020101020408102040800102EB
:1002000004081020408000000A0B02090C0D0E08A3
:1002100007030401000000000000000000000000CF
:1002200000000000000000000000000000000000CE
:10023000000012111000000000000000000000008B
:10024000000000000000000000000000CA1C112493
:100250001FBECFEFD1E2DEBFCDBF00E00CBF28E074
:10026000ACE5B5E001C01D92AC34B207E1F715E092
:10027000A0E0B2E0EAE3F5E400E00BBF02C00790C3
:100280000D92AC35B107D9F711E0C7E2D1E000E03B
:1002900006C021970109802FFE010E946120C6320D
:1002A000D10780E00807A9F70E94B3120C949B22A3
:1002B000A7CEFC01538D448D252F30E0842F90E094
:1002C000821B930B541710F0CF9608950197089551
:1002D000FC01918D828D981761F0828DDF01A80F4E
:1002E000B11D5D968C91928D9F5F9F73928F90E070
:1002F00008958FEF9FEF0895FC01918D828D9817DF
:1003000031F0828DE80FF11D858D90E008958FEF1B
:100310009FEF0895FC01918D228D892F90E0805CE4
:100320009F4F821B91098F739927089582E896E069
:10033000F1DF21E0892B09F420E0822F0895FC01F0
:10034000848DDF01A80FB11DA35ABF4F2C91848D5E
:1003500090E001968F739927848FA689B7892C9393
:10036000A089B1898C91837080648C93938D848DE6
:10037000981306C00288F389E02D80818F7D8083E9
:100380000895EF92FF920F931F93CF93DF93EC01A9
:1003900081E0888F9B8D8C8D981305C0E889F98941
:1003A000808185FD25C0F62E0B8D10E00F5F1F4F5D
:1003B0000F731127E02E8C8DE8120BC00FB607FCCF
:1003C000FACFE889F989808185FFF5CFCE01B7DFC3
:1003D000F2CF8B8DFE01E80FF11DE35AFF4FF08243
:1003E0009FB7F8940B8FEA89FB89808180620AC0ED
:1003F0009FB7F894EE89FF896083E889F989808145
:100400008370806480839FBF81E090E0DF91CF9113
:100410001F910F91FF90EF900895CF93DF93EC0120
:10042000888D8823C1F0EA89FB89808185FD05C01C
:10043000A889B9898C9186FD0EC00FB607FCF5CF4F
:10044000808185FFF2CFA889B9898C9185FFEDCF96
:10045000CE0175DFE8CFDF91CF91089580E090E085
:10046000892B19F063DF811125C080E090E0892B92
:1004700041F080E090E0892B21F00E940000811182
:100480001CC080E090E0892B41F080E090E0892B57
:1004900021F00E940000811113C080E090E0892BC0
:1004A000A1F080E090E0892B81F00E940000811192
:1004B0000AC008950E940000D8CF0E940000E1CF3A
:1004C0000E940000EACF0C940000089585ED80930F
:1004D000BC008091BC0084FDFCCF10925E060895A4
:1004E0004091F405262F30E0240F311D21323105D3
:1004F000DCF420915E062430C9F4FC0180E090E039
:10050000861758F43091F4052191DC01AC52BA4FB2
:10051000A30FB11D2C930196F3CF8091F405680FC2
:100520006093F40580E0089581E0089582E00895E5
:10053000089508950895E091610580916005E81798
:1005400030F4F0E0EC54FA4F808190E008958FEFA2
:100550009FEF08959091610580916005981750F480
:10056000E92FF0E0EC54FA4F208130E09F5F909348
:10057000610502C02FEF3FEFC9010895809160052A
:1005800090E020916105821B91090895CF92DF923E
:10059000EF92FF920F931F93CF93DF937C01CB01D8
:1005A0008A0120915F06222389F0EB016B01C40EC2
:1005B000D51ECC15DD0561F06991D701ED91FC9157
:1005C0000190F081E02DC7011995F3CF642F88DFEA
:1005D000C801DF91CF911F910F91FF90EF90DF90B5
:1005E000CF900895CF93DF931F92CDB7DEB7698385
:1005F00020915F062223D1F020918106203240F025
:1006000021E030E0FC013383228380E090E014C0DD
:1006100080916006E82FF0E0EF59F94F99819083BF
:100620008F5F809360068093810604C061E0CE01F5
:10063000019656DF81E090E00F90DF91CF91089511
:10064000089580E090E008950E947E22CF92DF928C
:10065000EF92FF920F931F93CF93DF931F921F92FE
:10066000CDB7DEB76C01DC01ED91FC910081118109
:1006700069831A82F801E480F580FFEFEF1AFF0A20
:10068000B701C8010E944D12882391F0D8012D9125
:100690003C91119714968D919C911597BE016F5FB7
:1006A0007F4F820F931F0E949422F801F582E4820B
:1006B000D60112968D919C911397019613969C9357
:1006C0008E9312970F900F90DF91CF911F910F9102
:1006D000FF90EF90DF90CF9008958F929F92AF920E
:1006E000BF92CF92DF92EF92FF920F931F93CF931F
:1006F000DF937C014B01DC01AD90BC90F5010081E2
:100700001181D8011496CD90DC9015976115710573
:10071000F9F0EB0109900020E9F72197C61BD70BF0
:10072000B9F0CC0DDD1DBE01C8010E944D12882319
:1007300079F0F8012081318184819581B401820FA3
:10074000931F0E949422D8011596DC93CE931497A0
:10075000D501ED91FC9124813581F701828193814E
:10076000820F931F8C199D0993838283DF91CF9110
:100770001F910F91FF90EF90DF90CF90BF90AF90BF
:100780009F908F9008950F931F93CF93DF93CDB7D2
:10079000DEB766970FB6F894DEBF0FBECDBF9C01E3
:1007A000CB011E8AFE0176960AE010E0B8010E9495
:1007B0002C20805D8293CB010097C1F7BF01C90156
:1007C0008CDF66960FB6F894DEBF0FBECDBFDF910B
:1007D000CF911F910F910895FF920F931F93CF9385
:1007E000DF936115710541F46AEA72E0DF91CF9100
:1007F0001F910F91FF9071CF8B01EC0162E2CE014E
:1008000025DFF80161918F01662351F0E8E7F4E0FC
:10081000F080FF20A1F38181681751F03296F8CF64
:1008200062E2CE01DF91CF911F910F91FF900ECF29
:100830006CE5CE010BDF6F2DE2CF1F920F920FB64A
:100840000F9211240BB60F922F933F934F935F9308
:100850006F937F938F939F93AF93BF93EF93FF9388
:1008600082E896E06CDDFF91EF91BF91AF919F918F
:100870008F917F916F915F914F913F912F910F9049
:100880000BBE0F900FBE0F901F9018951F920F92E6
:100890000FB60F9211240BB60F922F938F939F9345
:1008A000EF93FF93E0919206F09193068081E0919F
:1008B0009806F091990682FD12C0908180919B0666
:1008C0008F5F8F7320919C06821751F0E0919B06F9
:1008D000F0E0EE57F94F958F80939B0601C0808121
:1008E000FF91EF919F918F912F910F900BBE0F90E1
:1008F0000FBE0F901F9018951F920F920FB60F9278
:1009000011242F933F938F939F93AF93BF93809125
:100910001C0690911D06A0911E06B0911F063091F5
:100920001B0623E0230F2D3720F40196A11DB11DD6
:1009300005C026E8230F0296A11DB11D20931B06BA
:1009400080931C0690931D06A0931E06B0931F066D
:100950008091170690911806A0911906B0911A0679
:100960000196A11DB11D8093170690931806A093C0
:100970001906B0931A06BF91AF919F918F913F9145
:100980002F910F900FBE0F901F9018951F920F92EE
:100990000FB60F9211240BB60F922F933F934F93E4
:1009A0005F936F937F938F939F93AF93BF93EF93D7
:1009B000FF938091B900887F803609F49CC068F568
:1009C000883209F45BC090F4803109F454C038F4E3
:1009D000882309F4F6C0883009F44DC0F5C0883189
:1009E00009F44CC0803209F45DC0EEC0803409F4D3
:1009F00068C048F4803309F455C0883309F0E4C076
:100A000080935C06D8C0803509F44FC0883509F45E
:100A10005DC0883409F0D8C0D6C0883909F4C7C091
:100A2000A8F4883709F467C038F4883609F463C03D
:100A3000803709F460C0C8C0883809F4B8C080396C
:100A400009F45FC0803809F0BFC05BC0803B09F487
:100A500086C038F4803A09F466C0883A09F47FC049
:100A6000B3C0803C09F4A7C0883C09F4A4C0883B0B
:100A700009F48AC0A9C08091390610C090915B0624
:100A800080915A06981770F5E0915B0681E08E0F11
:100A900080935B06F0E0E65CF94F80818093BB00B9
:100AA00085EC86C080935C068EC0E0915B0681E099
:100AB0008E0F80935B068091BB00F0E0E65CF94FFF
:100AC000808390915B0680915A066EC0E0915B0630
:100AD00081E08E0F80935B068091BB00F0E0E65CC6
:100AE000F94F808380915D0681116DC081E0809314
:100AF000380684EA61C083E080935E061092160691
:100B0000CFCF80911606803208F051C0E0911606D2
:100B100081E08E0F809316068091BB00F0E0EA50D2
:100B2000FA4F8083BDCF85EC8093BC0010925E06A7
:100B300080911606803230F4E0911606F0E0EA501B
:100B4000FA4F10826091160670E0E0915C05F0911A
:100B50005D0586EF95E019951092160635C084E084
:100B600080935E061092F5051092F405E0915E0503
:100B7000F0915F0519958091F405811105C081E020
:100B80008093F4051092D405E091F50581E08E0F75
:100B90008093F505F0E0EC52FA4F80818093BB0022
:100BA0009091F5058091F405981708F479CF85E8C0
:100BB0008093BC0009C085EC8093BC0010925E0657
:100BC00003C010925C0682DCFF91EF91BF91AF9160
:100BD0009F918F917F916F915F914F913F912F9155
:100BE0000F900BBE0F900FBE0F901F9018952F9275
:100BF0003F924F925F926F927F928F929F92AF92AD
:100C0000BF92CF92DF92EF92FF920F931F93CF93F9
:100C1000DF93CDB7DEB76C970FB6F894DEBF0FBE8B
:100C2000CDBFDC01ED91FC9111973197E830F105D2
:100C300008F049C21B018C018827EE58FF4F8F4FE7
:100C40000C946120FD0182809380A480B580A50171
:100C50009401C501B4010E94461D882319F062E980
:100C600074E0A9C020E030E0A901C501B4010E94F0
:100C7000461D87FF07C06DE2C101E8DCB7FAB094FA
:100C8000B7F8B09420E030E0A901C501B4010E949A
:100C9000461D882309F492C0A5019401C501B40141
:100CA0000E94791EA50194010E94461D811186C0F3
:100CB00069E974E080C012960D911C9113976BE561
:100CC000C101C4DCF801028113810115110571F025
:100CD000B101C80102968BDFD8010D911C9101155D
:100CE000110521F06CE2C101B1DCEFCF6DE525C04B
:100CF000FD01028113816BE7C101A8DCD8011296C6
:100D00000D911C91139701151105B1F0F801628145
:100D10007381C10161DD6AE3C10198DCB101C801E1
:100D2000049665DFD8010D911C910115110521F084
:100D30006CE2C1018BDCE7CF6DE7C10187DCC3C189
:100D4000FD0162817381C10147DDBDC112966D91C4
:100D50007C91139730C06DE2C10178DCF8016281AB
:100D60007381848195811E8A8E010A5E1F4F2AE05D
:100D7000C22ED12CE12CF12CA70196010E943F201C
:100D8000605DD8016E938D01B901CA0161157105CD
:100D90008105910589F7BD010EC0FD018281938116
:100DA000A481B581892B8A2B8B2B19F46CE874E014
:100DB00002C067E874E0C10190DC85C120E836E933
:100DC00048E15BE4C501B4010E94C31F87FF45C130
:100DD00000E210E0E5E0DE2E188E1F8A20E030E011
:100DE000A901C501B4010E94C31F1816B4F52CEA6D
:100DF00035EC47E257E3C501B4010E94461D1816C1
:100E000064F1BFEFDB1649F1ED2DF4E0EF02700164
:100E10001124F701E45CFD4FA5019401608171810B
:100E2000828193810E94C31F18169CF4F701EC5D28
:100E3000FD4F2081318142815381C501B4010E945F
:100E4000AB1D4B015C018F89988D801B910B988F96
:100E50008F8B15950795DA94D4CFC501B4010E9404
:100E6000721F6B017C012B013C0106E080E492E4DF
:100E7000AFE0B0E0898F9A8FAB8FBC8F102F0150FD
:100E80009AE04916510461047104C8F0698D7A8DA5
:100E90008B8D9C8D2AE030E040E050E00E943F20A6
:100EA000298F3A8F4B8F5C8FC301B2012AE030E06B
:100EB00040E050E00E943F2029013A01DFCFC70106
:100EC000B6010E944A1D9B01AC01C501B4010E94FC
:100ED000781E4B015C01698D7A8D8B8D9C8D0E94F3
:100EE0004A1D9B01AC01C501B4010E94AB1D2B0141
:100EF0003C010E94721F4B015C010E944A1D9B0134
:100F0000AC01C301B2010E94781E9B01AC010E949A
:100F1000791E0E94721F860E971EA81EB91E898D0B
:100F20009A8DAB8DBC8D88169906AA06BB06F8F083
:100F30009FEFC91AD90AE90AF90AAF89B88DAB2B14
:100F400099F0BAE0CB16D104E104F10468F0EF891E
:100F5000F88D3196F88FEF8B812C912C5401C12C98
:100F6000D12C7601C39403C0812C912C54015AE0FA
:100F7000452E512C612C712CC501B401A3019201A5
:100F80000E943F20672B682B692B31F4111624F443
:100F900049015A011150F0CF1E8ACE0146969A8F10
:100FA000898F4AE0442E512C612C712CC701B60167
:100FB000A30192010E943F20605DA98DBA8D6E93BE
:100FC000BA8FA98F69017A01C114D104E104F10437
:100FD00069F7BD01C10181DB112321F1188A012FBD
:100FE0007E01B0E1EB0EF11C67013AE0432E512C7B
:100FF000612C712C015068F0C501B401A30192016C
:101000000E943F20605DF70162937F0149015A0110
:10101000F1CFB601611B71098EE2DB018E93BD0138
:10102000C1015BDBEF89F88DF7FF0AC066E974E068
:10103000C10153DB6F89788D7195619571090AC083
:101040008F89988D892B09F43EC065E6C101FEDACF
:101050006F89788DC10197DB36C08CE3C82E82E0A2
:10106000D82E9CE0E92E92E0F92E00E210E0188ED6
:101070001F8AD6015E914E913E912E916D01C50160
:10108000B4010E94C31F87FD11C0F701248935896F
:1010900046895789C501B4010E94AB1D4B015C0113
:1010A0008F89988D800F911F988F8F8B159507953D
:1010B00094E0E91AF108A4E2CA16A2E0DA06C9F639
:1010C000DD24DA948BCE6C960FB6F894DEBF0FBE9B
:1010D000CDBFDF91CF911F910F91FF90EF90DF90E7
:1010E000CF90BF90AF909F908F907F906F905F90C8
:1010F0004F903F902F9008950F931F93CF93DF93BE
:101100008B01FC01C281D3812097A9F06A817B8188
:101110000115110519F06115710521F460177107AA
:1011200031F409C0C8010E948B22892B21F009905B
:10113000D881C02DE9CFCE01DF91CF911F910F91C2
:101140000895FC0126813781620F731F8481958188
:101150008617970738F08281938177836683820FA1
:10116000931F089580E090E00895809130068111EA
:101170000BC010922D0610922C0610922F06109282
:101180002E0681E0809330068CE296E008950F935E
:101190001F93CF93DF93B0DFFC01892B09F459C073
:1011A000848195818330910520F4019708F451C022
:1011B00012C08530910550F0059709F043C0868133
:1011C0009781A085B1859C01AD0134C0668177818E
:1011D0008085918549C00680F781E02D3097C9F15F
:1011E00080818437D1F18B3229F08D3221F4319610
:1011F000D1E002C03196D0E020E030E0A901C191F9
:1012000080ED8C0F8A30A0F4AAE0B0E00E945F1E4F
:101210002C2FCC0F330B205331098901330F220BB4
:10122000330BA9019801260F371F481F591FE7CF1D
:10123000DD23C1F066277727CB01621B730B840B7C
:10124000950B12C066817781808591850E946D1F04
:101250000BC060E070E0CB0107C061E070E080E0AF
:1012600090E002C0CA01B901DF91CF911F910F91A7
:10127000089542DFFC01892B09F448C084819581DF
:101280008330910520F4019708F440C00BC08530ED
:10129000910528F0059799F5668177812BC08681A5
:1012A000978108950680F781E02D309779F180814C
:1012B000843779F18B3229F08D3221F4319691E027
:1012C00002C0319690E060E070E04AE0819120ED4C
:1012D000280F2A3068F4469F9001479F300D112453
:1012E000682F880F770B60537109620F731FEECF61
:1012F000992391F088279927861B970B089566817B
:101300007781808591850E946D1F06C080E090E006
:10131000089581E090E00895CB010895FC01A0813B
:10132000B1818C918D3051F024F489508230B8F520
:1013300005C0803219F08F3219F0089511962CC033
:1013400011968C9111978A3219F08F32D1F008954D
:101350001196B183A083A081B181CD0101969183C3
:10136000808311968C9111978823C9F08A3299F75E
:1013700012968C9112978F3271F713960DC08A30A6
:1013800071F2A081B181CD01019691838083119684
:101390008C918111F4CF03C0B183A083C0CF089595
:1013A0001F93CF93DF93EC01162FB8DFE881F9810B
:1013B0008081181305C03196F983E88381E001C06C
:1013C00080E0DF91CF911F9108958F929F92AF920D
:1013D000BF92FF920F931F93CF93DF93DC0112967E
:1013E000ED91FC9113973097A9F06115710531F0DB
:1013F0000190F081E02D61507109F5CF82819381D8
:101400008330910508F0FAC0019720F0C481D5819E
:10141000209721F460E070E0CB0107C188818B3216
:1014200029F08D3221F4219611E002C0219610E0BE
:101430008881843709F4D3C08F7D8E3409F4D4C0F9
:10144000893409F482C0F12C20E030E0A901FE01CA
:10145000099180ED800F8A30E8F42C3CBCEC3B070E
:10146000BCE04B075105A4F4AAE0B0E00E945F1E67
:10147000202F000F330B205331094901330FAA08E5
:10148000BB08A5019401260F371F481F591FDFCF46
:10149000F394DDCF0E3221F5EF012196FE01099183
:1014A00080ED800F8A30E0F42C3C8CEC38078CE027
:1014B000480751059CF7AAE0B0E00E945F1E202F6C
:1014C000000F330B205331094901330FAA08BB0821
:1014D000A5019401260F371F481F591FFA94DECF2C
:1014E00080818F7DCF2DFF0CDD0B8534E1F581816F
:1014F0008D3219F4329671E006C08B3211F03196BC
:1015000001C0329670E080E090E00AE06191A0EDC9
:10151000A60FAA3010F5089FD001099FB00D112425
:10152000862F660F990BC0978A0F9B1FDE01A80FAD
:10153000B91F97975CF3772341F0112309F46ACF21
:1015400060E070E080E090E870C0112309F451C0C1
:1015500060E070E080E89FEF68C0772331F09195FC
:101560008195910902C080E090E0C80FD91FCA019F
:10157000B9010E944C1D1C161D06ACF400E0C0FF12
:101580000CC0B4E00B9FF0011124EC5DFD4F2081F5
:101590003181428153810E94AB1DD595C7950F5F64
:1015A000209769F718C0D195C195D10900E020971F
:1015B00091F0C0FF0CC0A4E00A9FF0011124E45F89
:1015C000FD4F20813181428153810E94AB1DD59511
:1015D000C7950F5FECCF112341F1905826C060E012
:1015E00070E080E89FE321C060E070E080EC9FE75E
:1015F0001CC060E070E080E89FE717C0853091056F
:1016000038F464817581868197810E944A1D0DC0DE
:10161000059739F464817581868197810E944A1DFE
:10162000DCCF6481758186819781DF91CF911F9195
:101630000F91FF90BF90AF909F908F9008950F9360
:101640001F93CF93DF93EC010C811D81029666DE20
:10165000EA81FB818081873231F1823221F190ED84
:10166000980F9A3070F091EA980F9C3150F09FEBF0
:10167000980F9A3130F08B3221F093ED980F923021
:10168000F0F52A813B812F5F3F4F3B832A83EC811A
:10169000FD819F012F5F3F4F3D832C838083EA8133
:1016A000FB818081DCCF3196FB83EA83EA81FB8179
:1016B0009081992321F19F012F5F3F4F3B832A8324
:1016C0009817E9F09C3591F49181ACE7B4E02C9146
:1016D000222339F0921303C011969C9102C01296F6
:1016E000F6CF992361F03296FB83EA83EC81FD818A
:1016F0009F012F5F3F4F3D832C839083D7CFEC8199
:10170000FD81CF0101969D838C831082C801DF91FA
:10171000CF911F910F910895E8E6F5E081919191A5
:10172000A191B19180879187A287B38785E0E43743
:10173000F807A1F708952F923F924F925F926F9210
:101740007F928F929F92AF92BF92CF92DF92EF9251
:10175000FF920F931F93CF93DF93CDB7DEB76E97B2
:101760000FB6F894DEBF0FBECDBF83E08093800537
:101770008091660590916705092E000CAA0BBB0BA2
:1017800089839A83AB83BC8311E0CE0105969E8B3F
:101790008D8B812F25D6609180058FE197E00E9487
:1017A000F202FE0131967F013E2E2F2CF70161914E
:1017B0007F018FE197E00E94F2028D899E89E816F1
:1017C000F906A1F7B1D51F5F143019F782EA94E04A
:1017D000FDD210938005B0908105A0908205909075
:1017E000830580908405E0908505F0908605009142
:1017F0008705109188059701A8016B2D7A2D892DF9
:10180000982D0E94461D87FF04C0BE2CAF2C902E41
:10181000812EE0908905F0908A0500918B0510914A
:101820008C052B2D3A2D492D582DB701C8010E944A
:10183000C31F181624F4BE2CAF2C902E812E8AEBD9
:1018400094E0C4D26B2D7A2D892D982D09D63F8A2C
:10185000288EE1E8F5E0FA8FE98FF1E0FB8F8E0149
:101860000F5E1F4FC0906205D0906305E090640545
:10187000F0906505898D9A8D9D8F8C8FFC0140803D
:1018800051806280738020E030E0A901C301B20181
:101890000E94461D8823E9F0C701B6010E944C1D35
:1018A0006B017C012B2D3A2D492D582DC301B2011E
:1018B0000E94051F9B01AC01C701B6010E94AB1D30
:1018C0000E946D1FEF89F88D6083718382839383FB
:1018D00006C0EF89F88DC082D182E282F382EF895F
:1018E000F88DC190D190E190F190F88FEF8BCD867B
:1018F000DE86EF86F88A87EC94E068D2898D9A8D2F
:1019000004969A8F898F2B2D3A2D492D582DEC8DC9
:10191000FD8D60817181828193810E94051F66D354
:101920008DE194E053D280EE94E050D2C701B6012D
:101930008BD58B8D55D5609180058FE197E00E9406
:10194000F2023E01FDE06F0E711C6C8E7E8EF30183
:10195000D1903F016D2D8FE197E00E94F2026D2D35
:1019600070E080E090E04AE032D28DE194E02ED247
:101970006016710661F7D8D485E293E027D2FB8D1B
:10198000FF5FFB8FF43009F06DCF8DEE94E01ED237
:1019900085E095E01BD282E08093800526E636E65E
:1019A00046E65DE360918105709182058091830533
:1019B000909184050E94051F0E946D1F6B017C01A0
:1019C000698B7A8B8B8B9C8B26E636E646E65DE34D
:1019D00060918505709186058091870590918805B5
:1019E0000E94051F0E946D1F2B013C016D877E87A1
:1019F0008F87988B26E636E646E65DE3609189059B
:101A000070918A0580918B0590918C050E94051F2D
:101A10000E946D1F4B015C0169837A838B839C83D9
:101A200082E295E0D3D16091810570918205809129
:101A3000830590918405DAD287EE94E0C7D1C7017F
:101A4000B60102D560918505709186058091870564
:101A500090918805CBD287EE94E0B8D1C301B20152
:101A6000F3D46091890570918A0580918B059091DE
:101A70008C05BCD287EE94E0A9D1C501B401E4D4B1
:101A800081E0AED4609180058FE197E00E94F20280
:101A900068015E0185E1A80EB11CF60161916F013C
:101AA0008FE197E00E94F202CA14DB04B1F73CD444
:101AB00082E096D4609180058FE197E00E94F20267
:101AC000CC8CDE8CF60161916F018FE197E00E9472
:101AD000F202C016D106B1F727D483E081D4609119
:101AE00080058FE197E00E94F202C32CD22CF60110
:101AF00061916F018FE197E00E94F2028D899E89CA
:101B0000C816D906A1F710D482E395E05FD181E031
:101B10008093800580918D0590918E05092E000C93
:101B2000AA0BBB0B898B9A8BAB8BBC8B80918F05DF
:101B300090919005092E000CAA0BBB0B8D879E87F8
:101B4000AF87B88B8091910590919205092E000C7A
:101B5000AA0BBB0B89839A83AB83BC8381E040D4FF
:101B6000609180058FE197E00E94F2026801F60122
:101B700061916F018FE197E00E94F202AC14BD0405
:101B8000B1F7D2D382E02CD4609180058FE197E049
:101B90000E94F202CC8CDE8CF60161916F018FE124
:101BA00097E00E94F2020C151D05B1F7BDD383E04A
:101BB00017D4609180058FE197E00E94F202032D17
:101BC000122DF80161918F018FE197E00E94F202DE
:101BD0008D899E8980179107A1F76E960FB6F894AC
:101BE000DEBF0FBECDBFDF91CF911F910F91FF9050
:101BF000EF90DF90CF90BF90AF909F908F907F90AD
:101C00006F905F904F903F902F908EC380912406ED
:101C100081110BC01092210610922006109223060B
:101C20001092220681E08093240680E296E00895D7
:101C3000DB01109749F0ED91FC9111970190F08133
:101C4000E02DBC01CD01199480E090E00895AF92A1
:101C5000BF92CF92DF92EF92FF920F931F93CF9399
:101C6000DF9300D000D0CDB7DEB77C01DC01169643
:101C70008C91882309F484C08150F7018683008108
:101C80001181B80184E090E0D3DF009709F47AC0B5
:101C9000DC0111961C930E9313961C921E921297C0
:101CA0008C016701B2E0CB0ED11C6BE7C60178DB7B
:101CB000882309F465C06DE7C60172DB81115AC043
:101CC000C701BDDC5C01892B09F45AC06AE3C60177
:101CD00067DB882309F454C01A821982BE016F5F42
:101CE0007F4FC70142D2882309F44AC0B501C80119
:101CF00003DA009759F5F801608171818AE090E07C
:101D000097DF009741F0DC0111961C921E92159608
:101D10001C921E921497D8011296ED91FC91139784
:101D2000309751F0208131812115310511F0F901F1
:101D3000F9CF9183808303C0F80193838283009756
:101D4000F9F0DC011396BC92AE92129726E0FE01E8
:101D50003196DC01149601900D922A95E1F76DE71A
:101D6000C6011EDB811106C06CE2C60119DB8111C0
:101D7000A7CF06C0F70186818F5F8683C80104C0A4
:101D8000F4D902C0F2D98CCF26960FB6F894DEBFF4
:101D90000FBECDBFDF91CF911F910F91FF90EF90BC
:101DA000DF90CF90BF90AF900895009761F0FC0155
:101DB00001900020E9F73197AF01481B590BBC0196
:101DC00082E896E017C380E090E00895EECF8F920E
:101DD0009F92AF92BF920F931F93CF93DF93CDB794
:101DE000DEB7A1970FB6F894DEBF0FBECDBF19A224
:101DF000423008F44AE08E010F5D1F4F842E912C73
:101E0000A12CB12CA50194010E943F20E62FB9011D
:101E1000CA0101501109EA3014F4E05D01C0E95C27
:101E2000D801EC93232B242B252B61F7C801BDDFB0
:101E3000A1960FB6F894DEBF0FBECDBFDF91CF9154
:101E40001F910F91BF90AF909F908F9008958F92A8
:101E50009F92AF92BF92CF92DF92EF92FF920F9339
:101E60001F93CF93DF936B017C01142F9B01AC0177
:101E70000E941320882319F08DE495E027C04601C5
:101E80005701E894B7F82FEF3FEF4FE75FE7C50141
:101E9000B4010E94132081110DC02FEF3FEF4FE7D7
:101EA0005FE7C501B4010E94461D18161CF481E5C8
:101EB00095E00CC02FEF3FEF4FE75FE4C701B6019D
:101EC0000E94C31F18167CF485E595E0DF91CF9141
:101ED0001F910F91FF90EF90DF90CF90BF90AF9048
:101EE0009F908F9062CF2FEF3FEF4FE75FECC701DE
:101EF000B6010E94461D87FDE7CF20E030E0A90132
:101F0000C701B6010E94461D87FF0BC06DE282E843
:101F100096E00E94C101EC01F7FAF094F7F8F09412
:101F200002C0C0E0D0E000E060E070E080E09FE34D
:101F3000101741F020E030E040E251E40E94051F1C
:101F40000F5FF6CFA70196010E94791E6B017C01FD
:101F50000E94721F4B015C014AE039DFC80FD91F94
:101F60001123B1F1C501B4010E944A1D9B01AC01CE
:101F7000C701B6010E94781E6B017C016EE282E807
:101F800096E00E94C101C80FD91F20E030E040E276
:101F900051E4C701B6010E94AB1D4B015C010E94D8
:101FA000721F6B01E12CF12C4AE0C701B6010FDF73
:101FB000C80FD91FC701B6010E944A1D9B01AC0181
:101FC000C501B4010E94781E6B017C011150E9F635
:101FD000CE01DF91CF911F910F91FF90EF90DF9095
:101FE000CF90BF90AF909F908F90089542E02FCFF9
:101FF000CF93DF93DADEEC0184E293E0D6DE8C0F40
:102000009D1FDF91CF91089590E0FC01EA5FFD4FA5
:102010004491FC01E054FE4F2491FC01E658FE4F30
:102020009491992309F466C0442309F455C050E003
:10203000FA013197E231F10508F04EC08827E658E1
:10204000FF4F8F4F0C946120809180008F7707C0E5
:10205000809180008F7D03C080918000877F809376
:1020600080003AC084B58F7702C084B58F7D84BD6F
:1020700033C08091B0008F7703C08091B0008F7D16
:102080008093B00029C0809190008F7707C0809125
:1020900090008F7D03C080919000877F8093900097
:1020A0001BC08091A0008F7707C08091A0008F7D1A
:1020B00003C08091A000877F8093A0000DC0809115
:1020C00020018F7707C0809120018F7D03C0809110
:1020D0002001877F80932001E92FF0E0EE0FFF1FA2
:1020E000E05AFE4FA591B4918FB7F894EC91E22B92
:1020F000EC938FBF0895CF92DF92EF92FF92CF9330
:10210000DF9397FF1AC06B017C016DE282E896E0D5
:102110000E94C101EC0166277727CB016C197D096C
:102120008E099F094AE053DE8C0F9D1FDF91CF91EE
:10213000FF90EF90DF90CF9008954AE0DF91CF912C
:10214000FF90EF90DF90CF9042CE69E575E00E945E
:102150007C08009749F0FC01248135812630310547
:1021600019F486819781089551CDAF92BF92CF9295
:10217000DF92EF92FF920F931F93CF93DF9300D0E4
:1021800000D0CDB7DEB77C016B015C0182E0A80E08
:10219000B11CC501C3D8D7011296ED91FC911397DC
:1021A00080818B3521F08B3709F480C089C0F7011D
:1021B0008681882309F466C081508683008111815D
:1021C000B80184E090E034DD009709F499C0FC0187
:1021D00011830083138212828C016BE5C501E0D864
:1021E000882309F44FC06DE5C501DAD8811142C0DA
:1021F0001A821982BE016F5F7F4FC701B6DF882345
:1022000009F440C0D8016D917C9188E090E010DD28
:10221000DC01892B39F011961C921E9213961C92A8
:102220001E921297F801228133812115310551F058
:10223000F90180819181009711F09C01F9CFB18360
:10224000A08303C0F801B383A2831097D9F086E07E
:10225000FE013196129601900D928A95E1F76DE597
:10226000C5019ED8811106C06CE2C50199D88111C3
:10227000BFCF08C0D70116968C9116978F5F169620
:102280008C9302C0C3DC8C01F80180819181892B81
:1022900011F410E037C086E090E0D60111969C93CF
:1022A0008E9313961C930E93129728C0C701CFDC10
:1022B000FC0120813181232B61F327E030E016C03F
:1022C00011E0873219F0823209F010E0C701B7D966
:1022D0000097F9F2112341F022E030E0F60131835A
:1022E0002083938382830EC021E030E0D6011196D3
:1022F0003C932E9313969C938E93129711E002C0F9
:1023000085DC6ACF812F26960FB6F894DEBF0FBE0C
:10231000CDBFDF91CF911F910F91FF90EF90DF9094
:10232000CF90BF90AF90089530918106313208F080
:102330004BC080915E068111FCCF9091470822E04E
:1023400020935E0621E020935D062FEF20935C062C
:1023500010925B0630935A06E1E6F6E0AAE3B6E097
:1023600020E0321721F041914D932F5FFACF109268
:10237000390620913906990F922B90933906909146
:102380003806913061F41092380690913906909396
:10239000BB009091BC0093FDF8CF95EC01C095EE89
:1023A0009093BC0090915E069230E1F390915C06B0
:1023B0009F3F79F080915C06803241F080915C060D
:1023C000803331F084E005C081E003C082E001C0C9
:1023D00083E0109260061092810610925F060895C5
:1023E00091E090935F0680934708109260061092E8
:1023F00081060895CF92DF92EF92FF920F931F9381
:10240000CF93DF936C017A018B01C0E0D0E0CE1551
:10241000DF0581F0D8016D918D01D601ED91FC9120
:102420000190F081E02DC6011995892B11F02196BC
:10243000EECF7E01C701DF91CF911F910F91FF90E9
:10244000EF90DF90CF900895CF93DF9354DEEC01AF
:1024500084E293E0AADC8C0F9D1FDF91CF91089559
:10246000CF93DF9342E0F3DCEC0184E293E09DDC68
:102470008C0F9D1FDF91CF910895CF93DF93BC0107
:10248000990F880B990B37DEEC0184E293E08DDC29
:102490008C0F9D1FDF91CF9108950F931F93CF93C2
:1024A000DF93EC0188819981009729F02A813B8193
:1024B0002617370788F48B016F5F7F4F0E949E219C
:1024C000009761F0998388831B830A832C813D8167
:1024D000232B11F4FC01108281E001C080E0DF9128
:1024E000CF911F910F910895EF92FF920F931F9339
:1024F000CF93DF93EC01198218821B821A821D820E
:102500001C826115710541F18B01FB0101900020D6
:10251000E9F731977F01E61AF70AB701BEDF288194
:10252000398181110DC02115310519F0C9010E94B1
:102530001521198218821D821C821B821A820CC0EE
:10254000FD82EC82B801C901DF91CF911F910F91FB
:10255000FF90EF900C949422DF91CF911F910F91F7
:10256000FF90EF900895CF93DF93CDB7DEB7C75FAD
:10257000D1090FB6F894DEBF0FBECDBF789484B5F5
:10258000826084BD84B5816084BD85B5826085BD6F
:1025900085B5816085BD80916E00816080936E00FD
:1025A00010928100809181008260809381008091EF
:1025B00081008160809381008091800081608093A0
:1025C00080008091B10084608093B1008091B00060
:1025D00081608093B000809191008260809391002F
:1025E0008091910081608093910080919000816042
:1025F000809390008091A10082608093A1008091DF
:10260000A10081608093A1008091A00081608093EF
:10261000A00080912101826080932101809121019D
:10262000816080932101809120018160809320014D
:1026300080917A00846080937A0080917A00826031
:1026400080937A0080917A00816080937A008091F3
:102650007A00806880937A001092C100E09192061F
:10266000F091930682E08083E0918E06F0918F06D0
:102670001082E0919006F091910680E180831092A3
:102680009A06E0919606F091970686E08083E091A5
:102690009406F0919506808180618083E091940694
:1026A000F0919506808188608083E0919406F09196
:1026B0009506808180688083E0919406F09195066C
:1026C00080818F7D80831092610510926005109249
:1026D00060061092810610925E0681E080935D068E
:1026E0001092380684E190DC85E18EDC8091B9009F
:1026F0008E7F8093B9008091B9008D7F8093B9005F
:1027000088E48093B80085E48093BC0088E992E077
:1027100090935F0580935E0589E992E090935D0553
:1027200080935C051092960788E792E061DC109236
:1027300068051092690510926A0510926B05109257
:102740006C0510926D0510926E0510926F05109237
:102750007005109271051092720510927305109217
:1027600074051092750510927605109277051092F7
:1027700078051092790510927A0510927B051092D7
:102780007C0510927D0510927E0510927F0504E174
:1027900010E0802FF801E054FE4F9491F801E658C4
:1027A000FE4F2491222399F030E0220F331FF901CC
:1027B000EA5BFE4FA591B491F901E05AFE4F2591D5
:1027C00034912FB7F894EC91E92BEC932FBF1CDCDC
:1027D0000F5F1F4F08311105E1F61092AD05109201
:1027E000AC051092AE051092AF051092B005109294
:1027F000B1058091B2059091B305009711F00E9448
:102800001521AAE0FA2E1092900710928F071092CD
:102810009407109293078091910790919207EBE2B1
:10282000F7E09F012B523740281739077CF41192AB
:10283000F8CF82E896E00E948A01892B71F480919A
:102840008F07909190071816190654F180919307FD
:1028500090919407019769F754C080912B078B37AB
:1028600031F480918F0790919007892B41F782E88E
:1028700096E00E948A01181619060CF782E896E085
:102880000E94680180932B078B3799F680918F0700
:102890009091900701969093900780938F07CFCFE8
:1028A00082E896E00E948A01892B81F282E896E014
:1028B0000E948A01181619064CF600918F07109194
:1028C000900782E896E00E946801F801E55DF84F04
:1028D000808380918F0790919007FC01E55DF84F10
:1028E00020812D37B9F680919507882319F08BE266
:1028F00097E07EDB81E090E09093940780939307CC
:10290000A5CF80919507882331F082E892E070DBB3
:102910008BE297E06DDBA9E0B0E0AC0FBD1FBC839C
:10292000AB83E8ECF0E0FE83ED8318861F828AE03B
:1029300092E09A838983A1E0B0E0AC0FBD1FCF5233
:10294000DF4FB983A883C15DD040EBE2F7E0CD5201
:10295000DF4FF983E883C35DD040CB52DF4FF9836B
:10296000E883C55DD040C952DF4FF882C75DD040D3
:10297000CE018F529F4F6BD98C01DC018D919C91C0
:10298000892BB1F480919507882319F081E992E0B1
:102990002FDB8091910790919207EBE2F7E09F0186
:1029A0002B523740281739070CF02DCF1192F7CF53
:1029B00065EA72E0C8010E947C087C01009709F476
:1029C0006CC0FC01C480D580F1E0CF16D10471F455
:1029D000DC0116966D917C9117976115710531F0A8
:1029E0008AEA92E00E948B22892B81F0B1E0CB1A17
:1029F000D108E2E0CE16D10448F4D70116966D91C5
:102A00007C9117976115710509F049C06EE174E07A
:102A1000CE018F529F4F68DDFE01E252FF4F81EDE4
:102A200090E08C0F9D1F91838083C852DF4FF98304
:102A3000E883C85DD040C652DF4F19821882CA5D54
:102A4000D040BE0168527F4FC70104960E94F7052F
:102A5000CF52DF4F88819981C15DD040C852DF4F8E
:102A600099838883C85DD040CD52DF4F888199819A
:102A7000C35DD040C652DF4F99838883CA5DD04082
:102A8000CB52DF4F88819981C55DD040C452DF4F62
:102A900099838883CC5DD04006C06EE174E0CE019E
:102AA00088529F4F21DDC452DF4FC880D980CC5D52
:102AB000D040C6010E947D207C019093B305809395
:102AC000B205C852DF4F28813981C85DD040FC0172
:102AD00080E090E08C159D0579F02115310529F4F1
:102AE00010929305A3E9B5E003C0D901A80FB91F5F
:102AF0004C9141930196EECFF701E80FF91F108238
:102B00006FE475E0C8010E9439099093AD05809388
:102B1000AC05C8011ADB60E070E00E94E509609333
:102B20009405709395058093960590939705C80139
:102B30000CDB61E070E00E94E509609398057093FA
:102B4000990580939A0590939B05C801FEDA62E08F
:102B500070E00E94E50960939C0570939D05809349
:102B60009E0590939F056FEA72E0C8010E94C70816
:102B70006093AE057093AF058093B0059093B10557
:102B800064EB72E0C8010E94390990936705809355
:102B9000660568EB72E0C8010E94C7086093620591
:102BA0007093630580936405909365058091950704
:102BB0008823E1F0C7011CDA6091AE057091AF0582
:102BC0008091B0059091B1053FDC809166059091B0
:102BD000670553DC6091620570916305809164051F
:102BE0009091650531DC85E293E0F0D882E896E0CB
:102BF0000E948A01181619062CF482E896E00E94B9
:102C00006801F4CFC852DF4F88819981C85DD040F8
:102C10000E9415216CEB72E08091B2059091B30592
:102C20000E948B22892B09F00EC682EC92E0E0D93B
:102C30008AEE92E0DDD9E4E9F5E0A0EAB5E080EAC9
:102C400095E041915191619171914D935D936D9397
:102C50007D938E179F07A9F783E093E0B7D8609123
:102C6000A0057091A1058091A2059091A305BED900
:102C700080E293E0ABD86091A4057091A5058091A6
:102C8000A6059091A705B2D980E293E09FD8609104
:102C9000A8057091A9058091AA059091AB05A6D9C8
:102CA00084E293E082D887E293E0A2D98FE393E0B5
:102CB0008DD8C090A005D090A105E090A205F0901D
:102CC000A30520E030E0A901C701B601DFD68111DC
:102CD00039C020E030E0A9016091A4057091A505FC
:102CE0008091A6059091A705D1D681112BC020E037
:102CF00030E0A9016091A8057091A9058091AA050D
:102D00009091AB05C3D681111DC01092800581E062
:102D100067DB60E08FE197E00E94F20205DB82E072
:102D20005FDB60E08FE197E00E94F202FDDA83E072
:102D300057DB60E08FE197E00E94F202F5DA0E9433
:102D40008C0B7DC52AE037ED43E25CE36091A8057A
:102D50007091A9058091AA059091AB05FCD64B0115
:102D60005C012AE037ED43E25CE36091A4057091D9
:102D7000A5058091A6059091A705EDD62B013C01F4
:102D80002AE037ED43E25CE3C701B601E4D6609385
:102D9000CF077093D0078093D1079093D2074092CA
:102DA000D3075092D4076092D5077092D6078092CD
:102DB000D7079092D807A092D907B092DA0710925D
:102DC000A6071092A507C090B307D090B407E09073
:102DD000B507F090B6072091BB073091BC07409132
:102DE000BD075091BE07C701B60182D76093C307E4
:102DF0007093C4078093C5079093C60720E030E026
:102E000040E05FE36091BF077091C0078091C10708
:102E10009091C207A0D64B015C0127ED33EB4DE545
:102E20005FE3C701B60197D69B01AC01C501B401B0
:102E30005FD76093C7077093C8078093C9079093C3
:102E4000CA0720E030E040E05FE3C701B60183D667
:102E50009B01AC016091B7077091B8078091B907E9
:102E60009091BA0745D76093CB077093CC078093B6
:102E7000CD079093CE0780919607882339F189E595
:102E800093E00E94E60E6091C3077091C4078091A1
:102E9000C5079091C607E4DA8DE593E00E94E60E3F
:102EA0006091C7077091C8078091C9079091CA07C0
:102EB000D7DA81E693E00E94E60E6091CB0770912D
:102EC000CC078091CD079091CE07CADA8091AB07ED
:102ED0009091AC07A091AD07B091AE07CC51DF4FF8
:102EE00088839983AA83BB83C45ED0408091D30733
:102EF0009091D407A091D507B091D607C052DF4F6B
:102F000088839983AA83BB83C05ED040C090C307E7
:102F1000D090C407E090C507F090C607CC51DF4FB2
:102F2000288139814A815B81C45ED040CA01B901E0
:102F3000E0D64B015C01A7019601C052DF4F6881CA
:102F400079818A819B81C05ED040D3D69B01AC0140
:102F5000C501B40100D66093DB077093DC07809352
:102F6000DD079093DE078090D7079090D807A09058
:102F7000D907B090DA07A5019401C501B401B9D60B
:102F8000CC51DF4F288139814A815B81C45ED040BA
:102F9000E2D5C051DF4F688379838A839B83C05F0A
:102FA000D0406093E7077093E8078093E907909318
:102FB000EA078091CF079091D007A091D107B091F7
:102FC000D207C851DF4F88839983AA83BB83C85E29
:102FD000D040C052DF4F288139814A815B81C05E79
:102FE000D040CA01B901B7D52B013C01C851DF4F10
:102FF000288139814A815B81C85ED040CA01B9010C
:10300000AAD59B01AC01C301B20173D62B013C01CF
:10301000A5019401C501B4019ED59B01AC01C3017A
:10302000B20167D62B013C01CC51DF4F2881398199
:103030004A815B81C45ED040CA01B9018CD5C451BC
:10304000DF4F688379838A839B83CC5ED040609115
:10305000AF077091B0078091B1079091B2079B01C3
:10306000AC0179D5CC50DF4F688379838A839B8309
:10307000C45FD040A7019601C701B6016CD5A3017A
:10308000920137D6C451DF4F288139814A815B8153
:10309000CC5ED0402ED64B015C01C052DF4F288160
:1030A00039814A815B81C05ED040CA01B90121D615
:1030B000A701960150D59B01AC01C501B40119D6F9
:1030C000CC50DF4F288139814A815B81C45FD04079
:1030D0000FD66093F3077093F4078093F5079093EE
:1030E000F607C090C707D090C807E090C907F090D6
:1030F000CA078090CB079090CC07A090CD07B090E6
:10310000CE07A7019601C851DF4F688179818A8176
:103110009B81C85ED040EDD527ED33EB4DED5FE3ED
:103120001AD5C052DF4F288139814A815B81C05E48
:10313000D040DFD5A5019401DCD5CC51DF4F2881EB
:1031400039814A815B81C45ED040505804D5609378
:10315000DF077093E0078093E1079093E207C05187
:10316000DF4F88819981AA81BB81C05FD040809365
:10317000EB079093EC07A093ED07B093EE07A70140
:103180009601C701B601E7D4A3019201B2D52B0184
:103190003C01A5019401C501B401DDD49B01AC0142
:1031A000C301B201A6D5C451DF4F288139814A81BC
:1031B0005B81CC5ED0409DD5C451DF4F688379835D
:1031C0008A839B83CC5ED040A5019401C052DF4F1F
:1031D000688179818A819B81C05ED040BCD42B01FB
:1031E0003C01A7019601C851DF4F688179818A812E
:1031F0009B81C85ED040AFD4A30192017AD59B01D8
:10320000AC0177D5C451DF4F288139814A815B8178
:10321000CC5ED0406ED5CC50DF4F288139814A81B9
:103220005B81C45FD04064D56093F7077093F80763
:103230008093F9079093FA07A7019601C851DF4FD1
:10324000688179818A819B81C85ED04051D527ED04
:1032500033EB4DED5FE37FD4C052DF4F28813981DE
:103260004A815B81C05ED04043D5A501940140D521
:10327000CC51DF4F288139814A815B81C45ED040C7
:103280006AD46093E3077093E4078093E507909313
:10329000E607C051DF4F88819981AA81BB81C05F59
:1032A000D0408093EF079093F007A093F107B0937D
:1032B000F207C851DF4F688179818A819B81C85E9E
:1032C000D0409058A701960146D4A301920111D590
:1032D0009B01AC010ED5C451DF4F288139814A8151
:1032E0005B81CC5ED04005D5CC50DF4F2881398141
:1032F0004A815B81C45FD040FBD46093FB0770932D
:10330000FC078093FD079093FE078091960781113B
:103310000CC0F6E92F2EF7E03F2E8101CC51DF4F94
:1033200019821882C45ED04033C0EBEDEE2EE7E088
:10333000FE2E00E010E085E693E00E94E60EC80154
:103340009CD889E693E00E94E60ED7016D917D91AD
:103350008D919D917D0184D880E793E00E94E60ED7
:10336000F70160857185828593857AD887E793E038
:103370000E94E60ED70154966D917D918D919C919E
:1033800057976ED80F5F1F4F03301105A1F6C1CFBD
:10339000F801EB5BFF4F80819181A281B381C05224
:1033A000DF4F88839983AA83BB83C05ED0403C965D
:1033B00040805180628073803C96C080D180E280E2
:1033C000F3809C01AD01BC01CD01C5D34B015C0173
:1033D000A3019201C301B201BED39B01AC01C5019F
:1033E000B40187D44B015C01A7019601C701B60166
:1033F000B2D39B01AC01C501B4017AD4D3D5C85175
:10340000DF4F688379838A839B83C85ED040A301A2
:1034100092016ED44B015C01F801E759FF4F6083C4
:10342000718382839383C052DF4F288139814A811F
:103430005B81C05ED040C701B6015AD46B017C01EC
:10344000F801EB58FF4F6083718382839383C3013C
:10345000B2019058C851DF4F288139814A815B8180
:10346000C85ED04045D42B013C01F801EF57FF4F17
:1034700060837183828393833C96C082D182E2828F
:10348000F382A7019601C501B401BFD496D45801B7
:10349000A9E9AA0EB11C9B01AC012BD4F5016083F4
:1034A000718382839383A7019601C301B201ADD4D6
:1034B00084D47801F5EAEF0EF11C9B01AC0119D41C
:1034C000D7016D937D938D939C931397CC51DF4FD0
:1034D000E881F981C45ED0403196CC51DF4FF98349
:1034E000E883C45ED0400C5F1F4F339709F050CF84
:1034F00080919607811113C04090A7075090A807AC
:103500006090A9077090AA0763E2C62E68E0D62EE5
:1035100007E917E07DE9E72E77E0F72E57C000E0D6
:1035200010E085E693E00E94E60EC8010E943D127D
:103530008EE793E00E94E60EF101E759FF4FD101BB
:10354000AB58BF4F2D913D914D915C916081718140
:10355000828193815AD40E94301286E893E00E94BF
:10356000E60EF101EF57FF4FD101A357BF4F2D9149
:103570003D914D915C91608171818281938145D4AF
:103580000E9430128EE893E00E94E60EF101E756A9
:10359000FF4F60817181828193810E9430128AE99C
:1035A00093E00E94E60EF101EB55FF4F60817181BF
:1035B000828193810E9430120F5F1F4FF4E02F0E23
:1035C000311C0330110509F0ACCF96CFD6015896C7
:1035D0002D913D914D915C915B97C301B201BBD29E
:1035E0007CD4F80177836683F601608171818281E2
:1035F0009381F4E0CF0ED11C70D4D8016D937D93EC
:103600008D01EA16FB0611F78091A3079091A4079C
:1036100001969093A4078093A30780919607811148
:103620000CC086EA93E00E94F80F58E6C52E55E0DC
:10363000D52E04E715E056011DC04DE9C42E47E024
:10364000D42E00E010E085E693E00E94E60EC8016B
:103650000E943D1283EC93E00E94E60EF6018191F8
:1036600091916F010E943D120F5F1F4F04301105B1
:1036700051F7D7CFD7016D917D917D01072E000CB9
:10368000880B990B09D2F501619371938193919302
:103690005F010E171F0771F738E6E32E35E0F32EB2
:1036A00080ED93E00E94E60ED7016D917D918D91A2
:1036B0009D917D010E94F60F8DE194E00E94E60E3F
:1036C000B4E7EB16B5E0FB0659F785E293E00E94FC
:1036D000E60E20E8E22E25E0F22E80EE93E00E9436
:1036E000E60EF80161917191819191918F010E9493
:1036F000F60F8DE194E00E94E60EE016F10669F700
:1037000085E293E00E94E60E80EF93E00E94F80FBE
:103710008DE8E82E85E0F82E01E815E0412C512CCB
:10372000320192E0A92EB12CD701AD92BC92F601E4
:1037300061917191819191916F01208531854285CF
:103740005385D6D2D8016D937D938D939C93139717
:103750008AE094E00E94E60EC301B2010E947B1051
:103760008CED94E00E94E60EF80160817181828107
:1037700093810E94F60F8DE194E00E94E60E20E016
:1037800030E0A901D8016D917D918D919C917ED100
:1037900087FF13C086E194E00E94E60E81E090E08E
:1037A000F70191838083F80180819181A281B381A7
:1037B000B05880839183A283B383F2E0EF0EF11CB3
:1037C0000C5F1F4F2FEF421A520A620A720A83E0FF
:1037D000481651046104710409F0A6CF0E948C0BB5
:1037E0008FE194E00E94F80F20E030E0A9016091A1
:1037F000A0057091A1058091A2059091A30546D1E5
:1038000081111BC020E030E0A9016091A4057091F6
:10381000A5058091A6059091A70538D181110DC00D
:1038200020E030E0A9016091A8057091A905809180
:10383000AA059091AB052AD181110E949B0B8EE3C2
:1038400094E00E94E60E68E574E08091B2059091E4
:10385000B30561D6892B09F099C08FE594E00E94E9
:10386000F80F8091AE059091AF05A091B005B09191
:10387000B105181619061A061B067CF0A1E0B0E087
:10388000B0938E05A0938D05B0939005A0938F05FE
:10389000B0939205A09391050EC082E090E09093C2
:1038A0008E0580938D059093900580938F0590935E
:1038B0009205809391058091AC059091AD05813082
:1038C0009105D1F46091AE057091AF058091B0057E
:1038D0009091B105E1D0609381057093820580934A
:1038E00083059093840510928505109286051092A9
:1038F0008705109288051CC08230910511F5109241
:1039000081051092820510928305109284056091C2
:10391000AE057091AF058091B0059091B105BCD016
:10392000609385057093860580938705909388053D
:103930001092890510928A0510928B0510928C05C1
:1039400023C0039709F51092810510928205109209
:1039500083051092840510928505109286051092B9
:103960008705109288056091AE057091AF05809132
:10397000B0059091B10590D06093890570938A0548
:1039800080938B0590938C050E949B0B0E942E02C6
:103990000C94ED13E2E8F6E01382128288EE93E0D5
:1039A000A0E0B0E084839583A683B78328E532E066
:1039B0003183208325EC30E03587248724EC30E008
:1039C0003787268720EC30E0318B208B21EC30E0EC
:1039D000338B228B22EC30E0358B248B26EC30E0CD
:1039E000378B268B118E128E138E148EEFE1F7E03B
:1039F0001382128284839583A683B7838AE692E03A
:103A000091838083E6E9F7E089E29CE5AFE8BDE3D6
:103A1000858B968BA78BB08F85E89BEEA1E9BEE3E3
:103A2000818F928FA38FB48F88EB9EE1A5E0BEE3D8
:103A3000858F968FA78FB0A384EF9DEFA4E5BCE39D
:103A400081A392A3A3A3B4A384EF9DEFA4EDBCE351
:103A500085A396A3A7A3B0A78CEE91E5A8E3BDE349
:103A600081A792A7A3A7B4A71686158680EE9EE22B
:103A7000A5E6B2E4818B928BA38BB48B108284E693
:103A800090E09093920780939107089540D008F4B6
:103A900081E00895E89409C097FB3EF490958095E5
:103AA000709561957F4F8F4F9F4F9923A9F0F92F04
:103AB00096E9BB279395F695879577956795B79582
:103AC000F111F8CFFAF4BB0F11F460FF1BC06F5F68
:103AD0007F4F8F4F9F4F16C0882311F096E911C07A
:103AE000772321F09EE8872F762F05C0662371F09B
:103AF00096E8862F70E060E02AF09A95660F771FAF
:103B0000881FDAF7880F9695879597F90895990F8A
:103B10000008550FAA0BE0E8FEEF16161706E80797
:103B2000F907C0F012161306E407F50798F0621BB8
:103B3000730B840B950B39F40A2661F0232B242B8D
:103B4000252B21F408950A2609F4A140A6958FEFAC
:103B5000811D811D08950BD078C069D028F06ED0EA
:103B600018F0952309F05AC05FC01124A2C07ED07E
:103B7000A0F3959FD1F3950F50E0551F629FF00180
:103B8000729FBB27F00DB11D639FAA27F00DB11DD9
:103B9000AA1F649F6627B00DA11D661F829F222762
:103BA000B00DA11D621F739FB00DA11D621F839FE9
:103BB000A00D611D221F749F3327A00D611D231FBF
:103BC000849F600D211D822F762F6A2F11249F570D
:103BD00050408AF0E1F088234AF0EE0FFF1FBB1F30
:103BE000661F771F881F91505040A9F79E3F5105CF
:103BF00070F014C05EC05F3FECF3983EDCF3869536
:103C000077956795B795F795E7959F5FC1F7FE2B79
:103C1000880F911D9695879597F9089597F99F6755
:103C200080E870E060E008959FEF80EC0895002444
:103C30000A941616170618060906089500240A9411
:103C400012161306140605060895092E0394000C97
:103C500011F4882352F0BB0F40F4BF2B11F460FF26
:103C600004C06F5F7F4F8F4F9F4F089557FD90584F
:103C7000440F551F59F05F3F71F04795880F97FB30
:103C8000991F61F09F3F79F08795089512161306EA
:103C90001406551FF2CF4695F1DF08C01616170619
:103CA0001806991FF1CF869571056105089408954E
:103CB000E894BB2766277727CB0197F9089509D0A9
:103CC000A59F900DB49F900DA49F800D911D112470
:103CD0000895A29FB001B39FC001A39F700D811DE5
:103CE0001124911DB29F700D811D1124911D089505
:103CF0005058BB27AA270ED0A8CF99DF30F09EDFFF
:103D000020F031F49F3F11F41EF48ECF0EF4E095B5
:103D1000E7FB84CFE92FAADF80F3BA1762077307A6
:103D20008407950718F071F49EF5C2CF0EF4E09564
:103D30000B2EBA2FA02D0B01B90190010C01CA0165
:103D4000A0011124FF27591B99F0593F50F4503E10
:103D500068F11A16F040A22F232F342F4427585F02
:103D6000F3CF469537952795A795F0405395C9F71A
:103D70007EF41F16BA0B620B730B840BBAF09150D2
:103D8000A1F0FF0FBB1F661F771F881FC2F70EC071
:103D9000BA0F621F731F841F48F487957795679544
:103DA000B795F7959E3F08F0B3CF9395880F08F02D
:103DB0009927EE0F979587950895DF93DD27B92F03
:103DC000BF7740E85FE31616170648075B0710F455
:103DD000D92FDDD09F938F937F936F9321D1E8E10B
:103DE000F1E0ACD032DF2F913F914F915F91BFDE78
:103DF000DD2349F09058A2EA2AED3FE049EC5FE369
:103E0000D0785D2787DFDF9120CF0CD01ECF16DF63
:103E100040F00DDF30F021F45F3F19F0FFCE51117B
:103E200048CF02CF23DF98F39923C9F35523B1F389
:103E3000951B550BBB27AA2762177307840738F019
:103E40009F5F5F4F220F331F441FAA1FA9F333D078
:103E50000E2E3AF0E0E830D091505040E695001C2C
:103E6000CAF729D0FE2F27D0660F771F881FBB1FE8
:103E7000261737074807AB07B0E809F0BB0B802DC2
:103E8000BF01FF2793585F4F2AF09E3F510568F00E
:103E9000C5CE0FCF5F3FECF3983EDCF38695779568
:103EA0006795B795F7959F5FC9F7880F911D969510
:103EB000879597F90895E1E0660F771F881FBB1F6C
:103EC000621773078407BA0720F0621B730B840B19
:103ED000BA0BEE1F88F7E095089504D06894B111ED
:103EE000E8CE0895CBDE88F09F5790F0B92F992740
:103EF000B751A0F0D1F0660F771F881F991F1AF0F5
:103F0000BA95C9F712C0B13081F0D2DEB1E00895A0
:103F1000CFCE672F782F8827B85F39F0B93FCCF321
:103F2000869577956795B395D9F73EF490958095EA
:103F3000709561957F4F8F4F9F4F0895DF93CF937B
:103F40001F930F93FF92EF92DF927B018C01689495
:103F500005C0DA2EEF010BDEFE01E894A591259154
:103F6000359145915591AEF3EF01D4DEFE019701F5
:103F7000A801DA9479F7DF90EF90FF900F911F91ED
:103F8000CF91DF910895C3DD08F48FEF08959B0171
:103F9000AC0160E070E080E89FE337CF11F40EF4ED
:103FA00043CE45C06BDED0F39923D9F3CEF39F57B0
:103FB000550B87FF4AD00024A0E640EA90018058C4
:103FC0005695979528F4805C660F771F881F20F020
:103FD00026173707480730F4621B730B840B202920
:103FE00031294A2BA69517940794202531254A2775
:103FF00058F7660F771F881F20F0261737074807E6
:1040000030F4620B730B840B200D311D411DA09504
:1040100081F7B901842F9158880F96958795089557
:104020009B01AC0198CD73DD880B990B08959F3FE0
:1040300031F0915020F4879577956795B795880F63
:10404000911D9695879597F9089591505040660F68
:10405000771F881FD2F7089597FB072E16F4009458
:1040600006D077FD08D035D007FC05D03EF49095FA
:1040700081959F4F0895709561957F4F0895A1E2B6
:104080001A2EAA1BBB1BFD010DC0AA1FBB1FEE1FD2
:10409000FF1FA217B307E407F50720F0A21BB30B1D
:1040A000E40BF50B661F771F881F991F1A9469F799
:1040B00060957095809590959B01AC01BD01CF01F5
:1040C0000895EE0FFF1F881F8BBF0790F691E02D1C
:1040D0001994AA1BBB1B51E107C0AA1FBB1FA6173F
:1040E000B70710F0A61BB70B881F991F5A95A9F7A1
:1040F00080959095BC01CD0108950F931F93CF93A8
:10410000DF938230910510F482E090E0E0914A085C
:10411000F0914B0820E030E0A0E0B0E0309719F1DA
:10412000408151810281138148175907C8F08417D3
:10413000950769F4109731F012960C931297139625
:104140001C9327C000934A0810934B0822C02115E6
:10415000310519F04217530718F49A01BD01EF0118
:10416000DF01F801DBCF21153105F9F0281B390BF0
:104170002430310580F48A819B816115710521F01D
:10418000FB019383828304C090934B0880934A0879
:10419000FE01329644C0FE01E20FF31F819391931A
:1041A00022503109398328833AC020914808309140
:1041B0004908232B41F420910202309103023093ED
:1041C00049082093480820910002309101022115EE
:1041D000310541F42DB73EB74091040250910502DC
:1041E000241B350BE0914808F0914908E217F307CA
:1041F000A0F42E1B3F0B2817390778F0AC014E5F57
:104200005F4F2417350748F04E0F5F1F5093490842
:10421000409348088193919302C0E0E0F0E0CF0121
:10422000DF91CF911F910F910895CF93DF93009766
:1042300009F481C0FC01329713821282A0914A08CE
:10424000B0914B08109781F420813181820F931F28
:1042500020914808309149082817390751F5F09303
:104260004908E093480867C0ED0120E030E0CE1730
:10427000DF0740F44A815B819E0141155105F1F051
:10428000EA01F5CFD383C28340815181840F951F0A
:10429000C817D90759F488819981840F951F029610
:1042A000918380838A819B81938382832115310549
:1042B00029F4F0934B08E0934A083DC0E901FB83E1
:1042C000EA8349915991C40FD51FEC17FD0761F49A
:1042D00080819181840F951F0296E90199838883DB
:1042E000828193819B838A83E0E0F0E012968D9136
:1042F0009C911397009719F0FD01DC01F7CF8D9188
:104300009C9111979D012E5F3F4F820F931F20912B
:104310004808309149082817390769F4309729F47B
:1043200010924B0810924A0802C013821282B09376
:104330004908A0934808DF91CF9108956F927F922A
:104340008F929F92AF92BF92CF92DF92EF92FF92A5
:104350000F931F93CF93DF93009781F4CB01DF91ED
:10436000CF911F910F91FF90EF90DF90CF90BF9072
:10437000AF909F908F907F906F90BFCEFC01E60F23
:10438000F71F9C0122503109E217F30708F4A5C07A
:10439000EC01D9010D911C91119706171707A8F090
:1043A0000530110508F497C0C801049786179707D0
:1043B00008F491C002501109061B170B01931193C9
:1043C0006D937C93CF0131DF86C05B01A01AB10AE7
:1043D0004C01800E911EA0914A08B0914B08612CAF
:1043E000712CE12CF12C109709F446C08D919C9111
:1043F0001197A815B905B1F56C0142E0C40ED11CA6
:10440000CA14DB0478F14C018A189B08640142E06D
:10441000C40ED11C1296BC9012971396AC91B5E0C5
:10442000CB16D10440F0B282A38391828082D9015D
:104430006D937C9309C00E5F1F4F800F911FF90190
:1044400091838083EB2DFA2FE114F10431F0D70131
:104450001396FC93EE9312973EC0F0934B08E093B3
:104460004A0839C06816790608F43C017D011296A5
:104470000D90BC91A02DB7CF80914808909149082C
:1044800088169906E1F466167706C8F48091000252
:1044900090910102009741F48DB79EB740910402BC
:1044A00050910502841B950BE817F907B0F4F093BF
:1044B0004908E0934808F901718360830CC0CB017F
:1044C0001CDE7C01009749F0A801BE011BD0CE0183
:1044D000ACDEC70104C0CE0102C080E090E0DF91F5
:1044E000CF911F910F91FF90EF90DF90CF90BF90F1
:1044F000AF909F908F907F906F90089581E090E0B3
:10450000F89419C0FB01DC0102C001900D924150EA
:104510005040D8F70895FB01DC018D91019080197E
:104520000110D9F3990B0895FB01DC0101900D9264
:0A4530000020E1F70895F894FFCF92
:10453A0000004C08800000000000A108CDCCCC3D52
:10454A000AD7233C17B7D13877CC2B329595E62476
:10455A001FB14F0A000020410000C84200401C461B
:10456A0020BCBE4CCA1B0E5AAEC59D740000803FCB
:10457A00CDCCCC3D6F12833A95BFD6337D1D9026A4
:10458A00B3CE010C00000000C101FA1159010D025D
:10459A008A0168017C0100000000F202C6022103C0
:1045AA009A02BE02AA029B022073746172742020CE
:1045BA000A00666F726A736F6E2D6275666665723F
:1045CA0000666F726A736F6E2D6E6F742D737563EA
:1045DA00636573730066756E63006E756C6C007448
:1045EA0075726E0070707300616363006D6F76653B
:1045FA006A002A2A206C6F6F70202D2D3E20E8BC9D
:10460A00B8E585A5E79BAEE6A899E9BB9EE79A843B
:10461A0058202C2059202C205A002A2A2050746F06
:10462A005020696E707574202D2D3E20537461726E
:10463A00742000E79BAEE5898D58202C2059202C48
:10464A00205A20E8BBB8E58F83E695B8203D2000C4
:10465A00202C20000D0A002A2A2050746F5020694D
:10466A006E707574202D2D3E20454E44200A002A76
:10467A002A206374726C5F50746F5020202D2D3E77
:10468A00205374617274200A00613A2000623A2051
:10469A0000633A2000693A2000455B695D3A2000D0
:1046AA00465B695D3A2000475B695D3A20007431D8
:1046BA005B695D3A200074325B695D3A2000746878
:1046CA00657461315B695D3A2000746865746132B2
:1046DA005B695D3A20002A2A204C6F636174696F16
:1046EA006E436F6D70617265202D2D3E207374616B
:1046FA00727400676F616C506F735B695D3A20007A
:10470A006C6F636174696F6E5B305D202D2D3E00A6
:10471A006C6F636174696F6E5B315D202D2D3E0095
:10472A00212120206C6F636174696F6E2069732088
:10473A00446966666572656E74006465677265656C
:10474A005475726E2000E58F8DE590912009000A5C
:10475A002A2A20204C6F636174696F6E436F6D70F3
:10476A00617265202D2D3E20454E44200A000A2AFA
:10477A002A206374726C5F50746F50202D2D3E2076
:10478A00454E44200A0A20006D6F7665736A002A36
:10479A002A206C6F6F70202D2D3E20E596AEE8BB67
:1047AA00B8E7A7BBE58B950022225C5C6208660C21
:1047BA006E0A720D740900747275650066616C7315
:1047CA0065004E614E00652D00496E66696E69741A
:1047DA0079002A2A207475726E5F616363202D2D19
:1047EA003E205374617274200A00626967676573B8
:1047FA0074202D2D3E2000646567726565547572BC
:10480A006E5B695D2F62696767657374203D20007E
:10481A004E657720416363202D2D3E20000A2A2A07
:10482A0020207475726E5F616363202D2D3E2045D2
:10483A006E64200A000A2A2A20207475726E5F6448
:10484A006567726565202D2D3E2053746172742050
:10485A000A0054687265652020616E676C65732072
:10486A000A00202A2A20207475726E5F64656772B6
:10487A006565202D2D3E20456E64200A006E616E0E
:0C488A0000696E66006F7666007000002A
:020000023000CC
:10E000000D9489F10D94B2F10D94B2F10D94B2F129
:10E010000D94B2F10D94B2F10D94B2F10D94B2F1F0
:10E020000D94B2F10D94B2F10D94B2F10D94B2F1E0
:10E030000D94B2F10D94B2F10D94B2F10D94B2F1D0
:10E040000D94B2F10D94B2F10D94B2F10D94B2F1C0
:10E050000D94B2F10D94B2F10D94B2F10D94B2F1B0
:10E060000D94B2F10D94B2F10D94B2F10D94B2F1A0
:10E070000D94B2F10D94B2F10D94B2F10D94B2F190
:10E080000D94B2F10D94B2F10D94B2F10D94B2F180
:10E090000D94B2F10D94B2F10D94B2F10D94B2F170
:10E0A0000D94B2F10D94B2F10D94B2F10D94B2F160
:10E0B0000D94B2F10D94B2F10D94B2F10D94B2F150
:10E0C0000D94B2F10D94B2F10D94B2F10D94B2F140
:10E0D0000D94B2F10D94B2F10D94B2F10D94B2F130
:10E0E0000D94B2F141546D656761323536300041AF
:10E0F000726475696E6F206578706C6F72657220DE
:10E1000073746B3530305632206279204D4C530099
:10E11000426F6F746C6F616465723E004875683F52
:10E1200000436F6D70696C6564206F6E203D200048
:10E130004350552054797065202020203D20005FF9
:10E140005F4156525F415243485F5F3D2000415658
:10E1500052204C696243205665723D20004743437C
:10E160002056657273696F6E203D20004350552024
:10E1700049442020202020203D20004C6F7720663D
:10E18000757365202020203D20004869676820665F
:10E190007573652020203D200045787420667573D6
:10E1A00065202020203D20004C6F636B2066757336
:10E1B000652020203D20004D617220203720323024
:10E1C000313300312E362E3800342E332E350056A2
:10E1D00023202020414444522020206F7020636F70
:10E1E00064652020202020696E73747275637469E1
:10E1F0006F6E2061646472202020496E74657272B3
:10E20000757074006E6F20766563746F7200726A49
:10E210006D702020006A6D70200057686174207056
:10E220006F72743A00506F7274206E6F7420737541
:10E2300070706F72746564004D7573742062652030
:10E2400061206C6574746572002000577269747483
:10E25000696E672045450052656164696E672045B7
:10E26000450045452065727220636E743D00504F35
:10E27000525400303D5A65726F2061646472003FF1
:10E280003D43505520737461747300403D454550C3
:10E29000524F4D207465737400423D426C696E6B41
:10E2A000204C454400453D44756D70204545505215
:10E2B0004F4D00463D44756D7020464C415348001B
:10E2C000483D48656C70004C3D4C69737420492F83
:10E2D0004F20506F72747300513D51756974005234
:10E2E0003D44756D702052414D00563D73686F7707
:10E2F00020696E7465727275707420566563746FF0
:10E30000727300593D506F727420626C696E6B00BD
:10E310002A0011241FBECFEFD1E2DEBFCDBF01E046
:10E320000CBF12E0A0E0B2E0EEE1FDEF03E00BBFB6
:10E3300002C007900D92A030B107D9F712E0A0E01B
:10E34000B2E001C01D92AE30B107E1F70F9460F367
:10E350000D948DFE01E20EBF0FEF0DBF11241FBE05
:10E360000D9460F30D9400F020E030E040ED57E0B4
:10E3700005C0FA013197F1F72F5F3F4F2817390792
:10E38000C0F308959C01260F311DC901A0E0B0E043
:10E390002F5F3F4FABBFFC018791882361F08093D3
:10E3A000C6008091C00086FFFCCF8091C0008064D1
:10E3B0008093C000EACF08958DE08093C6008091DD
:10E3C000C00086FFFCCF8091C00080648093C000B5
:10E3D0008AE08093C6008091C00086FFFCCF8091C8
:10E3E000C00080648093C00008950F94C2F10F9420
:10E3F000DCF10895FC019081992359F09093C600B7
:10E400008091C00086FFFCCF8091C0008064809323
:10E41000C0003196992379F70895282F982F929567
:10E420009F70892F805D8A3308F0895F8093C600D2
:10E430008091C00086FFFCCF8091C00080648093F3
:10E44000C000822F8F70982F905D9A3308F0995FEB
:10E450009093C6008091C00086FFFCCF8091C000E1
:10E4600080648093C00008959C01FB01853691056E
:10E470001CF46330710594F0C90164E670E00F94F8
:10E480002EFE605D7F4F6093C6008091C00086FFC6
:10E49000FCCF8091C00080648093C0002B30310598
:10E4A00014F43297B4F0C90164E670E00F942EFEC4
:10E4B0006AE070E00F942EFE605D7F4F6093C600AF
:10E4C0008091C00086FFFCCF8091C0008064809363
:10E4D000C000C9016AE070E00F942EFEC0968093E0
:10E4E000C6008091C00086FFFCCF8091C000806490
:10E4F0008093C00008951F93182F8EE692EE60E07F
:10E500000F94C2F11093C6008091C00086FFFCCF2B
:10E510008091C00080648093C0000F94DCF11F9153
:10E5200008952F923F924F925F926F927F928F92B7
:10E530009F92AF92BF92CF92DF92EF92FF920F9392
:10E540001F93DF93CF93CDB7DEB762970FB6F894E2
:10E55000DEBF0FBECDBF382E622ECA01DB015C01CB
:10E560006D01772420E2222E2E010894411C511CBB
:10E570008BC081E0A81680E0B80681E0C80680E084
:10E58000D80628F0C601AA27BB270F940DF2BB2797
:10E59000AD2D9C2D8B2D0F940DF28A2D0F940DF225
:10E5A0002092C6008091C00086FFFCCF8091C00001
:10E5B00080648093C0009DE29093C6008091C0006B
:10E5C00086FFFCCF8091C00080648093C0002092C1
:10E5D000C6008091C00086FFFCCF8091C00080649F
:10E5E0008093C00019828601750188249924A1E0D6
:10E5F0003A1651F03A1620F0B2E03B1661F409C029
:10E600000BBFF701779007C0C7010F9477FE782EF4
:10E6100002C0F7017080872D0F940DF22092C60082
:10E620008091C00086FFFCCF8091C0008064809301
:10E63000C000872D8052F401EF70F0708F3520F408
:10E64000E40DF51D708204C0E40DF51D8EE280839B
:10E650000894E11CF11C011D111D0894811C911CE2
:10E6600090E18916910409F0C2CF80E190E0A0E02A
:10E67000B0E0A80EB91ECA1EDB1E198AC2010F9493
:10E68000FAF10F94DCF16A94662009F072CF629679
:10E690000FB6F894DEBF0FBECDBFCF91DF911F91B3
:10E6A0000F91FF90EF90DF90CF90BF90AF909F9031
:10E6B0008F907F906F905F904F903F902F90089534
:10E6C0002F923F924F925F926F927F928F929F9282
:10E6D000AF92BF92CF92DF92EF92FF920F931F9370
:10E6E000DF93CF93CDB7DEB7CD53D1400FB6F894BB
:10E6F000DEBF0FBECDBF01E20EBF0FEF0DBF94B75F
:10E70000F894A89514BE80916000886180936000A1
:10E7100010926000789493FF05C0E0910002F091A0
:10E7200001021995279A2F9A8091C00082608093E8
:10E73000C00080E18093C40088E18093C1000000A4
:10E74000EE24FF24870144E0A42EB12CCC24DD2448
:10E7500024C0C5010197F1F70894E11CF11C011DCB
:10E76000111D21E2E2162EE4F20620E0020720E06D
:10E77000120718F031E0C32ED12CC801B70127ECE5
:10E780003BE140E050E00F9441FE611571058105C9
:10E79000910519F485B1805885B98091C00087FD35
:10E7A00003C0C114D104A9F2A6014F5F5F4FC25E3E
:10E7B000DE4F59834883CE51D140C25EDE4F8881FF
:10E7C0009981CE51D140019711F00D9410FEC05D9A
:10E7D000DE4F19821882C053D14060E0C15DDE4F28
:10E7E0001882CF52D14088249924C35DDE4F19820C
:10E7F0001882CD52D140C05EDE4F188219821A8233
:10E800001B82C052D140CE5CDE4F188219821A8220
:10E810001B82C253D140EE24FF2487010BBFF701B6
:10E8200007911691C45CDE4F19830883CC53D14005
:10E830000D940BFEC25EDE4F28813981CE51D1404E
:10E840002130310509F52091C600C25EDE4F1982E4
:10E850001882CE51D14022C02F5F3F4F4F4F5F4FA4
:10E86000213082E138078AE7480780E0580780F0C6
:10E87000C45CDE4FE881F981CC53D140EF5FFF4F9C
:10E8800019F0EE27FF27099420E030E040E050E047
:10E890008091C00087FFE0CF2091C600C35DDE4FAE
:10E8A00048815981CD52D1404F5F5F4FC35DDE4FEC
:10E8B00059834883CD52D140213209F063C64A3092
:10E8C000510508F05FC60894811C911C53E0851621
:10E8D000910409F059C600E010E018C081E280936D
:10E8E000C6008091C00086FFFCCF8091C00080648C
:10E8F0008093C0002F5F3F4F2931310579F70F9486
:10E90000DCF10F5F1F4F0530110519F020E030E0FA
:10E91000E5CF10920A0210920B0210920C02109294
:10E920000D02109206021092070210920802109235
:10E930000902109202021092030210920402109235
:10E9400005028FEE90EE60E00F94F5F180E191EE1C
:10E9500060E00F94C2F18091C00087FFFCCF9091DE
:10E96000C600903608F09F759032B8F09093C600BC
:10E970008091C00086FFFCCF8091C00080648093AE
:10E98000C000A0E2A093C6008091C00086FFFCCF2B
:10E990008091C00080648093C000983409F4D7C18E
:10E9A0009934B8F4923409F459C1933458F490333B
:10E9B00019F1903308F4E3C59F33A1F1903409F0C5
:10E9C000DEC5BDC0953409F470C1963409F0D7C5D1
:10E9D00098C1923509F42BC2933538F49C3409F46C
:10E9E000F5C1913509F0CBC518C2963509F445C279
:10E9F000993509F0C4C567C483E792EE62E00F94CD
:10EA0000F5F110920602109207021092080210927D
:10EA1000090210920A0210920B0210920C0210923C
:10EA20000D0213C18FE792EE62E00F94F5F18FEEC5
:10EA300090EE60E00F94F5F181E291EE60E00F94CA
:10EA4000C2F187EB91EE60E00F94F5F180E391EE77
:10EA500060E00F94C2F184EE90EE60E00F94F5F167
:10EA60008FE391EE60E00F94C2F186E090E061E008
:10EA700070E00F9434F20F94DCF18DE591EE60E0DC
:10EA80000F94C2F189EC91EE60E00F94F5F18EE401
:10EA900091EE60E00F94C2F183EC91EE60E00F9490
:10EAA000F5F18CE691EE60E00F94C2F18EE10F94E7
:10EAB0000DF288E90F940DF281E00F940DF20F949E
:10EAC000DCF18BE791EE60E00F94C2F119E0E0E039
:10EAD000F0E010935700E4918E2F0F940DF20F94F5
:10EAE000DCF18AE891EE60E00F94C2F1E3E0F0E03F
:10EAF00010935700E4918E2F0F940DF20F94DCF1D8
:10EB000089E991EE60E00F94C2F1E2E0F0E0109349
:10EB10005700E4918E2F0F940DF20F94DCF188EAE8
:10EB200091EE60E00F94C2F1E1E0F0E01093570045
:10EB30001491812F0F940DF20F94DCF107CF8BE825
:10EB400092EE62E00F94F5F18BE492EE60E00F94A8
:10EB5000F5F10F94DCF100E010E019C0C8016F2D51
:10EB60000F947FFEFF2031F489E492EE60E00F9471
:10EB7000C2F10BC0F092C6008091C00086FFFCCFAE
:10EB80008091C00080648093C0000F5F1F4FC80158
:10EB900081519F41A0E0B0E0ABBFFC01F790BAE229
:10EBA000FB1621F0E2E000301E07C1F60F94DCF105
:10EBB0000F94DCF187E592EE60E00F94F5F10F948D
:10EBC000DCF1CC24DD2400E010E01EC0C8010F946D
:10EBD00077FEF82E882331F489E492EE60E00F94FA
:10EBE000C2F10BC08093C6008091C00086FFFCCFAD
:10EBF0008091C00080648093C000FE1419F00894D6
:10EC0000C11CD11C0F5F1F4FC80181519F41A0E063
:10EC1000B0E0ABBFFC01E790FAE2EF1621F022E092
:10EC20000030120799F60F94DCF10F94DCF182E6C4
:10EC300092EE60E00F94C2F1C60161E070E00F94C3
:10EC400034F20F94DCF10F94DCF110920202109276
:10EC50000302109204021092050278CE89E992EE26
:10EC600062E00F94F5F1279A2F9A16C02F9880E052
:10EC700090E0E0EDF7E03197F1F7019684369105E9
:10EC8000C1F72F9A80E090E0E0EDF7E03197F1F7DF
:10EC9000019684369105C1F78091C00087FFE6CFC9
:10ECA0008091C00087FFFCCF64C485EA92EE62E0E9
:10ECB0000F94F5F140910202509103026091040219
:10ECC0007091050281E020E10F9491F2809102029F
:10ECD00090910302A0910402B091050280509F4FD1
:10ECE000AF4FBF4F8093020290930302A0930402A0
:10ECF000B093050280509041A040B04008F426CE69
:10ED0000A4CF83EB92EE62E00F94F5F140910602FE
:10ED100050910702609108027091090280E020E1A1
:10ED20000F9491F28091060290910702A09108023F
:10ED3000B091090280509F4FAF4FBF4F80930602A2
:10ED400090930702A0930802B0930902FFCD80ECD4
:10ED500092EE62E00F94F5F183E792EE60E00F949B
:10ED6000F5F18FE792EE60E00F94F5F18BE892EE0B
:10ED700060E00F94F5F189E992EE60E00F94F5F10F
:10ED800085EA92EE60E00F94F5F183EB92EE60E09D
:10ED90000F94F5F180EC92EE60E00F94F5F187ECC2
:10EDA00092EE60E00F94F5F188ED92EE60E00F9442
:10EDB000F5F18FED92EE60E00F94F5F18AEE92EEB0
:10EDC00060E00F94F5F183E093EEBDCD87EC92EE19
:10EDD00062E00F94F5F181E40F947BF282E40F94EA
:10EDE0007BF283E40F947BF284E40F947BF285E45E
:10EDF0000F947BF286E40F947BF287E40F947BF20E
:10EE000088E40F947BF28AE40F947BF28BE40F94F6
:10EE10007BF28CE40F947BF299CD88ED92EE62E068
:10EE20000F94F5F1772473948824992409C48FED05
:10EE300092EE62E00F94F5F140910A0250910B02BC
:10EE400060910C0270910D0282E020E10F9491F22A
:10EE500080910A0290910B02A0910C02B0910D02D8
:10EE600080509F4FAF4FBF4F80930A0290930B0289
:10EE7000A0930C02B0930D0269CD8AEE92EE62E08F
:10EE80000F94F5F184EE90EE60E00F94F5F18FECC5
:10EE900091EE60E00F94F5F1662477244301CC5D98
:10EEA000DE4F19821882C452D140D401C301B695F5
:10EEB000A79597958795CA5DDE4F88839983AA8326
:10EEC000BB83C652D140CC5DDE4FA881B981C4520C
:10EED000D1401196CC5DDE4FB983A883C452D14096
:10EEE000CD0162E070E00F9434F2B0E2B093C6005E
:10EEF0008091C00086FFFCCF8091C0008064809329
:10EF0000C000EDE2E093C6008091C00086FFFCCF18
:10EF10008091C00080648093C000F0E2F093C6004E
:10EF20008091C00086FFFCCF8091C00080648093F8
:10EF3000C000CA5DDE4FE880F9800A811B81C6529D
:10EF4000D140BB27A12F902F8F2D0F940DF2CA5DBA
:10EF5000DE4F8881C652D1400F940DF2B0E2FB2EF5
:10EF6000F092C6008091C00086FFFCCF8091C00067
:10EF700080648093C0000DE30093C6008091C000C0
:10EF800086FFFCCF8091C00080648093C00010E2B7
:10EF90001093C6008091C00086FFFCCF8091C00016
:10EFA00080648093C0008BBEF3012791C65DDE4F65
:10EFB0002883CA52D140A22EBB24CC24DD2408943D
:10EFC000611C711C811C911C8BBEF3018791282E42
:10EFD0003324442455240894611C711C811C911C09
:10EFE0008BBEF3013791C55DDE4F3883CB52D140E4
:10EFF0000894611C711C811C911C8BBEF30147910C
:10F00000C45DDE4F4883CC52D140ADEFEA2EAFEF66
:10F01000FA2EAFEF0A2FAFEF1A2F6E0C7F1C801E57
:10F02000911E142D032DF22CEE24EA0CFB1C0C1D5A
:10F030001D1D0F940DF220E22093C6008091C000A8
:10F0400086FFFCCF8091C00080648093C000C65DC5
:10F05000DE4F8881CA52D1400F940DF230E23093D6
:10F06000C6008091C00086FFFCCF8091C000806404
:10F070008093C000C45DDE4F8881CC52D1400F9494
:10F080000DF240E24093C6008091C00086FFFCCFA5
:10F090008091C00080648093C000C55DDE4F888190
:10F0A000CB52D1400F940DF250E25093C6008091A4
:10F0B000C00086FFFCCF8091C00080648093C000B8
:10F0C0008FEFE8168FEFF80680E0080780E018075A
:10F0D00031F484E092EE60E00F94C2F1DFC0D80119
:10F0E000C7018070907CA070B0708050904CA040A0
:10F0F000B040D1F52FEF3FE340E050E0E222F322B1
:10F1000004231523CA5DDE4FA880B980CA80DB8046
:10F11000C652D140AE0CBF1CC01ED11EAA0CBB1CD7
:10F12000CC1CDD1C8EE092EE60E00F94C2F1BB2798
:10F13000A12F902F8F2D0F940DF28E2D0F940DF285
:10F1400030E23093C6008091C00086FFFCCF8091F2
:10F15000C00080648093C0004EE34093C60080915D
:10F16000C00086FFFCCF87C08EE09EEFA0E0B0E03D
:10F17000E822F9220A231B239CE0E91694E9F90608
:10F1800090E0090790E0190709F088C0C45DDE4FE0
:10F19000A881CC52D140EA2EFF2400E010E0102FCD
:10F1A0000F2DFE2CEE24C55DDE4FB881CB52D14031
:10F1B000EB0EF11C011D111DD601C501817090706F
:10F1C000A070B070DC0199278827E80EF91E0A1F8D
:10F1D0001B1F20EF30E040E050E0A222B322C42207
:10F1E000D52241E1AA0CBB1CCC1CDD1C4A95D1F7F1
:10F1F000EA0CFB1C0C1D1D1D81E090E0A0E0B0E0BE
:10F20000282239224A225B2235E1220C331C441C7D
:10F21000551C3A95D1F7E20CF31C041D151D57013E
:10F220006801AA0CBB1CCC1CDD1C85E192EE60E0E1
:10F230000F94C2F1C801AA27BB270F940DF2BB2778
