:100000000C945D000C9485000C9485000C94850084
:100010000C9485000C9485000C9485000C9485004C
:100020000C9485000C9485000C9485000C9485003C
:100030000C9485000C9485000C9485000C9485002C
:100040000C9450020C9485000C941E020C94F80140
:100050000C9485000C9485000C9485000C9485000C
:100060000C9485000C94850000000008000201003B
:100070000003040700000000000000000000000072
:10008000250028002B0000000000240027002A0083
:10009000040404040404040402020202020203032E
:1000A0000303030301020408102040800102040836
:1000B0001020010204081020AA0411241FBECFEF53
:1000C000D8E0DEBFCDBF21E0AAE1B1E001C01D92C2
:1000D000A23CB207E1F711E0A0E0B1E0ECEFF9E0FB
:1000E00002C005900D92AA31B107D9F710E0CDE515
:1000F000D0E004C02197FE010E94F104CC35D10765
:10010000C9F70E946F030C94FC040C94000090E06B
:10011000FC01EC55FF4F2491FC01E057FF4F849107
:10012000882399F090E0880F991FFC01EA57FF4F50
:10013000A591B491FC01E458FF4F859194918FB73C
:10014000F894EC91E22BEC938FBF08952FB7F894BD
:100150008091210190912201A0912301B09124016D
:100160002FBF80932D0190932E01A0932F01B09368
:100170003001E0912501F09126010484F585E02D00
:1001800085E291E0099597FF26C02FB7F8948091FA
:10019000210190912201A0912301B09124012FBF50
:1001A00040912D0150912E0160912F0170913001ED
:1001B000841B950BA60BB70B4091290150912A0186
:1001C00060912B0170912C0184179507A607B70742
:1001D00080F28FEF9FEF0895CF92DF92EF92FF9220
:1001E0000F931F93CF93DF936C017A018B01C0E0D3
:1001F000D0E0CE15DF0589F0D8016D918D01D601D3
:10020000ED91FC910190F081E02DC6010995892BBB
:1002100011F47E0102C02196ECCFC701DF91CF918E
:100220001F910F91FF90EF90DF90CF900895089568
:1002300080E090E00895FC01538D448D252F30E03F
:10024000842F90E0821B930B541710F0CF960895E3
:1002500001970895FC01918D828D981761F0828D30
:10026000DF01A80FB11D5D968C91928D9F5F9F73EA
:10027000928F90E008958FEF9FEF0895FC01918D8C
:10028000828D981731F0828DE80FF11D858D90E0F9
:1002900008958FEF9FEF0895FC01918D228D892F96
:1002A00090E0805C9F4F821B91098F73992708957E
:1002B00085E291E00E944C0121E0892B09F420E0C5
:1002C000822F0895FC01848DDF01A80FB11DA35A70
:1002D000BF4F2C91848D90E001968F739927848F66
:1002E000A689B7892C93A089B1898C9180648C935D
:1002F000938D848D981306C00288F389E02D808148
:100300008F7D80830895EF92FF920F931F93CF9379
:10031000DF93EC0181E0888F9B8D8C8D981305C055
:10032000E889F989808185FD24C0F62E0B8D10E0C7
:100330000F5F1F4F0F731127E02E8C8DE8120CC03A
:100340000FB607FCFACFE889F989808185FFF5CFE0
:10035000CE010E946201F1CF8B8DFE01E80FF11DED
:10036000E35AFF4FF0820B8FEA89FB89808180621C
:1003700007C0EE89FF896083E889F98980818064FC
:10038000808381E090E0DF91CF911F910F91FF90EA
:10039000EF900895CF93DF93EC01888D8823C9F007
:1003A000EA89FB89808185FD05C0A889B9898C917E
:1003B00086FD0FC00FB607FCF5CF808185FFF2CF19
:1003C000A889B9898C9185FFEDCFCE010E94620189
:1003D000E7CFDF91CF91089580E090E0892B29F05D
:1003E0000E94580181110C94000008950E94F704A6
:1003F0001F920F920FB60F9211242F933F934F939A
:100400005F936F937F938F939F93AF93BF93EF937C
:10041000FF9385E291E00E946201FF91EF91BF910D
:10042000AF919F918F917F916F915F914F913F918C
:100430002F910F900FBE0F901F9018951F920F9243
:100440000FB60F9211242F938F939F93EF93FF93E7
:10045000E0913501F09136018081E0913B01F0910E
:100460003C0182FD12C0908180913E018F5F8F73AD
:1004700020913F01821751F0E0913E01F0E0EB5DE9
:10048000FE4F958F80933E0101C08081FF91EF91D7
:100490009F918F912F910F900FBE0F901F901895E5
:1004A0001F920F920FB60F9211242F933F938F93A9
:1004B0009F93AF93BF938091210190912201A091CE
:1004C0002301B091240130911A0123E0230F2D372D
:1004D00020F40196A11DB11D05C026E8230F029648
:1004E000A11DB11D20931A01809321019093220137
:1004F000A0932301B093240180911B0190911C01D2
:10050000A0911D01B0911E010196A11DB11D809306
:100510001B0190931C01A0931D01B0931E01BF917C
:10052000AF919F918F913F912F910F900FBE0F90A0
:100530001F90189590E0FC01E859FF4F3491FC01A1
:10054000EC55FF4F2491FC01E057FF4FE491EE235F
:1005500009F43BC0332339F1333091F038F43130B2
:10056000A9F0323001F584B58F7D12C0373091F09B
:100570003830A1F03430B9F4809180008F7D03C011
:10058000809180008F77809380000DC084B58F7735
:1005900084BD09C08091B0008F7703C08091B00006
:1005A0008F7D8093B000F0E0EE0FFF1FE458FF4F07
:1005B000A591B4918FB7F894EC91611103C0209587
:1005C0002E2301C02E2B2C938FBF089582309105CE
:1005D00038F0880F991F880F991F05970197F1F739
:1005E00008953FB7F89480911B0190911C01A09150
:1005F0001D01B0911E0126B5A89B05C02F3F19F023
:100600000196A11DB11D3FBFBA2FA92F982F882792
:10061000820F911DA11DB11DBC01CD0142E0660FED
:10062000771F881F991F4A95D1F708958F929F923F
:10063000AF92BF92CF92DF92EF92FF920E94F102AF
:100640004B015C0182E3C82ED12CE12CF12C0E94DD
:10065000F102DC01CB0188199909AA09BB09883E7E
:100660009340A105B10558F021E0C21AD108E10874
:10067000F10888EE880E83E0981EA11CB11CC114FD
:10068000D104E104F10419F7FF90EF90DF90CF90CF
:10069000BF90AF909F908F900895CF93DF93009776
:1006A00079F0FC0101900020E9F73197AF01481B78
:1006B000590BBC0185E291E00E94EC00EC0102C004
:1006C000C0E0D0E042E050E062E171E085E291E01C
:1006D0000E94EC008C0F9D1FDF91CF910895CF9366
:1006E000DF9300D000D0CDB7DEB7789484B58260B8
:1006F00084BD84B5816084BD85B5826085BD85B5C6
:10070000816085BD80916E00816080936E00109243
:1007100081008091810082608093810080918100BE
:10072000816080938100809180008160809380004F
:100730008091B10084608093B1008091B0008160AD
:100740008093B00080917A00846080937A008091D9
:100750007A00826080937A0080917A008160809331
:100760007A0080917A00806880937A001092C100AC
:1007700083E00E94870082E00E948700E0913501BB
:10078000F091360182E08083E0913101F0913201F5
:100790001082E0913301F09134018FEC808310924C
:1007A0003D01E0913901F0913A0186E08083E091CA
:1007B0003701F0913801808180618083E0913701B9
:1007C000F0913801808188608083E0913701F09159
:1007D0003801808180688083E0913701F091380191
:1007E00080818F7D808385E291E00E944C01892B7E
:1007F00009F44BC00E94A600FC0197FD11C08D3288
:10080000910591F0C0970A9778F0E0912501F09159
:1008100026010284F385E02D85E291E00995EACF77
:1008200080E090E0DC012DC020E030E0A901F12C57
:10083000E130F10509F06BC0E0912501F09126014E
:100840000284F385E02D85E291E029833A834B838E
:100850005C8309950E94A600FC01C09729813A811A
:100860004B815C810A9720F3E130F10509F3FF2009
:1008700009F46DC088279927DC01821B930BA40B18
:10088000B50B9093200180931F0180911F019091DF
:10089000200181309105D9F485E191E00E944D035A
:1008A00061E083E00E949A020E94160361E082E008
:1008B0000E949A028FE090E00E94E60260E082E0EF
:1008C0000E949A028FE090E00E94E602EFCF02972A
:1008D000D9F487E191E00E944D0360E083E00E943B
:1008E0009A020E94160361E082E00E949A028FE061
:1008F00090E00E94E60260E082E00E949A028FE0AF
:1009000090E00E94E602EFCF0E94EC016CCFED3246
:10091000F105D1F0CF01C0970A9708F08DCFAAE07A
:10092000B0E00E94D7048F01FF0F220B330BDC01D4
:10093000CB01800F911FA21FB31F9C01AD0120535B
:1009400031094109510978CFFF24F39475CFDA01B9
:10095000C90197CFE5E2F1E01382128288EE93E0BD
:10096000A0E0B0E084839583A683B78384E091E020
:100970009183808385EC90E09587848784EC90E078
:100980009787868780EC90E0918B808B81EC90E05C
:10099000938B828B82EC90E0958B848B86EC90E03D
:1009A000978B868B118E128E138E148E08950E9453
:1009B000E204A59F900DB49F900DA49F800D911D02
:1009C00011240895A29FB001B39FC001A39F700D91
:1009D000811D1124911DB29F700D811D1124911D47
:1009E0000895EE0FFF1F0590F491E02D099481E02A
:0C09F00090E0F8940C94FC04F894FFCF05
:1009FC00000000008301EC001B01CA014C012A011C
:0A0A0C003E010D0A00410042000007
:00000001FF
