:100000000C94A4000C94CC000C94CC000C94CC0068
:100010000C94CC000C94CC000C94CC000C94CC0030
:100020000C94CC000C94CC000C94CC000C94CC0020
:100030000C94CC000C94CC000C94CC000C94CC0010
:100040000C94C2050C94CC000C94D5020C94AF0215
:100050000C94CC000C94CC000C94CC000C94CC00F0
:100060000C940C060C94CC0007634236B79BD8A7BF
:100070001A39685618AEBAAB558C1D3CB7CC5763CD
:10008000BD6DEDFD753EF6177231BF000000803F7B
:1000900008000000BE922449123EABAAAA2ABECD97
:1000A000CCCC4C3E00000080BEABAAAAAA3E000009
:1000B0000000BF000000803F000000000008417801
:1000C000D3BB4387D1133D190E3CC3BD4282AD2B38
:1000D0003E68EC8276BED98FE1A93E4C80EFFFBE30
:1000E00001C4FF7F3F00000000000000000024006A
:1000F00027002A0000000000250028002B00000037
:10010000000023002600290004040404040404045D
:1001100002020202020203030303030301020408B2
:100120001020408001020408102001020408102061
:1001300000000008000201000003040700000000A6
:1001400000000000630C5D0C11241FBECFEFD8E04F
:10015000DEBFCDBF23E0A8E3B2E001C01D92A43C06
:10016000B207E1F712E0A0E0B1E0EEE6F7E202C08C
:1001700005900D92A833B107D9F710E0C3EAD0E09B
:1001800004C02197FE010E948F11C23AD107C9F71E
:100190000E94F10A0C94AA130C940000E0917802DA
:1001A000F0917902309729F01092EE021092ED0250
:1001B00009940895CF93DF93AC01E091F502F0919B
:1001C000F6023097F1F09091F0028091EF029817CB
:1001D000C0F090E0292F30E02617370754F4D901FA
:1001E000A85ABD4FEA01C20FD31F88818C939F5F2D
:1001F000F1CF1092F0026093EF02CB01DF91CF912B
:100200000994DF91CF910895FC01538D448D252FE2
:1002100030E0842F90E0821B930B541710F0CF96A0
:10022000089501970895FC01918D828D981761F0D2
:10023000828DDF01A80FB11D5D968C91928D9F5F1D
:100240009F73928F90E008958FEF9FEF0895FC01C8
:10025000918D828D981731F0828DE80FF11D858D7B
:1002600090E008958FEF9FEF0895FC01918D228D0E
:10027000892F90E0805C9F4F821B91098F73992793
:1002800008958BEF92E00E94350121E0892B09F45B
:1002900020E0822F0895FC01848DDF01A80FB11D9D
:1002A000A35ABF4F2C91848D90E001968F739927AC
:1002B000848FA689B7892C93A089B1898C91806499
:1002C0008C93938D848D981306C00288F389E02D5A
:1002D00080818F7D80830895EF92FF920F931F930B
:1002E000CF93DF93EC0181E0888F9B8D8C8D9813E9
:1002F00005C0E889F989808185FD24C0F62E0B8D23
:1003000010E00F5F1F4F0F731127E02E8C8DE81246
:100310000CC00FB607FCFACFE889F989808185FF08
:10032000F5CFCE010E944B01F1CF8B8DFE01E80F7E
:10033000F11DE35AFF4FF0820B8FEA89FB89808120
:10034000806207C0EE89FF896083E889F98980812E
:100350008064808381E090E0DF91CF911F910F91C5
:10036000FF90EF900895CF93DF93EC01888D882361
:10037000C9F0EA89FB89808185FD05C0A889B98912
:100380008C9186FD0FC00FB607FCF5CF808185FFED
:10039000F2CFA889B9898C9185FFEDCFCE010E945B
:1003A0004B01E7CFDF91CF91089580E090E0892B5A
:1003B00029F00E94410181110C9400000895CF930F
:1003C000DF9390E0FC01E45EFE4F2491FC01E85FC6
:1003D000FE4F8491882361F190E0880F991FFC0102
:1003E000E651FF4FC591D491FC01EC50FF4FA59110
:1003F000B491611109C09FB7F89488812095822338
:100400008883EC912E230BC0623061F49FB7F8947F
:100410003881822F809583238883EC912E2B2C9317
:100420009FBF06C08FB7F894E8812E2B28838FBF1B
:10043000DF91CF9108958230910538F0880F991F90
:10044000880F991F05970197F1F7089585ED80931F
:10045000BC008091BC0084FDFCCF1092EC0208959A
:1004600040919A02262F30E0240F311D21323105B0
:10047000DCF42091EC022430C9F4FC0180E090E02F
:10048000861758F430919A022191DC01A658BD4F8D
:10049000A30FB11D2C930196F3CF80919A02680FA0
:1004A00060939A0280E0089581E0089582E00895C3
:1004B0000895E091F0028091EF02E81730F4F0E047
:1004C000E85AFD4F808190E008958FEF9FEF0895E7
:1004D0009091F0028091EF02981750F4E92FF0E02C
:1004E000E85AFD4F208130E09F5F9093F00202C0F8
:1004F0002FEF3FEFC90108958091EF0290E0209126
:10050000F002821B91090895CF93DF9300D0CDB7FD
:10051000DEB7CB01642F49835A830E9430024981A0
:10052000842F5A81952F0F900F90DF91CF910895CE
:10053000CF93DF931F92CDB7DEB7698361E0CE0121
:1005400001960E94300281E090E00F90DF91CF9100
:100550000895089580E090E008950E948C131F9202
:100560000F920FB60F9211242F933F934F935F93E7
:100570006F937F938F939F93AF93BF93EF93FF936B
:100580008BEF92E00E944B01FF91EF91BF91AF91F1
:100590009F918F917F916F915F914F913F912F919B
:1005A0000F900FBE0F901F9018951F920F920FB6CD
:1005B0000F9211242F938F939F93EF93FF93E091CA
:1005C0000B03F0910C038081E0911103F091120371
:1005D00082FD12C09081809114038F5F8F732091F0
:1005E0001503821751F0E0911403F0E0E550FD4F40
:1005F000958F8093140301C08081FF91EF919F91AB
:100600008F912F910F900FBE0F901F9018958330F0
:1006100081F028F4813099F08230A1F0089587307C
:10062000A9F08830B9F08430D1F4809180008F7DBA
:1006300003C0809180008F7780938000089584B5F7
:100640008F7702C084B58F7D84BD08958091B000FE
:100650008F7703C08091B0008F7D8093B0000895A4
:100660001F93CF93DF93282F30E0F901E05DFE4F19
:100670008491F901E45EFE4FD491F901E85FFE4FE9
:10068000C491CC23C9F0162F81110E940703EC2FCF
:10069000F0E0EE0FFF1FEC50FF4FA591B4918FB724
:1006A000F894111105C09C91ED2FE095E92302C04B
:1006B000EC91ED2BEC938FBFDF91CF911F910895BB
:1006C00061E08FE00E943003809100019091010170
:1006D0000E941B0260E08FE00E94300383E090E004
:1006E0000197F1F708952F923F924F925F926F9288
:1006F0007F928F929F92AF92BF92CF92DF92EF92B2
:10070000FF920F931F93CF93DF93609156027091E6
:100710005702072E000C880B990B0E94BC0C26E692
:1007200036E646EE5DE30E94970E609352027093A8
:10073000530280935402909355026091500270913D
:100740005102072E000C880B990B0E94BC0C26E668
:1007500036E646EE5DE30E94970E4B015C010E9477
:100760003F0F6B017C019B01AC01C501B4010E94EC
:100770002A0E2AE939E949E95EE30E94970F181623
:100780008CF420E030E040E85FE3C701B6010E944E
:100790002B0E60934C0270934D0280934E02909307
:1007A0004F0208C0C0924C02D0924D02E0924E021D
:1007B000F0924F028091F7029091F802A091F90215
:1007C000B091FA02BC01CD01660F771F881F991FF7
:1007D0000E94BC0C20914C0230914D0240914E027F
:1007E00050914F020E94970E0E94F20F60934802B0
:1007F0007093490280934A0290934B028CE291E0FD
:100800000E94C709609148027091490280914A0292
:1008100090914B020E94060A8FE391E00E94C70963
:1008200060914C0270914D0280914E0290914F0266
:100830000E94060A40904C0250904D0260904E0279
:1008400070904F02A3019201609152027091530285
:1008500080915402909155020E94970E6B017C0189
:10086000609344027093450280934602909347023E
:100870009B01AC010E941B0D20E030E040E05FE3F3
:100880000E941B0D9B01AC01C301B2010E941B0D14
:100890000E94090F609340027093410280934202CC
:1008A000909343020E94BC0C9B01AC010E941B0D63
:1008B00020E030E040E85EE30E941B0D4B015C014C
:1008C000A70196010E94970E0E94090F60933C02B7
:1008D00070933D0280933E0290933F020E94BC0CB5
:1008E0009B01AC01C501B4010E94970E162F072F82
:1008F000B82EA92EC090F702D090F802E090F9022D
:10090000F090FA02C701B6010E94BC0C9B01AC0139
:10091000C301B2010E94970F181624F186E591E0F9
:100920000E94C7096091440270914502809146027D
:10093000909147020E94060A89E691E00E94C70949
:100940006091400270914102809142029091430275
:100950000E945B09C0914002D091410298E2E92EC9
:10096000F12C52C088E290E0909301018093000145
:100970001C141D049CF60E94600381E0C81AD10873
:10098000F7CFBE010D2E000C880B990B0E94BC0CFA
:100990009B01AC010E941B0D20E030E040E85EE3CB
:1009A0000E941B0D2B013C0160913C0270913D02A5
:1009B00080913E0290913F020E94BC0C9B01AC01D1
:1009C000C301B2010E94970E4B016C019B01AC0167
:1009D000612F702F8B2D9A2D0E942A0E20E034E279
:1009E00044E759E40E941B0D0E94090F683271050B
:1009F00084F070930101609300010E9460032197CD
:100A0000182D092DBC2CAD2C1C161D060CF4B9CFCD
:100A100005C0F0920101E0920001EFCF89E791E07B
:100A20000E94C70980910001909101010E949609DE
:100A3000C12CD12C76019701860140914002509142
:100A4000410260914202709143028FEFC81AD80AA6
:100A5000E80AF80A8091F7029091F802A091F90251
:100A6000B091FA02841B950BA60BB70B841B950B58
:100A7000A60BB70B081719072A073B071CF40E949F
:100A80006003D9CF84E991E00E94C70980910001F9
:100A9000909101010E949609C12CD12C7601C3943A
:100AA000912C812C712C612CCEE1D0E08091400200
:100AB00090914102A0914202B09143028C159D0594
:100AC000AE05BF050CF44BC0B6010D2C000C880B15
:100AD000990B0E94BC0C9B01AC010E941B0D20E0F5
:100AE00030E040E85EE30E941B0D1B012C01609189
:100AF0003C0270913D0280913E0290913F020E9423
:100B0000BC0C9B01AC01C201B1010E94970E5B01BC
:100B10008C01292D382D472D562D0E942A0E20E0BC
:100B200034E244E759E40E941B0D0E94090F6E3124
:100B300071052CF0709301016093000104C0D09303
:100B40000101C09300010E9460038FEFC81AD80A08
:100B5000E80AF80A9A2C8B2C702E612EA7CFDF9111
:100B6000CF911F910F91FF90EF90DF90CF90BF90AA
:100B7000AF909F908F907F906F905F904F903F903D
:100B80002F9008951F920F920FB60F9211242F935A
:100B90003F938F939F93AF93BF938091E602909181
:100BA000E702A091E802B091E9023091E50223E06A
:100BB000230F2D3720F40196A11DB11D05C026E895
:100BC000230F0296A11DB11D2093E5028093E6023A
:100BD0009093E702A093E802B093E9028091E102CA
:100BE0009091E202A091E302B091E4020196A11D6E
:100BF000B11D8093E1029093E202A093E302B093CF
:100C0000E402BF91AF919F918F913F912F910F90EF
:100C10000FBE0F901F9018951F920F920FB60F9254
:100C200011242F933F934F935F936F937F938F93F1
:100C30009F93AF93BF93EF93FF938091B900887F09
:100C4000803609F49CC068F5883209F45BC090F4E2
:100C5000803109F454C038F4882309F4F6C0883090
:100C600009F44DC0F6C0883109F44CC0803209F453
:100C70005DC0EFC0803409F468C048F4803309F4E3
:100C800055C0883309F0E5C08093BD02D8C08035D7
:100C900009F44FC0883509F45DC0883409F0D9C023
:100CA000D6C0883909F4C7C0A8F4883709F467C0EA
:100CB00038F4883609F463C0803709F460C0C9C0CD
:100CC000883809F4B8C0803909F45FC0803809F069
:100CD000C0C05BC0803B09F486C038F4803A09F498
:100CE00066C0883A09F47FC0B4C0803C09F4A7C04C
:100CF000883C09F4A4C0883B09F48AC0AAC080914A
:100D0000E00210C09091DF028091DE02981770F52A
:100D1000E091DF0281E08E0F8093DF02F0E0E25489
:100D2000FD4F80818093BB0085EC86C08093BD021F
:100D30008EC0E091DF0281E08E0F8093DF02809110
:100D4000BB00F0E0E254FD4F80839091DF02809180
:100D5000DE026EC0E091DF0281E08E0F8093DF0241
:100D60008091BB00F0E0E254FD4F80838091EB0264
:100D700081116DC081E08093EA0284EA61C083E062
:100D80008093EC021092BC02CFCF8091BC028032E3
:100D900008F051C0E091BC0281E08E0F8093BC024C
:100DA0008091BB00F0E0E456FD4F8083BDCF85EC21
:100DB0008093BC001092EC028091BC02803230F42F
:100DC000E091BC02F0E0E456FD4F10826091BC025D
:100DD00070E0E091F102F091F2028CE992E0099565
:100DE0001092BC0236C084E08093EC0210929B0209
:100DF00010929A02E091F302F091F4020995809129
:100E00009A02811105C081E080939A0210927A02C1
:100E1000E0919B0281E08E0F80939B02F0E0E65808
:100E2000FD4F80818093BB0090919B0280919A023C
:100E3000981708F479CF85E88093BC000AC085EC48
:100E40008093BC001092EC0204C01092BD020E947C
:100E50002602FF91EF91BF91AF919F918F917F916A
:100E60006F915F914F913F912F910F900FBE0F9017
:100E70001F9018954F925F926F927F92AF92BF92A0
:100E8000CF92DF92EF92FF920F931F93CF93DF9356
:100E9000EC018BEE91E00E9488091C821D821E826B
:100EA0001F82188619861A861B861C861D861E863A
:100EB0001F86188A198A1A8A1B8A89EF91E00E9474
:100EC00088098091EF0290E02091F002821B910945
:100ED0000E9496095E0184E0A80EB11C750100E035
:100EE00010E09091EF028091F002981701F188E9EB
:100EF00093E00E9468026701092E000CAA0BBB0B4D
:100F0000F70181939193A193B1937F0188E092E0DF
:100F10000E94C709C8010E949609F601608171818B
:100F2000828193810E945B090F5F1F4FDACF8DE0B2
:100F300092E00E948809188219821A821B8200E0BE
:100F400010E0F501C190D190E190F1905F01F7FEC2
:100F50001DC081E192E00E948809688179818A81BF
:100F60009B810E945B0981E090E09D8B8C8BDF91DF
:100F7000CF911F910F91FF90EF90DF90CF90BF9096
:100F8000AF907F906F905F904F9008954880598008
:100F90006A807B800115110581F4D301C2018C0D9B
:100FA0009D1DAE1DBF1D88839983AA83BB830F5FE0
:100FB0001F4F0430110529F6CCCFB801012E000CCB
:100FC000880B990B0E94BC0C9B01AC0160E070E0A7
:100FD00080E893E40E949C0F20E030E040E05FE373
:100FE0000E942B0E0E94090FDB01A70196010E94AF
:100FF0008711DC01CB01840D951DA61DB71DD3CF34
:101000009091EF028091F0029817B9F085E192E09B
:101010000E94C7098091EF0290E02091F002821BAC
:1010200091090E94960988E993E00E9468029093D2
:101030003B0280933A020E94960980913A02909175
:101040003B028230910549F12CF4009751F0019751
:1010500059F0089583309105A9F1049709F449C026
:10106000089581EC91E011C084EA93E00E943A0770
:101070008091A4039091A503909339028093380244
:101080008130910521F48EED91E00C94DF090297F7
:1010900009F047C084EE91E0F8CF84EA93E00E9423
:1010A0003A078091A4039091A503A091A603B09163
:1010B000A7038093F7029093F802A093F902B093EC
:1010C000FA02089584EA93E00E943A0780E292E0EF
:1010D0000E94DF098091A4039091A5039093570289
:1010E000809356020E94C90980915602909157023E
:1010F00016C084EA93E00E943A0784E292E00E94DC
:10110000DF098091A4039091A503909351028093ED
:1011100050020E94C90980915002909151020C9492
:1011200096090895E091FB02F091FC020190F08194
:10113000E02D682F8BEF92E00994CF92DF92EF922F
:10114000FF920F931F93CF93DF936C017A018B0172
:10115000C0E0D0E0CE15DF0589F0D8016D918D019A
:10116000D601ED91FC910190F081E02DC601099529
:10117000892B11F47E0102C02196ECCFC701DF91CB
:10118000CF911F910F91FF90EF90DF90CF90089536
:10119000009769F0FC0101900020E9F73197AF0159
:1011A000481B590BBC018BEF92E00C949D0880E02A
:1011B00090E008958F929F92AF92BF920F931F93EA
:1011C000CF93DF93CDB7DEB7A1970FB6F894DEBF0C
:1011D0000FBECDBF19A2423008F44AE08E010F5D68
:1011E0001F4F842E912CA12CB12CA50194010E949B
:1011F0006511E62FB901CA0101501109EA3014F452
:10120000E05D01C0E95CD801EC93232B242B252B56
:1012100061F7C8010E94C808A1960FB6F894DEBF16
:101220000FBECDBFDF91CF911F910F91BF90AF90B7
:101230009F908F900895EF92FF920F931F93CF93FB
:10124000DF93EC017B018A0188819981009729F065
:101250002A813B8124173507F8F4B8016F5F7F4F6F
:101260000E94C212009759F0998388831B830A83D6
:101270002C813D81232B81F4FC0110820DC08881DB
:101280009981009711F00E942A12198218821D82FA
:101290001C821B821A8207C01D830C83B7018881C0
:1012A00099810E94A313CE01DF91CF911F910F91DD
:1012B000FF90EF900895CF92DF92EF92FF92CF933D
:1012C000DF936B017C0197FF12C08DE20E949208B0
:1012D000EC0166277727CB016C197D098E099F09E0
:1012E0004AE00E94DA087C01EC0EFD1E04C04AE0D0
:1012F0000E94DA087C0188E292E00E94C8088E0D04
:101300009F1DDF91CF91FF90EF90DF90CF900895D8
:10131000CF93DF930E94C808EC0188E292E00E941C
:10132000C8088C0F9D1FDF91CF910895CF92DF9257
:10133000EF92FF92CF93DF936C01990FEE08FF08B5
:10134000F7FE12C08DE20E949208EC016627772713
:10135000CB016C197D098E099F094AE00E94DA08C9
:101360007C01EC0EFD1E06C04AE0C701B6010E94DA
:10137000DA087C0188E292E00E94C8088E0D9F1D69
:10138000DF91CF91FF90EF90DF90CF9008950C9474
:10139000C808CF93DF93EAEBF3E044815581608185
:1013A00071818BEF92E00E949D08EC0188E292E04F
:1013B0000E94C8088C0F9D1FDF91CF910895009760
:1013C00071F0FC0101900020E9F73197AF01481B53
:1013D000590BBC018AEB93E00E941B0914C0809159
:1013E000BA039091BB03009711F00E942A12109249
:1013F000BB031092BA031092BF031092BE03109267
:10140000BD031092BC038AEB93E008954F925F9264
:101410006F927F928F929F92AF92BF92CF92DF9204
:10142000EF92FF926B017C019B01AC010E94321094
:10143000882319F08BE292E01AC046015701E89424
:10144000B7F82FEF3FEF4FE75FE7C501B4010E9408
:101450003210811110C02FEF3FEF4FE75FE7C5015A
:10146000B4010E94B50C181634F48FE292E00E9489
:10147000C8087C017FC02FEF3FEF4FE75FE4C70153
:10148000B6010E94970F18161CF483E392E0EFCF89
:101490002FEF3FEF4FE75FECC701B6010E94B50C9D
:1014A00087FDF3CF20E030E0A901C701B6010E941B
:1014B000B50C87FF09C08DE20E9492085C01F7FA23
:1014C000F094F7F8F09402C0A12CB12C2AE037ED8B
:1014D00043EA5BE3C701B6010E942B0E2B013C01DE
:1014E0000E94100F6B017C010E94BA0C9B01AC01A1
:1014F000C301B2010E942A0E2B013C014AE0C70140
:10150000B6010E94DA087C01EA0CFB1C8EE20E9404
:101510009208E80EF91E20E030E040E251E4C301F9
:10152000B2010E941B0D2B013C010E94100F4B01C8
:10153000A12CB12C4AE0C501B4010E94DA08E80EE2
:10154000F91EC501B4010E94BA0C9B01AC01C30194
:10155000B2010E942A0E20E030E040E251E40E94F5
:101560001B0D0E94100F80E090E04AE00E94DA0814
:10157000E80EF91E88E292E00E94C8088E0D9F1DB9
:10158000FF90EF90DF90CF90BF90AF909F908F90A3
:101590007F906F905F904F900895CF93DF93E2E339
:1015A000F1E08491EEE1F1E0D491EAE0F1E0C49160
:1015B000CC2391F081110E940703EC2FF0E0EE0F95
:1015C000FF1FE250FF4FA591B491EC91ED2381E014
:1015D00090E021F480E002C080E090E0DF91CF91C4
:1015E0000895789484B5826084BD84B5816084BD9B
:1015F00085B5826085BD85B5816085BD80916E00B1
:10160000816080936E0010928100809181008260E1
:10161000809381008091810081608093810080911E
:1016200080008160809380008091B100846080930D
:10163000B1008091B00081608093B00080917A0009
:10164000846080937A0080917A00826080937A002F
:1016500080917A00816080937A0080917A0080681E
:1016600080937A001092C100E0910B03F0910C037B
:1016700092E09083E0910703F09108031082E091DB
:101680000903F0910A0380E1808310921303E09133
:101690000F03F091100386E08083E0910D03F09139
:1016A0000E03808180618083E0910D03F0910E0331
:1016B000808188608083E0910D03F0910E0380812A
:1016C00080688083E0910D03F0910E0380818F7D0F
:1016D00080839093BA008EEC90E09093F402809314
:1016E000F3028AED90E09093F2028093F10210925F
:1016F000F0021092EF021092EE021092ED021092A0
:10170000EC0281E08093EB021092EA0261E082E158
:101710000E94300361E083E10E9430038091B900B0
:101720008E7F8093B9008091B9008D7F8093B9003E
:1017300088E48093B80085E48093BC0080E098E062
:101740009093F6028093F50261E080E10E94DF0150
:101750008FEA91E00E94880960E082E00E94DF0148
:1017600061E08FE00E94DF0161E08EE00E94DF0116
:1017700061E080E10E94DF0160E082E00E943003CE
:101780008091BE039091BF03892BE1F161EC71E080
:101790008091BA039091BB030E949A13892B91F513
:1017A00081EC91E00E9488098FE192E00E94DF09BC
:1017B00061E08EE00E9430030E94CD0A019791F40F
:1017C00061E08FE00E943003C0910001D0910101DF
:1017D000CE010E941B0260E08FE00E943003CE0128
:1017E0000E941B020E94CD0A892B11F787EC91E021
:1017F0000E9488098FE192E00E94DF0982ED91E06A
:101800000E9488098091BE039091BF03892B31F11A
:101810006EED71E08091BA039091BB030E949A1320
:10182000892BE1F48EED91E00E9488096091F70226
:101830007091F8028091F9029091FA020E945B097E
:1018400060E080E10E94300361E08EE00E9430039E
:101850000E9473038FE192E00E94DF098091BE0332
:101860009091BF03892B31F164EE71E08091BA034E
:101870009091BB030E949A13892BE1F484EE91E0CE
:101880000E9488096091F7027091F8028091F90234
:101890009091FA020E945B0960E080E10E943003AF
:1018A00060E08EE00E9430030E9473038FE192E0BB
:1018B0000E94DF090E94D50163CF8091BA03909105
:1018C000BB030C942A12EBEFF2E01382128288EE33
:1018D00093E0A0E0B0E084839583A683B7832CE0F7
:1018E00031E03183208325EC30E03587248724ECF8
:1018F00030E03787268720EC30E0318B208B21ECDD
:1019000030E0338B228B22EC30E0358B248B26ECBD
:1019100030E0378B268B118E128E138E148EE8E9F1
:10192000F3E01382128284839583A683B7838EE1CA
:1019300091E091838083EAEBF3E0118210821382BD
:1019400012821582148240E050E06FE172E0CF0114
:101950000E941B09E4EAF3E01082118212821382D2
:10196000158A148ACF010C943A070E94F70C08F4E8
:1019700081E00895E89409C097FB3EF49095809526
:10198000709561957F4F8F4F9F4F9923A9F0F92F45
:1019900096E9BB279395F695879577956795B795C3
:1019A000F111F8CFFAF4BB0F11F460FF1BC06F5FA9
:1019B0007F4F8F4F9F4F16C0882311F096E911C0BB
:1019C000772321F09EE8872F762F05C0662371F0DC
:1019D00096E8862F70E060E02AF09A95660F771FF0
:1019E000881FDAF7880F9695879597F90895990FCC
:1019F0000008550FAA0BE0E8FEEF16161706E807D9
:101A0000F907C0F012161306E407F50798F0621BF9
:101A1000730B840B950B39F40A2661F0232B242BCE
:101A2000252B21F408950A2609F4A140A6958FEFED
:101A3000811D811D08950E942E0D0C949F0D0E9402
:101A4000910D38F00E94980D20F0952311F00C9420
:101A5000880D0C948E0D11240C94D30D0E94B00DA2
:101A600070F3959FC1F3950F50E0551F629FF001F1
:101A7000729FBB27F00DB11D639FAA27F00DB11D0A
:101A8000AA1F649F6627B00DA11D661F829F222793
:101A9000B00DA11D621F739FB00DA11D621F839F1A
:101AA000A00D611D221F749F3327A00D611D231FF0
:101AB000849F600D211D822F762F6A2F11249F573E
:101AC00050409AF0F1F088234AF0EE0FFF1FBB1F41
:101AD000661F771F881F91505040A9F79E3F510500
:101AE00080F00C94880D0C94D30D5F3FE4F3983E86
:101AF000D4F3869577956795B795F795E7959F5FAA
:101B0000C1F7FE2B880F911D9695879597F908953B
:101B100097F99F6780E870E060E008959FEF80ECA0
:101B2000089500240A941616170618060906089543
:101B300000240A9412161306140605060895092EA9
:101B40000394000C11F4882352F0BB0F40F4BF2B18
:101B500011F460FF04C06F5F7F4F8F4F9F4F089558
:101B600057FD9058440F551F59F05F3F71F047954E
:101B7000880F97FB991F61F09F3F79F08795089533
:101B8000121613061406551FF2CF4695F1DF08C052
:101B9000161617061806991FF1CF8695710561056F
:101BA00008940895E894BB2766277727CB0197F917
:101BB00008950E941B0EA59F900DB49F900DA49FA9
:101BC000800D911D112408952F923F924F925F92A4
:101BD0006F927F928F929F92AF92BF92CF92DF923D
:101BE000EF92FF920F931F93CF93DF93CDB7DEB7A2
:101BF000CA1BDB0B0FB6F894DEBF0FBECDBF099436
:101C00002A88398848885F846E847D848C849B848C
:101C1000AA84B984C884DF80EE80FD800C811B819A
:101C2000AA81B981CE0FD11D0FB6F894DEBF0FBEC9
:101C3000CDBFED010895A29FB001B39FC001A39F46
:101C4000700D811D1124911DB29F700D811D1124F5
:101C5000911D08955058BB27AA270E94420E0C944C
:101C60009F0D0E94910D38F00E94980D20F039F4DC
:101C70009F3F19F426F40C948E0D0EF4E095E7FBCB
:101C80000C94880DE92F0E94B00D58F3BA17620723
:101C900073078407950720F079F4A6F50C94D20D0C
:101CA0000EF4E0950B2EBA2FA02D0B01B901900177
:101CB0000C01CA01A0011124FF27591B99F0593FBB
:101CC00050F4503E68F11A16F040A22F232F342F03
:101CD0004427585FF3CF469537952795A795F04051
:101CE0005395C9F77EF41F16BA0B620B730B840B66
:101CF000BAF09150A1F0FF0FBB1F661F771F881F1E
:101D0000C2F70EC0BA0F621F731F841F48F4879575
:101D100077956795B795F7959E3F08F0B0CF939567
:101D2000880F08F09927EE0F9795879508950E94E0
:101D3000AB0E0C949F0D0E94980D58F00E94910DCF
:101D400040F029F45F3F29F00C94880D51110C9458
:101D5000D30D0C948E0D0E94B00D68F39923B1F34E
:101D6000552391F3951B550BBB27AA2762177307C1
:101D7000840738F09F5F5F4F220F331F441FAA1F55
:101D8000A9F335D00E2E3AF0E0E832D09150504011
:101D9000E695001CCAF72BD0FE2F29D0660F771FBF
:101DA000881FBB1F261737074807AB07B0E809F0A5
:101DB000BB0B802DBF01FF2793585F4F3AF09E3F2A
:101DC000510578F00C94880D0C94D30D5F3FE4F32B
:101DD000983ED4F3869577956795B795F7959F5F6D
:101DE000C9F7880F911D9695879597F90895E1E0B9
:101DF000660F771F881FBB1F621773078407BA0718
:101E000020F0621B730B840BBA0BEE1F88F7E09572
:101E100008950E94100F6894B1110C94D30D089589
:101E20000E94B80D88F09F5798F0B92F9927B751A5
:101E3000B0F0E1F0660F771F881F991F1AF0BA956E
:101E4000C9F714C0B13091F00E94D20DB1E00895ED
:101E50000C94D20D672F782F8827B85F39F0B93FDF
:101E6000CCF3869577956795B395D9F73EF4909521
:101E70008095709561957F4F8F4F9F4F08950E9479
:101E80007F0F90F09F3748F4911116F00C94D30D0A
:101E900060E070E080E89FEB089526F41B16611D5A
:101EA000711D811D0C94560F0C94710F882371F4D1
:101EB000772321F09850872B762F07C0662311F4E3
:101EC00099270DC09051862B70E060E02AF09A951A
:101ED000660F771F881FDAF7880F9695879597F911
:101EE00008959F3F31F0915020F48795779567953D
:101EF000B795880F911D9695879597F908950E943B
:101F0000B80DA0F0BEE7B91788F4BB279F3860F47E
:101F10001616B11D672F782F8827985FF7CF869503
:101F200077956795B11D93959639C8F308950E94EA
:101F3000F70C08F48FEF0895FA01EE0FFF1F3096AB
:101F400021053105A1F16115710561F48038BFE308
:101F50009B0749F168949038810561F08038BFEFA4
:101F60009B0741F099234AF5FF3FE1053105210523
:101F700019F1E8940894E795D901AA2329F4AB2F25
:101F8000BE2FF85FD0F310C0FF5F70F4A695E0F7A6
:101F9000F73950F019F0FF3A38F49F779F930DD03E
:101FA0000F9007FC9058089546F00C948E0D60E059
:101FB00070E080E89FE308954FE79F775F934F932A
:101FC0003F932F930E94E9102F913F914F915F9182
:101FD0000E941B0D0C943F1019F416F40C948E0DF6
:101FE0000C94710F0E94B80DB8F39923C9F3B6F39E
:101FF0009F57550B87FF0E9471100024A0E640EA0E
:10200000900180585695979528F4805C660F771F4D
:10201000881F20F026173707480730F4621B730B20
:10202000840B202931294A2BA69517940794202543
:1020300031254A2758F7660F771F881F20F026178B
:102040003707480730F4620B730B840B200D311DEA
:10205000411DA09581F7B901842F9158880F96955D
:10206000879508950E94F70C880B990B089529F421
:1020700016F00C94880D0C94D20D0C948E0D0E94C9
:10208000B80DA8F39638A0F707F80F92E8942BE361
:102090003AEA48EB5FE70E94310D0F920F920F92E0
:1020A0004DB75EB70F920E943111E8E6F0E00E9452
:1020B00078104F915F91EF91FF91E595EE1FFF1F13
:1020C00049F0FE57E0684427EE0F441FFA95E1F708
:1020D0004195550B0E94AB100F9007FE0C949F107A
:1020E000089591505040660F771F881FD2F70895CA
:1020F000DF93CF931F930F93FF92EF92DF927B01B9
:102100008C01689406C0DA2EEF010E942E0DFE01AC
:10211000E894A5912591359145915591A6F3EF014C
:102120000E94420EFE019701A801DA9469F7DF9040
:10213000EF90FF900F911F91CF91DF9108959B0138
:10214000AC0160E070E080E89FE30C94970E0C9483
:10215000880D0C94710F0E94B80DD8F39923C9F320
:10216000940F511DA3F39150504094F059F08823DF
:1021700032F0660F771F881F91505040C1F79E3F85
:1021800051052CF7880F911D9695879597F908951D
:102190005F3FACF0983E9CF0BB278695779567959E
:1021A000B79508F4B1609395C1F7BB0F58F711F4D8
:1021B00060FFE8CF6F5F7F4F8F4F9F4FE3CF0C944F
:1021C000D30D16F00C94710F0C948E0D68940C9432
:1021D000880D0E94B80DA8F39923C1F3AEF3DF93E5
:1021E000CF931F930F93FF92C92FDD2788232AF0E7
:1021F0002197660F771F881FDAF720E030E040E86C
:102200005FEB9FE3883920F0803E38F021968F778E
:102210000E942B0EE0E9F0E004C00E942B0EEDEBD3
:10222000F0E00E9478108B01BE01EC01FB2E6F578D
:1022300071097595771F880B990B0E94BC0C28E1DA
:1022400032E741E35FE30E942E0DAF2D9801AE010E
:10225000FF900F911F91CF91DF910E94420E0C943D
:102260009F0DFA01DC01AA0FBB1F9B01AC01BF57F8
:1022700028F4222733274427507820C0B75190F400
:10228000AB2F0024469537952795011CA395D2F3D3
:10229000002071F0220F331F441FB395DAF30ED0E4
:1022A0000C942A0E61307105A0E88A07B94630F413
:1022B0009B01AC016627772788279078309621F01C
:1022C00020833183428353830895A1E21A2EAA1BEF
:1022D000BB1BFD010DC0AA1FBB1FEE1FFF1FA217D6
:1022E000B307E407F50720F0A21BB30BE40BF50BD3
:1022F000661F771F881F991F1A9469F7609570955C
:10230000809590959B01AC01BD01CF010895B7FF69
:102310000C94D90D0E94D90D821B930B0895EE0FDA
:10232000FF1F0590F491E02D0994CF93DF93823045
:10233000910510F482E090E0E091C203F091C303B4
:1023400020E030E0C0E0D0E0309711F140815181D1
:1023500048175907C0F04817590761F482819381E3
:10236000209719F09B838A832BC09093C30380939B
:10237000C20326C02115310519F04217530718F47E
:102380009A01BE01DF01EF010280F381E02DDCCF75
:102390002115310509F1281B390B2430310590F442
:1023A00012968D919C9113976115710521F0FB0197
:1023B0009383828304C09093C3038093C203FD017F
:1023C000329644C0FD01E20FF31F81939193225096
:1023D00031092D933C933AC02091C0033091C10341
:1023E000232B41F420910401309105013093C10366
:1023F0002093C00320910201309103012115310582
:1024000041F42DB73EB74091060150910701241BBE
:10241000350BE091C003F091C103E217F307A0F47C
:102420002E1B3F0B2817390778F0AC014E5F5F4F2A
:102430002417350748F04E0F5F1F5093C103409398
:10244000C0038193919302C0E0E0F0E0CF01DF91FF
:10245000CF9108950F931F93CF93DF93009709F4C3
:102460008CC0FC013297138212820091C20310913A
:10247000C3030115110581F420813181820F931F5F
:102480002091C0033091C1032817390779F5F093E3
:10249000C103E093C00371C0D80140E050E0AE1723
:1024A000BF0750F412962D913C911397AD01211561
:1024B000310509F1D901F3CF9D01DA01338322837C
:1024C00060817181860F971F8217930769F4EC0171
:1024D00028813981260F371F2E5F3F4F318320839C
:1024E0008A819B8193838283452B29F4F093C303D4
:1024F000E093C20342C01396FC93EE931297ED0152
:10250000499159919E01240F351FE217F30771F489
:1025100080819181840F951F029611969C938E93D2
:102520008281938113969C938E931297E0E0F0E062
:10253000D80112968D919C911397009719F0F8018C
:102540008C01F6CF8D919C9198012E5F3F4F820FA9
:10255000931F2091C0033091C1032817390769F4F4
:10256000309729F41092C3031092C20302C0138261
:1025700012821093C1030093C003DF91CF911F918A
:102580000F910895A0E0B0E0E8ECF2E10C94E80DC2
:10259000EC01009721F4CB010E949511B8C0FC0119
:1025A000E60FF71F9C0122503109E217F30708F4E8
:1025B000ACC0D9010D911C91119706171707B0F007
:1025C0000530110508F49FC0C801049786179707C6
:1025D00008F499C002501109061B170B01931193BF
:1025E0006D937C93CF010E942A128DC05B01A01ACB
:1025F000B10A4C01800E911EA091C203B091C30399
:1026000040E050E0E12CF12C109709F44AC0A815E5
:10261000B905D1F56D907C901197630182E0C80EE9
:10262000D11CCA14DB0480F1A3014A195B096A01B9
:1026300082E0C80ED11C1296BC9012971396AC91F2
:10264000B5E0CB16D10440F0B282A383518340831E
:10265000D9016D937C930AC00E5F1F4FC301800F99
:10266000911FF90191838083EB2DFA2FE114F1047E
:1026700031F0D7011396FC93EE93129744C0F09378
:10268000C303E093C2033FC08D919C9111974817FB
:10269000590708F4AC017D0112960D90BC91A02D54
:1026A000B3CF8091C0039091C10388159905E1F4DF
:1026B00046175707C8F480910201909103010097D3
:1026C00041F48DB79EB74091060150910701841BDC
:1026D000950BE817F907C8F4F093C103E093C00322
:1026E000F901718360830FC0CB010E9495117C01B9
:1026F000009759F0A801BE010E949113CE010E94DB
:102700002A12C70104C0CE0102C080E090E0CDB71C
:10271000DEB7EEE00C94040E81E090E0F8940C94A7
:10272000AA13FB01DC0102C001900D924150504000
:10273000D8F70895FB01DC018D91019080190110FB
:10274000D9F3990B0895FB01DC0101900D92002053
:10275000E1F7089510E0C3EAD0E004C0FE010E9452
:0E2760008F112196C43AD107C9F7F894FFCF24
:10276E00FA000000C4038000000000006C019D0808
:10277E000401B30135011301270100000000980286
:10278E008402AA0258027C0268025902616C6C5FD4
:10279E0064656C617974696D6520202D3E20006141
:1027AE0064645F737465702020E58AA0E9809FE5FC
:1027BE00BAA62D3E20006164645F64656C61797415
:1027CE00696D6520202D3E200070617261626F6C14
:1027DE00615F7820202D3E2000E7AD89E9809FE9DA
:1027EE009A8EE6AEB564656C617974696D6520206C
:1027FE002D3E2000E6B89BE9809FE99A8EE6AEB5A5
:10280E0064656C617974696D6520202D3E20002D04
:10281E002D3E20536C6176652031205265616479BE
:10282E000072657365740073656E73657220204F58
:10283E004B0072657365742020454E4420007374FE
:10284E006172740073746172743200554E494F4E4A
:10285E002D2D2D537461727400576972652E617639
:10286E0061696C61626C650069203D200061646481
:10287E0000656E64006F6E5265636569766509006A
:10288E004D617800616363000D0A006E616E006930
:08289E006E66006F7666000013
:107E0000112484B714BE81FFF0D085E080938100F7
:107E100082E08093C00088E18093C10086E0809377
:107E2000C20080E18093C4008EE0C9D0259A86E02C
:107E300020E33CEF91E0309385002093840096BBD3
:107E4000B09BFECF1D9AA8958150A9F7CC24DD24C4
:107E500088248394B5E0AB2EA1E19A2EF3E0BF2EE7
:107E6000A2D0813461F49FD0082FAFD0023811F036
:107E7000013811F484E001C083E08DD089C08234E0
:107E800011F484E103C0853419F485E0A6D080C0E4
:107E9000853579F488D0E82EFF2485D0082F10E0AE
:107EA000102F00270E291F29000F111F8ED06801E7
:107EB0006FC0863521F484E090D080E0DECF843638
:107EC00009F040C070D06FD0082F6DD080E0C81688
:107ED00080E7D80618F4F601B7BEE895C0E0D1E017
:107EE00062D089930C17E1F7F0E0CF16F0E7DF06D8
:107EF00018F0F601B7BEE89568D007B600FCFDCFD4
:107F0000A601A0E0B1E02C9130E011968C91119780
:107F100090E0982F8827822B932B1296FA010C0160
:107F200087BEE89511244E5F5F4FF1E0A038BF0790
:107F300051F7F601A7BEE89507B600FCFDCF97BE46
:107F4000E89526C08437B1F42ED02DD0F82E2BD052
:107F50003CD0F601EF2C8F010F5F1F4F84911BD097
:107F6000EA94F801C1F70894C11CD11CFA94CF0C13
:107F7000D11C0EC0853739F428D08EE10CD085E9AC
:107F80000AD08FE07ACF813511F488E018D01DD067
:107F900080E101D065CF982F8091C00085FFFCCF94
:107FA0009093C60008958091C00087FFFCCF809118
:107FB000C00084FD01C0A8958091C6000895E0E648
:107FC000F0E098E1908380830895EDDF803219F02E
:107FD00088E0F5DFFFCF84E1DECF1F93182FE3DFCA
:107FE0001150E9F7F2DF1F91089580E0E8DFEE27F6
:047FF000FF270994CA
:027FFE00040479
:0400000300007E007B
:00000001FF