:100000000C94A4000C94CC000C94CC000C94CC0068
:100010000C94CC000C94CC000C94CC000C94CC0030
:100020000C94CC000C94CC000C94CC000C94CC0020
:100030000C94CC000C94CC000C94CC000C94CC0010
:100040000C9480060C94CC000C944E030C94280362
:100050000C94CC000C94CC000C94CC000C94CC00F0
:100060000C94CA060C94CC0007634236B79BD8A701
:100070001A39685618AEBAAB558C1D3CB7CC5763CD
:10008000BD6DEDFD753EF6177231BF000000803F7B
:1000900008000000BE922449123EABAAAA2ABECD97
:1000A000CCCC4C3E00000080BEABAAAAAA3E000009
:1000B0000000BF000000803F000000000008417801
:1000C000D3BB4387D1133D190E3CC3BD4282AD2B38
:1000D0003E68EC8276BED98FE1A93E4C80EFFFBE30
:1000E00001C4FF7F3F00000000000000000024006A
:1000F00027002A0000000000250028002B00000037
:10010000000023002600290004040404040404045D
:1001100002020202020203030303030301020408B2
:100120001020408001020408102001020408102061
:1001300000000008000201000003040700000000A6
:1001400000000000930C8D0C11241FBECFEFD8E0EF
:10015000DEBFCDBF23E0A8E3B2E001C01D92A03C0A
:10016000B207E1F712E0A0E0B1E0E8EEF7E202C08A
:1001700005900D92A833B107D9F710E0C3EAD0E09B
:1001800004C02197FE010E94DC11C23AD107C9F7D1
:100190000E94210B0C94E7130C9400000895CF9358
:1001A000DF93AC01E091EF02F091F0023097F1F0B3
:1001B0009091F5028091F6029817C0F090E0292FF7
:1001C00030E02617370754F4D901AA5ABD4FEA0187
:1001D000C20FD31F28812C939F5FF1CF1092F5029D
:1001E0006093F602CB01DF91CF910994DF91CF911B
:1001F0000895FC01538D448D252F30E0842F90E02D
:10020000821B930B541710F0CF9608950197089511
:10021000FC01918D828D981761F0828DDF01A80F0E
:10022000B11D5D968C91928D9F5F9F73928F90E030
:1002300008958FEF9FEF0895FC01918D828D98179F
:1002400031F0828DE80FF11D858D90E008958FEFDC
:100250009FEF0895FC01918D228D892F90E0805CA5
:100260009F4F821B91098F739927089587EF92E022
:100270000E942A0121E0892B09F420E0822F0895B1
:10028000FC01848DDF01A80FB11DA35ABF4F2C9133
:10029000848D90E001968F739927848FA689B78902
:1002A0002C93A089B1898C91837080648C93938DF9
:1002B000848D981306C00288F389E02D80818F7D9C
:1002C00080830895EF92FF920F931F93CF93DF9354
:1002D000EC0181E0888F9B8D8C8D981305C0E88997
:1002E000F989808185FD26C0F62E0B8D10E00F5F09
:1002F0001F4F0F731127E02E8C8DE8120CC00FB624
:1003000007FCFACFE889F989808185FFF5CFCE0116
:100310000E944001F1CF8B8DFE01E80FF11DE35AE1
:10032000FF4FF0829FB7F8940B8FEA89FB89808199
:1003300080620AC09FB7F894EE89FF896083E889DC
:10034000F98980818370806480839FBF81E090E021
:10035000DF91CF911F910F91FF90EF900895CF9370
:10036000DF93EC01888D8823C9F0EA89FB898081BD
:1003700085FD05C0A889B9898C9186FD0FC00FB68F
:1003800007FCF5CF808185FFF2CFA889B9898C91D0
:1003900085FFEDCFCE010E944001E7CFDF91CF91E5
:1003A000089580E090E0892B29F00E9436018111A8
:1003B0000C9400000895CF93DF9390E0FC01E45E7D
:1003C000FE4F2491FC01E85FFE4F8491882361F188
:1003D00090E0880F991FFC01E651FF4FC591D49121
:1003E000FC01EC50FF4FA591B491611109C09FB77A
:1003F000F8948881209582238883EC912E230BC06A
:10040000623061F49FB7F8948881322F309583234E
:100410008883EC912E2B2C939FBF06C08FB7F89446
:10042000E8812E2B28838FBFDF91CF9108958230F2
:10043000910538F0880F991F880F991F059701972C
:10044000F1F7089585ED8093BC008091BC0084FD98
:10045000FCCF1092EC02089540919602262F30E0D6
:10046000240F311D21323105DCF42091EC022430BF
:10047000C9F4FC0180E090E0861758F430919602B0
:100480002191DC01AA58BD4FA30FB11D2C930196F9
:10049000F3CF80919602680F6093960280E00895F2
:1004A00081E0089582E008950895E091F502809139
:1004B000F602E81730F4F0E0EA5AFD4F808190E050
:1004C00008958FEF9FEF08959091F5028091F602C5
:1004D000981750F4E92FF0E0EA5AFD4F208130E000
:1004E0009F5F9093F50202C02FEF3FEFC90108957F
:1004F0008091F60290E02091F502821B9109089507
:10050000CF93DF93CB01EA01642F0E942C02CE012E
:10051000DF91CF910895CF93DF931F92CDB7DEB7D0
:10052000698361E0CE0101960E942C0281E090E097
:100530000F90DF91CF910895089580E090E00895A5
:100540009091F6028091F5029817B9F08CE291E053
:100550000E9422098091F60290E02091F502821B10
:1005600091090E940A0984E993E00E946402909331
:100570003902809338020E940A09809138029091D2
:1005800039028230910519F12CF4009751F001974E
:1005900059F008958330910569F1049709F43FC03B
:1005A000089587E391E00BC00E9424098091A00385
:1005B0009091A1038130910521F48DE391E00C9499
:1005C0000E0A029709F041C083E491E0F8CF0E943F
:1005D00024098091A0039091A103A091A203B0915E
:1005E000A3038093F1029093F202A093F302B093DD
:1005F000F40208950E9424098AE491E00E940E0A00
:100600008091A0039091A10390935502809354028E
:100610000E94F809809154029091550214C00E94E2
:1006200024098EE491E00E940E0A8091A00390912B
:10063000A10390934F0280934E020E94F80980918B
:100640004E0290914F020C940A0908950E94C9131A
:100650001F920F920FB60F9211242F933F934F9337
:100660005F936F937F938F939F93AF93BF93EF931A
:10067000FF9387EF92E00E944001FF91EF91BF91BD
:10068000AF919F918F917F916F915F914F913F912A
:100690002F910F900FBE0F901F9018951F920F92E1
:1006A0000FB60F9211242F938F939F93EF93FF9385
:1006B000E0910703F09108038081E0910D03F09130
:1006C0000E0382FD12C09081809110038F5F8F73A3
:1006D00020911103821751F0E0911003F0E0E950EE
:1006E000FD4F958F8093100301C08081FF91EF91A2
:1006F0009F918F912F910F900FBE0F901F90189583
:10070000833081F028F4813099F08230A1F008958F
:100710008730A9F08830B9F08430D1F4809180001E
:100720008F7D03C0809180008F7780938000089533
:1007300084B58F7702C084B58F7D84BD0895809184
:10074000B0008F7703C08091B0008F7D8093B000A0
:1007500008951F93CF93DF93282F30E0F901E05DD8
:10076000FE4F8491F901E45EFE4FD491F901E85FF8
:10077000FE4FC491CC23C1F0162F81110E9480033B
:10078000EC2FF0E0EE0FFF1FEC50FF4FA591B4915E
:100790009FB7F894111104C08C91D095D82302C052
:1007A000EC91DE2BDC939FBFDF91CF911F910895D9
:1007B00061E08FE00E94A903809100019091010106
:1007C0000E94170260E08FE00E94A90383E090E09E
:1007D0000197F1F708952F923F924F925F926F9297
:1007E0007F928F929F92AF92BF92CF92DF92EF92C1
:1007F000FF920F931F93CF93DF9300D000D0CDB71C
:10080000DEB76091540270915502072E000C880BE0
:10081000990B0E94EA0C26E636E646EE5DE30E945E
:10082000C50E6093500270935102809352029093D0
:10083000530260914E0270914F02072E000C880BFC
:10084000990B0E94EA0C26E636E646EE5DE30E942E
:10085000C50E4B015C010E946D0F6B017C019B0179
:10086000AC01C501B4010E94580E2AE939E949E9F1
:100870005EE30E94C50F18168CF420E030E040E8DB
:100880005FE3C701B6010E94590E60934A0270935C
:100890004B0280934C0290934D0208C0C0924A02D2
:1008A000D0924B02E0924C02F0924D028091F10204
:1008B0009091F202A091F302B091F402BC01CD013B
:1008C000660F771F881F991F0E94EA0C20914A0229
:1008D00030914B0240914C0250914D020E94C50E46
:1008E0000E94201060934602709347028093480252
:1008F0009093490282E591E00E94220960914602AC
:100900007091470280914802909149020E94320AF8
:1009100085E691E00E94220960914A0270914B02A3
:1009200080914C0290914D020E94320A80904A02BE
:1009300090904B02A0904C02B0904D02A501940102
:100940006091500270915102809152029091530235
:100950000E94C50E6B017C016093420270934302BA
:1009600080934402909345029B01AC010E94490D83
:1009700020E030E040E05FE30E94490DA5019401D2
:100980000E94490D0E94370F60933E0270933F0210
:1009900080934002909341020E94EA0C9B01AC01BB
:1009A0000E94490D20E030E040E85EE30E94490DDE
:1009B00069837A838B839C83A70196010E94C50E6D
:1009C0000E94370F2B013C0160933A0270933B0267
:1009D00080933C0290933D02C090F102D090F202CD
:1009E000E090F302F090F402C701B6010E94EA0C15
:1009F0009B01AC01C501B4010E94C50F18160CF093
:100A000040C088E290E09093010180930001C7010B
:100A1000B60126EF3FEF4FEF5FEF0E94B511C9011E
:100A20008C0D9D1D9A83898329813A8112161306A4
:100A300034F40E94D80389819A810197F3CFC701CA
:100A4000B6012AE030E040E050E00E94B5113A8360
:100A5000298329813A81121613060CF03AC180913C
:100A600000019091010188539F4F90930101809361
:100A700000010E94D80389819A8101979A83898312
:100A8000E8CFC301B2010E94EA0C9B01AC0169816D
:100A90007A818B819C810E94C50E962EB72ED82E0E
:100AA000F92E8CE791E00E94220960914202709138
:100AB000430280914402909145020E94320A8FE8DD
:100AC00091E00E94220960913E0270913F02809164
:100AD0004002909141020E94E80820913E0230912C
:100AE0003F023A83298308E210E089819A8118162F
:100AF00019060CF051C0BC01990F880B990B0E948C
:100B0000EA0C9B01AC010E94490D20E030E040E876
:100B10005EE30E94490D2B013C0160913A02709105
:100B20003B0280913C0290913D020E94EA0C9B01A5
:100B3000AC01C301B2010E94C50E862EA72EC82E9D
:100B4000E92E262F372F482F592F692D7B2D8D2DDC
:100B50009F2D0E94580E20E034E244E759E40E94A1
:100B6000490D0E94370F683271052CF07093010116
:100B70006093000104C010930101009300010E94E2
:100B8000D80329813A81215031093A832983982C4D
:100B9000BA2CDC2CFE2CA9CF8FE991E00E9422090F
:100BA00080910001909101010E940A09C12CD12C71
:100BB00076019701860140913E0250913F0260917B
:100BC0004002709141028FEFC81AD80AE80AF80A69
:100BD0008091F1029091F202A091F302B091F4029F
:100BE000841B950BA60BB70B841B950BA60BB70BA1
:100BF000081719072A073B071CF40E94D803D9CF0E
:100C00008AEB91E00E9422098091000190910101FC
:100C10000E940A09C12CD12C7601C394612C712C3D
:100C2000812C912C80913E0290913F02A091400234
:100C3000B09141028C159D05AE05BF050CF449C06D
:100C4000B6010D2C000C880B990B0E94EA0C9B013D
:100C5000AC010E94490D20E030E040E85EE30E94D4
:100C6000490D1B012C0160913A0270913B02809169
:100C70003C0290913D020E94EA0C9B01AC01C20132
:100C8000B1010E94C50E5B018C019301A4010E9479
:100C9000580E20E034E244E759E40E94490D0E94D6
:100CA000370F6E3171052CF07093010160930001D4
:100CB00006C02EE130E030930101209300010E9434
:100CC000D8033FEFC31AD30AE30AF30A35014801F8
:100CD000A9CF0F900F900F900F90DF91CF911F91A0
:100CE0000F91FF90EF90DF90CF90BF90AF909F90CB
:100CF0008F907F906F905F904F903F902F900895CE
:100D00001F920F920FB60F9211242F933F938F9340
:100D10009F93AF93BF938091E2029091E302A091E1
:100D2000E402B091E5023091E10223E0230F2D3778
:100D300020F40196A11DB11D05C026E8230F0296DF
:100D4000A11DB11D2093E1028093E2029093E30282
:100D5000A093E402B093E5028091DD029091DE025F
:100D6000A091DF02B091E0020196A11DB11D809318
:100D7000DD029093DE02A093DF02B093E002BF9108
:100D8000AF919F918F913F912F910F900FBE0F9038
:100D90001F9018951F920F920FB60F9211242F9348
:100DA0003F934F935F936F937F938F939F93AF93F3
:100DB000BF93EF93FF938091B900887F803609F449
:100DC0009CC068F5883209F45BC090F4803109F466
:100DD00054C038F4882309F4F6C0883009F44DC0B3
:100DE000F6C0883109F44CC0803209F45DC0EFC010
:100DF000803409F468C048F4803309F455C088335E
:100E000009F0E5C08093B902D8C0803509F44FC01D
:100E1000883509F45DC0883409F0D9C0D6C0883956
:100E200009F4C7C0A8F4883709F467C038F48836D5
:100E300009F463C0803709F460C0C9C0883809F478
:100E4000B8C0803909F45FC0803809F0C0C05BC009
:100E5000803B09F486C038F4803A09F466C0883AC9
:100E600009F47FC0B4C0803C09F4A7C0883C09F4F1
:100E7000A4C0883B09F48AC0AAC08091DC0210C0DB
:100E80009091DB028091DA02981770F5E091DB0215
:100E900081E08E0F8093DB02F0E0E654FD4F80810D
:100EA0008093BB0085EC86C08093B9028EC0E09130
:100EB000DB0281E08E0F8093DB028091BB00F0E0CB
:100EC000E654FD4F80839091DB028091DA026EC080
:100ED000E091DB0281E08E0F8093DB028091BB000A
:100EE000F0E0E654FD4F80838091EB0281116DC0EC
:100EF00081E08093EA0284EA61C083E08093EC029F
:100F00001092B802CFCF8091B802803208F051C061
:100F1000E091B80281E08E0F8093B8028091BB000F
:100F2000F0E0E856FD4F8083BDCF85EC8093BC0098
:100F30001092EC028091B802803230F4E091B80255
:100F4000F0E0E856FD4F10826091B80270E0E09149
:100F5000E602F091E70288E992E009951092B80262
:100F600036C084E08093EC021092970210929602B1
:100F7000E091E802F091E9020995809196028111D1
:100F800005C081E08093960210927602E09197026C
:100F900081E08E0F80939702F0E0EA58FD4F808148
:100FA0008093BB009091970280919602981708F465
:100FB00079CF85E88093BC000AC085EC8093BC00A3
:100FC0001092EC0204C01092B9020E942202FF911A
:100FD000EF91BF91AF919F918F917F916F915F91B1
:100FE0004F913F912F910F900FBE0F901F9018952A
:100FF000CF92DF92EF92FF920F931F93CF93DF93E5
:101000006C017A018B01C0E0D0E0CE15DF0581F0E4
:10101000D8016D918D01D601ED91FC910190F08187
:10102000E02DC6010995892B11F02196EECF7E01A6
:10103000C701DF91CF911F910F91FF90EF90DF904B
:10104000CF900895009769F0FC0101900020E9F726
:101050003197AF01481B590BBC0187EF92E00C940C
:10106000F80780E090E008958F929F92AF92BF9230
:101070000F931F93CF93DF93CDB7DEB7A1970FB632
:10108000F894DEBF0FBECDBF19A2423008F44AE08B
:101090008E010F5D1F4F842E912CA12CB12CA50128
:1010A00094010E949311E62FB901CA010150110960
:1010B000EA3014F4E05D01C0E95CD801EC93232B25
:1010C000242B252B61F7C8010E942208A1960FB698
:1010D000F894DEBF0FBECDBFDF91CF911F910F916E
:1010E000BF90AF909F908F900895CF92DF92EF9234
:1010F000FF92CF93DF936B017C016DE287EF92E06B
:101100000E946201EC0166277727CB016C197D09EB
:101110008E099F094AE00E9434088C0F9D1FDF91C1
:10112000CF91FF90EF90DF90CF9008950F931F9392
:10113000CF93DF938C01EB018091B6039091B703BD
:10114000009739F02091B8033091B903261737077B
:1011500068F5BE016F5F7F4F0E940313009789F00F
:101160009093B7038093B603D093B903C093B803A9
:101170002091BA033091BB03232BC1F4FC011082F0
:1011800015C08091B6039091B703009711F00E94AB
:101190007A121092B7031092B6031092BB0310920A
:1011A000BA031092B9031092B8030BC0D093BB03DB
:1011B000C093BA03B8018091B6039091B7030E941F
:1011C000E01386EB93E0DF91CF911F910F9108958B
:1011D000CF93DF9397FF03C00E94750803C04AE0D6
:1011E0000E943408EC018EEF91E00E9422088C0FDF
:1011F0009D1FDF91CF910895CF93DF930E94220826
:10120000EC018EEF91E00E9422088C0F9D1FDF9170
:10121000CF910895CF93DF93BC01990F880B990B61
:1012200097FF03C00E94750803C04AE00E9434087B
:10123000EC018EEF91E00E9422088C0F9D1FDF9140
:10124000CF9108950C9422088F929F92AF92BF92F3
:10125000CF92DF92EF92FF920F931F93CF93DF9382
:1012600081E092E00E94FC081092A4031092A50372
:101270001092A6031092A7031092A8031092A9033C
:101280001092AA031092AB031092AC031092AD031C
:101290001092AE031092AF031092B0031092B103FC
:1012A0001092B2031092B3038FE092E00E94FC0808
:1012B0008091F60290E02091F502821B91090E9434
:1012C0000A09C0EAD3E000E010E024969091F6020B
:1012D0008091F5029817E1F084E993E00E9464029E
:1012E000092E000CAA0BBB0B88839983AA83BB83AE
:1012F0008EE192E00E942209C8010E940A096881D9
:1013000079818A819B810E94E8080F5F1F4FDDCFA2
:1013100083E292E00E94FC081092A0031092A103C5
:101320001092A2031092A30304EA13E0C12CD12C63
:101330007601C0E0D0E0F80181909190A190B19049
:101340008F01B7FE29C0C092A003D092A103E09202
:10135000A203F092A30387E292E00E94FC0860914E
:10136000A0037091A1038091A2039091A3030E9416
:10137000E80881E090E09093B5038093B403DF9197
:10138000CF911F910F91FF90EF90DF90CF90BF9082
:10139000AF909F908F900895209749F4C80CD91C66
:1013A000EA1CFB1C2196C430D10529F6CCCFBE0126
:1013B0000D2E000C880B990B0E94EA0C9B01AC01CE
:1013C00060E070E080E893E40E94CA0F20E030E023
:1013D00040E05FE30E94590E0E94370FDB01A50138
:1013E00094010E94D411C60ED71EE81EF91EDACF52
:1013F000CF93DF93E6EBF3E0448155816081718107
:1014000087EF92E00E94F807EC018EEF91E00E94D6
:1014100022088C0F9D1FDF91CF910895009759F0FE
:10142000FC0101900020E9F73197BF01681B790B9F
:101430000E94960814C08091B6039091B70300975C
:1014400011F00E947A121092B7031092B603109214
:10145000BB031092BA031092B9031092B80386EB43
:1014600093E008954F925F926F927F928F929F9236
:10147000AF92BF92CF92DF92EF92FF926B017C010D
:101480009B01AC010E946010882319F08BE292E06E
:101490001AC046015701E894B7F82FEF3FEF4FE726
:1014A0005FE7C501B4010E946010811110C02FEFE9
:1014B0003FEF4FE75FE7C501B4010E94E30C181648
:1014C00034F48FE292E00E9422087C0183C02FEF67
:1014D0003FEF4FE75FE4C701B6010E94C50F181642
:1014E0001CF483E392E0EFCF2FEF3FEF4FE75FEC89
:1014F000C701B6010E94E30C87FDF3CF20E030E086
:10150000A901C701B6010E94E30C87FF0BC06DE281
:1015100087EF92E00E9462015C01F7FAF094F7F81D
:10152000F09402C0A12CB12C2AE037ED43EA5BE332
:10153000C701B6010E94590E2B013C010E943E0FCB
:101540006B017C010E94E80C9B01AC01C301B2015C
:101550000E94580E2B013C014AE0C701B6010E94CF
:1015600034087C01EA0CFB1C6EE287EF92E00E94DB
:101570006201E80EF91E20E030E040E251E4C301D0
:10158000B2010E94490D2B013C010E943E0F4B010C
:10159000A12CB12C4AE0C501B4010E943408E80E28
:1015A000F91EC501B4010E94E80C9B01AC01C30106
:1015B000B2010E94580E20E030E040E251E40E9467
:1015C000490D0E943E0F80E090E04AE00E943408FE
:1015D000E80EF91E8EEF91E00E9422088E0D9F1DED
:1015E000FF90EF90DF90CF90BF90AF909F908F9043
:1015F0007F906F905F904F900895CF93DF93E2E3D9
:10160000F1E08491EEE1F1E0D491EAE0F1E0C491FF
:10161000CC2391F081110E948003EC2FF0E0EE0FBB
:10162000FF1FE250FF4FA591B491EC91ED2381E0B3
:1016300090E021F480E002C080E090E0DF91CF9163
:101640000895789484B5826084BD84B5816084BD3A
:1016500085B5826085BD85B5816085BD80916E0050
:10166000816080936E001092810080918100826081
:1016700080938100809181008160809381008091BE
:1016800080008160809380008091B10084608093AD
:10169000B1008091B00081608093B00080917A00A9
:1016A000846080937A0080917A00826080937A00CF
:1016B00080917A00816080937A0080917A008068BE
:1016C00080937A001092C100E0910703F091080323
:1016D000C2E0C083E0910303F09104031082E09123
:1016E0000503F091060380E1808310920F03E091DF
:1016F0000B03F0910C0386E08083E0910903F091E5
:101700000A03808180618083E0910903F0910A03DC
:10171000808188608083E0910903F0910A038081D1
:1017200080688083E0910903F0910A0380818F7DB6
:1017300080831092F5021092F6021092EE0210923F
:10174000ED021092EC0281E08093EB021092EA022B
:1017500061E082E10E94A90361E083E10E94A903A4
:101760008091B9008E7F8093B9008091B9008D7F00
:101770008093B90088E48093B80085E48093BC002E
:101780008EEC90E09093E9028093E8028FEC90E079
:101790009093E7028093E602C093BA0080EA92E059
:1017A0009093F0028093EF0261E080E10E94DB0100
:1017B00085ED91E00E94FC0860E082E00E94DB0180
:1017C00061E08FE00E94DB0161E08EE00E94DB01BE
:1017D00061E080E10E94DB0160E082E00E94A903F9
:1017E0008091BA039091BB03892BE1F167E371E02B
:1017F0008091B6039091B7030E94D713892B91F57E
:1018000087E391E00E94FC0886E391E00E940E0AC3
:1018100061E08EE00E94A9030E94FD0A019791F405
:1018200061E08FE00E94A903C0910001D091010105
:10183000CE010E94170260E08FE00E94A903CE0152
:101840000E9417020E94FD0A892B11F787EE91E092
:101850000E94FC0886E391E00E940E0A82EF91E06C
:101860000E94FC088091BA039091BB03892B31F14F
:101870006DE371E08091B6039091B7030E94D71396
:10188000892BE1F48DE391E00E94FC086091F10264
:101890007091F2028091F3029091F4020E94E808A4
:1018A00060E080E10E94A90361E08EE00E94A9034C
:1018B0000E94EB0386E391E00E940E0A8091BA0336
:1018C0009091BB03892B31F163E471E08091B60301
:1018D0009091B7030E94D713892BE1F483E491E040
:1018E0000E94FC086091F1027091F2028091F30273
:1018F0009091F4020E94E80860E080E10E94A90350
:1019000060E08EE00E94A9030E94EB0386E391E071
:101910000E940E0A0E94D10163CF8091B60390917C
:10192000B7030C947A12E7EFF2E01382128288EE8A
:1019300093E0A0E0B0E084839583A683B7832CE096
:1019400031E03183208325EC30E03587248724EC97
:1019500030E03787268720EC30E0318B208B21EC7C
:1019600030E0338B228B22EC30E0358B248B26EC5D
:1019700030E0378B268B118E128E138E148EE4E995
:10198000F3E01382128284839583A683B7838EE16A
:1019900091E091838083E6EBF3E011821082138261
:1019A00012821582148260E070E086E391E00E946A
:1019B0009608E0EAF3E01082118212821382158AFF
:1019C000148A0C9424090E94250D08F481E00895DE
:1019D000E89409C097FB3EF49095809570956195C9
:1019E0007F4F8F4F9F4F9923A9F0F92F96E9BB277F
:1019F0009395F695879577956795B795F111F8CFFB
:101A0000FAF4BB0F11F460FF1BC06F5F7F4F8F4F65
:101A10009F4F16C0882311F096E911C0772321F05B
:101A20009EE8872F762F05C0662371F096E8862FF3
:101A300070E060E02AF09A95660F771F881FDAF74A
:101A4000880F9695879597F90895990F0008550F77
:101A5000AA0BE0E8FEEF16161706E807F907C0F034
:101A600012161306E407F50798F0621B730B840B3C
:101A7000950B39F40A2661F0232B242B252B21F416
:101A800008950A2609F4A140A6958FEF811D811DB6
:101A900008950E945C0D0C94CD0D0E94BF0D38F08E
:101AA0000E94C60D20F0952311F00C94B60D0C94F5
:101AB000BC0D11240C94010E0E94DE0D70F3959F55
:101AC000C1F3950F50E0551F629FF001729FBB2735
:101AD000F00DB11D639FAA27F00DB11DAA1F649FD1
:101AE0006627B00DA11D661F829F2227B00DA11D84
:101AF000621F739FB00DA11D621F839FA00D611D0A
:101B0000221F749F3327A00D611D231F849F600D2A
:101B1000211D822F762F6A2F11249F5750409AF053
:101B2000F1F088234AF0EE0FFF1FBB1F661F771FDF
:101B3000881F91505040A9F79E3F510580F00C94AA
:101B4000B60D0C94010E5F3FE4F3983ED4F38695F6
:101B500077956795B795F795E7959F5FC1F7FE2B4A
:101B6000880F911D9695879597F9089597F99F6726
:101B700080E870E060E008959FEF80EC0895002415
:101B80000A941616170618060906089500240A94E2
:101B900012161306140605060895092E0394000C68
:101BA00011F4882352F0BB0F40F4BF2B11F460FFF7
:101BB00004C06F5F7F4F8F4F9F4F089557FD905820
:101BC000440F551F59F05F3F71F04795880F97FB01
:101BD000991F61F09F3F79F08795089512161306BB
:101BE0001406551FF2CF4695F1DF08C016161706EA
:101BF0001806991FF1CF869571056105089408951F
:101C0000E894BB2766277727CB0197F908950E94B0
:101C1000490EA59F900DB49F900DA49F800D911D1E
:101C2000112408952F923F924F925F926F927F926C
:101C30008F929F92AF92BF92CF92DF92EF92FF92DC
:101C40000F931F93CF93DF93CDB7DEB7CA1BDB0B88
:101C50000FB6F894DEBF0FBECDBF09942A8839882D
:101C600048885F846E847D848C849B84AA84B98434
:101C7000C884DF80EE80FD800C811B81AA81B98140
:101C8000CE0FD11D0FB6F894DEBF0FBECDBFED0154
:101C90000895A29FB001B39FC001A39F700D811D45
:101CA0001124911DB29F700D811D1124911D089565
:101CB0005058BB27AA270E94700E0C94CD0D0E948D
:101CC000BF0D38F00E94C60D20F039F49F3F19F483
:101CD00026F40C94BC0D0EF4E095E7FB0C94B60DC5
:101CE000E92F0E94DE0D58F3BA17620773078407C5
:101CF000950720F079F4A6F50C94000E0EF4E0950B
:101D00000B2EBA2FA02D0B01B90190010C01CA01B5
:101D1000A0011124FF27591B99F0593F50F4503E60
:101D200068F11A16F040A22F232F342F4427585F52
:101D3000F3CF469537952795A795F0405395C9F76A
:101D40007EF41F16BA0B620B730B840BBAF0915022
:101D5000A1F0FF0FBB1F661F771F881FC2F70EC0C1
:101D6000BA0F621F731F841F48F487957795679594
:101D7000B795F7959E3F08F0B0CF9395880F08F080
:101D80009927EE0F9795879508950E94D90E0C9488
:101D9000CD0D0E94C60D58F00E94BF0D40F029F4F1
:101DA0005F3F29F00C94B60D51110C94010E0C9468
:101DB000BC0D0E94DE0D68F39923B1F3552391F316
:101DC000951B550BBB27AA2762177307840738F0AA
:101DD0009F5F5F4F220F331F441FAA1FA9F335D007
:101DE0000E2E3AF0E0E832D091505040E695001CBB
:101DF000CAF72BD0FE2F29D0660F771F881FBB1F75
:101E0000261737074807AB07B0E809F0BB0B802D52
:101E1000BF01FF2793585F4F3AF09E3F510578F07E
:101E20000C94B60D0C94010E5F3FE4F3983ED4F38E
:101E3000869577956795B795F7959F5FC9F7880F52
:101E4000911D9695879597F90895E1E0660F771FA4
:101E5000881FBB1F621773078407BA0720F0621B35
:101E6000730B840BBA0BEE1F88F7E09508950E9460
:101E70003E0F6894B1110C94010E08950E94E60D76
:101E800088F09F5798F0B92F9927B751B0F0E1F03B
:101E9000660F771F881F991F1AF0BA95C9F714C0EB
:101EA000B13091F00E94000EB1E008950C94000E44
:101EB000672F782F8827B85F39F0B93FCCF3869524
:101EC00077956795B395D9F73EF490958095709581
:101ED00061957F4F8F4F9F4F08950E94AD0F90F0F7
:101EE0009F3748F4911116F00C94010E60E070E0F9
:101EF00080E89FEB089526F41B16611D711D811D5E
:101F00000C94840F0C949F0F882371F4772321F095
:101F10009850872B762F07C0662311F499270DC0A0
:101F20009051862B70E060E02AF09A95660F771F3B
:101F3000881FDAF7880F9695879597F908959F3F40
:101F400031F0915020F4879577956795B795880F74
:101F5000911D9695879597F908950E94E60DA0F03A
:101F6000BEE7B91788F4BB279F3860F41616B11D79
:101F7000672F782F8827985FF7CF86957795679595
:101F8000B11D93959639C8F308950E94250D08F464
:101F90008FEF0895FA01EE0FFF1F309621053105EE
:101FA000A1F16115710561F48038BFE39B0749F128
:101FB00068949038810561F08038BFEF9B0741F04D
:101FC00099234AF5FF3FE1053105210519F1E89410
:101FD0000894E795D901AA2329F4AB2FBE2FF85F07
:101FE000D0F310C0FF5F70F4A695E0F7F73950F01A
:101FF00019F0FF3A38F49F779F930DD00F9007FCAC
:102000009058089546F00C94BC0D60E070E080E8B4
:102010009FE308954FE79F775F934F933F932F93ED
:102020000E9417112F913F914F915F910E94490D8E
:102030000C946D1019F416F40C94BC0D0C949F0FB5
:102040000E94E60DB8F39923C9F3B6F39F57550BD9
:1020500087FF0E949F100024A0E640EA900180586C
:102060005695979528F4805C660F771F881F20F09F
:1020700026173707480730F4621B730B840B20299F
:1020800031294A2BA69517940794202531254A27F4
:1020900058F7660F771F881F20F026173707480765
:1020A00030F4620B730B840B200D311D411DA09584
:1020B00081F7B901842F9158880F969587950895D7
:1020C0000E94250D880B990B089529F416F00C94A5
:1020D000B60D0C94000E0C94BC0D0E94E60DA8F3F6
:1020E0009638A0F707F80F92E8942BE33AEA48EB0A
:1020F0005FE70E945F0D0F920F920F924DB75EB790
:102100000F920E945F11E8E6F0E00E94A6104F9146
:102110005F91EF91FF91E595EE1FFF1F49F0FE578C
:10212000E0684427EE0F441FFA95E1F74195550BFF
:102130000E94D9100F9007FE0C94CD100895915075
:102140005040660F771F881FD2F70895DF93CF9313
:102150001F930F93FF92EF92DF927B018C016894A3
:1021600006C0DA2EEF010E945C0DFE01E894A591F5
:102170002591359145915591A6F3EF010E94700E7E
:10218000FE019701A801DA9469F7DF90EF90FF90C4
:102190000F911F91CF91DF9108959B01AC0160E0F9
:1021A00070E080E89FE30C94C50E0C94B60D0C947F
:1021B0009F0F0E94E60DD8F39923C9F3940F511D88
:1021C000A3F39150504094F059F0882332F0660FF9
:1021D000771F881F91505040C1F79E3F51052CF743
:1021E000880F911D9695879597F908955F3FACF0FC
:1021F000983E9CF0BB27869577956795B79508F430
:10220000B1609395C1F7BB0F58F711F460FFE8CFA9
:102210006F5F7F4F8F4F9F4FE3CF0C94010E16F0EF
:102220000C949F0F0C94BC0D68940C94B60D0E94F6
:10223000E60DA8F39923C1F3AEF3DF93CF931F9379
:102240000F93FF92C92FDD2788232AF02197660F6D
:10225000771F881FDAF720E030E040E85FEB9FE36C
:10226000883920F0803E38F021968F770E94590EF1
:10227000E0E9F0E004C00E94590EEDEBF0E00E94AE
:10228000A6108B01BE01EC01FB2E6F5771097595ED
:10229000771F880B990B0E94EA0C28E132E741E393
:1022A0005FE30E945C0DAF2D9801AE01FF900F918E
:1022B0001F91CF91DF910E94700E0C94CD0DFA0109
:1022C000DC01AA0FBB1F9B01AC01BF5728F42227DA
:1022D00033274427507820C0B75190F4AB2F002407
:1022E000469537952795011CA395D2F3002071F0F0
:1022F000220F331F441FB395DAF30ED00C94580EFF
:1023000061307105A0E88A07B94630F49B01AC0141
:102310006627772788279078309621F020833183AD
:10232000428353830895A1E21A2EAA1BBB1BFD0111
:102330000DC0AA1FBB1FEE1FFF1FA217B307E407A4
:10234000F50720F0A21BB30BE40BF50B661F771FFC
:10235000881F991F1A9469F76095709580959095DC
:102360009B01AC01BD01CF010895052E97FB1EF422
:1023700000940E94CC1157FD07D00E94931107FCD6
:1023800003D04EF40C94CC11509540953095219586
:102390003F4F4F4F5F4F0895909580957095619591
:1023A0007F4F8F4F9F4F0895B7FF0C94070E0E94E9
:1023B000070E821B930B0895EE0FFF1F0590F491FB
:1023C000E02D09940F931F93CF93DF9382309105F3
:1023D00010F482E090E0E091BE03F091BF0320E0B2
:1023E00030E0A0E0B0E0309719F1408151810281E6
:1023F000138148175907C8F08417950769F4109797
:1024000031F012960C93129713961C9327C00093E9
:10241000BE031093BF0322C02115310519F04217E6
:10242000530718F49A01BD01EF01DF01F801DBCF7A
:1024300021153105F9F0281B390B2430310580F4C2
:102440008A819B816115710521F0FB019383828351
:1024500004C09093BF038093BE03FE01329644C034
:10246000FE01E20FF31F81939193225031093983CA
:1024700028833AC02091BC033091BD03232B41F443
:1024800020910401309105013093BD032093BC03DA
:1024900020910201309103012115310541F42DB73E
:1024A0003EB74091060150910701241B350BE09186
:1024B000BC03F091BD03E217F307A0F42E1B3F0B02
:1024C0002817390778F0AC014E5F5F4F24173507A6
:1024D00048F04E0F5F1F5093BD034093BC038193A0
:1024E000919302C0E0E0F0E0CF01DF91CF911F9126
:1024F0000F910895CF93DF93009709F481C0FC01F9
:10250000329713821282A091BE03B091BF0310973D
:1025100081F420813181820F931F2091BC0330917F
:10252000BD032817390751F5F093BD03E093BC03B1
:1025300067C0ED0120E030E0CE17DF0740F44A81AC
:102540005B819E0141155105F1F0EA01F5CFD3837E
:10255000C28340815181840F951FC817D90759F450
:1025600088819981840F951F0296918380838A8147
:102570009B81938382832115310529F4F093BF0356
:10258000E093BE033DC0E901FB83EA834991599181
:10259000C40FD51FEC17FD0761F480819181840F72
:1025A000951F0296E90199838883828193819B8399
:1025B0008A83E0E0F0E012968D919C91139700974A
:1025C00019F0FD01DC01F7CF8D919C9111979D01D0
:1025D0002E5F3F4F820F931F2091BC033091BD03AC
:1025E0002817390769F4309729F41092BF03109225
:1025F000BE0302C013821282B093BD03A093BC033A
:10260000DF91CF910895A0E0B0E0E9E0F3E10C9410
:10261000160EEC01009721F4CB010E94E211B4C028
:10262000FC01E60FF71F9C0122503109E217F30766
:1026300008F4A8C0D9010D911C911197061717072E
:10264000B0F00530110508F49BC0C8010497861747
:10265000970708F495C002501109061B170B019348
:1026600011936D937C93CF010E947A1289C05B0114
:10267000A01AB10A4C01800E911EA091BE03B09128
:10268000BF03612C712CE12CF12C109709F446C08A
:102690008D919C911197A815B905B1F56C0142E097
:1026A000C40ED11CCA14DB0478F14C018A189B08B3
:1026B000640142E0C40ED11C1296BC90129713968E
:1026C000AC91B5E0CB16D10440F0B282A3839182E5
:1026D0008082D9016D937C9309C00E5F1F4F800FDC
:1026E000911FF90191838083EB2DFA2FE114F104FE
:1026F00031F0D7011396FC93EE93129741C0F093FB
:10270000BF03E093BE033CC06816790608F43C01A1
:102710007D0112960D90BC91A02DB7CF8091BC0386
:102720009091BD0388169906E1F466167706C8F401
:102730008091020190910301009741F48DB79EB7FB
:102740004091060150910701841B950BE817F9078A
:10275000C8F4F093BD03E093BC03F9017183608377
:102760000FC0CB010E94E2117C01009759F0A80133
:10277000BE010E94CE13CE010E947A12C70104C08E
:10278000CE0102C080E090E0CDB7DEB7EEE00C9461
:10279000320E81E090E0F8940C94E713FB01DC0129
:1027A00002C001900D9241505040D8F70895FB01AE
:1027B000DC018D91019080190110D9F3990B0895D6
:1027C000FB01DC0101900D920020E1F7089510E07B
:1027D000C3EAD0E004C0FE010E94DC112196C43A95
:0827E000D107C9F7F894FFCFFF
:1027E800FA000000C0038000000000006201F80742
:1027F800F900AF012A0108011C01000000008B024A
:1028080080029D0254027802640255026F6E52657E
:102818006365697665090072657365740073746130
:10282800727400737461727432004D617800616370
:102838006300616C6C5F64656C617974696D6520B7
:10284800202D3E20006164645F737465702020E56C
:102858008AA0E9809FE5BAA62D3E20006164645FE6
:1028680064656C617974696D6520202D3E20007067
:10287800617261626F6C615F7820202D3E2000E7F5
:10288800AD89E9809FE99A8EE6AEB564656C617999
:1028980074696D6520202D3E2000E6B89BE9809F75
:1028A800E99A8EE6AEB564656C617974696D6520E8
:1028B800202D3E20002D2D3E20536C617665203161
:1028C8002052656164790073656E73657220204FCC
:1028D8004B0072657365742020454E4420000D0A34
:1028E80000554E494F4E2D2D2D537461727400576B
:1028F8006972652E617661696C61626C6500692038
:102908003D200061646400656E64006E616E00695C
:082918006E66006F7666000098
:107E0000112484B714BE81FFF0D085E080938100F7
:107E100082E08093C00088E18093C10086E0809377
:107E2000C20080E18093C4008EE0C9D0259A86E02C
:107E300020E33CEF91E0309385002093840096BBD3
:107E4000B09BFECF1D9AA8958150A9F7CC24DD24C4
:107E500088248394B5E0AB2EA1E19A2EF3E0BF2EE7
:107E6000A2D0813461F49FD0082FAFD0023811F036
:107E7000013811F484E001C083E08DD089C08234E0
:107E800011F484E103C0853419F485E0A6D080C0E4
:107E9000853579F488D0E82EFF2485D0082F10E0AE
:107EA000102F00270E291F29000F111F8ED06801E7
:107EB0006FC0863521F484E090D080E0DECF843638
:107EC00009F040C070D06FD0082F6DD080E0C81688
:107ED00080E7D80618F4F601B7BEE895C0E0D1E017
:107EE00062D089930C17E1F7F0E0CF16F0E7DF06D8
:107EF00018F0F601B7BEE89568D007B600FCFDCFD4
:107F0000A601A0E0B1E02C9130E011968C91119780
:107F100090E0982F8827822B932B1296FA010C0160
:107F200087BEE89511244E5F5F4FF1E0A038BF0790
:107F300051F7F601A7BEE89507B600FCFDCF97BE46
:107F4000E89526C08437B1F42ED02DD0F82E2BD052
:107F50003CD0F601EF2C8F010F5F1F4F84911BD097
:107F6000EA94F801C1F70894C11CD11CFA94CF0C13
:107F7000D11C0EC0853739F428D08EE10CD085E9AC
:107F80000AD08FE07ACF813511F488E018D01DD067
:107F900080E101D065CF982F8091C00085FFFCCF94
:107FA0009093C60008958091C00087FFFCCF809118
:107FB000C00084FD01C0A8958091C6000895E0E648
:107FC000F0E098E1908380830895EDDF803219F02E
:107FD00088E0F5DFFFCF84E1DECF1F93182FE3DFCA
:107FE0001150E9F7F2DF1F91089580E0E8DFEE27F6
:047FF000FF270994CA
:027FFE00040479
:0400000300007E007B
:00000001FF