:1000000008C1000036C1000034C1000032C1000048
:1000100030C100002EC100002CC100002AC1000028
:1000200028C1000026C1000024C1000022C1000038
:1000300020C100001EC100001CC100001AC1000048
:1000400018C1000016C1000014C1000012C1000058
:1000500010C100000EC100000CC1000089C40000E6
:1000600008C1000043C4000018C4000002C1000021
:1000700000C10000FEC00000FCC00000FAC000008B
:10008000F8C00000F6C00000F4C00000F2C000009C
:10009000F0C00000EEC00000ECC00000B3C40000DF
:1000A000E8C00000E6C00000E4C00000E2C00000BC
:1000B000E0C00000DEC00000DCC00000DAC00000CC
:1000C000D8C00000D6C00000D4C00000D2C00000DC
:1000D000D0C00000CEC00000CCC00000CAC00000EC
:1000E000C8C00000D906DC06CB06CF06D30613072E
:1000F000E006E406EA06EE06F206F806FC0600074D
:10010000130706070A070E07000021002400270036
:100110002A002D0030003300010100000401070116
:100120000A0100002200250028002B002E003100CB
:10013000340002010000050108010B010505050559
:10014000070508080808020202020A0A080804044F
:10015000040401010101010101010303030303037D
:100160000303040707070C0C0C0C0C0C0C0C02020C
:10017000020206060606060606060B0B0B0B0B0B09
:100180000B0B010210202008081020401020408096
:10019000020102010804020101020408102040804B
:1001A00080402010080402018004020180402010D9
:1001B0000804020108040201010204081020408022
:1001C000010204081020408000000A0B02090C0DF7
:1001D0000E080703040100000000000000000000FA
:1001E000000000000000000000000000000000000F
:1001F00000000000121110000000000000000000CC
:1002000000000000000000000000000000000D0AD7
:10021000080A11241FBECFEFD1E2DEBFCDBF00E040
:100220000CBF24E0A2E9B2E001C01D92A833B207DE
:10023000E1F712E0A0E0B2E0E2E0FAE100E00BBF9B
:1002400002C007900D92A239B107D9F711E0C8E0BA
:10025000D1E000E006C021970109802FFE010E9435
:10026000BA0AC730D10780E00807A9F7C3D60C94B3
:10027000F00CC6CEE0913303F0913403309729F0AF
:1002800010922A031092290319940895CF93DF93B3
:10029000AC01E0913103F09132033097F1F090918D
:1002A0002C0380912B039817C0F090E0292F30E0A9
:1002B0002617370754F4D901AA56BD4FEA01C20FD9
:1002C000D31F88818C939F5FF1CF10922C03609392
:1002D0002B03CB01DF91CF911994DF91CF9108953A
:1002E000FC01538D448D252F30E0842F90E0821B3C
:1002F000930B541710F0CF96089501970895FC01C1
:10030000918D828D981761F0828DDF01A80FB11D4C
:100310005D968C91928D9F5F9F73928F90E0089570
:100320008FEF9FEF0895FC01918D828D981731F02A
:10033000828DE80FF11D858D90E008958FEF9FEF7E
:100340000895FC01918D228D892F90E0805C9F4F54
:10035000821B91098F73992708958DE393E0F1DF54
:1003600021E0892B09F420E0822F0895FC01848D7F
:10037000DF01A80FB11DA35ABF4F2C91848D90E0CF
:1003800001968F739927848FA689B7892C93A089AA
:10039000B1898C9180648C93938D848D981306C061
:1003A0000288F389E02D80818F7D80830895EF920C
:1003B000FF920F931F93CF93DF93EC0181E0888F1F
:1003C0009B8D8C8D981305C0E889F989808185FD06
:1003D00023C0F62E0B8D10E00F5F1F4F0F731127F8
:1003E000E02E8C8DE8120BC00FB607FCFACFE8891F
:1003F000F989808185FFF5CFCE01B8DFF2CF8B8DF3
:10040000FE01E80FF11DE35AFF4FF0820B8FEA89DE
:10041000FB898081806207C0EE89FF896083E8895B
:10042000F98980818064808381E090E0DF91CF91C1
:100430001F910F91FF90EF900895CF93DF93EC0100
:10044000888D8823C1F0EA89FB89808185FD05C0FC
:10045000A889B9898C9186FD0EC00FB607FCF5CF2F
:10046000808185FFF2CFA889B9898C9185FFEDCF76
:10047000CE017CDFE8CFDF91CF91089580E090E05E
:10048000892B19F06ADF811125C080E090E0892B6B
:1004900041F080E090E0892B21F00E940000811162
:1004A0001CC080E090E0892B41F080E090E0892B37
:1004B00021F00E940000811113C080E090E0892BA0
:1004C000A1F080E090E0892B81F00E940000811172
:1004D0000AC008950E940000D8CF0E940000E1CF1A
:1004E0000E940000EACF0C940000089585ED8093EF
:1004F000BC008091BC0084FDFCCF109228030895BD
:100500004091D602262F30E0240F311D21323105D3
:10051000DCF4209128032430C9F4FC0180E090E051
:10052000861758F43091D6022191DC01AA54BD4FB0
:10053000A30FB11D2C930196F3CF8091D602680FC3
:100540006093D60280E0089581E0089582E00895E6
:100550000895E0912C0380912B03E81730F4F0E02C
:10056000EA56FD4F808190E008958FEF9FEF089548
:1005700090912C0380912B03981750F4E92FF0E011
:10058000EA56FD4F208130E09F5F90932C0302C01C
:100590002FEF3FEFC901089580912B0390E0209148
:1005A0002C03821B91090895CF93DF931F921F9212
:1005B000CDB7DEB7CB01642F49835A83A1DF4981D0
:1005C000842F5A81952F0F900F90DF91CF9108952E
:1005D000CF93DF931F92CDB7DEB7698361E0CE0181
:1005E00001968EDF81E090E00F90DF91CF9108952A
:1005F000089580E090E00895809194029091950292
:10060000019789F46AE272E08DE393E0E1D461E05E
:1006100082E294E0DDDF1092930210929202109237
:1006200095021092940208950E94D30C0F931F9389
:10063000CF93DF93CDB7DEB768970FB6F894DEBFE0
:100640000FBECDBF67E372E08DE393E0C1D490911C
:100650002B0380912C03981709F465C06BE372E0BB
:100660008DE393E0B5D40EE913E090912B038091D4
:100670002C03981709F457C082E294E079DF1C8AB2
:100680001B8A1E8A1D8A188E1F8A4AE0BE016F5F70
:100690007F4F1BD7BE016F5F7F4FCE01439627D49C
:1006A00080912E0490912F04009779F06B897C89BA
:1006B0006115710549F040913004509131042F8942
:1006C000388D4217530730F5F2D78B899C89909368
:1006D0002F0480932E048D899E89909331048093FA
:1006E00030048F89988D90933304809332041C8A50
:1006F0001B8A1E8A1D8A188E1F8A8B899C89D7D7D0
:1007000069E672E08EE294E0F2D310933203009334
:100710003103ABCF0E94E90C8F89988D90933304FD
:1007200080933204E8CF68960FB6F894DEBF0FBE10
:10073000CDBFDF91CF911F910F910895FF920F933D
:100740001F93CF93DF93CDB7DEB728970FB6F894FA
:10075000DEBF0FBECDBF6FE372E08DE393E038D410
:10076000F0902B0380912C03F81609F48AC0809135
:100770002C03F81609F44BC082E294E0F9DE182F3E
:100780001A8219821C821B821E821D8260912E0495
:1007900070912F046115710541F040913204509120
:1007A0003304CE01019685D303C0CE01019670D3E8
:1007B0001F8318860D811E810F5F1F4FB801CE0168
:1007C000019640D3882371F029813A818D819E81E1
:1007D000BE01695F7F4F820F931F0E94E90C1E8349
:1007E0000D8303C0CE01019653D369817A816115CF
:1007F000710531F04D815E818EE294E05AD303C0E1
:100800008EE294E045D389819A8151D7B0CF80910F
:10081000320490913304892BA1F06AE472E0809154
:100820002E0490912F040E94E00C892B51F46AE46D
:1008300072E08DE393E0CCD369E672E08EE294E05F
:1008400056D38091320490913304892BD1F061E525
:1008500072E080912E0490912F040E94E00C892B6D
:1008600081F486E193E0909332038093310361E554
:1008700072E08DE393E0ACD369E672E08EE294E03F
:1008800036D328960FB6F894DEBF0FBECDBFDF91EA
:10089000CF911F910F91FF9008951F920F920FB665
:1008A0000F9211240BB60F922F933F934F935F93A8
:1008B0006F937F938F939F93AF93BF93EF93FF9328
:1008C0008DE393E053DDFF91EF91BF91AF919F9145
:1008D0008F917F916F915F914F913F912F910F90E9
:1008E0000BBE0F900FBE0F901F9018951F920F9286
:1008F0000FB60F9211240BB60F922F938F939F93E5
:10090000EF93FF93E0914D03F0914E038081E091CE
:100910005303F091540382FD12C0908180915603DD
:100920008F5F8F7320915703821751F0E091560328
:10093000F0E0E35CFC4F958F8093560301C080810B
:10094000FF91EF919F918F912F910F900BBE0F9080
:100950000FBE0F901F9018952FB7F8946091220347
:100960007091230380912403909125032FBF089554
:100970001F920F920FB60F9211242F933F938F93D4
:100980009F93AF93BF938091220390912303A091F3
:100990002403B09125033091210323E0230F2D3749
:1009A00020F40196A11DB11D05C026E8230F029673
:1009B000A11DB11D20932103809322039093230353
:1009C000A0932403B093250380911D0390911E03EF
:1009D000A0911F03B09120030196A11DB11D80932A
:1009E0001D0390931E03A0931F03B0932003BF9198
:1009F000AF919F918F913F912F910F900FBE0F90CC
:100A00001F9018951F920F920FB60F9211240BB6DC
:100A10000F922F933F934F935F936F937F938F9397
:100A20009F93AF93BF93EF93FF938091B900887F1B
:100A3000803609F49CC068F5883209F45BC090F4F4
:100A4000803109F454C038F4882309F4F6C08830A2
:100A500009F44DC0F5C0883109F44CC0803209F466
:100A60005DC0EEC0803409F468C048F4803309F4F6
:100A700055C0883309F0E4C08093F902D8C08035AE
:100A800009F44FC0883509F45DC0883409F0D8C036
:100A9000D6C0883909F4C7C0A8F4883709F467C0FC
:100AA00038F4883609F463C0803709F460C0C8C0E0
:100AB000883809F4B8C0803909F45FC0803809F07B
:100AC000BFC05BC0803B09F486C038F4803A09F4AB
:100AD00066C0883A09F47FC0B3C0803C09F4A7C05F
:100AE000883C09F4A4C0883B09F48AC0A9C080915D
:100AF0001C0310C090911B0380911A03981770F586
:100B0000E0911B0381E08E0F80931B03F0E0E65021
:100B1000FD4F80818093BB0085EC86C08093F902F5
:100B20008EC0E0911B0381E08E0F80931B038091A8
:100B3000BB00F0E0E650FD4F808390911B03809155
:100B40001A036EC0E0911B0381E08E0F80931B039C
:100B50008091BB00F0E0E650FD4F80838091270339
:100B600081116DC081E08093260384EA61C083E037
:100B7000809328031092F802CFCF8091F802803240
:100B800008F051C0E091F80281E08E0F8093F802E6
:100B90008091BB00F0E0E852FD4F8083BDCF85EC33
:100BA0008093BC00109228038091F802803230F4C8
:100BB000E091F802F0E0E852FD4F10826091F802F7
:100BC00070E0E0912D03F0912E0388ED92E01995ED
:100BD0001092F80235C084E0809328031092D70267
:100BE0001092D602E0912F03F09130031995809175
:100BF000D602811105C081E08093D6021092B60220
:100C0000E091D70281E08E0F8093D702F0E0EA54A2
:100C1000FD4F80818093BB009091D7028091D602D6
:100C2000981708F479CF85E88093BC0009C085EC5B
:100C30008093BC001092280303C01092F90256DC86
:100C4000FF91EF91BF91AF919F918F917F916F91A4
:100C50005F914F913F912F910F900BBE0F900FBE60
:100C60000F901F9018950895CF92DF92EF92FF9208
:100C70000F931F93CF93DF936C017A018B01C0E038
:100C8000D0E0CE15DF0589F0D8016D918D01D60138
:100C9000ED91FC910190F081E02DC6011995892B11
:100CA00011F47E0102C02196ECCFC701DF91CF91F4
:100CB0001F910F91FF90EF90DF90CF9008958F924A
:100CC0009F92AF92BF92CF92DF92EF92FF926B0111
:100CD0007C0142DE4B015C01C60ED71EE81EF91EE8
:100CE0003BDE681579058A059B0528F0C616D706F0
:100CF000E806F906A8F7FF90EF90DF90CF90BF903D
:100D0000AF909F908F900895EDE3F3E0A089B189B3
:100D100082E08C93A485B5851C92A685B7858FEC5F
:100D20008C93108EA489B58986E08C93A289B389AF
:100D30008C9180618C93A289B3898C9188608C930B
:100D4000A289B3898C9180688C930288F389E02D05
:100D500080818F7D8083089590E0FC01E853FE4FF1
:100D60004491FC01EE57FE4F2491FC01E45CFE4FE0
:100D70009491992309F465C0442309F454C050E0C8
:100D8000FA013197E231F10508F04DC08827EE589D
:100D9000FF4F8F4FEFC3809180008F7707C0809106
:100DA00080008F7D03C080918000877F80938000CA
:100DB0003AC084B58F7702C084B58F7D84BD33C0BF
:100DC0008091B0008F7703C08091B0008F7D8093B9
:100DD000B00029C0809190008F7707C0809190006B
:100DE0008F7D03C080919000877F809390001BC00F
:100DF0008091A0008F7707C08091A0008F7D03C0F5
:100E00008091A000877F8093A0000DC08091200179
:100E10008F7707C0809120018F7D03C080912001D2
:100E2000877F80932001E92FF0E0EE0FFF1FEE5D3A
:100E3000FE4FA591B4918FB7F894EC912E2B2C9383
:100E40008FBF08950F931F93CF93DF93EC01888199
:100E50009981009729F02A813B812617370780F472
:100E60008B016F5F7F4FBBD4009761F099838883BC
:100E70001B830A832C813D81232B11F4FC011082FA
:100E800081E001C080E0DF91CF911F910F91089523
:100E9000CF93DF93EC0188819981009709F007D403
:100EA000198218821D821C821B821A82DF91CF91C7
:100EB0000895EF92FF920F931F93CF93DF93EC016E
:100EC0007B018A01BA01BEDF811103C0CE01E0DFE0
:100ED00006C01D830C83B701888199817AD5CE0124
:100EE000DF91CF911F910F91FF90EF900895CF93D5
:100EF000DF93EC016115710551F0FB0101900020B9
:100F0000E9F73197AF01461B570BD3DF01C0C0DFB4
:100F1000CE01DF91CF9108956115710579F0FB0144
:100F200001900020E9F73197AF01461B570BDC0118
:100F3000ED91FC910280F381E02D199480E090E026
:100F400008954F925F926F927F92EF92FF920F936C
:100F50001F93CF93DF93CDB7DEB7A1970FB6F89469
:100F6000DEBF0FBECDBF7C01FA01CB0119A222303A
:100F700008F42AE08E010F5D1F4F422E512C612C88
:100F8000712CBF01A3019201D3D2F901CA01015012
:100F900011096A3014F4605D01C0695CD8016C937A
:100FA000232B242B252B69F7B801C701B5DFA196A8
:100FB0000FB6F894DEBF0FBECDBFDF91CF911F916A
:100FC0000F91FF90EF907F906F905F904F900895FA
:100FD0000F931F93CF93DF93EC019EDF8C0167E6A5
:100FE00072E0CE0199DF800F911FDF91CF911F91A9
:100FF0000F910895789484B5826084BD84B5816032
:1010000084BD85B5826085BD85B5816085BD8091D3
:101010006E00816080936E0010928100809181004B
:101020008260809381008091810081608093810043
:10103000809180008160809380008091B100846005
:101040008093B1008091B00081608093B000809166
:1010500091008260809391008091910081608093E3
:101060009100809190008160809390008091A10018
:1010700082608093A1008091A10081608093A10093
:101080008091A00081608093A00080912101826006
:1010900080932101809121018160809321018091C1
:1010A000200181608093200180917A008460809388
:1010B0007A0080917A00826080937A0080917A0031
:1010C000816080937A0080917A00806880937A00B2
:1010D0001092C10010921E0410921F04109220045E
:1010E000109221041092DC031092DD031092DE03B3
:1010F0001092DF0368EB7BE080E090E0E0DD8DE3C1
:1011000093E090931D0480931C04FEDD25DC609326
:10111000DC037093DD038093DE039093DF0368E5C7
:1011200072E080911C0490911D04F6DE6AE070E08C
:1011300080E090E0C4DD81E08093F00392E0909342
:10114000BA002AE331E03093300320932F0326E4E2
:1011500031E030932E0320932D0310922C03109234
:101160002B0310922A0310922903109228038093D4
:1011700027031092260384E1EFDD85E1EDDD809108
:10118000B9008E7F8093B9008091B9008D7F8093E4
:10119000B90088E48093B80085E48093BC008EE9B0
:1011A00093E090933203809331038CEF92E090931D
:1011B000340380933303A8DD6AE672E08DE393E0A5
:1011C00007DFE2E8F1E02491ECE3F1E08491882389
:1011D000C1F090E0880F991FFC01E85FFE4FC591B8
:1011E000D491FC01EE5DFE4FA591B4919FB7F894A8
:1011F0008881E22FE0958E2388838C91E823EC93FD
:101200009FBF84EF882E99249394A12CB12CA4DB4A
:10121000672B682B692B39F49FDB623071058105E0
:10122000910508F4F3C098DB6093390370933A0397
:1012300080933B0390933C03C0903503D0903603DA
:10124000E0903703F09038036C157D058E059F05FF
:1012500040F4609335037093360380933703909383
:101260003803C0903503D0903603E0903703F090F8
:1012700038039B01AC012C193D094E095F09690136
:101280007A013AEFC316D104E104F10408F4BEC0B8
:10129000609335037093360380933703909338033C
:1012A0008092E8039092E903A092EA03B092EB03E4
:1012B0001092EC031092ED031092EE031092EF03E4
:1012C0008091E0039091E103A091E203B091E303E8
:1012D0008093E4039093E503A093E603B093E703C0
:1012E0003BDB6093E0037093E1038093E203909310
:1012F000E30332DB6093DC037093DD038093DE0352
:101300009093DF0329DB6B017C016DE772E0809134
:101310001C0490911D0400DE2AE041E050E060E0F2
:1013200070E080911C0490911D040BDE64E872E073
:1013300080911C0490911D04EFDD2AE0B701A60105
:1013400080911C0490911D04FCDD66E872E08091A0
:101350001C0490911D04E0DD8091E0039091E10375
:10136000A091E203B091E303B701A601481B590B1A
:101370006A0B7B0B2AE080911C0490911D04E1DD37
:1013800066E872E080911C0490911D04C5DD4091D7
:10139000E0035091E1036091E2037091E3038091D7
:1013A000E4039091E503A091E603B091E703481BA5
:1013B000590B6A0B7B0B2AE080911C0490911D0451
:1013C000C0DD68E872E080911C0490911D04A4DDEA
:1013D000C3DAAB01BC012AE080911C0490911D048A
:1013E000B0DD6AE872E080911C0490911D04F0DD8C
:1013F00065E070E080E090E062DCAEDA6093E003EC
:101400007093E1038093E2039093E30337D8FFCE18
:1014100080912E0490912F044AC1EDE3F3E01382F2
:10142000128288EE93E0A0E0B0E084839583A683E7
:10143000B7832AE032E03183208325EC30E0358722
:10144000248724EC30E03787268720EC30E0318B8E
:10145000208B21EC30E0338B228B22EC30E0358B7B
:10146000248B26EC30E0378B268B118E128E138E58
:10147000148EEAEDF3E0168217821086118612862A
:1014800013861486158616861786108A118A128A84
:10149000138A148A158AE2E2F4E0138212828483AA
:1014A0009583A683B7838CE192E091838083EEE2FB
:1014B000F4E011821082138212821582148240E0BD
:1014C00050E069E672E0CF01F4CCBB274A3031F43A
:1014D000992322F4BDE2909581959F4F01C0BB27CF
:1014E000FB015527AA27880F991FAA1FA41710F0E0
:1014F000A41B83955051B9F7A05DAA3308F0A95DEC
:10150000A193009779F7B111B1931192CB0100C06B
:10151000DC01FC01672F71917723E1F7329704C05A
:101520007C916D9370836291AE17BF07C8F30895E5
:10153000A1E21A2EAA1BBB1BFD010DC0AA1FBB1FD7
:10154000EE1FFF1FA217B307E407F50720F0A21B49
:10155000B30BE40BF50B661F771F881F991F1A94B6
:1015600069F760957095809590959B01AC01BD01E0
:10157000CF010895EE0FFF1F881F8BBF0790F691D4
:10158000E02D1994CF93DF938230910510F482E01F
:1015900090E0E0913604F091370420E030E0C0E0C4
:1015A000D0E0309711F14081518148175907C0F0C0
:1015B0004817590761F482819381209719F09B8322
:1015C0008A832BC0909337048093360426C021155C
:1015D000310519F04217530718F49A01BE01DF01D3
:1015E000EF010280F381E02DDCCF2115310509F1F7
:1015F000281B390B2430310590F412968D919C9163
:1016000013976115710521F0FB019383828304C058
:101610009093370480933604FD01329644C0FD0157
:10162000E20FF31F81939193225031092D933C9344
:101630003AC02091340430913504232B41F4209199
:101640000202309103023093350420933404209138
:101650000002309101022115310541F42DB73EB74A
:101660004091040250910502241B350BE091340493
:10167000F0913504E217F307A0F42E1B3F0B281757
:10168000390778F0AC014E5F5F4F2417350748F0FB
:101690004E0F5F1F50933504409334048193919310
:1016A00002C0E0E0F0E0CF01DF91CF9108950F9309
:1016B0001F93CF93DF93009709F48CC0FC013297FE
:1016C000138212820091360410913704011511051E
:1016D00081F420813181820F931F20913404309155
:1016E00035042817390779F5F0933504E09334046D
:1016F00071C0D80140E050E0AE17BF0750F4129619
:101700002D913C911397AD012115310509F1D901B6
:10171000F3CF9D01DA013383228360817181860FCB
:10172000971F8217930769F4EC0128813981260FEE
:10173000371F2E5F3F4F318320838A819B819383A4
:101740008283452B29F4F0933704E093360442C09A
:101750001396FC93EE931297ED01499159919E01D6
:10176000240F351FE217F30771F480819181840FF4
:10177000951F029611969C938E9382819381139666
:101780009C938E931297E0E0F0E0D80112968D9131
:101790009C911397009719F0F8018C01F6CF8D9169
:1017A0009C9198012E5F3F4F820F931F209134042C
:1017B000309135042817390769F4309729F41092CD
:1017C00037041092360402C013821282109335043B
:1017D00000933404DF91CF911F910F9108956F9280
:1017E0007F928F929F92AF92BF92CF92DF92EF92B1
:1017F000FF920F931F93CF93DF93EC01009781F437
:10180000CB01DF91CF911F910F91FF90EF90DF906F
:10181000CF90BF90AF909F908F907F906F90B2CEFF
:10182000FC01E60FF71F9C0122503109E217F30774
:1018300008F4A8C0D9010D911C911197061717073C
:10184000A8F00530110508F49BC0C801049786175D
:10185000970708F495C002501109061B170B019356
:1018600011936D937C93CF0122DF8AC05B01A01A94
:10187000B10A4C01800E911EA0913604B09137043C
:1018800040E050E0E12CF12C109709F44AC0A81573
:10189000B905D1F56D907C901197630182E0C80E77
:1018A000D11CCA14DB0480F1A3014A195B096A0147
:1018B00082E0C80ED11C1296BC9012971396AC9180
:1018C000B5E0CB16D10440F0B282A38351834083AC
:1018D000D9016D937C930AC00E5F1F4FC301800F27
:1018E000911FF90191838083EB2DFA2FE114F1040C
:1018F00031F0D7011396FC93EE93129741C0F09309
:101900003704E09336043CC08D919C9111974817A1
:10191000590708F4AC017D0112960D90BC91A02DE1
:10192000B3CF809134049091350488159905E1F482
:1019300046175707C8F48091000290910102009762
:1019400041F48DB79EB74091040250910502841B6B
:10195000950BE817F907B0F4F0933504E0933404DD
:10196000F901718360830CC0CB010CDE7C01009710
:1019700049F0A801BE011BD0CE0199DEC70104C009
:10198000CE0102C080E090E0DF91CF911F910F91D6
:10199000FF90EF90DF90CF90BF90AF909F908F908F
:1019A0007F906F90089581E090E0F89419C0FB015A
:1019B000DC0102C001900D9241505040D8F70895CB
:1019C000FB01DC018D91019080190110D9F3990B75
:1019D0000895FB01DC0101900D920020E1F70895CC
:1019E00011E0C8E0D1E000E005C0802FFE01C2DDBB
:1019F0002196011DC930D10780E00807B1F7F8949E
:021A0000FFCF16
:101A020000003804800000000000D7013406700195
:101A12001D02A1017F01930100000000E802D4022F
:101A2200F902A802CC02B802A90272657175657347
:101A3200744576656E7400313233003332310044BE
:101A420065677265655475726E006B6576696E3195
:101A5200006B6576696E3200564D4450565F317C9C
:101A6200315F564D4450560D0A004932432D2D53D5
:101A7200616C7665312D2D2D7465737400564D445D
:101A820050455F003A323A007C005F564D44504563
:021A9200000052
:00000001FF
