:1000000032C1000060C100005EC100005CC10000A0
:100010005AC1000058C1000056C1000054C1000080
:1000200052C1000050C100004EC100004CC1000090
:100030004AC1000048C1000046C1000044C10000A0
:1000400042C1000040C100003EC100003CC10000B0
:100050003AC1000038C1000036C1000067C300008B
:1000600032C1000021C30000F6C200002CC1000014
:100070002AC1000028C1000026C1000024C10000E0
:1000800022C1000020C100001EC100001CC10000F0
:100090001AC1000018C1000016C1000091C3000081
:1000A00012C1000010C100000EC100000CC1000010
:1000B0000AC1000008C1000006C1000004C1000020
:1000C00002C1000000C10000FEC00000FCC0000032
:1000D000FAC00000F8C00000F6C00000F4C0000044
:1000E000F2C0000069066C065B065F066306A306A5
:1000F000700674067A067E06820688068C069006CE
:10010000A30696069A069E06084AD73B3BCE016E8A
:1001100084BCBFFDC12F3D6C74319ABD56833DDA5E
:100120003D00C77F11BED9E4BB4C3E916BAAAABE6D
:10013000000000803F072C7AA5BA6CC590DA3B938B
:1001400065FC8BBC53F810FD3C5692834DBD879DDA
:100150003AB63DCBC9BF5BBE73DA0FC93F000000A2
:100160000A0B02090C0D0E08070304010000000031
:10017000000000000000000000000000000000007F
:10018000000000000000000000001211100000003C
:10019000000000000000000000000000000000005F
:1001A0000000000000002200250028002B002E0087
:1001B0003100340002010000050108010B010000BC
:1001C0002100240027002A002D0030003300010107
:1001D0000000040107010A010505050507050808D7
:1001E0000808020202020A0A0808040404040101C1
:1001F00001010101010103030303030303030407D6
:1002000007070C0C0C0C0C0C0C0C0202020206066C
:100210000606060606060B0B0B0B0B0B0B0B01025F
:100220001020200808102040102040800201020108
:1002300008040201010204081020408080402010C0
:100240000804020180040201804020100804020119
:100250000804020101020408102040800102040881
:10026000102040805E0D11241FBECFEFD1E2DEBF13
:10027000CDBF00E00CBF25E0A6EAB3E001C01D92AF
:10028000AE38B207E1F713E0A0E0B2E0E4E1F2E259
:1002900000E00BBF02C007900D92A63AB107D9F754
:1002A00011E0C3E3D1E000E006C021970109802FEF
:1002B000FE010E94E810C233D10780E00807A9F7C9
:1002C00048D70C9408119CCEFC01538D448D252FEA
:1002D00030E0842F90E0821B930B541710F0CF96E0
:1002E000089501970895FC01918D828D981761F012
:1002F000828DDF01A80FB11D5D968C91928D9F5F5D
:100300009F73928F90E008958FEF9FEF0895FC0107
:10031000918D828D981731F0828DE80FF11D858DBA
:1003200090E008958FEF9FEF0895FC01918D228D4D
:10033000892F90E0805C9F4F821B91098F739927D2
:1003400008958DE994E0F1DF21E0892B09F420E0A4
:10035000822F0895FC01848DDF01A80FB11DA35ADF
:10036000BF4F2C91848D90E001968F739927848FD5
:10037000A689B7892C93A089B1898C9180648C93CC
:10038000938D848D981306C00288F389E02D8081B7
:100390008F7D80830895EF92FF920F931F93CF93E9
:1003A000DF93EC0181E0888F9B8D8C8D981305C0C5
:1003B000E889F989808185FD23C0F62E0B8D10E038
:1003C0000F5F1F4F0F731127E02E8C8DE8120BC0AB
:1003D0000FB607FCFACFE889F989808185FFF5CF50
:1003E000CE01B8DFF2CF8B8DFE01E80FF11DE35A8D
:1003F000FF4FF0820B8FEA89FB898081806207C002
:10040000EE89FF896083E889F9898081806480832F
:1004100081E090E0DF91CF911F910F91FF90EF90DD
:100420000895CF93DF93EC01888D8823C1F0EA898A
:10043000FB89808185FD05C0A889B9898C9186FDDD
:100440000EC00FB607FCF5CF808185FFF2CFA889DB
:10045000B9898C9185FFEDCFCE017CDFE8CFDF91AC
:10046000CF91089580E090E0892B19F06ADF811127
:1004700025C080E090E0892B41F080E090E0892B5E
:1004800021F00E94000081111CC080E090E0892BC7
:1004900041F080E090E0892B21F00E940000811162
:1004A00013C080E090E0892BA1F080E090E0892BE0
:1004B00081F00E94000081110AC008950E9400008E
:1004C000D8CF0E940000E1CF0E940000EACF0C9438
:1004D0000000089585ED8093BC008091BC0084FDF0
:1004E000FCCF1092780408954091C803262F30E085
:1004F000240F311D21323105DCF4209178042430A1
:10050000C9F4FC0180E090E0861758F43091C803EC
:100510002191DC01AA55BC4FA30FB11D2C9301966C
:10052000F3CF8091C803680F6093C80380E00895FB
:1005300081E0089582E008950895E0911B04809180
:100540001A04E81730F4F0E0E45EFB4F808190E09D
:1005500008958FEF9FEF089590911B0480911A04E6
:10056000981750F4E92FF0E0E45EFB4F208130E073
:100570009F5F90931B0402C02FEF3FEFC9010895C6
:1005800080911A0490E020911B04821B9109089528
:10059000CF92DF92EF92FF920F931F93CF93DF934F
:1005A0007C01262F972F8A0180917904882391F06E
:1005B000C62FD72F6E01C40ED51ECC15DD0569F0F0
:1005C0006991D701ED91FC910190F081E02DC70177
:1005D0001995F3CF642F822F87DFC801DF91CF9168
:1005E0001F910F91FF90EF90DF90CF900895CF93E0
:1005F000DF931F92CDB7DEB7698320917904222360
:10060000D1F020919C04203240F021E030E0FC0148
:100610003383228380E090E014C080917A04E82F35
:10062000F0E0E558FB4F998190838F5F80937A04C7
:1006300080939C0404C061E0CE01019655DF81E007
:1006400090E00F90DF91CF910895089580E090E0C1
:1006500008950E9404111F920F920FB60F92112459
:100660000BB60F922F933F934F935F936F937F93AC
:100670008F939F93AF93BF93EF93FF938DE994E094
:1006800069DEFF91EF91BF91AF919F918F917F9123
:100690006F915F914F913F912F910F900BBE0F90F3
:1006A0000FBE0F901F9018951F920F920FB60F92CA
:1006B00011240BB60F922F938F939F93EF93FF9379
:1006C000E091AD04F091AE048081E091B304F0912B
:1006D000B40482FD12C090818091B6048F5F8F7345
:1006E0002091B704821751F0E091B604F0E0E35690
:1006F000FB4F958F8093B60401C08081FF91EF91ED
:100700009F918F912F910F900BBE0F900FBE0F9066
:100710001F9018952FB7F8946091F2037091F3032E
:100720008091F4039091F5032FBF08951F920F92CB
:100730000FB60F9211242F933F938F939F93AF93F4
:10074000BF938091F2039091F303A091F403B091D1
:10075000F5033091F10323E0230F2D3720F40196A8
:10076000A11DB11D05C026E8230F0296A11DB11DD4
:100770002093F1038093F2039093F303A093F40387
:10078000B093F5038091ED039091EE03A091EF03F8
:10079000B091F0030196A11DB11D8093ED039093DC
:1007A000EE03A093EF03B093F003BF91AF919F913D
:1007B0008F913F912F910F900FBE0F901F90189522
:1007C0001F920F920FB60F9211240BB60F922F9318
:1007D0003F934F935F936F937F938F939F93AF93C9
:1007E000BF93EF93FF938091B900887F803609F41F
:1007F0009CC068F5883209F45BC090F4803109F43C
:1008000054C038F4882309F4F6C0883009F44DC088
:10081000F5C0883109F44CC0803209F45DC0EEC0E7
:10082000803409F468C048F4803309F455C0883333
:1008300009F0E4C080937604D8C0803509F44FC035
:10084000883509F45DC0883409F0D8C0D6C088392D
:1008500009F4C7C0A8F4883709F467C038F48836AB
:1008600009F463C0803709F460C0C8C0883809F44F
:10087000B8C0803909F45FC0803809F0BFC05BC0E0
:10088000803B09F486C038F4803A09F466C0883A9F
:1008900009F47FC0B3C0803C09F4A7C0883C09F4C8
:1008A000A4C0883B09F48AC0A9C08091530410C039
:1008B0009091750480917404981770F5E091750417
:1008C00081E08E0F80937504F0E0EC5AFB4F80813D
:1008D0008093BB0085EC86C0809376048EC0E09147
:1008E000750481E08E0F809375048091BB00F0E069
:1008F000EC5AFB4F808390917504809174046EC014
:10090000E091750481E08E0F809375048091BB00A7
:10091000F0E0EC5AFB4F80838091770481116DC029
:1009200081E08093520484EA61C083E0809378047C
:100930001092EC03CFCF8091EC03803208F051C0CD
:10094000E091EC0381E08E0F8093EC038091BB007B
:10095000F0E0E453FC4F8083BDCF85EC8093BC0076
:10096000109278048091EC03803230F4E091EC0333
:10097000F0E0E453FC4F10826091EC0370E0E091F2
:10098000CA03F091CB038CEC93E019951092EC0321
:1009900035C084E0809378041092C9031092C80394
:1009A000E091C603F091C70319958091C8038111A6
:1009B00005C081E08093C8031092A603E091C903AB
:1009C00081E08E0F8093C903F0E0EA55FC4F8081EF
:1009D0008093BB009091C9038091C803981708F4D5
:1009E00079CF85E88093BC0009C085EC8093BC007A
:1009F0001092780403C0109276046CDDFF91EF91A1
:100A0000BF91AF919F918F917F916F915F914F9126
:100A10003F912F910F900BBE0F900FBE0F901F9024
:100A200018956115710579F0FB0101900020E9F737
:100A30003197AF01461B570BDC01ED91FC91028011
:100A4000F381E02D199480E090E00895CF93109207
:100A500016041092170410921804109219041092A0
:100A60000A0410920B0410920C0410920D04A2E0E0
:100A7000B4E01D921D921D921C921397EEE0F4E0DB
:100A8000108211821282138214961D921D921D9261
:100A90001C9217971482158216821782C1E0C093A8
:100AA0007904C0939B0410927A0410929C0483E012
:100AB00090E0B3D061E372E082E895E0B2DF52D11A
:100AC000C0937904C0939B0410927A0410929C0402
:100AD00080E090E0A2D083E090E09FD043D165E336
:100AE00072E08DE994E024D3C093790482E080938E
:100AF0009B0410927A0410929C0483E090E08DD0C5
:100B0000CF9130C1CF92DF92EF92FF920F931F935C
:100B1000CF93DF936C017A018B01C0E0D0E0CE155A
:100B2000DF0589F0D8016D918D01D601ED91FC9121
:100B30000190F081E02DC6011995892B11F47E01F9
:100B400002C02196ECCFC701DF91CF911F910F9189
:100B5000FF90EF90DF90CF9008950F931F93DADD11
:100B60006093A5047093A6048093A7049093A804AF
:100B7000E0919D04F0919E040484F585E02D8DE9BB
:100B800094E0199597FF1EC0C5DD0091A504109152
:100B9000A6042091A7043091A804DC01CB01801B9E
:100BA000910BA20BB30B0091A1041091A204209110
:100BB000A3043091A40480179107A207B307C0F2E1
:100BC0008FEF9FEF1F910F910895EDE9F4E0A08959
:100BD000B18982E08C93A485B5851C92A685B785E2
:100BE0008FEC8C93108EA489B58986E08C93A289B2
:100BF000B3898C9180618C93A289B3898C91886030
:100C00008C93A289B3898C9180688C930288F38934
:100C1000E02D80818F7D80830895682F82E895E0A4
:100C2000E6CCE0919D04F0919E040190F081E02DCE
:100C3000682F8DE994E0199490E0FC01E25EFD4F8D
:100C40002491FC01E852FE4F8491882399F090E0B2
:100C5000880F991FFC01E254FE4FA591B491FC014D
:100C6000EC55FE4F859194918FB7F894EC91E22B5F
:100C7000EC938FBF089590E0FC01E25AFE4F44913F
:100C8000FC01E25EFD4F2491FC01E852FE4F94917D
:100C9000992309F466C0442309F455C050E0FA01D1
:100CA0003197E231F10508F04EC08827EE58FF4F2A
:100CB0008F4F0C94E810809180008F7707C080914F
:100CC00080008F7D03C080918000877F80938000AB
:100CD0003AC084B58F7702C084B58F7D84BD33C0A0
:100CE0008091B0008F7703C08091B0008F7D80939A
:100CF000B00029C0809190008F7707C0809190004C
:100D00008F7D03C080919000877F809390001BC0EF
:100D10008091A0008F7707C08091A0008F7D03C0D5
:100D20008091A000877F8093A0000DC0809120015A
:100D30008F7707C0809120018F7D03C080912001B3
:100D4000877F80932001E92FF0E0EE0FFF1FEC5525
:100D5000FE4FA591B4918FB7F894EC912E2B2C9364
:100D60008FBF089520919C0490919B04213208F03C
:100D70004AC0809178048111FCCF32E0309378042E
:100D800031E0309377043FEF30937604109275048E
:100D900020937404ABE7B4E044E554E0FA013E2F3D
:100DA000341B321718F43D913193F9CF109253044C
:100DB00020915304990F922B9093530490915204D5
:100DC000913061F410925204909153049093BB00BF
:100DD0009091BC0093FDF8CF95EC01C095EE9093F7
:100DE000BC00909178049230E1F3909176049F3F9B
:100DF00079F080917604803241F0809176048033DE
:100E000031F084E005C081E003C082E001C083E0EE
:100E100010927A0410929C04109279040895FF9223
:100E20000F931F93CF93DF9300D01F92CDB7DEB700
:100E300094DEFC0197FD11C08D32910591F0C097B1
:100E40000A9778F0E0919D04F0919E040284F38566
:100E5000E02D8DE994E01995EBCF60E070E0CB01D7
:100E60004AC020E030E0A901F12CE130F105E9F0C1
:100E7000ED32F105C1F0CF01C0970A97B0F4AAE0B6
:100E8000B0E0A2D78F01FF0F220B330BDC01CB01A7
:100E9000800F911FA21FB31F9C01AD012053310988
:100EA0004109510902C0FF24F394E0919D04F0919F
:100EB0009E040284F385E02D8DE994E029833A8332
:100EC0004B835C83199549DEFC01C09729813A81E7
:100ED0004B815C810A9748F2E130F10531F2FF2045
:100EE00041F066277727CB01621B730B840B950BB0
:100EF00002C0CA01B9010F900F900F900F90DF91BF
:100F0000CF911F910F91FF9008954F925F926F9232
:100F10007F92EF92FF920F931F93CF93DF93CDB702
:100F2000DEB7A1970FB6F894DEBF0FBECDBF7C0130
:100F3000FA01CB0119A2223008F42AE08E010F5DDC
:100F40001F4F422E512C612C712CBF01A301920125
:100F500019D7F901CA01015011096A3014F4605D12
:100F600001C0695CD8016C93232B242B252B69F7D6
:100F7000B801C70156DDA1960FB6F894DEBF0FBECB
:100F8000CDBFDF91CF911F910F91FF90EF907F9098
:100F90006F905F904F9008954F925F926F927F9203
:100FA0008F929F92AF92BF92CF92DF92EF92FF9279
:100FB0006B017C01B42E9B01AC010E94BC10882304
:100FC00019F06AE973E026C026013701E89477F842
:100FD0002FEF3FEF4FE75FE7C301B2010E94BC1064
:100FE00081110CC02FEF3FEF4FE75FE7C301B20164
:100FF000B0D518161CF46EE973E00CC02FEF3FEF6C
:101000004FE75FE4C701B6010E946C1018168CF41C
:1010100062EA73E08DE994E0FF90EF90DF90CF906B
:10102000BF90AF909F908F907F906F905F904F9008
:10103000F8CC2FEF3FEF4FE75FECC701B60189D542
:1010400087FDE6CF20E030E0A901C701B60181D5D8
:1010500087FF08C08DE2E5DD4C01F7FAF094F7F860
:10106000F09402C0812C912CA12C60E070E080E013
:101070009FE3AB1439F020E030E040E251E458D770
:10108000A394F7CF9B01AC01C701B601C5D62B01D4
:101090003C01B6D76B017C0160D59B01AC01C3015B
:1010A000B201B9D62B013C012AE0B701A6018DE9B6
:1010B00094E02BDF7C01E80CF91CBB2021F08EE2D0
:1010C000B0DDE80EF91EDB2CDD2009F120E030E078
:1010D00040E251E4C301B201A1D52B013C0190D7FC
:1010E0004B01A12CB12C2AE0B501A4018DE994E0BB
:1010F0000CDFE80EF91EC501B4012FD59B01AC0130
:10110000C301B20188D62B013C01DA94DDCFC701BF
:10111000FF90EF90DF90CF90BF90AF909F908F9017
:101120007F906F905F904F9008956AE472E079CC61
:101130000F931F93CF93DF93EC0173DC8C01CE01EF
:10114000F4DF800F911FDF91CF911F910F910895D0
:1011500068CCCF93DF9300D01F92CDB7DEB77894E1
:1011600084B5826084BD84B5816084BD85B58260AC
:1011700085BD85B5816085BD80916E00816080935D
:101180006E001092810080918100826080938100C6
:1011900080918100816080938100809180008160D6
:1011A000809380008091B10084608093B100809131
:1011B000B00081608093B000809191008260809344
:1011C00091008091910081608093910080919000C6
:1011D0008160809390008091A10082608093A10043
:1011E0008091A10081608093A1008091A000816026
:1011F0008093A000809121018260809321018091E1
:101200002101816080932101809120018160809380
:10121000200180917A00846080937A0080917A0026
:10122000826080937A0080917A00816080937A0056
:1012300080917A00806880937A001092C1001092A9
:101240007E0510927F051092800510928105109204
:101250003C0510923D0510923E0510923F055ADA6A
:101260006B017C014B015C0128EB820E2BE0921E8E
:10127000A11CB11C4FDA6C157D058E059F0528F069
:1012800086169706A806B906A8F78DE994E090930C
:101290007D0580937C0599DC3DDA60933C05709375
:1012A0003D0580933E0590933F056BE372E080918E
:1012B0007C0590917D054CDF2DDA6B017C014B01A3
:1012C0005C013AE0830E911CA11CB11C23DA6C1561
:1012D0007D058E059F0528F086169706A806B90697
:1012E000A8F781E08093500510921B0410921A0415
:1012F00010927A0410929C041092780480937704E0
:101300001092520484E1B7DC85E1B5DC8091B9002C
:101310008E7F8093B9008091B9008D7F8093B90052
:1013200088E48093B80085E48093BC004EDC87E0BD
:1013300092E082DC81E092E07FDC6DE472E08DE996
:1013400094E006DF04E414E0E12CF12CF801419173
:1013500051918F01052E000C660B770B77FF11C0A2
:101360008DE249835A836B837C835BDC49815A819C
:101370006B817C8170956095509541955F4F6F4F63
:101380007F4F2AE08DE994E0C0DDF2E0EF16F10432
:1013900029F062E672E08DE994E0DADE2FEFE21ADE
:1013A000F20A33E0E316F10489F664E672E08DE9AF
:1013B00094E0BEDE8DE994E0B8DE24EF422E5524A1
:1013C0005394612C712CA6D9672B682B692B39F4A7
:1013D000A1D9623071058105910508F4FEC09AD942
:1013E00060934E0470934F04809350049093510483
:1013F00000914A0410914B0420914C0430914D040B
:10140000601771078207930740F460934A04709352
:101410004B0480934C0490934D0400914A04109126
:101420004B0420914C0430914D046B017C01C01A97
:10143000D10AE20AF30A970186010A3F1105210544
:10144000310508F4CAC060934A0470934B0480933A
:101450004C0490934D044092480550924905609287
:101460004A0570924B0510924C0510924D05109252
:101470004E0510924F058091400590914105A09135
:101480004205B09143058093440590934505A09390
:101490004605B09347053ED96093400570934105DA
:1014A000809342059093430535D960933C05709332
:1014B0003D0580933E0590933F052CD96B017C013F
:1014C00066E672E080917C0590917D0541DE2AE020
:1014D00041E050E060E070E080917C0590917D05F6
:1014E00014DD6DE672E080917C0590917D0530DE23
:1014F0002AE0B701A60180917C0590917D0505DD6C
:101500006FE672E080917C0590917D0521DE8091EF
:10151000400590914105A0914205B0914305B70166
:10152000A601481B590B6A0B7B0B2AE080917C05B6
:1015300090917D05EADC6FE672E080917C059091E8
:101540007D0506DE409140055091410560914205C0
:10155000709143058091440590914505A091460501
:10156000B0914705481B590B6A0B7B0B2AE0809111
:101570007C0590917D05C9DC61E772E080917C0576
:1015800090917D05E5DDC6D8AB01BC012AE08091D4
:101590007C0590917D05B9DC63E772E080917C0564
:1015A00090917D05C5DDB6D84B015C016B017C01D6
:1015B00025E0C20ED11CE11CF11CACD868157905E0
:1015C0008A059B0508F073C2A5D860934005709307
:1015D000410580934205909343058091000281323A
:1015E00029F46AE772E08DE994E0A2DD15EC8DE95B
:1015F00094E00E949501892BD1F38DE994E00E943B
:101600007301809300020DDB8DE994E08EDD809103
:101610000002803311F41ADA47C28133A1F467E87B
:1016200072E08DE994E084DD31E030937904309309
:101630009B0410927A0410929C0464E972E082E8A0
:1016400095E0EFD98FDB80910002813309F092C1E0
:101650008DE994E00E949501892BD1F3E0DB709332
:10166000450460934404DBDB7093470460934604B5
:10167000D6DB7093490460934804D1DB7093430434
:10168000609342046BE972E08DE994E051DD0091D2
:10169000440410914504B801012E000C880B990BED
:1016A0005ED24B015C012090460430904704B101AA
:1016B000032C000C880B990B52D26B017C01A50105
:1016C0009401C501B401AAD24B015C01A7019601A6
:1016D000C701B601A3D29B01AC01C501B4019CD3E3
:1016E0000AD56B017C0160933E0470933F048093A4
:1016F00040049093410420E030E040EF51E4ECD40A
:1017000018164CF020E030E040E251E4C701B60189
:1017100020D287FF0AC0C8010197049730F46CEB10
:1017200072E08DE994E004DDBFC10115110509F4F3
:1017300072CF20E030E040EF51E4C701B60109D29A
:1017400087FFAFC120E030E040E251E4C701B601BD
:10175000C3D418160CF0A5C1121413049CF410166F
:1017600011062CF468ED72E08DE994E0E1DC8091E3
:1017700044049091450497FF05C065EE72E08DE941
:1017800094E0D6DC20E030E040EA51E460913E0491
:1017900070913F048091400490914104C9D32DD3AE
:1017A00020E030E044E353E439D22BED3FE049E45C
:1017B00050E4BED36B017C01609316047093170450
:1017C00080931804909319049B01AC0125D39B01CD
:1017D000AC0160E070E084E393E41DD34B015C0155
:1017E000609312047093130480931404909315046F
:1017F000809144049091450460914604709147049F
:10180000D4D4072E000C880B990BA9D169D320E002
:1018100030E044E353E402D22BED3FE049E450E4EE
:1018200087D39B01AC0160930A0470930B048093EF
:101830000C0490930D04C701B601EED26093060428
:1018400070930704809308049093090426E636E613
:1018500046EE5FE36DD36093F6037093F7038093D6
:10186000F8039093F90326E636E646EE5FE3C501FA
:10187000B4015ED36093FA037093FB038093FC037F
:101880009093FD0381E08093790480939B041092F0
:101890007A0410929C0462EF72E082E895E0C1D86D
:1018A00061DAE1E0E0937904E0939B0410927A041A
:1018B00010929C046091F6037091F7038091F803F5
:1018C0009091F9039DD382E895E00E94F702609120
:1018D000FA037091FB038091FC039091FD0390D378
:1018E00082E895E00E94F7023DDA67EF72E08DE949
:1018F00094E02EDC60910604709107048091080446
:101900009091090442E048DB66E073E08DE994E0E1
:101910000FDC6AE073E08DE994E01ADC6091060464
:1019200070910704809108049091090469D3462FAF
:1019300050E060E070E02AE08DE994E0E6DA8DE9BD
:1019400094E0F3DB6BE173E08DE994E001DC6091FE
:10195000120470911304809114049091150442E0D4
:101960001BDB66E073E08DE994E0E2DB81E28093CB
:1019700000029AC0809178048111FCCFF1E0F093CD
:101980007804F0937704CC24CA94C0927604109221
:10199000750493E0D92ED0927404F093530480918F
:1019A000530482608093530480915204813069F41F
:1019B00010925204809153048093BB008091BC002C
:1019C00083FDF8CF1093BC0004C085EEE82EE092B2
:1019D000BC00809178048130E1F3809175048430FB
:1019E00018F48091750401C084E0A4E5B4E0ECE152
:1019F000F4E09E2F2CE134E0921B981718F49D918F
:101A00009193F7CF10921B0480931A048823D1F08E
:101A100082E895E00E94AC0290933D0480933C04E0
:101A2000019729F46AE273E08DE994E081DB80910B
:101A30003C0490913D04029729F46FE373E08DE933
:101A400094E076DB80910002823309F0D0CD64E52A
:101A500073E08DE994E06CDB31E0309379043093EE
:101A60009B0410927A0410929C0461E673E08DE965
:101A700094E05EDB67E773E08DE994E059DB6DE7A6
:101A800073E082E895E00E9411056CD964E873E088
:101A90008DE994E04DDB8DE994E047DB81E28093B2
:101AA00000028DE994E041DB0E9432028CCCC61624
:101AB000D706E806F90608F080CD86CDEDE9F4E01A
:101AC0001382128288EE93E0A0E0B0E084839583D5
:101AD000A683B78321E132E03183208325EC30E017
:101AE0003587248724EC30E03787268720EC30E0E8
:101AF000318B208B21EC30E0338B228B22EC30E0D9
:101B0000358B248B26EC30E0378B268B118E128E92
:101B1000138E148EEAE3F5E0168217821086118682
:101B2000128613861486158616861786108A118AE1
:101B3000128A138A148A158AE2E8F5E01382128267
:101B400084839583A683B78383E292E09183808325
:101B5000089540D008F481E00895E89409C097FB07
:101B60003EF490958095709561957F4F8F4F9F4F74
:101B70009923A9F0F92F96E9BB279395F6958795B8
:101B800077956795B795F111F8CFFAF4BB0F11F47B
:101B900060FF1BC06F5F7F4F8F4F9F4F16C0882322
:101BA00011F096E911C0772321F09EE8872F762F58
:101BB00005C0662371F096E8862F70E060E02AF099
:101BC0009A95660F771F881FDAF7880F9695879585
:101BD00097F90895990F0008550FAA0BE0E8FEEF5A
:101BE00016161706E807F907C0F012161306E407E1
:101BF000F50798F0621B730B840B950B39F40A26DA
:101C000061F0232B242B252B21F408950A2609F4B7
:101C1000A140A6958FEF811D811D08950BD078C03E
:101C200069D028F06ED018F0952309F05AC05FC033
:101C30001124A2C07ED0A0F3959FD1F3950F50E060
:101C4000551F629FF001729FBB27F00DB11D639F6E
:101C5000AA27F00DB11DAA1F649F6627B00DA11D14
:101C6000661F829F2227B00DA11D621F739FB00DBA
:101C7000A11D621F839FA00D611D221F749F33272A
:101C8000A00D611D231F849F600D211D822F762FC3
:101C90006A2F11249F5750408AF0E1F088234AF0C0
:101CA000EE0FFF1FBB1F661F771F881F915050400C
:101CB000A9F79E3F510570F014C05EC05F3FECF382
:101CC000983EDCF3869577956795B795F795E795F8
:101CD0009F5FC1F7FE2B880F911D9695879597F909
:101CE000089597F99F6780E870E060E008959FEF9E
:101CF00080EC089500240A941616170618060906A3
:101D0000089500240A941216130614060506089571
:101D1000092E0394000C11F4882352F0BB0F40F4F9
:101D2000BF2B11F460FF04C06F5F7F4F8F4F9F4F39
:101D3000089557FD9058440F551F59F05F3F71F0BB
:101D40004795880F97FB991F61F09F3F79F0879522
:101D50000895121613061406551FF2CF4695F1DFAB
:101D600008C0161617061806991FF1CF869571053B
:101D7000610508940895E894BB2766277727CB016F
:101D800097F90895A1E21A2EAA1BBB1BFD010DC0F5
:101D9000AA1FBB1FEE1FFF1FA217B307E407F5071B
:101DA00020F0A21BB30BE40BF50B661F771F881FF7
:101DB000991F1A9469F760957095809590959B018D
:101DC000AC01BD01CF01089509D0A59F900DB49F2E
:101DD000900DA49F800D911D11240895A29FB00124
:101DE000B39FC001A39F700D811D1124911DB29F4F
:101DF000700D811D1124911D08959F939F772CD103
:101E00000F9000203AF49058A2EA2AED3FE049E40E
:101E100050E413D07DCF5058BB27AA270ED078CFDF
:101E200069DF30F06EDF20F031F49F3F11F41EF4D3
:101E30005ECF0EF4E095E7FB54CFE92F7ADF80F315
:101E4000BA17620773078407950718F071F49EF5B7
:101E500092CF0EF4E0950B2EBA2FA02D0B01B901F5
:101E600090010C01CA01A0011124FF27591B99F010
:101E7000593F50F4503E68F11A16F040A22F232F1C
:101E8000342F4427585FF3CF469537952795A7956C
:101E9000F0405395C9F77EF41F16BA0B620B730B13
:101EA000840BBAF09150A1F0FF0FBB1F661F771F84
:101EB000881FC2F70EC0BA0F621F731F841F48F439
:101EC000879577956795B795F7959E3F08F0B3CFBF
:101ED0009395880F08F09927EE0F979587950895A9
:101EE000DF93DD27B92FBF7740E85FE316161706AB
:101EF00048075B0710F4D92FF3D09F938F937F93FC
:101F00006F9337D1E8E0F1E0C2D002DF2F913F912B
:101F10004F915F918FDEDD2349F09058A2EA2AEDC0
:101F20003FE049EC5FE3D0785D2787DFDF91F0CEBB
:101F30000CD0EECEE6DE40F0DDDE30F021F45F3F87
:101F400019F0CFCE511118CFD2CEF3DE98F39923EA
:101F5000C9F35523B1F3951B550BBB27AA2762176D
:101F60007307840738F09F5F5F4F220F331F441FB2
:101F7000AA1FA9F333D00E2E3AF0E0E830D09150EA
:101F80005040E695001CCAF729D0FE2F27D0660FD7
:101F9000771F881FBB1F261737074807AB07B0E816
:101FA00009F0BB0B802DBF01FF2793585F4F2AF02C
:101FB0009E3F510568F095CEDFCE5F3FECF3983E33
:101FC000DCF3869577956795B795F7959F5FC9F789
:101FD000880F911D9695879597F90895E1E0660F12
:101FE000771F881FBB1F621773078407BA0720F08B
:101FF000621B730B840BBA0BEE1F88F7E0950895F4
:10200000A0DE88F09F5790F0B92F9927B751A0F024
:10201000D1F0660F771F881F991F1AF0BA95C9F77C
:1020200012C0B13081F0A7DEB1E00895A4CE672FD1
:10203000782F8827B85F39F0B93FCCF3869577952C
:102040006795B395D9F73EF4909580957095619515
:102050007F4F8F4F9F4F0895DF93CF931F930F9321
:102060008B01EC01E5E3F1E012D052DE9801AE0104
:102070008B01EC0160E070E080E89FE3CCDE3BD0B8
:102080009801AE010F911F91CF91DF91D3CDDF93D6
:10209000CF931F930F93FF92EF92DF927B018C01FE
:1020A000689405C0DA2EEF01C5DDFE01E894A59124
:1020B0002591359145915591AEF3EF01BEDEFE01BC
:1020C0009701A801DA9479F7DF90EF90FF900F91D4
:1020D0001F91CF91DF9108957DDD08F48FEF089572
:1020E0009B01AC0160E070E080E89FE321CF11F438
:1020F0000EF4FDCD45C025DED0F39923D9F3CEF300
:102100009F57550B87FF4AD00024A0E640EA900174
:1021100080585695979528F4805C660F771F881F26
:1021200020F026173707480730F4621B730B840B27
:10213000202931294A2BA69517940794202531256B
:102140004A2758F7660F771F881F20F02617370792
:10215000480730F4620B730B840B200D311D411DB9
:10216000A09581F7B901842F9158880F969587958E
:1021700008959B01AC0152CD2DDD880B990B08957C
:102180009F3F31F0915020F4879577956795B795EB
:10219000880F911D9695879597F908959150504015
:1021A000660F771F881FD2F7089597FB072E16F446
:1021B000009406D077FD08D013D007FC05D03EF47C
:1021C000909581959F4F0895709561957F4F0895E3
:1021D000EE0FFF1F881F8BBF0790F691E02D19941B
:1021E000AA1BBB1B51E107C0AA1FBB1FA617B7073D
:1021F00010F0A61BB70B881F991F5A95A9F7809559
:102200009095BC01CD01089581E090E0F89400C064
:04221000F894FFCF70
:10221400210300050007000200040006000000007E
:1022240000CB01820564011102950173018701004D
:10223400000000F702C80226039C02C002AC029D03
:102244000231323300726573657400564D44505642
:102254005F317C315F564D4450560D0A00E79BAE0A
:10226400E5898DE5889DE5A78BE4BD8DE7BDAE3A94
:1022740028002C002900564D4450455F003A323A5C
:10228400007C005F564D44504500E981B8E69387D1
:10229400E6A8A1E5BC8F00E5BAA7E6A899E6A8A13F
:1022A400E5BC8F006B6576696E3100E8A792E5BAEC
:1022B400A6E8BCB8E585A5E5AE8CE688902D2DE9A9
:1022C400968BE5A78BE9818BE7AE9700E8BCB8E570
:1022D40085A5E98CAFE8AAA4EFBC8CE9878DE696C6
:1022E400B0E8BCB8E585A500E7ACACE4B880E8B1DB
:1022F400A1E9999000E7ACACE4BA8CE8B1A1E99902
:1023040090007475726E0074686574616C5F41E866
:10231400BD89E58B9500E5BAA60074686574616CA7
:102324005F412D2D627974652D3E0074686574617A
:102334006C5F42E8BD89E58B95004142E7AF80E8D8
:102344008782E6ADB8E99BB6E5AE8CE6889000429C
:1023540043E7AF80E88782E6ADB8E99BB6E5AE8C8B
:10236400E6889000E8A792E5BAA6E6A8A1E5BC8FA6
:1023740000E9968BE5A78BE88887736C61766531F5
:10238400E9809AE8A88A00E582B3E980816B6576E2
:10239400696E3200E7B590E69D9FE88887736C61AB
:1023A400766531E9809AE8A88A006E616E00696EEC
:0623B40066006F76660072
:00000001FF
