:100000000C945D000C9485000C9485000C94850084
:100010000C9485000C9485000C9485000C9485004C
:100020000C9485000C9485000C9485000C94AA0413
:100030000C9485000C9485000C9485000C9485002C
:100040000C9460040C9485000C942E040C94080409
:100050000C9485000C9485000C9485000C9485000C
:100060000C9485000C9485000000000024002700FB
:100070002A0000000000250028002B0004040404CE
:100080000404040402020202020203030303030342
:10009000010204081020408001020408102001021F
:1000A00004081020000000080002010000030407FB
:1000B00000000000000000006B0511241FBECFEF00
:1000C000D8E0DEBFCDBF11E0A0E0B1E0EEECF1E1A1
:1000D00002C005900D92A838B107D9F724E0A8E82E
:1000E000B1E001C01D92A63FB207E1F710E0CDE5F7
:1000F000D0E004C02197FE010E94DA08CC35D10778
:10010000C9F70E9410060C94E5080C940000E7EC77
:10011000F1E0A089B18982E08C93A485B5851C9219
:10012000A685B7858FEC8C93108EA489B58986E05F
:100130008C93A289B3898C9180618C93A289B389B5
:100140008C9188608C93A289B3898C9180688C9300
:100150000288F389E02D80818F7D80830895CF927E
:10016000DF92EF92FF920F931F93CF93DF936C0177
:100170007A018B01C0E0D0E0CE15DF0589F0D8010F
:100180006D918D01D601ED91FC910190F081E02DF2
:10019000C6010995892B11F47E0102C02196ECCF8E
:1001A000C701DF91CF911F910F91FF90EF90DF90EA
:1001B000CF900895089580E090E00895FC01538D5C
:1001C000448D252F30E0842F90E0821B930B541731
:1001D00010F0CF96089501970895FC01918D828DBE
:1001E000981761F0828DDF01A80FB11D5D968C918B
:1001F000928D9F5F9F73928F90E008958FEF9FEF96
:100200000895FC01918D828D981731F0828DE80F51
:10021000F11D858D90E008958FEF9FEF0895FC010B
:10022000918D228D892F90E0805C9F4F821B9109D8
:100230008F739927089587EC91E00E940F0121E0C8
:10024000892B09F420E0822F0895FC01848DDF01C1
:10025000A80FB11DA35ABF4F2C91848D90E0019639
:100260008F739927848FA689B7892C93A089B18928
:100270008C9180648C93938D848D981306C0028832
:10028000F389E02D80818F7D80830895EF92FF9226
:100290000F931F93CF93DF93EC0181E0888F9B8DA9
:1002A0008C8D981305C0E889F989808185FD24C06B
:1002B000F62E0B8D10E00F5F1F4F0F731127E02EEE
:1002C0008C8DE8120CC00FB607FCFACFE889F989CB
:1002D000808185FFF5CFCE010E942501F1CF8B8D66
:1002E000FE01E80FF11DE35AFF4FF0820B8FEA8900
:1002F000FB898081806207C0EE89FF896083E8897D
:10030000F98980818064808381E090E0DF91CF91E2
:100310001F910F91FF90EF900895CF93DF93EC0121
:10032000888D8823C9F0EA89FB89808185FD05C015
:10033000A889B9898C9186FD0FC00FB607FCF5CF4F
:10034000808185FFF2CFA889B9898C9185FFEDCF97
:10035000CE010E942501E7CFDF91CF91089580E083
:1003600090E0892B29F00E941B0181110C94000060
:10037000089590E0FC01EC55FF4F3491FC01E057EB
:10038000FF4F2491FC01E458FF4FE491EE2309F460
:100390003BC0332339F1333091F038F43130A9F0D8
:1003A000323001F584B58F7D12C0373091F038308E
:1003B000A1F03430B9F4809180008F7D03C080912A
:1003C00080008F77809380000DC084B58F7784BDC7
:1003D00009C08091B0008F7703C08091B0008F7DFD
:1003E0008093B000F0E0EE0FFF1FEE58FF4FA59195
:1003F000B4918FB7F894EC91611103C020952E232E
:1004000001C02E2B2C938FBF08952FB7F8946091C5
:10041000B3017091B4018091B5019091B6012FBFE5
:1004200008950F931F930E9405026093CF0170936C
:10043000D0018093D1019093D201E091C701F09156
:10044000C8010484F585E02D87EC91E0099597FFBC
:100450001FC00E9405020091CF011091D001209190
:10046000D1013091D201DC01CB01801B910BA20B99
:10047000B30B0091CB011091CC012091CD013091B3
:10048000CE0180179107A207B307B8F28FEF9FEF55
:100490001F910F910895FF920F931F93CF93DF93B6
:1004A00000D000D0CDB7DEB70E941102FC0197FD4D
:1004B00011C08D32910591F0C0970A9778F0E091C4
:1004C000C701F091C8010284F385E02D87EC91E02B
:1004D0000995EACF60E070E0CB014CC020E030E04D
:1004E000A901F12CE130F105F1F0ED32F105C9F08F
:1004F000CF01C0970A97B8F4AAE0B0E00E94B40810
:100500008F01FF0F220B330BDC01CB01800F911FFA
:10051000A21FB31F9C01AD012053310941095109AC
:1005200002C0FF24F394E091C701F091C801028456
:10053000F385E02D87EC91E029833A834B835C833C
:1005400009950E941102FC01C09729813A814B81D3
:100550005C810A9738F2E130F10521F2FF2041F089
:1005600066277727CB01621B730B840B950B02C0A8
:10057000CA01B9010F900F900F900F90DF91CF91AA
:100580001F910F91FF900895CF93DF93DC018C9121
:100590008C3008F06DC09B013327F901E057FF4F05
:1005A0008491F901E458FF4F2491222399F030E01F
:1005B000220F331FF901E859FF4FC591D491F9017A
:1005C000EE58FF4F259134919FB7F894E881E82BBE
:1005D000E8839FBF8C91E82FF0E09F01220F331F2B
:1005E000E20FF31FE657FE4F6F739081907C692BEB
:1005F000608311961C92119712961C9212976CE0D0
:100600000E94CE089CE0899FB001112440E050E098
:100610009A01260F371FF901EE0FFF1F2E0F3F1F04
:10062000F901E657FE4F908196FD16C04F5F5F4F70
:100630004C30510569F781110FC01092800082E0A3
:10064000809381001092850010928400B19A80916D
:100650006F00826080936F00EC91F0E0CF01880F13
:10066000991FE80FF91FE657FE4F80818064808351
:100670008C91DF91CF910895FC01909189019C307C
:10068000A0F481E0890F809389019083892F90E005
:10069000FC01EE0FFF1F8E0F9F1FFC01E657FE4F60
:1006A00088EB9BE09283818308958FEF8083089588
:1006B0000E94E0086115710579F0FB0101900020AE
:1006C000E9F73197AF01461B570BDC01ED91FC9127
:1006D0000280F381E02D099480E090E008954F922C
:1006E0005F926F927F92EF92FF920F931F93CF933F
:1006F000DF93CDB7DEB7A1970FB6F894DEBF0FBE7C
:10070000CDBF7C01FA01CB0119A2223008F42AE006
:100710008E010F5D1F4F422E512C612C712CBF0199
:10072000A30192010E949208F901CA010150110926
:100730006A3014F4605D01C0695CD8016C93232BAE
:10074000242B252B61F7B801C7010E945A03A196FB
:100750000FB6F894DEBF0FBECDBFDF91CF911F91D2
:100760000F91FF90EF907F906F905F904F90089562
:10077000CF92DF92EF92FF92CF93DF936C01990FAC
:10078000EE08FF08F7FE21C0E091C701F091C80113
:100790000190F081E02D6DE287EC91E00995EC018C
:1007A00044275527BA014C195D096E097F092AE0D3
:1007B00087EC91E00E946F038C0F9D1FDF91CF911A
:1007C000FF90EF90DF90CF9008952AE0B701A60147
:1007D00087EC91E0DF91CF91FF90EF90DF90CF9089
:1007E0000C946F030F931F93CF93DF93EC010E9440
:1007F0005A038C0161E271E0CE010E945A03800F1E
:10080000911FDF91CF911F910F9108950C945A037E
:100810001F920F920FB60F9211242F933F934F9375
:100820005F936F937F938F939F93AF93BF93EF9358
:10083000FF9387EC91E00E942501FF91EF91BF911A
:10084000AF919F918F917F916F915F914F913F9168
:100850002F910F900FBE0F901F9018951F920F921F
:100860000FB60F9211242F938F939F93EF93FF93C3
:10087000E091D701F091D8018081E091DD01F09104
:10088000DE0182FD12C090818091E0018F5F8F7345
:100890002091E101821751F0E091E001F0E0E9538D
:1008A000FE4F958F8093E00101C08081FF91EF9111
:1008B0009F918F912F910F900FBE0F901F901895C1
:1008C0001F920F920FB60F9211242F933F938F9385
:1008D0009F93AF93BF938091B3019091B401A09186
:1008E000B501B091B6013091B20123E0230F2D374D
:1008F00020F40196A11DB11D05C026E8230F029624
:10090000A11DB11D2093B2018093B3019093B40156
:10091000A093B501B093B6018091AE019091AF0163
:10092000A091B001B091B1010196A11DB11D8093BC
:10093000AE019093AF01A093B001B093B101BF910C
:10094000AF919F918F913F912F910F900FBE0F907C
:100950001F9018951F920F920FB60F9211242F938C
:100960003F934F935F936F937F938F939F93AF9337
:10097000BF93EF93FF938091880187FF05C010928A
:100980008500109284001BC020918801022E000C6B
:10099000330B8091890190E02817390784F4809106
:1009A0008801082E000C990BFC01EE0FFF1F8E0F23
:1009B0009F1FFC01E657FE4F808186FD15C0809188
:1009C00088018F5F8093880120918801022E000C9E
:1009D000330B8091890190E028173907C4F4809186
:1009E00088018C3064F113C080918801082E000CBE
:1009F000990BFC01EE0FFF1F8E0F9F1FFC01E657A6
:100A0000FE4F808160E08F730E94B901D8CF809142
:100A1000840090918500049680349C4918F480E409
:100A20009CE905C080918400909185000496909384
:100A30008900809388008FEF809388013BC02091CC
:100A400084003091850080918801082E000C990B5C
:100A5000FC01EE0FFF1F8E0F9F1FFC01E657FE4F9C
:100A600081819281820F931F9093890080938800E7
:100A700080918801082E000C990BFC01EE0FFF1FDE
:100A80008E0F9F1FFC01E657FE4F808186FF12C02C
:100A900080918801082E000C990BFC01EE0FFF1FBE
:100AA0008E0F9F1FFC01E657FE4F808161E08F7320
:100AB0000E94B901FF91EF91BF91AF919F918F91EA
:100AC0007F916F915F914F913F912F910F900FBE4A
:100AD0000F901F901895E7ECF1E01382128288EED8
:100AE00093E0A0E0B0E084839583A683B78384E09D
:100AF00091E09183808385EC90E09587848784ECF6
:100B000090E09787868780EC90E0918B808B81ECDA
:100B100090E0938B828B82EC90E0958B848B86ECBB
:100B200090E0978B868B118E128E138E148EE4E6D6
:100B3000F2E01682178210861186128613861486BA
:100B4000158616861786108A118A128A138A148AC5
:100B5000158A83EF94E00E943C0380EF94E00E94AA
:100B60003C038DEE94E00E943C038AE097EDA3E203
:100B7000BEE38093510490935204A0935304B09326
:100B8000540480E090E0A0E8BEE380935504909385
:100B90005604A0935704B09358048FE892ECA5EF45
:100BA000BDE38093590490935A04A0935B04B093DF
:100BB0005C048AE097EDA3EABCE380935D04909324
:100BC0005E04A0935F04B09360048DEC9CECACECED
:100BD000BCE38093610490936204A0936304B09398
:100BE000640481E398E0ACE2BDE3809365049093F4
:100BF0006604A0936704B093680410924A041092AC
:100C000049048FE99CE0A3EBB5E480934D049093F5
:100C10004E04A0934F04B09350041092AC02089578
:100C2000789484B5826084BD84B5816084BD85B5C7
:100C3000826085BD85B5816085BD80916E008160D3
:100C400080936E0010928100809181008260809379
:100C5000810080918100816080938100809180007B
:100C60008160809380008091B10084608093B100A6
:100C70008091B00081608093B00080917A008460A0
:100C800080937A0080917A00826080937A008091CC
:100C90007A00816080937A0080917A0080688093E6
:100CA0007A001092C1001092A8021092A90210922C
:100CB000AA021092AB021092660210926702109282
:100CC0006802109269020E9405026B017C014B01CF
:100CD0005C0128EB820E2BE0921EA11CB11C0E942D
:100CE00005026C157D058E059F0528F08616970672
:100CF000A806B906A0F787EC91E09093A70280932D
:100D0000A6020E9487000E9405026093660270930B
:100D10006702809368029093690262E171E08091BA
:100D2000A6029091A7020E9406040E9405026B0190
:100D30007C014B015C013AE0830E911CA11CB11CAB
:100D40000E9405026C157D058E059F0528F086160C
:100D50009706A806B906A0F781E080937A020E9460
:100D600087001092AC0268E070E083EF94E00E948C
:100D7000C40269E070E080EF94E00E94C4026AE07F
:100D800070E08DEE94E00E94C40264E271E087ECB2
:100D900091E00E940604E12CF12C8091B90290911F
:100DA000BA020E94B80342E0E416F10431F069E3AC
:100DB00071E087EC91E00E9406045FEFE51AF50A06
:100DC00083E0E816F10449F76BE371E087EC91E00A
:100DD0000E94F20361E271E087EC91E00E945A0305
:100DE00084EF882E99249394A12CB12C0E940502A3
:100DF000672B682B692B41F40E9405026230710554
:100E00008105910508F412C10E9405026093C30197
:100E10007093C4018093C5019093C601C090BF0137
:100E2000D090C001E090C101F090C2016C157D0529
:100E30008E059F0540F46093BF017093C0018093BD
:100E4000C1019093C201C090BF01D090C001E09059
:100E5000C101F090C2019B01AC012C193D094E0962
:100E60005F0969017A013AEFC316D104E104F10484
:100E700008F4DCC06093BF017093C0018093C1018E
:100E80009093C2018092720290927302A0927402B7
:100E9000B092750210927602109277021092780248
:100EA0001092790280916A0290916B02A0916C027B
:100EB000B0916D0280936E0290936F02A0937002C6
:100EC000B09371020E94050260936A0270936B02F4
:100ED00080936C0290936D020E94050260936602FB
:100EE0007093670280936802909369020E940502E2
:100EF0006B017C016DE371E08091A6029091A702E5
:100F00000E9406042AE041E050E060E070E0809139
:100F1000A6029091A7020E946F0364E471E08091A1
:100F2000A6029091A7020E9406042AE0B701A6013A
:100F30008091A6029091A7020E946F0366E471E07F
:100F40008091A6029091A7020E94060480916A02F5
:100F500090916B02A0916C02B0916D02B701A60155
:100F6000481B590B6A0B7B0B2AE08091A6029091DB
:100F7000A7020E946F0366E471E08091A60290913F
:100F8000A7020E94060440916A0250916B02609190
:100F90006C0270916D0280916E0290916F02A0912F
:100FA0007002B0917102481B590B6A0B7B0B2AE04F
:100FB0008091A6029091A7020E946F0368E471E0FD
:100FC0008091A6029091A7020E9406040E94050249
:100FD000AB01BC012AE08091A6029091A7020E9479
:100FE0006F036AE471E08091A6029091A7020E94CB
:100FF000F2030E9405026B017C012B013C0145E0DC
:10100000440E511C611C711C0E9405026C157D056B
:101010008E059F0508F07FC00E94050260936A025A
:1010200070936B0280936C0290936D0261E571E0A6
:1010300087EC91E00E94F20387EC91E00E940F019F
:10104000892BD1F30E944B027093BE016093BD01C6
:101050000E944B027093BC016093BB010E944B0243
:101060007093BA016093B9010E944B027093B8016A
:101070006093B7016CE771E087EC91E00E94060491
:101080008091BD019091BE010E94B80364E871E0B7
:1010900087EC91E00E9406048091BB019091BC0115
:1010A0000E94B80364E871E087EC91E00E940604B6
:1010B0008091B9019091BA010E94B80364E871E08F
:1010C00087EC91E00E9406048091B7019091B801ED
:1010D0000E94B8036BE371E087EC91E00E94F20399
:1010E00087EC91E00E94ED0097FFFACF0E944B023F
:1010F0007093BE016093BD010E944B027093BC01CE
:101100006093BB010E944B027093BA016093B901D6
:101110000E94AF016BCE461657066806790608F0A6
:1011200073CF7ACFA1E21A2EAA1BBB1BFD010DC003
:10113000AA1FBB1FEE1FFF1FA217B307E407F50787
:1011400020F0A21BB30BE40BF50B661F771F881F63
:10115000991F1A9469F760957095809590959B01F9
:10116000AC01BD01CF0108950E94BF08A59F900D5D
:10117000B49F900DA49F800D911D11240895A29FEE
:10118000B001B39FC001A39F700D811D1124911D5B
:10119000B29F700D811D1124911D0895991B79E056
:1011A00004C0991F961708F0961B881F7A95C9F7F7
:1011B00080950895EE0FFF1F0590F491E02D09949E
:0E11C00081E090E0F8940C94E508F894FFCFDD
:1011CE00000000004601AF00DE008D010F01ED00B2
:1011DE000101564D4450565F317C315F564D44509F
:1011EE00560D0A00E79BAEE5898DE5889DE5A78B38
:1011FE00E4BD8DE7BDAE3A28002C002900564D44C3
:10120E0050455F003A323A007C005F564D445045DF
:10121E0000E8BCB8E585A5E8A681E8BD89E79A8413
:10122E00E8A792E5BAA6E8B79FE9809FE5BAA6E8D7
:10123E008887E58AA0E9809FE5BAA600696E707579
:08124E00742028002C20000090
:00000001FF
