:100000000C945D000C9485000C9485000C94850084
:100010000C9485000C9485000C9485000C9485004C
:100020000C9485000C9485000C9485000C94F703C7
:100030000C9485000C9485000C9485000C9485002C
:100040000C94AD030C9485000C947B030C94550325
:100050000C9485000C9485000C9485000C9485000C
:100060000C9485000C9485000000000024002700FB
:100070002A0000000000250028002B0004040404CE
:100080000404040402020202020203030303030342
:10009000010204081020408001020408102001021F
:1000A00004081020000000080002010000030407FB
:1000B0000000000000000000B80411241FBECFEFB4
:1000C000D8E0DEBFCDBF11E0A0E0B1E0E6ECFCE09F
:1000D00002C005900D92A231B107D9F721E0A2E14B
:1000E000B1E001C01D92A93EB207E1F710E0CDE5F5
:1000F000D0E004C02197FE010E945606CC35D107FE
:10010000C9F70E94F0040C9461060C940000CF9291
:10011000DF92EF92FF920F931F93CF93DF936C01C7
:100120007A018B01C0E0D0E0CE15DF0589F0D8015F
:100130006D918D01D601ED91FC910190F081E02D42
:10014000C6010995892B11F47E0102C02196ECCFDE
:10015000C701DF91CF911F910F91FF90EF90DF903A
:10016000CF900895089580E090E00895FC01538DAC
:10017000448D252F30E0842F90E0821B930B541781
:1001800010F0CF96089501970895FC01918D828D0E
:10019000981761F0828DDF01A80FB11D5D968C91DB
:1001A000928D9F5F9F73928F90E008958FEF9FEFE6
:1001B0000895FC01918D828D981731F0828DE80FA2
:1001C000F11D858D90E008958FEF9FEF0895FC015C
:1001D000918D228D892F90E0805C9F4F821B910929
:1001E0008F739927089583E491E00E94E70021E04E
:1001F000892B09F420E0822F0895FC01848DDF0112
:10020000A80FB11DA35ABF4F2C91848D90E0019689
:100210008F739927848FA689B7892C93A089B18978
:100220008C9180648C93938D848D981306C0028882
:10023000F389E02D80818F7D80830895EF92FF9276
:100240000F931F93CF93DF93EC0181E0888F9B8DF9
:100250008C8D981305C0E889F989808185FD24C0BB
:10026000F62E0B8D10E00F5F1F4F0F731127E02E3E
:100270008C8DE8120CC00FB607FCFACFE889F9891B
:10028000808185FFF5CFCE010E94FD00F1CF8B8DDF
:10029000FE01E80FF11DE35AFF4FF0820B8FEA8950
:1002A000FB898081806207C0EE89FF896083E889CD
:1002B000F98980818064808381E090E0DF91CF9133
:1002C0001F910F91FF90EF900895CF93DF93EC0172
:1002D000888D8823C9F0EA89FB89808185FD05C066
:1002E000A889B9898C9186FD0FC00FB607FCF5CFA0
:1002F000808185FFF2CFA889B9898C9185FFEDCFE8
:10030000CE010E94FD00E7CFDF91CF91089580E0FC
:1003100090E0892B29F00E94F30081110C940000D9
:10032000089590E0FC01EC55FF4F3491FC01E0573B
:10033000FF4F2491FC01E458FF4FE491EE2309F4B0
:100340003BC0332339F1333091F038F43130A9F028
:10035000323001F584B58F7D12C0373091F03830DE
:10036000A1F03430B9F4809180008F7D03C080917A
:1003700080008F77809380000DC084B58F7784BD17
:1003800009C08091B0008F7703C08091B0008F7D4D
:100390008093B000F0E0EE0FFF1FEE58FF4FA591E5
:1003A000B4918FB7F894EC91611103C020952E237E
:1003B00001C02E2B2C938FBF08953FB7F8948091E6
:1003C0003D0190913E01A0913F01B091400126B5C1
:1003D000A89B05C02F3F19F00196A11DB11D3FBF7D
:1003E000BA2FA92F982F8827820F911DA11DB11D0B
:1003F000BC01CD0142E0660F771F881F991F4A9507
:10040000D1F708958F929F92AF92BF92CF92DF92D1
:10041000EF92FF926B017C010E94DD014B015C01B8
:10042000C114D104E104F104F1F00E94DD01DC010A
:10043000CB0188199909AA09BB09883E9340A105F7
:10044000B10570F321E0C21AD108E108F10888EE85
:10045000880E83E0981EA11CB11CC114D104E104D4
:10046000F10419F7DDCFFF90EF90DF90CF90BF90B0
:10047000AF909F908F900895CF92DF92EF92FF926E
:10048000CF93DF93EC01603282E078070CF03DC03F
:1004900077FD06C0653B71052CF064EB70E002C08F
:1004A00060E070E0898128E830E06901C81AD1086D
:1004B00087FDD394CC0CDD1CCC0CDD1C0D2C000C6A
:1004C000EE08FF088A8128E532E0281B310987FD04
:1004D0003395220F331F220F331FC901330FAA0B8D
:1004E000BB0B9C01AD012C193D094E095F09DB01D5
:1004F0000E94110624EB30E040E050E00E94E70546
:10050000C20ED31EE41EF51EB60188818C3080F524
:10051000998148E850E0491B510997FD5395440FD4
:10052000551F440F551F6417750784F09A8128E5FD
:1005300032E0291B310997FD3395220F331F220F1B
:10054000331FAB01261737070CF4A901425051099C
:10055000440F551F2FB7F89490E0FC01EE0FFF1FDA
:100560008E0F9F1FFC01EC5EFE4F528341832FBF15
:10057000DF91CF91FF90EF90DF90CF900895CF93D0
:10058000DF93DC018C918C3008F06DC09B01332728
:10059000F901E057FF4F8491F901E458FF4F24918E
:1005A000222399F030E0220F331FF901E859FF4F61
:1005B000C591D491F901EE58FF4F259134919FB721
:1005C000F894E881E82BE8839FBF8C91E82FF0E056
:1005D0009F01220F331FE20FF31FEC5EFE4F6F737C
:1005E0009081907C692B608311961C9211971296D2
:1005F0001C9212976CE00E944A069CE0899FB00111
:10060000112440E050E09A01260F371FF901EE0F48
:10061000FF1F2E0F3F1FF901EC5EFE4F908196FDEC
:1006200016C04F5F5F4F4C30510569F781110FC005
:100630001092800082E080938100109285001092D9
:100640008400B19A80916F00826080936F00EC917A
:10065000F0E0CF01880F991FE80FF91FEC5EFE4F05
:100660008081806480838C91DF91CF910895FC011B
:10067000909113019C30A0F481E0890F80931301C5
:100680009083892F90E0FC01EE0FFF1F8E0F9F1FBC
:10069000FC01EC5EFE4F88EB9BE092838183089522
:1006A0008FEF808308950E945C061F920F920FB611
:1006B0000F9211242F933F934F935F936F937F93E8
:1006C0008F939F93AF93BF93EF93FF9383E491E056
:1006D0000E94FD00FF91EF91BF91AF919F918F918B
:1006E0007F916F915F914F913F912F910F900FBE2E
:1006F0000F901F9018951F920F920FB60F92112412
:100700002F938F939F93EF93FF93E0915301F09179
:1007100054018081E0915901F0915A0182FD12C08B
:10072000908180915C018F5F8F7320915D018217B2
:1007300051F0E0915C01F0E0ED5BFE4F958F80930E
:100740005C0101C08081FF91EF919F918F912F916A
:100750000F900FBE0F901F9018951F920F920FB61B
:100760000F9211242F933F938F939F93AF93BF9337
:100770008091390190913A01A0913B01B0913C01E7
:100780003091380123E0230F2D3720F40196A11D6D
:10079000B11D05C026E8230F0296A11DB11D2093AF
:1007A00038018093390190933A01A0933B01B093B3
:1007B0003C0180913D0190913E01A0913F01B0919B
:1007C00040010196A11DB11D80933D0190933E0112
:1007D000A0933F01B0934001BF91AF919F918F9142
:1007E0003F912F910F900FBE0F901F9018951F9261
:1007F0000F920FB60F9211242F933F934F935F9355
:100800006F937F938F939F93AF93BF93EF93FF93D8
:100810008091120187FF05C010928500109284001C
:100820001BC020911201022E000C330B809113018A
:1008300090E02817390784F480911201082E000CEB
:10084000990BFC01EE0FFF1F8E0F9F1FFC01EC5E4A
:10085000FE4F808186FD15C0809112018F5F8093CD
:10086000120120911201022E000C330B8091130112
:1008700090E028173907C4F4809112018C3064F19C
:1008800013C080911201082E000C990BFC01EE0F91
:10089000FF1F8E0F9F1FFC01EC5EFE4F808160E00A
:1008A0008F730E949101D8CF809184009091850030
:1008B000049680349C4918F480E49CE905C080913A
:1008C000840090918500049690938900809388001D
:1008D0008FEF809312013BC02091840030918500FE
:1008E00080911201082E000C990BFC01EE0FFF1FE6
:1008F0008E0F9F1FFC01EC5EFE4F81819281820F63
:10090000931F909389008093880080911201082E94
:10091000000C990BFC01EE0FFF1F8E0F9F1FFC01B7
:10092000EC5EFE4F808186FF12C080911201082E7E
:10093000000C990BFC01EE0FFF1F8E0F9F1FFC0197
:10094000EC5EFE4F808161E08F730E949101FF9108
:10095000EF91BF91AF919F918F917F916F915F9137
:100960004F913F912F910F900FBE0F901F901895B0
:10097000E3E4F1E01382128288EE93E0A0E0B0E0BD
:1009800084839583A683B78384E091E091838083F9
:1009900085EC90E09587848784EC90E09787868744
:1009A00080EC90E0918B808B81EC90E0938B828B3C
:1009B00082EC90E0958B848B86EC90E0978B868B15
:1009C000118E128E138E148E86EE91E00E943703E4
:1009D00083EE91E00E94370380EE91E00C943703A0
:1009E000789484B5826084BD84B5816084BD85B50A
:1009F000826085BD85B5816085BD80916E00816016
:100A000080936E00109281008091810082608093BB
:100A100081008091810081608093810080918000BD
:100A20008160809380008091B10084608093B100E8
:100A30008091B00081608093B00080917A008460E2
:100A400080937A0080917A00826080937A0080910E
:100A50007A00816080937A0080917A008068809328
:100A60007A001092C100E0915301F091540182E0AC
:100A70008083E0914F01F09150011082E09151018B
:100A8000F09152018FEC808310925B01E09157014D
:100A9000F091580186E08083E0915501F091560174
:100AA000808180618083E0915501F09156018081C1
:100AB00088608083E0915501F091560180818068C3
:100AC0008083E0915501F091560180818F7D808374
:100AD00068E070E086EE91E00E94BF0269E070E09D
:100AE00083EE91E00E94BF026AE070E080EE91E048
:100AF0000E94BF028AE0E82EF12CCAE0D0E063E059
:100B000070E086EE91E00E943C026CE370E080E0D1
:100B100090E00E9402026AE070E083EE91E00E94A1
:100B20003C026CE370E080E090E00E9402026AE028
:100B300070E080EE91E00E943C026CE370E080E0A7
:100B400090E00E9402022197D1F668EE73E080E007
:100B500090E00E940202F0924201E09241010AE01C
:100B600010E0C0914101D0914201BE0186EE91E0BA
:100B70000E943C0264EF71E080E090E00E9402027B
:100B8000BE0183EE91E00E943C0264EF71E080E0E0
:100B900090E00E940202BE0180EE91E00E943C02C1
:100BA00064EF71E080E090E00E9402022A96D09308
:100BB0004201C09341010150110999F660ED77E0BF
:100BC00080E090E00E9402020E94870196CF052EED
:100BD00097FB1EF400940E94FE0557FD07D00E946B
:100BE000190607FC03D04EF40C94FE055095409571
:100BF000309521953F4F4F4F5F4F089590958095C9
:100C0000709561957F4F8F4F9F4F08950E943B06CF
:100C1000A59F900DB49F900DA49F800D911D112450
:100C20000895B7FF0C9406060E940606821B930BDC
:100C30000895A1E21A2EAA1BBB1BFD010DC0AA1F1D
:100C4000BB1FEE1FFF1FA217B307E407F50720F035
:100C5000A21BB30BE40BF50B661F771F881F991FB0
:100C60001A9469F760957095809590959B01AC01F9
:100C7000BD01CF010895A29FB001B39FC001A39F02
:100C8000700D811D1124911DB29F700D811D1124C5
:100C9000911D0895991B79E004C0991F961708F0DB
:100CA000961B881F7A95C9F780950895EE0FFF1F50
:100CB0000590F491E02D099481E090E0F8940C9473
:060CC0006106F894FFCF6D
:100CC600000000001E018700B6006501E700C500B0
:020CD600D90043
:00000001FF
