:100000000C9473000C949B000C949B000C949B002C
:100010000C949B000C949B000C949B000C949B00F4
:100020000C949B000C949B000C949B000C949B00E4
:100030000C949B000C949B000C949B000C949B00D4
:100040000C949B000C949B000C9425010C949B0039
:100050000C94E2030C9414040C949B000C949B00ED
:100060000C949B000C949B000C949B000C949B00A4
:100070000000000203000000000000000504090861
:100080000000000000000000000000000000000070
:100090000102040810204080010204081020408062
:1000A0000102040810204080010204081020408052
:1000B0000202020202020202040404040404040410
:1000C0000303030303030303010101010101010110
:1000D00000002200250028002B0000002100240041
:1000E00027002A00440411241FBECFEFD0E1DEBF59
:1000F000CDBF11E0A0E0B1E0E6E0FCE002C0059079
:100100000D92A033B107D9F721E0A0E3B1E001C01F
:100110001D92A83DB207E1F710E0C3E7D0E004C0AC
:100120002197FE010E94EC05C237D107C9F70E9452
:10013000AF050C9401060C94000061E0809104016D
:100140000E944B0261E0809102010E944B0226E076
:1001500040E855E260E070E08BE391E00E947D03AF
:1001600066E071E08BE391E00C94B50461E080916E
:1001700004010E94870262E370E080E090E00E9448
:10018000A00161E0809102010E948702809100013C
:10019000909101010E94DC0160E0809102010E94C7
:1001A000870280910001909101010E94DC01E9CF5A
:1001B00060E0809104010E94870262E370E080E0C9
:1001C00090E00E94A00161E0809102010E948702FC
:1001D00080910001909101010E94DC0160E080911A
:1001E00002010E94870280910001909101010E940A
:1001F000DC01E9CF8BE391E00E94B702892B59F033
:1002000041E060E070E08BE391E00E94350570937F
:100210003101609330018091300190913101813042
:10022000910541F46CE071E08BE391E00E94B5042C
:100230000E94B600029741F46EE071E08BE391E01A
:100240000E94B5040E94D80008951F920F920FB625
:100250000F9211242F933F938F939F93AF93BF934C
:100260008091330190913401A0913501B091360114
:100270003091320123E0230F2D3720F40196A11D88
:10028000B11D05C026E8230F0296A11DB11D2093C4
:1002900032018093330190933401A0933501B093E0
:1002A00036018091370190913801A0913901B091C8
:1002B0003A010196A11DB11D809337019093380139
:1002C000A0933901B0933A01BF91AF919F918F9163
:1002D0003F912F910F900FBE0F901F9018952FB741
:1002E000F8946091330170913401809135019091BF
:1002F00036012FBF08953FB7F89480913701909150
:100300003801A0913901B0913A0126B5A89B05C0EA
:100310002F3F19F00196A11DB11D3FBFBA2FA92F84
:10032000982F8827820F911DA11DB11DBC01CD0101
:1003300042E0660F771F881F991F4A95D1F70895ED
:100340008F929F92AF92BF92CF92DF92EF92FF92E5
:100350006B017C010E947B014B015C01C114D10443
:10036000E104F10401F10E94BE050E947B01DC0161
:10037000CB0188199909AA09BB09883E9340A105B8
:10038000B10560F321E0C21AD108E108F10888EE56
:10039000880E83E0981EA11CB11CC114D104E10495
:1003A000F10419F7DBCFFF90EF90DF90CF90BF9073
:1003B000AF909F908F9008958230910538F0880F0C
:1003C000991F880F991F05970197F1F70895789461
:1003D00084B5826084BD84B5816084BD85B582604A
:1003E00085BD85B5816085BDEEE6F0E080818160E8
:1003F0008083E1E8F0E010828081826080838081E8
:1004000081608083E0E8F0E0808181608083E1EBBF
:10041000F0E0808184608083E0EBF0E080818160A7
:100420008083EAE7F0E0808184608083808182605D
:100430008083808181608083808180688083109246
:10044000C1000895843081F028F4823099F083301F
:10045000A1F008958830A9F08930B9F08530D1F441
:10046000809180008F7D03C0809180008F77809382
:100470008000089584B58F7702C084B58F7D84BDD8
:1004800008958091B0008F7703C08091B0008F7D78
:100490008093B0000895CF93DF9390E0FC01E05784
:1004A000FF4F2491FC01E055FF4F8491882361F1B7
:1004B00090E0880F991FFC01E652FF4FC591D4913F
:1004C000FC01E053FF4FA591B491611109C09FB7A2
:1004D000F8948881209582238883EC912E230BC089
:1004E000623061F49FB7F8943881822F809583231E
:1004F0008883EC912E2B2C939FBF06C08FB7F89466
:10050000E8812E2B28838FBFDF91CF9108951F9311
:10051000CF93DF93282F30E0F901E059FF4F84910A
:10052000F901E057FF4FD491F901E055FF4FC49115
:10053000CC23C9F0162F81110E942202EC2FF0E08B
:10054000EE0FFF1FE053FF4FA591B4918FB7F894C2
:10055000111105C09C91ED2FE095E92302C0EC91AB
:10056000ED2BEC938FBFDF91CF911F910895FC018C
:10057000918D228D892F90E0805C9F4F821B910985
:100580008F7399270895FC01918D828D981731F012
:10059000828DE80FF11D858D90E008958FEF9FEF1C
:1005A0000895FC01918D828D981761F0828DDF0195
:1005B000A80FB11D5D968C91928D9F5F9F73928F56
:1005C00090E008958FEF9FEF08958AE394E0892BE0
:1005D00049F080E090E0892B29F00E943A048111D3
:1005E0000C9400000895FC01848DDF01A80FB11D5B
:1005F000A35ABF4F2C91848D90E001968F73992759
:10060000848FA689B7892C93A089B1898C91806445
:100610008C93938D848D981306C00288F389E02D06
:1006200080818F7D80830895CF93DF93EC01888D47
:100630008823C9F0EA89FB89808185FD05C0A889E6
:10064000B9898C9186FD0FC00FB607FCF5CF80816C
:1006500085FFF2CFA889B9898C9185FFEDCFCE01B6
:100660000E94F302E7CFDF91CF910895EF92FF92BE
:100670000F931F93CF93DF93EC0181E0888F9B8DC5
:100680008C8D981305C0E889F989808185FD24C087
:10069000F62E0B8D10E00F5F1F4F0F731127E02E0A
:1006A0008C8DE8120CC00FB607FCFACFE889F989E7
:1006B000808185FFF5CFCE010E94F302F1CF8B8DB3
:1006C000FE01E80FF11DE35AFF4FF0820B8FEA891C
:1006D000FB898081806207C0EE89FF896083E88999
:1006E000F98980818064808381E090E0DF91CF91FF
:1006F0001F910F91FF90EF900895CF92DF92EF92AC
:10070000FF921F93CF93DF93EC016A017B01122FBD
:10071000E889F98982E080834115514E61057105B0
:10072000B1F060E079E08DE390E0A70196010E94CE
:10073000BF05DA01C9010197A109B109B695A795CD
:1007400097958795AC01411580E15807A8F0E88995
:10075000F989108260E874E88EE190E0A7019601C3
:100760000E94BF05BA01A9014150510961097109EF
:100770007695679557954795EC85FD855083EE8571
:10078000FF854083188EEC89FD891083EA89FB89F7
:10079000808180618083EA89FB8980818860808391
:1007A000EA89FB89808180688083EA89FB8980816E
:1007B0008F7D8083DF91CF911F91FF90EF90DF902D
:1007C000CF9008951F920F920FB60F9211242F937E
:1007D0008F939F93EF93FF93E0914B01F0914C0126
:1007E0008081E0915101F091520182FD12C090810F
:1007F000809154018F5F8F7320915501821751F0C2
:10080000E0915401F0E0E55CFE4F958F8093540138
:1008100001C08081FF91EF919F918F912F910F9057
:100820000FBE0F901F9018951F920F920FB60F9248
:1008300011242F933F934F935F936F937F938F93E5
:100840009F93AF93BF93EF93FF938BE391E00E944D
:10085000F302FF91EF91BF91AF919F918F917F91A3
:100860006F915F914F913F912F910F900FBE0F901D
:100870001F9018958BE391E00E94B70221E0892B2D
:1008800009F420E0822F0895EBE3F1E01382128255
:1008900088EE93E0A0E0B0E084839583A683B783DD
:1008A00084E191E09183808385EC90E09587848753
:1008B00084EC90E09787868780EC90E0918B808B2A
:1008C00081EC90E0938B828B82EC90E0958B848B13
:1008D00086EC90E0978B868B118E128E138E148E81
:1008E0000895CF92DF92EF92FF920F931F93CF93D1
:1008F000DF936C017A018B01C0E0D0E0CE15DF05FB
:1009000089F0D8016D918D01D601ED91FC91019096
:10091000F081E02DC6010995892B11F47E0102C0FA
:100920002196ECCFC701DF91CF911F910F91FF90DE
:10093000EF90DF90CF9008956115710579F0FB017C
:1009400001900020E9F73197AF01461B570BDC01FE
:10095000ED91FC910280F381E02D099480E090E01C
:10096000089560E271E00C949C040F931F93CF9361
:10097000DF93EC010E949C048C01CE010E94B10423
:10098000800F911FDF91CF911F910F9108950F93C9
:100990001F93CF93DF93EC010E946F0168877987E3
:1009A0008A879B87E881F9810084F185E02DCE015B
:1009B000099597FF17C00E946F01088519852A8540
:1009C0003B85DC01CB01801B910BA20BB30B0C818F
:1009D0001D812E813F8180179107A207B30710F375
:1009E0008FEF9FEFDF91CF911F910F910895FF92AD
:1009F0000F931F93CF93DF93EC018B01F42ECE0165
:100A00000E94C7049C0197FD0BC08D32910541F0F7
:100A1000C0970A9728F0FF2029F02E32310511F4F3
:100A2000C9011DC001301105C1F00230110569F482
:100A30002D30310551F034F429503109223031057F
:100A400020F00BC02032310541F4E881F9810680A5
:100A5000F781E02DCE010995D2CF8FEF9FEFDF9187
:100A6000CF911F910F91FF9008958F929F92AF9217
:100A7000BF92CF92DF92FF920F931F93CF93DF939A
:100A800000D000D0CDB7DEB78C01B42E40E00E947C
:100A9000F704FC0197FD4CC020E030E0A901F12CE7
:100AA000CB2CBB0CDD08EC15FD05F1F0ED32F105AA
:100AB000C9F0CF01C0970A97B8F4AAE0B0E00E944D
:100AC000E1054F01FF0FAA08BB08DC01CB01880D2F
:100AD000991DAA1DBB1D9C01AD012053310941097F
:100AE000510902C0FF24F394D801ED91FC910680D6
:100AF000F781E02DC80129833A834B835C830995F4
:100B0000C8010E94C704FC01C09729813A814B812A
:100B10005C810A9740F2EC15FD0529F2FF2061F097
:100B200066277727CB01621B730B840B950B06C0DE
:100B300060E070E0CB0102C0CA01B9010F900F90D4
:100B40000F900F90DF91CF911F910F91FF90DF9049
:100B5000CF90BF90AF909F908F90089508950E947E
:100B6000E7010E94AE050E949D00C5EED2E00E9402
:100B7000FA002097E1F30E94E502F9CF0895A1E27F
:100B80001A2EAA1BBB1BFD010DC0AA1FBB1FEE1F07
:100B9000FF1FA217B307E407F50720F0A21BB30B52
:100BA000E40BF50B661F771F881F991F1A9469F7CE
:100BB00060957095809590959B01AC01BD01CF012A
:100BC00008950E94F205A59F900DB49F900DA49FDB
:100BD000800D911D11240895EE0FFF1F0590F491D3
:100BE000E02D0994A29FB001B39FC001A39F700D97
:100BF000811D1124911DB29F700D811D1124911D25
:060C00000895F894FFCFF7
:100C06000F00020003007374617274004100420019
:100C16000000000036037104B702D102C3021403B8
:100C26000D0A006E616E00696E66006F76660000E2
:00000001FF
