:100000000C9458000C9480000C9480000C94800098
:100010000C9480000C9480000C9480000C94800060
:100020000C9480000C9480000C9480000C94800050
:100030000C9480000C9480000C9480000C94800040
:100040000C949D020C9480000C940D030C94E70218
:100050000C9480000C9480000C9480000C94800020
:100060000C943F030C948000000000002500280041
:100070002B00040404040404040402020202020229
:10008000030303030303010204081020408001025C
:1000900004081020010204081020000000080002DB
:1000A00001000003040700000000000000006D04D0
:1000B00011241FBECFEFD8E0DEBFCDBF11E0A0E01E
:1000C000B1E0E4EEFBE002C005900D92AA34B10766
:1000D000D9F722E0AAE4B1E001C01D92A139B2072C
:1000E000E1F710E0C8E5D0E004C02197FE010E94CE
:1000F000E505C735D107C9F70E94A6040C94F005A1
:100100000C94000090E0FC01E656FF4F2491FC01A6
:10011000EA57FF4F3491FC01EE58FF4FE491EE2374
:10012000B1F1222339F1233091F038F42130A9F0D4
:10013000223001F584B58F7D12C0273091F0283030
:10014000A1F02430B9F4809180008F7D03C08091AC
:1001500080008F77809380000DC084B58F7784BD39
:1001600009C08091B0008F7703C08091B0008F7D6F
:100170008093B000F0E0EE0FFF1FE859FF4FA5910C
:10018000B4918FB7F894EC913E2B3C938FBF0895B8
:10019000CF92DF92EF92FF920F931F93CF93DF9353
:1001A0006C017A018B01C0E0D0E0CE15DF0589F04B
:1001B000D8016D918D01D601ED91FC910190F081F6
:1001C000E02DC6010995892B11F47E0102C021960C
:1001D000ECCFC701DF91CF911F910F91FF90EF906E
:1001E000DF90CF900895FC01538D448D252F30E092
:1001F000842F90E0821B930B541710F0CF96089534
:1002000001970895FC01918D828D981761F0828D80
:10021000DF01A80FB11D5D968C91928D9F5F9F733A
:10022000928F90E008958FEF9FEF0895FC01918DDC
:10023000828D981731F0828DE80FF11D858D90E049
:1002400008958FEF9FEF0895FC01918D228D892FE6
:1002500090E0805C9F4F821B91098F7399270895CE
:1002600088EE91E00E94240121E0892B09F420E02E
:10027000822F0895FC01848DDF01A80FB11DA35AC0
:10028000BF4F2C91848D90E001968F739927848FB6
:10029000A689B7892C93A089B1898C9180648C93AD
:1002A000938D848D981306C00288F389E02D808198
:1002B0008F7D80830895EF92FF920F931F93CF93CA
:1002C000DF93EC0181E0888F9B8D8C8D981305C0A6
:1002D000E889F989808185FD24C0F62E0B8D10E018
:1002E0000F5F1F4F0F731127E02E8C8DE8120CC08B
:1002F0000FB607FCFACFE889F989808185FFF5CF31
:10030000CE010E943A01F1CF8B8DFE01E80FF11D65
:10031000E35AFF4FF0820B8FEA89FB89808180626C
:1003200007C0EE89FF896083E889F989808180644C
:10033000808381E090E0DF91CF911F910F91FF903A
:10034000EF900895CF93DF93EC01888D8823C9F057
:10035000EA89FB89808185FD05C0A889B9898C91CE
:1003600086FD0FC00FB607FCF5CF808185FFF2CF69
:10037000A889B9898C9185FFEDCFCE010E943A0101
:10038000E7CFDF91CF91089580E090E0892B29F0AD
:100390000E94300181110C940000089585ED809336
:1003A000BC008091BC0084FDFCCF1092B90108957F
:1003B00040916C01262F30E0240F311D2132310590
:1003C000DCF42091B9012430C9F4FC0180E090E014
:1003D000861758F430916C012191DC01A65BBE4F69
:1003E000A30FB11D2C930196F3CF80916C01680F80
:1003F00060936C0180E0089581E0089582E00895A3
:10040000089581E090E0309192012091910132179E
:1004100010F480E090E09195819591090895809184
:10042000920190919101891730F48F5F809392012E
:1004300080E090E008958FEF9FEF08958091910103
:1004400090E020919201821B91090895CF92DF9252
:10045000EF92FF920F931F93CF93DF937C01262F90
:10046000972F8A018091DD01882391F0C62FD72F25
:100470006E01C40ED51ECC15DD0571F06991D70152
:10048000ED91FC910190F081E02DC7010995F3CF2A
:10049000642F822F0E94D801C801DF91CF911F9154
:1004A0000F91FF90EF90DF90CF900895CF93DF935F
:1004B0001F92CDB7DEB769832091DD012223D1F0F1
:1004C0002091DA01203240F021E030E0FC0133835A
:1004D000228380E090E015C08091DB01E82FF0E0FE
:1004E000E654FE4F998190838F5F8093DB01809368
:1004F000DA0105C061E0CE0101960E94D80181E0D9
:1005000090E00F90DF91CF910895089580E090E002
:100510000895009769F0FC0101900020E9F73197F8
:10052000AF01481B590BBC0188EE91E00C94C80048
:1005300080E090E008950E94EB051F920F920FB6A5
:100540000F9211242F933F938F939F93AF93BF9359
:100550008091E4019091E501A091E601B091E7015D
:100560003091E30123E0230F2D3720F40196A11DE4
:10057000B11D05C026E8230F0296A11DB11D2093D1
:10058000E3018093E4019093E501A093E601B09329
:10059000E7018091DF019091E001A091E101B0912C
:1005A000E2010196A11DB11D8093DF019093E0014E
:1005B000A093E101B093E201BF91AF919F918F9120
:1005C0003F912F910F900FBE0F901F9018951F9283
:1005D0000F920FB60F9211242F933F934F935F9377
:1005E0006F937F938F939F93AF93BF93EF93FF93FB
:1005F00088EE91E00E943A01FF91EF91BF91AF9197
:100600009F918F917F916F915F914F913F912F912A
:100610000F900FBE0F901F9018951F920F920FB65C
:100620000F9211242F938F939F93EF93FF93E09159
:10063000F801F091F9018081E091FE01F091FF0154
:1006400082FD12C09081809101028F5F8F73209193
:100650000202821751F0E0910102F0E0E851FE4FF2
:10066000958F8093010201C08081FF91EF919F914E
:100670008F912F910F900FBE0F901F9018951F9282
:100680000F920FB60F9211242F933F934F935F93C6
:100690006F937F938F939F93AF93BF93EF93FF934A
:1006A0008091B900887F803609F49CC068F5883253
:1006B00009F45BC090F4803109F454C038F4882305
:1006C00009F4F6C0883009F44DC0F6C0883109F449
:1006D0004CC0803209F45DC0EFC0803409F468C0BA
:1006E00048F4803309F455C0883309F0E5C080939D
:1006F000B701D8C0803509F44FC0883509F45DC012
:10070000883409F0D9C0D6C0883909F4C7C0A8F424
:10071000883709F467C038F4883609F463C0803735
:1007200009F460C0C9C0883809F4B8C0803909F438
:100730005FC0803809F0C0C05BC0803B09F486C050
:1007400038F4803A09F466C0883A09F47FC0B4C02E
:10075000803C09F4A7C0883C09F4A4C0883B09F494
:100760008AC0AAC08091940110C09091B601809176
:10077000B501981770F5E091B60181E08E0F809376
:10078000B601F0E0EB56FE4F80818093BB0085EC14
:1007900086C08093B7018EC0E091B60181E08E0FD4
:1007A0008093B6018091BB00F0E0EB56FE4F808352
:1007B0009091B6018091B5016EC0E091B60181E0E3
:1007C0008E0F8093B6018091BB00F0E0EB56FE4F98
:1007D00080838091B80181116DC081E08093930185
:1007E00084EA61C083E08093B90110929001CFCF79
:1007F00080919001803208F051C0E091900181E039
:100800008E0F809390018091BB00F0E0E059FE4F85
:100810008083BDCF85EC8093BC001092B90180919C
:100820009001803230F4E0919001F0E0E059FE4F09
:1008300010826091900170E0E0916E01F0916F0183
:1008400080E791E009951092900136C084E0809392
:10085000B90110926D0110926C01E0916A01F09162
:100860006B01099580916C01811105C081E0809335
:100870006C0110924A01E0916D0181E08E0F80932E
:100880006D01F0E0E65BFE4F80818093BB009091AC
:100890006D0180916C01981708F479CF85E88093F9
:1008A000BC000AC085EC8093BC001092B90104C062
:1008B0001092B7010E94CE01FF91EF91BF91AF91CD
:1008C0009F918F917F916F915F914F913F912F9168
:1008D0000F900FBE0F901F901895E8EEF1E0138275
:1008E000128288EE93E0A0E0B0E084839583A68333
:1008F000B78324E031E03183208325EC30E0358775
:10090000248724EC30E03787268720EC30E0318BD9
:10091000208B21EC30E0338B228B22EC30E0358BC6
:10092000248B26EC30E0378B268B118E128E138EA3
:10093000148EE5E8F2E01382128284839583A68305
:10094000B78386E191E0918380830895CF93DF930D
:10095000CDB7DEB7A1970FB6F894DEBF0FBECDBFFF
:10096000789484B5826084BD84B5816084BD85B58A
:10097000826085BD85B5816085BD80916E00816096
:1009800080936E001092810080918100826080933C
:10099000810080918100816080938100809180003E
:1009A0008160809380008091B10084608093B10069
:1009B0008091B00081608093B00080917A00846063
:1009C00080937A0080917A00826080937A0080918F
:1009D0007A00816080937A0080917A0080688093A9
:1009E0007A001092C100109292011092910110921F
:1009F000DB011092DA011092B90181E08093B80115
:100A00001092930182E10E94820083E10E948200A1
:100A10008091B9008E7F8093B9008091B9008D7F5D
:100A20008093B90088E48093B80085E48093BC008B
:100A3000E091F801F091F90182E08083E091F40106
:100A4000F091F5011082E091F601F091F7018FEC41
:100A5000808310920002E091FC01F091FD0186E09C
:100A60008083E091FA01F091FB01808180618083B5
:100A7000E091FA01F091FB01808188608083E09130
:100A8000FA01F091FB01808180688083E091FA0196
:100A9000F091FB0180818F7D808384E291E00E9450
:100AA000890286E491E00E94890219A282E388A368
:100AB000CE0180960E94890286E491E00E9489021C
:100AC00001E082E0D82ECC24CA9495E9E92E91E089
:100AD000F92E25EEB22E35ECA32E88EE91E00E9481
:100AE0002401892B09F46EC088EE91E00E94020176
:100AF000182F8093DE010093DD01D092DC0110926B
:100B0000DB011092DA01682F85E892E00E9456021C
:100B1000E091E801F091E9010190F081E02D612F71
:100B200088EE91E009959091DA018091DC01913293
:100B300008F042C02091B9012111FCCFD092B90137
:100B40000093B801C092B7011092B6019093B5011D
:100B5000AAEBB1E0E5E9F1E02E2F2E19291718F4E0
:100B60002D912193F9CF1092940190919401880FC7
:100B7000892B8093940180919301813069F41092C4
:100B80009301809194018093BB008091BC0083FD10
:100B9000F8CFA092BC0002C0B092BC008091B90115
:100BA0008230E1F38091B7018F3F31F08091B7013E
:100BB000803211F08091B7011092DB011092DA01BE
:100BC0001092DD010E94C40188CFEE0FFF1F059037
:100BD000F491E02D099481E090E0F8940C94F005F4
:040BE000F894FFCFB7
:100BE400000000005B01C800F300A201240102011F
:100BF40016010000000056022602860200021E02B0
:100C04000F0201027465737420746573742054793F
:100C1400706520736F6D657468696E6720746F20EA
:0A0C240073656E643A000D0A0000CB
:00000001FF
