:100000003EC100006DC100006BC1000069C100006D
:1000100067C1000065C1000063C1000061C100004C
:100020005FC100005DC100005BC1000059C100005C
:1000300057C1000055C1000053C1000051C100006C
:100040004FC100004DC100004BC1000049C100007C
:1000500047C1000045C1000043C100008CC500003D
:100060003FC100001AC50000EFC4000039C1000004
:1000700037C1000035C1000033C1000031C10000AC
:100080002FC100002DC100002BC1000029C10000BC
:1000900027C1000025C1000023C10000B6C5000033
:1000A0001FC100001DC100001BC1000019C10000DC
:1000B00017C1000015C1000013C1000011C10000EC
:1000C0000FC100000DC100000BC1000009C10000FC
:1000D00007C1000005C1000003C1000001C100000C
:1000E000FFC00000E40CE70CD60CDA0CDE0C1E0D91
:1000F000EB0CEF0CF50CF90CFD0C030D070D0B0DC3
:100100001E0D110D150D190D036EDB363D9A9999D3
:10011000993DABAAAA2A3E000000803F084AD73B7F
:100120003BCE016E84BCBFFDC12F3D6C74319ABDC6
:1001300056833DDA3D00C77F11BED9E4BB4C3E91EA
:100140006BAAAABE000000803F072C7AA5BA6CC536
:1001500090DA3B9365FC8BBC53F810FD3C569283C0
:100160004DBD879D3AB63DCBC9BF5BBE73DA0FC9A3
:100170003F05A84CCDB2D44EB93836A9020C50B9BF
:10018000918688083CA6AAAA2ABE000000803F00EB
:1001900000002200250028002B002E003100340032
:1001A00002010000050108010B0105050505070511
:1001B00008080808020202020A0A080804040404E3
:1001C000010101010101010103030303030303030F
:1001D000040707070C0C0C0C0C0C0C0C020202029E
:1001E00006060606060606060B0B0B0B0B0B0B0B87
:1001F0000102102020080810204010204080020139
:10020000020108040201010204081020408080401D
:10021000201008040201800402018040201008041C
:1002200002010804020101020408102040800102BA
:1002300004081020408000000A0B02090C0D0E0873
:10024000070304010000000000000000000000009F
:10025000000000000000000000000000000000009E
:10026000000012111000000000000000000000005B
:10027000000000000000000000000000BF1A112470
:100280001FBECFEFD1E2DEBFCDBF00E00CBF28E044
:10029000AEEDB5E001C01D92A135B207E1F715E062
:1002A000A0E0B2E0E4E5FDE300E00BBF02C0079090
:1002B0000D92AE3DB107D9F711E0CFE3D1E000E0F8
:1002C00006C021970109802FFE010E94931ECE33A4
:1002D000D10780E00807A9F70E94AD0F0C94A81E73
:1002E0008FCEFC01538D448D252F30E0842F90E07C
:1002F000821B930B541710F0CF9608950197089521
:10030000FC01918D828D981761F0828DDF01A80F1D
:10031000B11D5D968C91928D9F5F9F73928F90E03F
:1003200008958FEF9FEF0895FC01918D828D9817AE
:1003300031F0828DE80FF11D858D90E008958FEFEB
:100340009FEF0895FC01918D228D892F90E0805CB4
:100350009F4F821B91098F739927089589E397E036
:10036000F1DF21E0892B09F420E0822F0895FC01C0
:10037000848DDF01A80FB11DA35ABF4F2C91848D2E
:1003800090E001968F739927848FA689B7892C9363
:10039000A089B1898C91837080648C93938D848DB6
:1003A000981306C00288F389E02D80818F7D8083B9
:1003B0000895EF92FF920F931F93CF93DF93EC0179
:1003C00081E0888F9B8D8C8D981305C0E889F98911
:1003D000808185FD25C0F62E0B8D10E00F5F1F4F2D
:1003E0000F731127E02E8C8DE8120BC00FB607FC9F
:1003F000FACFE889F989808185FFF5CFCE01B7DF93
:10040000F2CF8B8DFE01E80FF11DE35AFF4FF08212
:100410009FB7F8940B8FEA89FB89808180620AC0BC
:100420009FB7F894EE89FF896083E889F989808114
:100430008370806480839FBF81E090E0DF91CF91E3
:100440001F910F91FF90EF900895CF93DF93EC01F0
:10045000888D8823C1F0EA89FB89808185FD05C0EC
:10046000A889B9898C9186FD0EC00FB607FCF5CF1F
:10047000808185FFF2CFA889B9898C9185FFEDCF66
:10048000CE0175DFE8CFDF91CF91089580E090E055
:10049000892B19F063DF811125C080E090E0892B62
:1004A00041F080E090E0892B21F00E940000811152
:1004B0001CC080E090E0892B41F080E090E0892B27
:1004C00021F00E940000811113C080E090E0892B90
:1004D000A1F080E090E0892B81F00E940000811162
:1004E0000AC008950E940000D8CF0E940000E1CF0A
:1004F0000E940000EACF0C94000008953FB7F894E2
:100500008091CB069091CC06A091CD06B091CE06FD
:1005100026B5A89B05C02F3F19F00196A11DB11D5E
:100520003FBFBA2FA92F982F8827820F911DA11D99
:10053000B11DBC01CD0142E0660F771F881F991FD6
:100540004A95D1F7089585ED8093BC008091BC0059
:1005500084FDFCCF1092150708954091A706262F21
:1005600030E0240F311D21323105DCF420911507D4
:100570002430C9F4FC0180E090E0861758F43091F3
:10058000A7062191DC01A957B94FA30FB11D2C93E8
:100590000196F3CF8091A706680F6093A70680E0CD
:1005A000089581E0089582E00895089508950895DA
:1005B000E091E3058091E205E81730F4F0E0E153C3
:1005C000F94F808190E008958FEF9FEF089590910B
:1005D000E3058091E205981750F4E92FF0E0E1532C
:1005E000F94F208130E09F5F9093E30502C02FEF29
:1005F0003FEFC90108958091E20590E02091E30565
:10060000821B91090895CF92DF92EF92FF920F9390
:100610001F93CF93DF937C01CB018A0120911607B2
:10062000222389F0EB016B01C40ED51ECC15DD052C
:1006300061F06991D701ED91FC910190F081E02D7D
:10064000C7011995F3CF642F88DFC801DF91CF91DF
:100650001F910F91FF90EF90DF90CF900895CF936F
:10066000DF931F92CDB7DEB769832091160722234F
:10067000D1F020913807203240F021E030E0FC0139
:100680003383228380E090E014C080911707E82F25
:10069000F0E0E85EF84F998190838F5F80931707B1
:1006A0008093380704C061E0CE01019656DF81E0F7
:1006B00090E00F90DF91CF910895089580E090E051
:1006C0000895FC0126813781620F731F8481958113
:1006D0008617970738F08281938177836683820F2C
:1006E000931F089580E090E0089580917E06811127
:1006F0000BC010927B0610927A0610927D06109223
:100700007C0681E080937E068AE796E008950E9449
:100710009B1E0F931F93CF93DF938B01FC01C2812C
:10072000D3812097A9F06A817B810115110519F009
:100730006115710521F46017710731F409C0C80112
:100740000E949F1E892B21F00990D881C02DE9CFEE
:10075000CE01DF91CF911F910F9108958F929F92BB
:10076000AF92BF92FF920F931F93CF93DF93D1DF8E
:10077000FC01892B09F412C1848195818330910594
:1007800020F4019708F40AC114C08530910550F097
:10079000059709F0F4C066817781808591850E9474
:1007A000021BEBC066817781808591850E94021BC8
:1007B000FDC0C681D781209709F4F0C088818B32B3
:1007C00029F08D3221F4219611E002C0219610E02B
:1007D0008881843709F4D8C08F7D8E3409F4D9C05C
:1007E000893409F482C0F12C20E030E0A901FE0137
:1007F000099180ED800F8A30E8F42C3C8CEC3807AE
:100800008CE048075105A4F4AAE0B0E00E94171C50
:10081000202F000F330B205331094901330FAA0851
:10082000BB08A5019401260F371F481F591FDFCFB2
:10083000F394DDCF0E3221F5EF012196FE010991EF
:1008400080ED800F8A30E0F42C3C8CEC38078CE093
:10085000480751059CF7AAE0B0E00E94171C202F22
:10086000000F330B205331094901330FAA08BB088D
:10087000A5019401260F371F481F591FFA94DECF98
:1008800080818F7DCF2DFF0CDD0B8534E1F58181DB
:100890008D3219F4329671E006C08B3211F0319628
:1008A00001C0329670E080E090E00AE06191A0ED36
:1008B000A60FAA3010F5089FD001099FB00D112492
:1008C000862F660F990BC0978A0F9B1FDE01A80F1A
:1008D000B91F97975CF3772341F0112309F45EC0A9
:1008E00060E070E080E090E861C0112309F45AC034
:1008F00060E070E080E89FEF59C0772331F0919578
:100900008195910902C080E090E0C80FD91FCA010B
:10091000B9010E94041B1C161D06ACF400E0C0FFC8
:100920000CC024E0029FF0011124E25EFD4F208103
:100930003181428153810E94631BD595C7950F5F1A
:10094000209769F718C0D195C195D10900E020978B
:1009500091F0C0FF0CC024E0029FF0011124EA5F77
:10096000FD4F20813181428153810E94631BD595C7
:10097000C7950F5FECCF1123C9F0905817C066815F
:1009800077818085918512C060E070E080E89FE308
:100990000DC060E070E080EC9FE708C060E070E0B0
:1009A000CB0104C060E070E080E89FE7DF91CF9169
:1009B0001F910F91FF90BF90AF909F908F900895DF
:1009C000A8DEFC01892BD9F18481958183309105C2
:1009D00018F40197A0F109C08530910520F0059722
:1009E00039F5668123C066812DC00680F781E02D30
:1009F000309729F18081843721F18B3229F08D32B3
:100A000021F4319691E002C0319690E060E02191AE
:100A100080ED820F8A3040F4660F862F880F880F92
:100A2000680F6053620FF3CF992361F061950AC09C
:100A300066817781808591850E944D1D03C060E0AD
:100A400001C061E0862F08951F920F920FB60F929A
:100A500011240BB60F922F933F934F935F936F9395
:100A60007F938F939F93AF93BF93EF93FF9389E30C
:100A700097E07DDCFF91EF91BF91AF919F918F91B6
:100A80007F916F915F914F913F912F910F900BBE8E
:100A90000F900FBE0F901F9018951F920F920FB6D8
:100AA0000F9211240BB60F922F938F939F93EF9376
:100AB000FF93E0914907F0914A078081E0914F0749
:100AC000F091500782FD12C09081809152078F5F94
:100AD0008F7320915307821751F0E0915207F0E095
:100AE000E75CF84F958F8093520701C08081FF919A
:100AF000EF919F918F912F910F900BBE0F900FBE92
:100B00000F901F9018958F929F92AF92BF92CF92A5
:100B1000DF92EF92FF926B017C01F0DC4B015C01F4
:100B2000C114D104E104F104E9F0E8DCDC01CB01FB
:100B300088199909AA09BB09883E9340A105B10506
:100B400078F321E0C21AD108E108F10888EE880E96
:100B500083E0981EA11CB11CC114D104E104F1046E
:100B600021F7DECFFF90EF90DF90CF90BF90AF9056
:100B70009F908F9008951F920F920FB60F9211249D
:100B80002F933F938F939F93AF93BF9380914D0883
:100B900090914E08A0914F08B09150083091CA062C
:100BA00023E0230F2D3720F40196A11DB11D05C0B0
:100BB00026E8230F0296A11DB11D2093CA0680933B
:100BC0004D0890934E08A0934F08B0935008809121
:100BD000CB069091CC06A091CD06B091CE060196A1
:100BE000A11DB11D8093CB069093CC06A093CD069A
:100BF000B093CE06BF91AF919F918F913F912F916E
:100C00000F900FBE0F901F9018951F920F920FB666
:100C10000F9211240BB60F922F933F934F935F9334
:100C20006F937F938F939F93AF93BF93EF93FF93B4
:100C30008091B900887F803609F49CC068F58832BD
:100C400009F45BC090F4803109F454C038F488236F
:100C500009F4F6C0883009F44DC0F5C0883109F4B4
:100C60004CC0803209F45DC0EEC0803409F468C025
:100C700048F4803309F455C0883309F0E4C0809308
:100C80001307D8C0803509F44FC0883509F45DC01A
:100C9000883409F0D8C0D6C0883909F4C7C0A8F490
:100CA000883709F467C038F4883609F463C08037A0
:100CB00009F460C0C8C0883809F4B8C0803909F4A4
:100CC0005FC0803809F0BFC05BC0803B09F486C0BC
:100CD00038F4803A09F466C0883A09F47FC0B3C09A
:100CE000803C09F4A7C0883C09F4A4C0883B09F4FF
:100CF0008AC0A9C08091F00610C09091120780911F
:100D00001107981770F5E091120781E08E0F80931C
:100D10001207F0E0EF50F94F80818093BB0085EC23
:100D200086C0809313078EC0E091120781E08E0F7A
:100D3000809312078091BB00F0E0EF50F94F808361
:100D400090911207809111076EC0E091120781E027
:100D50008E0F809312078091BB00F0E0EF50F94FA7
:100D600080838091140781116DC081E08093EF062C
:100D700084EA61C083E0809315071092C906CFCF43
:100D80008091C906803208F051C0E091C90681E027
:100D90008E0F8093C9068091BB00F0E0E755F94FB4
:100DA0008083BDCF85EC8093BC00109215078091A5
:100DB000C906803230F4E091C906F0E0E755F94FFA
:100DC00010826091C90670E0E091DE05F091DF05C8
:100DD00089EA96E019951092C90635C084E080939F
:100DE00015071092A8061092A706E091E005F09171
:100DF000E10519958091A706811105C081E08093D6
:100E0000A70610928706E091A80681E08E0F8093D6
:100E1000A806F0E0E957F94F80818093BB009091DC
:100E2000A8068091A706981708F479CF85E88093E3
:100E3000BC0009C085EC8093BC001092150703C06C
:100E40001092130780DBFF91EF91BF91AF919F91BB
:100E50008F917F916F915F914F913F912F910F9063
:100E60000BBE0F900FBE0F901F901895FC01A08134
:100E7000B1818C918D3051F024F489508230B8F5D5
:100E800005C0803219F08F3219F0089511962CC0E8
:100E900011968C9111978A3219F08F32D1F0089502
:100EA0001196B183A083A081B181CD010196918378
:100EB000808311968C9111978823C9F08A3299F713
:100EC00012968C9112978F3271F713960DC08A305B
:100ED00071F2A081B181CD01019691838083119639
:100EE0008C918111F4CF03C0B183A083C0CF08954A
:100EF0001F93CF93DF93EC01162FB8DFE881F981C0
:100F00008081181305C03196F983E88381E001C020
:100F100080E0DF91CF911F9108950F931F93CF939E
:100F2000DF93EC010C811D810296A0DFEA81FB8139
:100F30008081873231F1823221F190ED980F9A3021
:100F400070F091EA980F9C3150F09FEB980F9A3116
:100F500030F08B3221F093ED980F9230F0F52A812A
:100F60003B812F5F3F4F3B832A83EC81FD819F01B3
:100F70002F5F3F4F3D832C838083EA81FB818081FB
:100F8000DCCF3196FB83EA83EA81FB819081992350
:100F900021F19F012F5F3F4F3B832A839817E9F090
:100FA0009C3591F49181A4E5B5E02C91222339F090
:100FB000921303C011969C9102C01296F6CF99230A
:100FC00061F03296FB83EA83EC81FD819F012F5F04
:100FD0003F4F3D832C839083D7CFEC81FD81CF01A0
:100FE00001969D838C831082C801DF91CF911F9160
:100FF0000F910895AF92BF92CF92DF92EF92FF923E
:101000000F931F93CF931092F1051092F205109257
:10101000F3051092F4058FE595E0C4D391EFA92E66
:1010200095E0B92E8501C1E061E08C2F5BD610926E
:10103000E3058093E205811106C0CF5F0F5F1F4F6C
:10104000C53091F706C086ED97E0C1DAF8018083DC
:10105000F4CF60E275E08091F7059091F8050E9469
:101060009F1E892B21F5C12CD12C7601C394F5014B
:1010700081915F019FEF980F9F3030F4C701B60157
:1010800062D383E795E007C0811106C0C701B601AE
:101090005AD38FE795E086D3FFEFCF1ADF0AEF0A26
:1010A000FF0A85E0C816D104E104F10401F7CF91ED
:1010B0001F910F91FF90EF90DF90CF90BF90AF9076
:1010C00008958091720681110BC010926F061092E4
:1010D0006E06109271061092700681E0809372067F
:1010E0008EE696E00895DB01109749F0ED91FC91B2
:1010F00011970190F081E02DBC01CD01199480E0A1
:1011000090E00895AF92BF92CF92DF92EF92FF925C
:101110000F931F93CF93DF9300D000D0CDB7DEB7EE
:101120007C01DC0116968C91882309F484C08150DF
:10113000F701868300811181B80184E090E0D3DF5C
:10114000009709F47AC0DC0111961C930E93139654
:101150001C921E9212978C016701B2E0CB0ED11C3B
:101160006BE7C601C5DE882309F465C06DE7C601DB
:10117000BFDE81115AC0C701D0DE5C01892B09F4A2
:101180005AC06AE3C601B4DE882309F454C01A8247
:101190001982BE016F5F7F4FC701C5D4882309F450
:1011A0004AC0B501C801B5DA009759F5F801608168
:1011B00071818AE090E097DF009741F0DC011196A1
:1011C0001C921E9215961C921E921497D80112968C
:1011D000ED91FC911397309751F0208131812115C9
:1011E000310511F0F901F9CF9183808303C0F80133
:1011F000938382830097F9F0DC011396BC92AE9240
:10120000129726E0FE013196DC01149601900D92B2
:101210002A95E1F76DE7C6016BDE811106C06CE22D
:10122000C60166DE8111A7CF06C0F70186818F5FF8
:101230008683C80104C059DA02C057DA8CCF2696DB
:101240000FB6F894DEBF0FBECDBFDF91CF911F91D7
:101250000F91FF90EF90DF90CF90BF90AF900895E7
:101260002F923F924F925F926F927F928F929F92B6
:10127000AF92BF92CF92DF92EF92FF920F931F93A4
:10128000CF93DF93CDB7DEB7C55AD1090FB6F89427
:10129000DEBF0FBECDBF8EE595E09093F80580933D
:1012A000F7051092E5051092E6051092E7051092F9
:1012B000E8051092E9051092EA051092EB051092EC
:1012C000EC051092ED051092EE051092EF051092CC
:1012D000F0051092F6051092F50582EE282E87E0B3
:1012E000382E44244394512C3E0189E0680E711C31
:1012F00026E9C22ED12C34E0A32E32E0B32EFE011B
:1013000031964F01109247081092460810924B08F0
:1013100010924A088091480890914908E2EEF7E05F
:101320009F01225E37402817390774F41192F8CFD5
:1013300089E397E007D8892B79F48091460890914A
:101340004708181619065CF100914A0810914B08DD
:101350000130110569F74EC08091E2078B3731F4F7
:101360008091460890914708892B39F789E397E0E7
:101370000E94A2011816190604F789E397E00E945B
:1013800080018093E2078B3799F68091460890910F
:10139000470801969093470880934608CECF89E38B
:1013A00097E00E94A201892B79F289E397E00E94DD
:1013B000A2011816190644F6009146081091470834
:1013C00089E397E00E948001F801EE51F84F808395
:1013D0008091460890914708FC01EE51F84F20811A
:1013E0002D37B9F682EE97E0DDD150924B0840924E
:1013F0004A08AACF8CE895E0D5D182EE97E0D2D109
:101400007C826B82DE82CD8218861F82BA82A9829C
:10141000C156DF4F99828882CF59D04082EE97E043
:10142000CF55DF4F99838883C15AD040CD55DF4FC8
:1014300039822882C35AD0409AE0CB55DF4F988337
:10144000C55AD040CE0181569F4F5CDE7C01FC0125
:1014500080819181892B91F48BE995E0A3D18091D2
:10146000480890914908E2EEF7E09F01225E37407C
:10147000281739070CF046CF1192F7CF6FEA75E0C5
:10148000C70147D96C010097F1F0FC01A480B58039
:10149000F1E0AF16B10461F4FC016681778161155A
:1014A000710531F086EB95E00E949F1E892B59F063
:1014B000F1E0AF1AB10882E0A816B10420F4F601F9
:1014C0008681978102C080E090E09093F805809338
:1014D000F7056BEB75E0C70141D96093E5057093A3
:1014E000E6058093E7059093E8056DEB75E0C7018D
:1014F00035D96093E9057093EA058093EB059093E5
:10150000EC056FEB75E0C70129D96093ED05709389
:10151000EE058093EF059093F00561EC75E0C7014F
:10152000F8D8FC01892B09F44CC084819581833063
:10153000910520F4019708F444C00EC08530910550
:1015400040F00597B9F506811781119501951109AC
:101550003CC00681178139C00680F781E02D3097A5
:1015600081F18081843789F18B3229F08D3221F429
:10157000319681E002C0319680E060E070E09AE050
:10158000019120ED200F2A3070F4969F9001979FD3
:10159000300D1124002E000C110B00531109B8015D
:1015A000620F731FEDCF882379F000271127061BE8
:1015B000170B0BC066817781808591850E944D1D38
:1015C00003C000E010E001C08B011093F60500930A
:1015D000F50566EC75E0C701F3D98093E4056AEC84
:1015E00075E0C701EDD9809386068091F70590914B
:1015F000F805D8D06091E5057091E6058091E70582
:101600009091E8052AD46091E9057091EA058091EE
:10161000EB059091EC0521D46091ED057091EE05FC
:101620008091EF059091F00518D48091F505909187
:10163000F6051ED48091E405082E000C990B18D4F1
:1016400080918606082E000C990B12D489E397E04E
:101650000E94A201181619062CF489E397E00E9453
:101660008001F4CFCB55DF4F0FB6F894DEBF0FBE2D
:10167000CDBFDF91CF911F910F91FF90EF90DF9041
:10168000CF90BF90AF909F908F907F906F905F9022
:101690004F903F902F9008956115710579F0FB01EF
:1016A00001900020E9F73197AF01461B570BDC0191
:1016B000ED91FC910280F381E02D199480E090E09F
:1016C00008958F929F92AF92BF920F931F93CF93E3
:1016D000DF93CDB7DEB7A1970FB6F894DEBF0FBE8C
:1016E000CDBF19A2423008F44AE08E010F5D1F4FB2
:1016F000842E912CA12CB12CA50194010E94711E65
:10170000E62FB901CA0101501109EA3014F4E05D75
:1017100001C0E95CD801EC93232B242B252B61F726
:10172000B80189E397E0B8DFA1960FB6F894DEBF61
:101730000FBECDBFDF91CF911F910F91BF90AF90A2
:101740009F908F900895CF92DF92EF92FF92CF9368
:10175000DF9397FF1AC06B017C016DE289E397E08C
:101760000E94D901EC0166277727CB016C197D090E
:101770008E099F094AE0A5DF8C0F9D1FDF91CF9155
:10178000FF90EF90DF90CF9008954AE0DF91CF91E6
:10179000FF90EF90DF90CF9094CF6EEC75E089E3EF
:1017A00097E07ACFCF93DF93BC0189E397E074DFB2
:1017B000EC01F3DF8C0F9D1FDF91CF910895BC01E9
:1017C00089E397E069CF8F929F92AF92BF92CF92B9
:1017D000DF92EF92FF920F931F93CF93DF936B01F2
:1017E0007C01142F9B01AC010E94581E882319F024
:1017F00061ED75E027C046015701E894B7F82FEF77
:101800003FEF4FE75FE7C501B4010E94581E811109
:101810000DC02FEF3FEF4FE75FE7C501B4010E9416
:10182000FE1A18161CF465ED75E00CC02FEF3FEFA3
:101830004FE75FE4C701B6010E94081E18168CF43A
:1018400069ED75E089E397E0DF91CF911F910F91EA
:10185000FF90EF90DF90CF90BF90AF909F908F90D0
:101860001BCF2FEF3FEF4FE75FECC701B6010E94A0
:10187000FE1A87FDE5CF20E030E0A901C701B601DF
:101880000E94FE1A87FF0BC06DE289E397E00E9479
:10189000D901EC01F7FAF094F7F8F09402C0C0E037
:1018A000D0E000E060E070E080E09FE3101741F0DE
:1018B00020E030E040E251E40E94E51C0F5FF6CFEB
:1018C000A70196010E943F1C6B017C010E94521DE2
:1018D0004B015C014AE0F5DEC80FD91F1123B1F1BD
:1018E000C501B4010E94021B9B01AC01C701B601F6
:1018F0000E943E1C6B017C016EE289E397E00E942E
:10190000D901C80FD91F20E030E040E251E4C701FF
:10191000B6010E94631B4B015C010E94521D6B01CA
:10192000E12CF12C4AE0C701B601CBDEC80FD91F6C
:10193000C701B6010E94021B9B01AC01C501B401A5
:101940000E943E1C6B017C011150E9F6CE01DF9133
:10195000CF911F910F91FF90EF90DF90CF90BF90AC
:10196000AF909F908F90089542E02DCF90E0FC01C2
:10197000EA5CFD4F4491FC01E051FE4F2491FC01D3
:10198000E655FE4F9491992309F466C0442309F467
:1019900055C050E0FA013197E231F10508F04EC030
:1019A0008827EE58FF4F8F4F0C94931E8091800034
:1019B0008F7707C0809180008F7D03C08091800069
:1019C000877F809380003AC084B58F7702C084B54A
:1019D0008F7D84BD33C08091B0008F7703C080912C
:1019E000B0008F7D8093B00029C0809190008F77E8
:1019F00007C0809190008F7D03C080919000877F09
:101A0000809390001BC08091A0008F7707C08091C9
:101A1000A0008F7D03C08091A000877F8093A000ED
:101A20000DC0809120018F7707C0809120018F7DAC
:101A300003C080912001877F80932001E92FF0E08F
:101A4000EE0FFF1FE057FE4FA591B4918FB7F894AA
:101A5000EC91E22BEC938FBF08953091380731322F
:101A600008F04BC0809115078111FCCF90914C0874
:101A700022E02093150721E0209314072FEF2093F5
:101A800013071092120730931107E8E1F7E0A1EF76
:101A9000B6E020E0321721F041914D932F5FFACF4D
:101AA0001092F0062091F006990F922B9093F00679
:101AB0009091EF06913061F41092EF069091F0064C
:101AC0009093BB009091BC0093FDF8CF95EC01C0C2
:101AD00095EE9093BC00909115079230E1F39091B0
:101AE00013079F3F79F080911307803241F0809176
:101AF0001307803331F084E005C081E003C082E049
:101B000001C083E010921707109238071092160751
:101B1000089591E09093160780934C081092170750
:101B2000109238070895AF92BF92CF92DF92EF9252
:101B3000FF920F931F93CF93DF9300D000D0CDB7C8
:101B4000DEB77C016B015C0182E0A80EB11CC5010F
:101B50008DD9D7011296ED91FC91139780818B3529
:101B600021F08B3709F480C089C0F7018681882372
:101B700009F466C08150868300811181B80184E038
:101B800090E0B1DA009709F499C0FC011183008359
:101B9000138212828C016BE5C501AAD9882309F44E
:101BA0004FC06DE5C501A4D9811142C01A821982C6
:101BB000BE016F5F7F4FC701B6DF882309F440C0C5
:101BC000D8016D917C9188E090E08DDADC01892B61
:101BD00039F011961C921E9213961C921E92129727
:101BE000F801228133812115310551F0F9018081FD
:101BF0009181009711F09C01F9CFB183A08303C0BC
:101C0000F801B383A2831097D9F086E0FE013196E4
:101C1000129601900D928A95E1F76DE5C50168D99C
:101C2000811106C06CE2C50163D98111BFCF08C024
:101C3000D70116968C9116978F5F16968C9302C0DB
:101C400040DA8C01F80180819181892B11F410E038
:101C500037C086E090E0D60111969C938E93139640
:101C60001C930E93129728C0C7014CDAFC01208107
:101C70003181232B61F327E030E016C011E0873279
:101C800019F0823209F010E0C70147D90097F9F244
:101C9000112341F022E030E0F60131832083938369
:101CA00082830EC021E030E0D60111963C932E9342
:101CB00013969C938E93129711E002C002DA6ACFBA
:101CC000812F26960FB6F894DEBF0FBECDBFDF91F1
:101CD000CF911F910F91FF90EF90DF90CF90BF9029
:101CE000AF900895909115079111FCCF91E09093DA
:101CF0001507909314072FEF2093130710921207E4
:101D0000260F209311079093F0069091F006880F0C
:101D1000892B8093F0068091EF06813061F4109258
:101D2000EF068091F0068093BB008091BC0083FD9C
:101D3000F8CF85EC01C085EE8093BC00809115073B
:101D40008130E1F380911207861710F46091120739
:101D5000A1EFB6E0EFECF6E080E0861721F09D9170
:101D600091938F5FFACF0895CF92DF92EF92FF9217
:101D70000F931F93CF93DF936C017A018B01C0E027
:101D8000D0E0CE15DF0581F0D8016D918D01D6012F
:101D9000ED91FC910190F081E02DC6011995892B00
:101DA00011F02196EECF7E01C701DF91CF911F91F7
:101DB0000F91FF90EF90DF90CF9008952FB7F89498
:101DC00080914D0890914E08A0914F08B091500815
:101DD0002FBF8093410790934207A0934307B0938E
:101DE000440789E397E00E94940197FF26C02FB72C
:101DF000F89480914D0890914E08A0914F08B091B1
:101E000050082FBF4091410750914207609143070E
:101E100070914407841B950BA60BB70B40913D07AF
:101E200050913E0760913F077091400784179507D6
:101E3000A607B707B0F28FEF9FEF0895CF93DF9318
:101E4000682F70E080E090E04AE03BDCEC01A5DC2C
:101E50008C0F9D1FDF91CF910895CF93DF9342E0C8
:101E6000B2DCEC019ADC8C0F9D1FDF91CF910895BD
:101E7000CF93DF93BC01990F880B990B64DCEC01C5
:101E80008CDC8C0F9D1FDF91CF910895CF93DF9352
:101E90005ADCEC0182DC8C0F9D1FDF91CF910895FD
:101EA000CF92DF92EF92FF92CF9388DFFC0197FDF4
:101EB0000BC08D32910561F0C0970A9748F089E315
:101EC00097E00E948001F1CF60E070E0CB013FC05D
:101ED000C12CD12C7601C0E0E130F10501F1ED32E9
:101EE000F105E1F0CF01C0970A97C8F4AAE0B0E08D
:101EF000A70196010E94171C6F01FF0FEE08FF0853
:101F0000DC01CB018C0D9D1DAE1DBF1D6C017D0143
:101F100020E3C21AD108E108F10801C0C1E089E359
:101F200097E00E9480014ADFFC01C0970A97A0F267
:101F3000E130F10589F2CC2341F066277727CB0108
:101F40006C197D098E099F0902C0C701B601CF91A6
:101F5000FF90EF90DF90CF900895CF93DF93CDB7B0
:101F6000DEB7A8970FB6F894DEBF0FBECDBF78944A
:101F700084B5826084BD84B5816084BD85B582608E
:101F800085BD85B5816085BD80916E00816080933F
:101F90006E001092810080918100826080938100A8
:101FA00080918100816080938100809180008160B8
:101FB000809380008091B10084608093B100809113
:101FC000B00081608093B000809191008260809326
:101FD00091008091910081608093910080919000A8
:101FE0008160809390008091A10082608093A10025
:101FF0008091A10081608093A1008091A000816008
:102000008093A000809121018260809321018091C2
:102010002101816080932101809120018160809362
:10202000200180917A00846080937A0080917A0008
:10203000826080937A0080917A00816080937A0038
:1020400080917A00806880937A001092C10010928B
:10205000E3051092E20510921707109238071092CC
:10206000150781E0809314071092EF0684E17EDC6F
:1020700085E17CDC8091B9008E7F8093B9008091EE
:10208000B9008D7F8093B90088E48093B80085E41F
:102090008093BC0085ED92E09093E1058093E0058C
:1020A00086ED92E09093DF058093DE05E09149078D
:1020B000F0914A0782E08083E0914507F09146075E
:1020C0001082E0914707F091480780E180831092E9
:1020D0005107E0914D07F0914E0786E08083E09133
:1020E0004B07F0914C07808180618083E0914B0722
:1020F000F0914C07808188608083E0914B07F091DC
:102100004C07808180688083E0914B07F0914C07F9
:1021100080818F7D80838AE592E051DBF5EEEF2EA2
:10212000F5E0FF2E00E010E0D7016D917D918D91DB
:102130009D917D0119DC0230110519F08FE692E0C6
:102140003EDB0F5F1F4F0330110571F781E594E00F
:1021500029DB23DB81E792E09093F8058093F70574
:10216000FE0131961F01CE0105969A8F898FDE01FF
:102170005196BC8FAB8F3896FE8FED8F409698A30B
:102180008F8F1497BAA3A9A38091F7059091F805B2
:102190008157924039F483E792E004DB61D880E80C
:1021A00092E000DB0091F7051091F80569EB73E010
:1021B000C8010E949F1E7C01E114F10409F0A0C037
:1021C0008DE892E0EFDA83E0A4DC6DE872E086ED62
:1021D00097E062DA42DC81E09CDC6DE872E086ED3B
:1021E00097E05ADA3ADC82E094DC6DE872E086ED42
:1021F00097E052DA32DC83E992E0D4DA1092E50516
:102200001092E6051092E7051092E8051092E90594
:102210001092EA051092EB051092EC051092ED0574
:102220001092EE051092EF051092F0058DE3A82EA6
:1022300086E0B82E95E3C92E96E0D92E2DE0E22E49
:1022400026E0F22E0DE216E065E276E041E056E08F
:102250002DE136E0E5E18E2EE6E09E2EE9EFF5E099
:1022600080E090E0D5011D921D921D921D925D01AE
:10227000D6011D921D921D921D926D01D7011D92D6
:102280001D921D921D927D01D8011D921D921D92DD
:102290001D928D01DB011D921D921D921D92BD01AB
:1022A000DA011D921D921D921D92AD01D9011D9260
:1022B0001D921D921D929D01D4011D921D921D9291
:1022C0001D924D011192119211921192019682303C
:1022D000910541F61092090610920A0610920B061B
:1022E00010920C061092F6051092F5051092450614
:1022F000E1E7F2E0F093F805E093F7050C94BB1AE0
:102300006DE972E0C8010E949F1E892B09F095C6F5
:102310008FE992E047DA10926206109263061092FB
:1023200064061092650610925E0610925F06109287
:1023300060061092610610925A0610925B06109287
:102340005C0610925D061092560610925706109287
:102350005806109259061092520610925306109287
:1023600054061092550610924E0610924F06109287
:1023700050061092510610924A0610924B06109287
:102380004C0610924D061092460610924706109287
:102390004806109249068CEA92E004DA6091E5055D
:1023A0007091E6058091E7059091E805C090E905F8
:1023B000D090EA05E090EB05F090EC059B01AC01B4
:1023C0000E94631B4B015C01A7019601C701B60186
:1023D0000E94631B9B01AC01C501B4010E943F1C1C
:1023E0000E94171E6B017C01609362067093630666
:1023F000809364069093650620E030E040EA51E463
:102400000E94081E18169CF020E030E040E351E4E2
:10241000C701B6010E94FE1A87FD09C020E030E026
:10242000A901C701B6010E94FE1A811106C08DECF8
:1024300092E0B8D90E943009F5C5809145068F5FBA
:1024400080934506EDE3F6E065E376E04DE256E085
:1024500025E236E08DE196E005E116E0C190D190ED
:10246000E190F190DB01CD92DD92ED92FD92BD0104
:10247000DA01CD90DD90ED90FD90AD01D901CD92C6
:10248000DD92ED92FD929D01DC01CD90DD90ED900D
:10249000FD90CD01D801CD92DD92ED92FD928D019E
:1024A000B6E0E534FB07D1F689EE92E088D9809159
:1024B0004506082E000C990BDBDC6091E505709158
:1024C000E6058091E7059091E805C090E905D09078
:1024D000EA05E090EB05F090EC059B01AC010E9451
:1024E000631B4B015C01A7019601C701B6010E9465
:1024F000631B9B01AC01C501B4010E943F1C0E94FB
:10250000171E60936206709363068093640690932F
:1025100065068BEF92E053D9609162067091630675
:10252000809164069091650698DC80906206909098
:102530006306A0906406B090650620E030E040E2BB
:1025400051E4C501B4010E943E1C6B017C019B015A
:10255000AC01C501B4010E943E1CA70196010E9476
:102560003E1C20E030E040E05FE30E94631BA701D7
:1025700096010E943F1C6B017C0160935E06709384
:102580005F0680936006909361068091E5059091C7
:10259000E605A091E705B091E8058BA39CA3ADA348
:1025A000BEA39C01AD016091E9057091EA0580919F
:1025B000EB059091EC050E94E51C2B013C0120E00D
:1025C00030E0A9010E94081E181624F077FA7094D2
:1025D00077F8709420E030E040E251E4C701B601A2
:1025E0000E94E51C6B017C010E94301C20E030E061
:1025F00044E353E40E94631B2BED3FE049E450E4C5
:102600000E94E51C4B015C016093560670935706CF
:102610008093580690935906C301B2010E94BA1CD8
:1026200020E030E044E353E40E94631B2BED3FE0E5
:1026300049E450E40E94E51C2B013C0160935206E2
:10264000709353068093540690935506C701B601C4
:102650000E94A31C20E030E044E353E40E94631B8B
:102660002BED3FE049E450E40E94E51C6B017C0146
:1026700060934E0670934F068093500690935106D8
:1026800060934A0670934B0680934C0690934D06D8
:102690009B01AC0160E070E084E393E40E943E1C87
:1026A000A70196010E943E1C609346067093470660
:1026B000809348069093490620E030E0A9016BA181
:1026C0007CA18DA19EA19AD7A301920187FD05C08F
:1026D000C501B4010E943F1C0AC060E070E084E3C1
:1026E00093E40E943E1CA50194010E943E1C60934D
:1026F000410670934206809343069093440684E01B
:1027000093E05DD820E030E040E251E460915E0665
:1027100070915F0680916006909161060E94E51CB1
:102720000E94E21C9ADB84E093E049D8609156064F
:102730007091570680915806909159068EDB88E17A
:1027400093E03DD820916206309163064091640683
:10275000509165066091E9057091EA058091EB055D
:102760009091EC050E94E51C0E94E21C76DB88E15A
:1027700093E025D8609152067091530680915406DB
:10278000909155066ADB8CE293E019D860914E0671
:1027900070914F0680915006909151065EDB82E465
:1027A00093E00DD860914A0670914B0680914C06DB
:1027B00090914D0652DB87E593E001D86091410688
:1027C000709142068091430690914406CDD885EDE4
:1027D00094E00E94D20B8090ED059090EE05A090C1
:1027E000EF05B090F0058092210690922206A0920B
:1027F0002306B0922406409046065090470660900B
:102800004806709049064092310650923206609216
:102810003306709234062091390630913A06409181
:102820003B0650913C0660914106709142068091B2
:102830004306909144060E943E1C6B017C0160930C
:10284000110670931206809313069093140620913C
:10285000290630912A0640912B0650912C06C3017F
:10286000B2010E943E1C6093090670930A06809391
:102870000B0690930C062091190630911A06409190
:102880001B0650911C06C501B401F8D74B015C0131
:102890006093FD057093FE058093FF0590930006FD
:1028A00020E030E0A901C701B601A8D687FF19C012
:1028B00080E090E0A0E8BFE380930D0690930E06C1
:1028C000A0930F06B0931006F7FAF094F7F8F0947F
:1028D000C0921106D0921206E0921306F0921406EE
:1028E00008C010920D0610920E0610920F0610925C
:1028F000100620E030E0A901C501B4017FD687FFB2
:1029000019C080E090E0A0E8BFE38093F9059093C0
:10291000FA05A093FB05B093FC05B7FAB094B7F89D
:10292000B0948092FD059092FE05A092FF05B092B2
:10293000000608C01092F9051092FA051092FB05E6
:102940001092FC05C090E505D090E605E090E70503
:10295000F090E80520E030E0A901C701B6010E942F
:10296000081E87FD0CC080E090E0A0E8BFE38093E4
:102970002D0690932E06A0932F06B093300620E0EC
:1029800030E0A901C701B60139D687FF08C010920F
:102990002D0610922E0610922F061092300680906F
:1029A0002D0690902E06A0902F06B0903006209114
:1029B0002506309126064091270650912806C5012C
:1029C000B4011CD6882311F1809201069092020670
:1029D000A0920306B09204062091290630912A069F
:1029E00040912B0650912C06609131067091320671
:1029F000809133069091340642D760930506709318
:102A0000060680930706909308066DC0209129065C
:102A100030912A0640912B0650912C066091310688
:102A200070913206809133069091340627D76B015E
:102A30007C016093050670930606809307069093C9
:102A4000080620E030E0A9010E94081E18164CF488
:102A50008092010690920206A0920306B0920406AC
:102A600042C020E030E0A901C701B601C7D520E08F
:102A700030E0A90187FF22C0C501B401BFD5811193
:102A800005C080E090E0A0E8BFE303C080E090E0F4
:102A9000DC018093010690930206A0930306B09395
:102AA0000406F7FAF094F7F8F094C0920506D09275
:102AB0000606E0920706F092080615C0C701B601A7
:102AC0009DD5811110C0109201061092020610923D
:102AD0000306109204061092050610920606109244
:102AE00007061092080686E693E00E94D20B6091DA
:102AF0000D0670910E0680910F06909110060E94AF
:102B0000B40C8FE793E00E94DF0B60911106709187
:102B1000120680911306909114060E94B40C0E9434
:102B2000CD0B609101067091020680910306909191
:102B300004060E94B40C8FE793E00E94DF0B6091C3
:102B400005067091060680910706909108060E947E
:102B5000B40C8FE793E00E94DF0B6091090670913F
:102B60000A0680910B0690910C060E94B40C0E94FC
:102B7000CD0B6091F9057091FA058091FB0590915C
:102B8000FC050E94B40C8FE793E00E94DF0B60917C
:102B9000FD057091FE058091FF05909100060E9451
:102BA000B40C0E94CD0B88E0D1011D928A95E9F703
:102BB00087E893E00E94D20B8091E405882309F412
:102BC0004DC081E00E94890D6FE873E086ED97E0CB
:102BD0000E944C0B0E942D0D61E070E080E090E0BF
:102BE0000E9483058091E405082E000C990BAA0B26
:102BF000BB0B89839A83AB83BC8381E00E94890DE0
:102C00008101F801F1908F016F2D86ED97E00E9410
:102C10002F038F2D13D9898D9A8D0817190789F7DE
:102C20000E942D0DAFA1B8A51197A1F064E081E03D
:102C300059D81092E3058093E20586ED97E00E9453
:102C4000E70298A78FA36EE170E080E090E00E9419
:102C50008305E8CF83E993E00E94D20B20E030E0C7
:102C6000A90160910D0670910E0680910F0690915A
:102C70001006C4D481110EC083EA93E00E94DF0BDA
:102C800086EB93E00E94D20B81E00E94890D6BEBF2
:102C900073E00DC081EC93E00E94DF0B84ED93E0C4
:102CA0000E94D20B81E00E94890D6AED73E086EDEF
:102CB00097E00E944C0B0E942D0D20E030E0A9010E
:102CC00060910106709102068091030690910406BE
:102CD00095D481110EC081EE93E00E94DF0B86EB4C
:102CE00093E00E94D20B82E00E94890D6BEB73E0AF
:102CF0000DC084EF93E00E94DF0B84ED93E00E940F
:102D0000D20B82E00E94890D6AED73E086ED97E0B8
:102D10000E944C0B0E942D0D20E030E0A901609133
:102D2000F9057091FA058091FB059091FC0566D438
:102D300081110EC087E094E00E94DF0B86EB93E0E8
:102D40000E94D20B83E00E94890D6BEB73E00DC0F3
:102D500081E194E00E94DF0B84ED93E00E94D20BAE
:102D600083E00E94890D6AED73E086ED97E00E9492
:102D70004C0B0E942D0D88E0EB8DFC8D282F1192BD
:102D80002A95E9F7AD8DBE8DE82F1D92EA95E9F7FA
:102D9000D1011D928A95E9F7C0901106D0901206D4
:102DA000E0901306F090140620E030E040EA51E491
:102DB000C701B60188D426E636E646EE5DE305D6C1
:102DC0006CD6698B7A8B8B8B9C8B409005065090D0
:102DD0000606609007067090080620E030E040E2AA
:102DE00051E4C301B2016FD426E636E646EE5DE358
:102DF000ECD553D669877A878B879C878090FD05B1
:102E00009090FE05A090FF05B090000620E030E015
:102E1000A901C501B401F2D3882389F020E030E094
:102E200048E455E4C501B4014ED420E030E040EA66
:102E300053E425D532D669837A838B839C83809033
:102E40000D0690900E06A0900F06B090100680918F
:102E5000010690910206A0910306B09104068BA38F
:102E60009CA3ADA3BEA39C01AD01C501B401C6D313
:102E7000811116C001E010E020E030E0A901C50199
:102E8000B401BCD3882311F000E010E010936B066E
:102E900000936A06A3019201C701B601F0D42FC0C6
:102EA000A3019201C701B601B3D61816A4F46BA111
:102EB0007CA18DA19EA1F1D570936B0660936A06EB
:102EC000A3019201C701B601D9D49F77E6D57093CB
:102ED0006D0660936C06A3019201C701B6018ED303
:102EE00087FF12C0C501B401D8D570936B066093FB
:102EF0006A06A3019201C701B601C0D49F77CDD560
:102F000070936D0660936C068BE194E00E94D20B87
:102F100083E00E94890D8101D801FD908D016F2D04
:102F200086ED97E00E942F038F2D0E941E0FE98DE2
:102F3000FA8D0E171F0781F70E942D0D68EC70E0C7
:102F400080E090E00E94830587E394E00E94D20B2A
:102F500081E00E94890D8E010F5E1F4FD801FD9008
:102F60008D016F2D86ED97E00E942F038F2D0E941B
:102F70001E0FEF8DF8A1E017F10781F70E942D0DCC
:102F800083E594E00E94D20B82E00E94890D8E01BD
:102F9000075F1F4FD801FD908D016F2D86ED97E0E3
:102FA0000E942F038F2D0E941E0FE9A1FAA10E1778
:102FB0001F0781F70E942D0D8FE694E00E94DF0B22
:102FC00060914106709142068091430690914406BB
:102FD00069D5862F0E941E0F82E894E00E94DF0BC5
:102FE00060913106709132068091330690913406DB
:102FF0000E94B40C85ED94E00E94D20B85E994E028
:103000000E94DF0B6091ED057091EE058091EF0558
:103010009091F0050E942D0F81E792E09093F805C2
:103020008093F7050E94CD0BA1E7B2E0B093F805BD
:10303000A093F7050E94CD0B9EC26FED73E0C8010F
:103040007ED6892B09F0F5C084EA94E00E94D20B69
:1030500081EB94E00E94D20B88E0EB8DFC8D282F51
:1030600011922A95E9F7AD8DBE8DE82F1D92EA9554
:10307000E9F7D1011D928A95E9F781E00E94890D57
:103080006BEB73E086ED97E00E944C0B0E942D0DD8
:1030900082E00E94890D6BEB73E086ED97E00E9461
:1030A0004C0B0E942D0D83E00E94890D6BEB73E0A9
:1030B00086ED97E00E944C0B0E942D0D0E94CD0BD7
:1030C00086EC94E00E94D20B89E397E00E94A20173
:1030D000892BD1F30E94500F97D22B013C016093B2
:1030E000E5057093E6058093E7059093E8050E9457
:1030F000500F8AD24B015C016093E9057093EA0599
:103100008093EB059093EC050E94500F7DD26B01EC
:103110007C016093ED057093EE058093EF0590932D
:10312000F005C301B201B9D42B013C01698B7A8B44
:103130008B8B9C8BC501B401B0D44B015C016987BA
:103140007A878B879C87C701B601A7D46B017C0166
:1031500069837A838B839C83C301B2010E94460FEB
:10316000C501B4010E94460FC701B6010E94460F77
:103170000E94CD0B81E00E94890D87E394E00E94BC
:10318000D20B8E010F5E1F4FF801F1908F01FF20CF
:1031900041F06F2D86ED97E00E942F038F2D0E9446
:1031A0001E0F8F8D98A10817190771F70E942D0D1A
:1031B00082E00E94890D83E594E00E94D20B8E018B
:1031C000075F1F4FD801FD908D01FF2041F06F2D4B
:1031D00086ED97E00E942F038F2D0E941E0FE9A11C
:1031E000FAA10E171F0771F70E942D0D83E00E94B0
:1031F000890D8BE194E00E94D20B8101D801FD90F2
:103200008D01FF2041F06F2D86ED97E00E942F0386
:103210008F2D0E941E0FE98DFA8D0E171F0771F773
:103220000E942D0D89ED94E00E94D20B0E94CD0BDF
:1032300051C16EEE74E0C80182D5892B09F051C1ED
:1032400088E0D1011D928A95E9F780EF94E00E9411
:10325000D20B8091F5059091F605009731F484E04A
:103260000E94890D6DEF74E008C08130910561F412
:1032700084E00E94890D63E075E086ED97E00E948E
:103280004C0B0E942D0D26C18230910509F099C08A
:1032900060916C0670916D06072E000C880B990BDF
:1032A000B3D126E636E646E65DE38FD3F6D36983EF
:1032B0007A838B839C8384E00E94890D68E075E0AB
:1032C00086ED97E00E944C0B0E942D0D64E670E0A5
:1032D00080E090E00E94830580916A0690916B06E1
:1032E000009779F588E094E00E94D20B84E00E9478
:1032F000890D6BEB73E086ED97E00E944C0B0E940A
:103300002D0D6AE070E080E090E00E94830584E08B
:103310000E94890D8101F801F1908F01F11003C025
:103320000E942D0D3CC06F2D86ED97E00E942F036B
:103330008F2D0E941E0F898D9A8D0817190759F736
:10334000EFCF019761F582E194E00E94D20B84E017
:103350000E94890D6AED73E086ED97E00E944C0BA8
:103360000E942D0D6AE070E080E090E00E948305ED
:1033700084E00E94890D8101D801FD908D01FF201C
:1033800079F26F2D86ED97E00E942F038F2D0E941A
:103390001E0FE98DFA8D0E171F0771F7C1CF8091AF
:1033A000F405823049F00E94FA0762E370E080E0A1
:1033B00090E00E948305F3CF8DE095E00E94D20B50
:1033C00089C0039709F086C060916C0670916D0604
:1033D000072E000C880B990B17D126E636E646E639
:1033E0005DE3F3D25AD369837A838B839C8384E031
:1033F0000E94890D68E075E086ED97E00E944C0B15
:103400000E942D0D64E670E080E090E00E9483054C
:1034100080916A0690916B06009769F588E094E0C8
:103420000E94D20B84E00E94890D6AED73E086ED64
:1034300097E00E944C0B0E942D0D6AE070E080E046
:1034400090E00E94830584E00E94890D8101D801EB
:10345000FD908D01FF2009F414CF6F2D86ED97E0CC
:103460000E942F038F2D0E941E0FE98DFA8D0E17DB
:103470001F0769F706CF019769F582E194E00E9482
:10348000D20B84E00E94890D6BEB73E086ED97E030
:103490000E944C0B0E942D0D6AE070E080E090E0ED
:1034A0000E94830584E00E94890D8101D801FD906E
:1034B0008D01FF2009F4E5CE6F2D86ED97E00E9487
:1034C0002F038F2D0E941E0FE98DFA8D0E171F07F7
:1034D00069F7D7CE81E792E09093F8058093F705DE
:1034E0004AC060E275E0C8012AD4892B69F482E2FF
:1034F00095E00E94D20B0E94FA07A1E7B2E0B093D8
:10350000F805A093F70537C06FE275E0C80117D43E
:10351000892B11F00C94DC1010926606109267064D
:10352000109268061092690687E395E00E94D20B1C
:1035300006E616E0FF24F394F80181918F018823B9
:10354000A1F08F2D0E94890D6FE275E086ED97E066
:103550000E944C0B0E942D0D61E070E080E090E035
:103560000E9483058F2D0E94890DF394F5E0FF12D0
:10357000E3CF0C94D2100E9446020C94C410E9E3ED
:10358000F7E01382128288EE93E0A0E0B0E084833B
:103590009583A683B7832AE332E03183208325EC29
:1035A00030E03587248724EC30E03787268720EC0D
:1035B00030E0318B208B21EC30E0338B228B22ECFE
:1035C00030E0358B248B26EC30E0378B268B118E48
:1035D000128E138E148EE6EDF7E01382128284832E
:1035E0009583A683B7838CE492E09183808384E6FD
:1035F00090E09093490880934808089540D008F4DB
:1036000081E00895E89409C097FB3EF49095809579
:10361000709561957F4F8F4F9F4F9923A9F0F92F98
:1036200096E9BB279395F695879577956795B79516
:10363000F111F8CFFAF4BB0F11F460FF1BC06F5FFC
:103640007F4F8F4F9F4F16C0882311F096E911C00E
:10365000772321F09EE8872F762F05C0662371F02F
:1036600096E8862F70E060E02AF09A95660F771F43
:10367000881FDAF7880F9695879597F90895990F1F
:103680000008550FAA0BE0E8FEEF16161706E8072C
:10369000F907C0F012161306E407F50798F0621B4D
:1036A000730B840B950B39F40A2661F0232B242B22
:1036B000252B21F408950A2609F4A140A6958FEF41
:1036C000811D811D08950BD078C069D028F06ED07F
:1036D00018F0952309F05AC05FC01124A2C07ED013
:1036E000A0F3959FD1F3950F50E0551F629FF00115
:1036F000729FBB27F00DB11D639FAA27F00DB11D6E
:10370000AA1F649F6627B00DA11D661F829F2227F6
:10371000B00DA11D621F739FB00DA11D621F839F7D
:10372000A00D611D221F749F3327A00D611D231F53
:10373000849F600D211D822F762F6A2F11249F57A1
:1037400050408AF0E1F088234AF0EE0FFF1FBB1FC4
:10375000661F771F881F91505040A9F79E3F510563
:1037600070F014C05EC05F3FECF3983EDCF38695CA
:1037700077956795B795F795E7959F5FC1F7FE2B0E
:10378000880F911D9695879597F9089597F99F67EA
:1037900080E870E060E008959FEF80EC08950024D9
:1037A0000A941616170618060906089500240A94A6
:1037B00012161306140605060895092E0394000C2C
:1037C00011F4882352F0BB0F40F4BF2B11F460FFBB
:1037D00004C06F5F7F4F8F4F9F4F089557FD9058E4
:1037E000440F551F59F05F3F71F04795880F97FBC5
:1037F000991F61F09F3F79F087950895121613067F
:103800001406551FF2CF4695F1DF08C016161706AD
:103810001806991FF1CF86957105610508940895E2
:10382000E894BB2766277727CB0197F9089509D03D
:10383000A59F900DB49F900DA49F800D911D112404
:103840000895A29FB001B39FC001A39F700D811D79
:103850001124911DB29F700D811D1124911D089599
:103860009F939F774BD10F9000203AF49058A2EA93
:103870002AED3FE049E450E413D09FCF5058BB27D6
:10388000AA270ED09ACF8BDF30F090DF20F031F4F2
:103890009F3F11F41EF480CF0EF4E095E7FB76CF46
:1038A000E92F9CDF80F3BA17620773078407950737
:1038B00018F071F49EF5B4CF0EF4E0950B2EBA2FEC
:1038C000A02D0B01B90190010C01CA01A001112426
:1038D000FF27591B99F0593F50F4503E68F11A16D2
:1038E000F040A22F232F342F4427585FF3CF469563
:1038F00037952795A795F0405395C9F77EF41F1685
:10390000BA0B620B730B840BBAF09150A1F0FF0F4E
:10391000BB1F661F771F881FC2F70EC0BA0F621F3A
:10392000731F841F48F4879577956795B795F7952A
:103930009E3F08F0B3CF9395880F08F09927EE0FBC
:103940009795879508959F939F77EEE389379E0714
:1039500020F4E8E0F1E012D109C0D0D09058A2EAFA
:103960002AED3FE049EC5FE39BDF27DF0F9007FC88
:1039700090580895DF93DD27B92FBF7740E85FE3C4
:103980001616170648075B0710F4D92F45D19F93E9
:103990008F937F936F9389D1ECE1F1E0CAD00DDF73
:1039A0002F913F914F915F919ADEDD2349F090581E
:1039B000A2EA2AED3FE049EC5FE3D0785D2770DFB3
:1039C000DF91FBCEEDD0E39512C10CD0F6CEEEDE4A
:1039D00040F0E5DE30F021F45F3F19F0D7CE511111
:1039E00020CFDACEFBDE98F39923C9F35523B1F348
:1039F000951B550BBB27AA2762177307840738F05E
:103A00009F5F5F4F220F331F441FAA1FA9F333D0BC
:103A10000E2E3AF0E0E830D091505040E695001C70
:103A2000CAF729D0FE2F27D0660F771F881FBB1F2C
:103A3000261737074807AB07B0E809F0BB0B802D06
:103A4000BF01FF2793585F4F2AF09E3F510568F052
:103A50009DCEE7CE5F3FECF3983EDCF386957795FD
:103A60006795B795F7959F5FC9F7880F911D969554
:103A7000879597F90895E1E0660F771F881FBB1FB0
:103A8000621773078407BA0720F0621B730B840B5D
:103A9000BA0BEE1F88F7E095089504D06894B11131
:103AA000C0CE0895A3DE88F09F5790F0B92F9927D4
:103AB000B751A0F0D1F0660F771F881F991F1AF039
:103AC000BA95C9F712C0B13081F0AADEB1E008950D
:103AD000A7CE672F782F8827B85F39F0B93FCCF38E
:103AE000869577956795B395D9F73EF4909580952F
:103AF000709561957F4F8F4F9F4F0895DF93CF93C0
:103B00001F930F938B01EC01E9E4F1E012D055DE35
:103B10009801AE018B01EC0160E070E080E89FE36A
:103B2000ADDE85D09801AE010F911F91CF91DF914D
:103B3000D6CDDF93CF931F930F93FF92EF92DF9237
:103B40007B018C01689405C0DA2EEF01C8DDFE010F
:103B5000E894A5912591359145915591AEF3EF01EA
:103B60009FDEFE019701A801DA9479F7DF90EF90CC
:103B7000FF900F911F91CF91DF9108959F938F93A5
:103B80007F936F93FF93EF939B01AC019CDDEF91CB
:103B9000FF91CFDF2F913F914F915F9194CDFCCD5D
:103BA00025DEE8F3E894E0E0BB279F57F0F02AED2C
:103BB0003FE049EC06C0EE0FBB0F661F771F881F62
:103BC00028F0B23A62077307840728F0B25A620BF2
:103BD000730B840BE3959A9572F7803830F49A95BD
:103BE000BB0F661F771F881FD2F7904867C0EF93FF
:103BF000E0FF06C0A2EA2AED3FE049EC5FEB50DEB1
:103C0000DCDD0F90039401FC9058E1E7F1E0B6CFC2
:103C100036DD08F48FEF08959B01AC0160E070E0A1
:103C200080E89FE3D2CE11F40EF4B6CD45C0DEDDC0
:103C3000D0F39923D9F3CEF39F57550B87FF4AD082
:103C40000024A0E640EA900180585695979528F404
:103C5000805C660F771F881F20F0261737074807FC
:103C600030F4621B730B840B202931294A2BA69553
:103C700017940794202531254A2758F7660F771F98
:103C8000881F20F026173707480730F4620B730BA4
:103C9000840B200D311D411DA09581F7B901842FA2
:103CA0009158880F9695879508959B01AC010BCD8F
:103CB000E6DC880B990B08959F3F31F0915020F47A
:103CC000879577956795B795880F911D96958795F8
:103CD00097F9089591505040660F771F881FD2F7CB
:103CE0000895A1E21A2EAA1BBB1BFD010DC0AA1F3D
:103CF000BB1FEE1FFF1FA217B307E407F50720F055
:103D0000A21BB30BE40BF50B661F771F881F991FCF
:103D10001A9469F760957095809590959B01AC0118
:103D2000BD01CF010895EE0FFF1F881F8BBF0790C5
:103D3000F691E02D199481E090E0F89409C0FB0120
:103D4000DC018D91019080190110D9F3990B089530
:043D5000F894FFCF15
:103D5400000000006103CDCCCC3D0AD7233C17B74B
:103D6400D13877CC2B329595E6241FB14F0A000049
:103D740020410000C84200401C4620BCBE4CCA1B67
:103D84000E5AAEC59D7400000000D901B40E710135
:103D94002502A20180019401000000002F03030307
:103DA4005E03D702FB02E702D802E79BAEE5898DEA
:103DB400E5889DE5A78BE4BD8DE7BDAE3A28002CD0
:103DC400002100E8BCB8E585A5E68C87E4BBA40027
:103DD4004A534F4E202D2D3E20204F4B00726573C9
:103DE400657400726573657420454E44003100E5C6
:103DF400BAA7E6A899E6A8A1E5BC8F00E5BAA7E6AC
:103E0400A899E8BCB8E585A5E5AE8CE688902D2D8B
:103E1400E9968BE5A78BE9818BE7AE9700E8BCB800
:103E2400E585A5E98CAFE8AAA4EFBC8CE9878DE60B
:103E340096B0E8BCB8E585A500E9818BE8BD89E5C5
:103E44009C88E695B8202D2D3E20004C5F414220F1
:103E54002D3E200074686574616C4F6E652020747B
:103E640075726E202D2D3E0074686574616C5477F4
:103E74006F20207475726E202D2D3E007468657459
:103E8400616C546872656520207475726E202D2DE6
:103E94003E0074686574616C466F75722020747599
:103EA400726E202D2D3E0074686574616C5F41E86C
:103EB400BD89E58B9500E8BCB8E587BAE79A8433F9
:103EC400E5808BE8A792E5BAA6202D2D3E200020A0
:103ED4003C2D2D2D3E20006163635F6463630061AC
:103EE4006464006163635F6465635F7375636365E2
:103EF400737300E7ACAC31E7AF80E8878220E6ADAE
:103F0400A3E8BD892000203D2030007374617274E1
:103F140000E7ACAC31E7AF80E8878220E58F8DE81D
:103F2400BD89200020213D203000737461727432F9
:103F340000E7ACAC32E7AF80E8878220E6ADA3E8C7
:103F4400BD892000E7ACAC32E7AF80E8878220E58A
:103F54008F8DE8BD8920005A20E6ADA3E8BD8920F5
:103F6400005A20E58F8DE8BD892000626567696E7F
:103F74005472616E736D697373696F6E284D7953F2
:103F84006C617665332900626567696E5472616E8F
:103F9400736D697373696F6E284D79536C617665BF
:103FA400312900626567696E5472616E736D69735D
:103FB40073696F6E284D79536C617665322900748C
:103FC400686574616C5F412D2D62797465202D3EA6
:103FD400200074686574616C5F42E8BD89E58B9567
:103FE400202D3E20005AE8BBB8E6978BE8BD892017
:103FF4002D3E2000E8A792E5BAA6E6A8A1E5BC8F6D
:1040040000E9968BE5A78BE88887736C617665E990
:10401400809AE8A88A00E8BCB8E585A5E4B889E8F0
:10402400BBB8E8A792E5BAA600E7B590E69D9FE87D
:104034008887736C617665E9809AE8A88A00330002
:10404400E5A4BEE788AAE68EA7E588B600636C6F90
:104054007365006F70656E007475726E00E590B8DC
:10406400E79BA4E58B95E4BD9CE5AE8CE6889000C7
:104074003400E6AAA2E69FA5E9809AE8A88A00612E
:10408400646472657373002A2D3E454550524F4D4A
:104094005F536C6176655F4164647265737320007D
:1040A40022225C5C6208660C6E0A720D7409002A96
:1040B4002D3E496E20776169745F66756E6374691D
:1040C4006F6E00202D3E204F4E2D6C696E650020D2
:1040D4002D3E206F66662D6C696E6500666F726A90
:1040E400736F6E2D62756666657200666F726A73B1
:1040F4006F6E2D6E6F742D737563636573730063D8
:10410400686F6F7365006E756C6C00580059005AC7
:10411400007375636B0070707300616363000D0A54
:0E412400006E616E00696E66006F76660000C8
:020000023000CC
:10E000000D9489F10D94B2F10D94B2F10D94B2F129
:10E010000D94B2F10D94B2F10D94B2F10D94B2F1F0
:10E020000D94B2F10D94B2F10D94B2F10D94B2F1E0
:10E030000D94B2F10D94B2F10D94B2F10D94B2F1D0
:10E040000D94B2F10D94B2F10D94B2F10D94B2F1C0
:10E050000D94B2F10D94B2F10D94B2F10D94B2F1B0
:10E060000D94B2F10D94B2F10D94B2F10D94B2F1A0
:10E070000D94B2F10D94B2F10D94B2F10D94B2F190
:10E080000D94B2F10D94B2F10D94B2F10D94B2F180
:10E090000D94B2F10D94B2F10D94B2F10D94B2F170
:10E0A0000D94B2F10D94B2F10D94B2F10D94B2F160
:10E0B0000D94B2F10D94B2F10D94B2F10D94B2F150
:10E0C0000D94B2F10D94B2F10D94B2F10D94B2F140
:10E0D0000D94B2F10D94B2F10D94B2F10D94B2F130
:10E0E0000D94B2F141546D656761323536300041AF
:10E0F000726475696E6F206578706C6F72657220DE
:10E1000073746B3530305632206279204D4C530099
:10E11000426F6F746C6F616465723E004875683F52
:10E1200000436F6D70696C6564206F6E203D200048
:10E130004350552054797065202020203D20005FF9
:10E140005F4156525F415243485F5F3D2000415658
:10E1500052204C696243205665723D20004743437C
:10E160002056657273696F6E203D20004350552024
:10E1700049442020202020203D20004C6F7720663D
:10E18000757365202020203D20004869676820665F
:10E190007573652020203D200045787420667573D6
:10E1A00065202020203D20004C6F636B2066757336
:10E1B000652020203D20004D617220203720323024
:10E1C000313300312E362E3800342E332E350056A2
:10E1D00023202020414444522020206F7020636F70
:10E1E00064652020202020696E73747275637469E1
:10E1F0006F6E2061646472202020496E74657272B3
:10E20000757074006E6F20766563746F7200726A49
:10E210006D702020006A6D70200057686174207056
:10E220006F72743A00506F7274206E6F7420737541
:10E2300070706F72746564004D7573742062652030
:10E2400061206C6574746572002000577269747483
:10E25000696E672045450052656164696E672045B7
:10E26000450045452065727220636E743D00504F35
:10E27000525400303D5A65726F2061646472003FF1
:10E280003D43505520737461747300403D454550C3
:10E29000524F4D207465737400423D426C696E6B41
:10E2A000204C454400453D44756D70204545505215
:10E2B0004F4D00463D44756D7020464C415348001B
:10E2C000483D48656C70004C3D4C69737420492F83
:10E2D0004F20506F72747300513D51756974005234
:10E2E0003D44756D702052414D00563D73686F7707
:10E2F00020696E7465727275707420566563746FF0
:10E30000727300593D506F727420626C696E6B00BD
:10E310002A0011241FBECFEFD1E2DEBFCDBF01E046
:10E320000CBF12E0A0E0B2E0EEE1FDEF03E00BBFB6
:10E3300002C007900D92A030B107D9F712E0A0E01B
:10E34000B2E001C01D92AE30B107E1F70F9460F367
:10E350000D948DFE01E20EBF0FEF0DBF11241FBE05
:10E360000D9460F30D9400F020E030E040ED57E0B4
:10E3700005C0FA013197F1F72F5F3F4F2817390792
:10E38000C0F308959C01260F311DC901A0E0B0E043
:10E390002F5F3F4FABBFFC018791882361F08093D3
:10E3A000C6008091C00086FFFCCF8091C0008064D1
:10E3B0008093C000EACF08958DE08093C6008091DD
:10E3C000C00086FFFCCF8091C00080648093C000B5
:10E3D0008AE08093C6008091C00086FFFCCF8091C8
:10E3E000C00080648093C00008950F94C2F10F9420
:10E3F000DCF10895FC019081992359F09093C600B7
:10E400008091C00086FFFCCF8091C0008064809323
:10E41000C0003196992379F70895282F982F929567
:10E420009F70892F805D8A3308F0895F8093C600D2
:10E430008091C00086FFFCCF8091C00080648093F3
:10E44000C000822F8F70982F905D9A3308F0995FEB
:10E450009093C6008091C00086FFFCCF8091C000E1
:10E4600080648093C00008959C01FB01853691056E
:10E470001CF46330710594F0C90164E670E00F94F8
:10E480002EFE605D7F4F6093C6008091C00086FFC6
:10E49000FCCF8091C00080648093C0002B30310598
:10E4A00014F43297B4F0C90164E670E00F942EFEC4
:10E4B0006AE070E00F942EFE605D7F4F6093C600AF
:10E4C0008091C00086FFFCCF8091C0008064809363
:10E4D000C000C9016AE070E00F942EFEC0968093E0
:10E4E000C6008091C00086FFFCCF8091C000806490
:10E4F0008093C00008951F93182F8EE692EE60E07F
:10E500000F94C2F11093C6008091C00086FFFCCF2B
:10E510008091C00080648093C0000F94DCF11F9153
:10E5200008952F923F924F925F926F927F928F92B7
:10E530009F92AF92BF92CF92DF92EF92FF920F9392
:10E540001F93DF93CF93CDB7DEB762970FB6F894E2
:10E55000DEBF0FBECDBF382E622ECA01DB015C01CB
:10E560006D01772420E2222E2E010894411C511CBB
:10E570008BC081E0A81680E0B80681E0C80680E084
:10E58000D80628F0C601AA27BB270F940DF2BB2797
:10E59000AD2D9C2D8B2D0F940DF28A2D0F940DF225
:10E5A0002092C6008091C00086FFFCCF8091C00001
:10E5B00080648093C0009DE29093C6008091C0006B
:10E5C00086FFFCCF8091C00080648093C0002092C1
:10E5D000C6008091C00086FFFCCF8091C00080649F
:10E5E0008093C00019828601750188249924A1E0D6
:10E5F0003A1651F03A1620F0B2E03B1661F409C029
:10E600000BBFF701779007C0C7010F9477FE782EF4
:10E6100002C0F7017080872D0F940DF22092C60082
:10E620008091C00086FFFCCF8091C0008064809301
:10E63000C000872D8052F401EF70F0708F3520F408
:10E64000E40DF51D708204C0E40DF51D8EE280839B
:10E650000894E11CF11C011D111D0894811C911CE2
:10E6600090E18916910409F0C2CF80E190E0A0E02A
:10E67000B0E0A80EB91ECA1EDB1E198AC2010F9493
:10E68000FAF10F94DCF16A94662009F072CF629679
:10E690000FB6F894DEBF0FBECDBFCF91DF911F91B3
:10E6A0000F91FF90EF90DF90CF90BF90AF909F9031
:10E6B0008F907F906F905F904F903F902F90089534
:10E6C0002F923F924F925F926F927F928F929F9282
:10E6D000AF92BF92CF92DF92EF92FF920F931F9370
:10E6E000DF93CF93CDB7DEB7CD53D1400FB6F894BB
:10E6F000DEBF0FBECDBF01E20EBF0FEF0DBF94B75F
:10E70000F894A89514BE80916000886180936000A1
:10E7100010926000789493FF05C0E0910002F091A0
:10E7200001021995279A2F9A8091C00082608093E8
:10E73000C00080E18093C40088E18093C1000000A4
:10E74000EE24FF24870144E0A42EB12CCC24DD2448
:10E7500024C0C5010197F1F70894E11CF11C011DCB
:10E76000111D21E2E2162EE4F20620E0020720E06D
:10E77000120718F031E0C32ED12CC801B70127ECE5
:10E780003BE140E050E00F9441FE611571058105C9
:10E79000910519F485B1805885B98091C00087FD35
:10E7A00003C0C114D104A9F2A6014F5F5F4FC25E3E
:10E7B000DE4F59834883CE51D140C25EDE4F8881FF
:10E7C0009981CE51D140019711F00D9410FEC05D9A
:10E7D000DE4F19821882C053D14060E0C15DDE4F28
:10E7E0001882CF52D14088249924C35DDE4F19820C
:10E7F0001882CD52D140C05EDE4F188219821A8233
:10E800001B82C052D140CE5CDE4F188219821A8220
:10E810001B82C253D140EE24FF2487010BBFF701B6
:10E8200007911691C45CDE4F19830883CC53D14005
:10E830000D940BFEC25EDE4F28813981CE51D1404E
:10E840002130310509F52091C600C25EDE4F1982E4
:10E850001882CE51D14022C02F5F3F4F4F4F5F4FA4
:10E86000213082E138078AE7480780E0580780F0C6
:10E87000C45CDE4FE881F981CC53D140EF5FFF4F9C
:10E8800019F0EE27FF27099420E030E040E050E047
:10E890008091C00087FFE0CF2091C600C35DDE4FAE
:10E8A00048815981CD52D1404F5F5F4FC35DDE4FEC
:10E8B00059834883CD52D140213209F063C64A3092
:10E8C000510508F05FC60894811C911C53E0851621
:10E8D000910409F059C600E010E018C081E280936D
:10E8E000C6008091C00086FFFCCF8091C00080648C
:10E8F0008093C0002F5F3F4F2931310579F70F9486
:10E90000DCF10F5F1F4F0530110519F020E030E0FA
:10E91000E5CF10920A0210920B0210920C02109294
:10E920000D02109206021092070210920802109235
:10E930000902109202021092030210920402109235
:10E9400005028FEE90EE60E00F94F5F180E191EE1C
:10E9500060E00F94C2F18091C00087FFFCCF9091DE
:10E96000C600903608F09F759032B8F09093C600BC
:10E970008091C00086FFFCCF8091C00080648093AE
:10E98000C000A0E2A093C6008091C00086FFFCCF2B
:10E990008091C00080648093C000983409F4D7C18E
:10E9A0009934B8F4923409F459C1933458F490333B
:10E9B00019F1903308F4E3C59F33A1F1903409F0C5
:10E9C000DEC5BDC0953409F470C1963409F0D7C5D1
:10E9D00098C1923509F42BC2933538F49C3409F46C
:10E9E000F5C1913509F0CBC518C2963509F445C279
:10E9F000993509F0C4C567C483E792EE62E00F94CD
:10EA0000F5F110920602109207021092080210927D
:10EA1000090210920A0210920B0210920C0210923C
:10EA20000D0213C18FE792EE62E00F94F5F18FEEC5
:10EA300090EE60E00F94F5F181E291EE60E00F94CA
:10EA4000C2F187EB91EE60E00F94F5F180E391EE77
:10EA500060E00F94C2F184EE90EE60E00F94F5F167
:10EA60008FE391EE60E00F94C2F186E090E061E008
:10EA700070E00F9434F20F94DCF18DE591EE60E0DC
:10EA80000F94C2F189EC91EE60E00F94F5F18EE401
:10EA900091EE60E00F94C2F183EC91EE60E00F9490
:10EAA000F5F18CE691EE60E00F94C2F18EE10F94E7
:10EAB0000DF288E90F940DF281E00F940DF20F949E
:10EAC000DCF18BE791EE60E00F94C2F119E0E0E039
:10EAD000F0E010935700E4918E2F0F940DF20F94F5
:10EAE000DCF18AE891EE60E00F94C2F1E3E0F0E03F
:10EAF00010935700E4918E2F0F940DF20F94DCF1D8
:10EB000089E991EE60E00F94C2F1E2E0F0E0109349
:10EB10005700E4918E2F0F940DF20F94DCF188EAE8
:10EB200091EE60E00F94C2F1E1E0F0E01093570045
:10EB30001491812F0F940DF20F94DCF107CF8BE825
:10EB400092EE62E00F94F5F18BE492EE60E00F94A8
:10EB5000F5F10F94DCF100E010E019C0C8016F2D51
:10EB60000F947FFEFF2031F489E492EE60E00F9471
:10EB7000C2F10BC0F092C6008091C00086FFFCCFAE
:10EB80008091C00080648093C0000F5F1F4FC80158
:10EB900081519F41A0E0B0E0ABBFFC01F790BAE229
:10EBA000FB1621F0E2E000301E07C1F60F94DCF105
:10EBB0000F94DCF187E592EE60E00F94F5F10F948D
:10EBC000DCF1CC24DD2400E010E01EC0C8010F946D
:10EBD00077FEF82E882331F489E492EE60E00F94FA
:10EBE000C2F10BC08093C6008091C00086FFFCCFAD
:10EBF0008091C00080648093C000FE1419F00894D6
:10EC0000C11CD11C0F5F1F4FC80181519F41A0E063
:10EC1000B0E0ABBFFC01E790FAE2EF1621F022E092
:10EC20000030120799F60F94DCF10F94DCF182E6C4
:10EC300092EE60E00F94C2F1C60161E070E00F94C3
:10EC400034F20F94DCF10F94DCF110920202109276
:10EC50000302109204021092050278CE89E992EE26
:10EC600062E00F94F5F1279A2F9A16C02F9880E052
:10EC700090E0E0EDF7E03197F1F7019684369105E9
:10EC8000C1F72F9A80E090E0E0EDF7E03197F1F7DF
:10EC9000019684369105C1F78091C00087FFE6CFC9
:10ECA0008091C00087FFFCCF64C485EA92EE62E0E9
:10ECB0000F94F5F140910202509103026091040219
:10ECC0007091050281E020E10F9491F2809102029F
:10ECD00090910302A0910402B091050280509F4FD1
:10ECE000AF4FBF4F8093020290930302A0930402A0
:10ECF000B093050280509041A040B04008F426CE69
:10ED0000A4CF83EB92EE62E00F94F5F140910602FE
:10ED100050910702609108027091090280E020E1A1
:10ED20000F9491F28091060290910702A09108023F
:10ED3000B091090280509F4FAF4FBF4F80930602A2
:10ED400090930702A0930802B0930902FFCD80ECD4
:10ED500092EE62E00F94F5F183E792EE60E00F949B
:10ED6000F5F18FE792EE60E00F94F5F18BE892EE0B
:10ED700060E00F94F5F189E992EE60E00F94F5F10F
:10ED800085EA92EE60E00F94F5F183EB92EE60E09D
:10ED90000F94F5F180EC92EE60E00F94F5F187ECC2
:10EDA00092EE60E00F94F5F188ED92EE60E00F9442
:10EDB000F5F18FED92EE60E00F94F5F18AEE92EEB0
:10EDC00060E00F94F5F183E093EEBDCD87EC92EE19
:10EDD00062E00F94F5F181E40F947BF282E40F94EA
:10EDE0007BF283E40F947BF284E40F947BF285E45E
:10EDF0000F947BF286E40F947BF287E40F947BF20E
:10EE000088E40F947BF28AE40F947BF28BE40F94F6
:10EE10007BF28CE40F947BF299CD88ED92EE62E068
:10EE20000F94F5F1772473948824992409C48FED05
:10EE300092EE62E00F94F5F140910A0250910B02BC
:10EE400060910C0270910D0282E020E10F9491F22A
:10EE500080910A0290910B02A0910C02B0910D02D8
:10EE600080509F4FAF4FBF4F80930A0290930B0289
:10EE7000A0930C02B0930D0269CD8AEE92EE62E08F
:10EE80000F94F5F184EE90EE60E00F94F5F18FECC5
:10EE900091EE60E00F94F5F1662477244301CC5D98
:10EEA000DE4F19821882C452D140D401C301B695F5
:10EEB000A79597958795CA5DDE4F88839983AA8326
:10EEC000BB83C652D140CC5DDE4FA881B981C4520C
:10EED000D1401196CC5DDE4FB983A883C452D14096
:10EEE000CD0162E070E00F9434F2B0E2B093C6005E
:10EEF0008091C00086FFFCCF8091C0008064809329
:10EF0000C000EDE2E093C6008091C00086FFFCCF18
:10EF10008091C00080648093C000F0E2F093C6004E
:10EF20008091C00086FFFCCF8091C00080648093F8
:10EF3000C000CA5DDE4FE880F9800A811B81C6529D
:10EF4000D140BB27A12F902F8F2D0F940DF2CA5DBA
:10EF5000DE4F8881C652D1400F940DF2B0E2FB2EF5
:10EF6000F092C6008091C00086FFFCCF8091C00067
:10EF700080648093C0000DE30093C6008091C000C0
:10EF800086FFFCCF8091C00080648093C00010E2B7
:10EF90001093C6008091C00086FFFCCF8091C00016
:10EFA00080648093C0008BBEF3012791C65DDE4F65
:10EFB0002883CA52D140A22EBB24CC24DD2408943D
:10EFC000611C711C811C911C8BBEF3018791282E42
:10EFD0003324442455240894611C711C811C911C09
:10EFE0008BBEF3013791C55DDE4F3883CB52D140E4
:10EFF0000894611C711C811C911C8BBEF30147910C
:10F00000C45DDE4F4883CC52D140ADEFEA2EAFEF66
:10F01000FA2EAFEF0A2FAFEF1A2F6E0C7F1C801E57
:10F02000911E142D032DF22CEE24EA0CFB1C0C1D5A
:10F030001D1D0F940DF220E22093C6008091C000A8
:10F0400086FFFCCF8091C00080648093C000C65DC5
:10F05000DE4F8881CA52D1400F940DF230E23093D6
:10F06000C6008091C00086FFFCCF8091C000806404
:10F070008093C000C45DDE4F8881CC52D1400F9494
:10F080000DF240E24093C6008091C00086FFFCCFA5
:10F090008091C00080648093C000C55DDE4F888190
:10F0A000CB52D1400F940DF250E25093C6008091A4
:10F0B000C00086FFFCCF8091C00080648093C000B8
:10F0C0008FEFE8168FEFF80680E0080780E018075A
:10F0D00031F484E092EE60E00F94C2F1DFC0D80119
:10F0E000C7018070907CA070B0708050904CA040A0
:10F0F000B040D1F52FEF3FE340E050E0E222F322B1
:10F1000004231523CA5DDE4FA880B980CA80DB8046
:10F11000C652D140AE0CBF1CC01ED11EAA0CBB1CD7
:10F12000CC1CDD1C8EE092EE60E00F94C2F1BB2798
:10F13000A12F902F8F2D0F940DF28E2D0F940DF285
:10F1400030E23093C6008091C00086FFFCCF8091F2
:10F15000C00080648093C0004EE34093C60080915D
:10F16000C00086FFFCCF87C08EE09EEFA0E0B0E03D
:10F17000E822F9220A231B239CE0E91694E9F90608
:10F1800090E0090790E0190709F088C0C45DDE4FE0
:10F19000A881CC52D140EA2EFF2400E010E0102FCD
:10F1A0000F2DFE2CEE24C55DDE4FB881CB52D14031
:10F1B000EB0EF11C011D111DD601C501817090706F
:10F1C000A070B070DC0199278827E80EF91E0A1F8D
:10F1D0001B1F20EF30E040E050E0A222B322C42207
:10F1E000D52241E1AA0CBB1CCC1CDD1C4A95D1F7F1
:10F1F000EA0CFB1C0C1D1D1D81E090E0A0E0B0E0BE
:10F20000282239224A225B2235E1220C331C441C7D
:10F21000551C3A95D1F7E20CF31C041D151D57013E
:10F220006801AA0CBB1CCC1CDD1C85E192EE60E0E1
:10F230000F94C2F1C801AA27BB270F940DF2BB2778
:10F24000A12F902F8F2D0F940DF28E2D0F940DF274
:10F2500090E29093C6008091C00086FFFCCF809121
:10F26000C00080648093C000AEE3A093C60080918C
:10F27000C00086FFFCCF8091C00080648093C000F6
:10F28000C601AA27BB270F940DF2BB27AD2D9C2DDD
:10F290008B2D0F940DF28A2D0F940DF20F94DCF14B
:10F2A000CC5DDE4FE881F981C452D140F99709F471
:10F2B0004DCBF4E0EF2EF12C012D112D6E0C7F1CA7
:10F2C000801E911EF2CD83E093EE62E00F94F5F183
:10F2D0008AE192EE60E00F94C2F18091C00087FF56
:10F2E000FCCF1091C6001F751093C6008091C0001E
:10F2F00086FFFCCF8091C00080648093C0000F9493
:10F30000DCF1812F81548A3108F036C1163409F4BA
:10F3100095C0173490F4133409F44EC0143430F40B
:10F320001134F1F0123409F01DC130C0143409F465
:10F3300059C0153409F016C16BC01A3409F4C4C0A1
:10F340001B3438F4173409F48FC0183409F00AC19B
:10F35000A1C01B3409F4D2C01C3409F003C1E8C0B9
:10F360008FEF81B90DC082B1809582B980E090E0C5
:10F37000E0EDF7E03197F1F70196883C9105C1F790
:10F380008091C00087FFEFCF12B8EFC08FEF84B934
:10F390000DC085B1809585B980E090E0E0EDF7E0A3
:10F3A0003197F1F70196883C9105C1F78091C00033
:10F3B00087FFEFCF15B8D9C08FEF87B90DC088B1DF
:10F3C000809588B980E090E0E0EDF7E03197F1F7C3
:10F3D0000196883C9105C1F78091C00087FFEFCF6F
:10F3E00018B8C3C08FEF8AB90DC08BB180958BB9A7
:10F3F00080E090E0E0EDF7E03197F1F70196883C8E
:10F400009105C1F78091C00087FFEFCF1BB8ADC059
:10F410008FEF8DB90DC08EB180958EB980E090E0F0
:10F42000E0EDF7E03197F1F70196883C9105C1F7DF
:10F430008091C00087FFEFCF1EB897C08FEF80BBD1
:10F440000DC081B3809581BB80E090E0E0EDF7E0F6
:10F450003197F1F70196883C9105C1F78091C00082
:10F4600087FFEFCF11BA81C08FEF83BB0DC084B38C
:10F47000809584BB80E090E0E0EDF7E03197F1F714
:10F480000196883C9105C1F78091C00087FFEFCFBE
:10F4900014BA6BC08FEF809301010FC080910201FD
:10F4A00080958093020180E090E0E0EDF7E03197F5
:10F4B000F1F70196883C9105C1F78091C00087FF64
:10F4C000EDCF1092020151C08FEF809304010FC065
:10F4D0008091050180958093050180E090E0E0ED4A
:10F4E000F7E03197F1F70196883C9105C1F78091DB
:10F4F000C00087FFEDCF1092050137C08FEF8093DA
:10F5000007010FC08091080180958093080180E079
:10F5100090E0E0EDF7E03197F1F70196883C910536
:10F52000C1F78091C00087FFEDCF109208011DC088
:10F530008FEF80930A010FC080910B01809580931B
:10F540000B0180E090E0E0EDF7E03197F1F70196F4
:10F55000883C9105C1F78091C00087FFEDCF1092E4
:10F560000B0103C085E292EEEEC98091C00087FFD7
:10F57000FCCF8091C600EAC988E392EEE4C98CE131
:10F5800091EEE1C988249924933011F1943028F444
:10F59000913089F09230B8F408C0953061F195301F
:10F5A000F0F0963009F048C043C02B3109F042C951
:10F5B00091E06BE13FC96227C15DDE4F2883CF52E6
:10F5C000D14092E037C9B22FA0E0622793E032C960
:10F5D000822F90E0A82BB92B622794E02BC92E3004
:10F5E00009F039C3622795E0C05DDE4F19821882A9
:10F5F000C053D1401FC9E1E0F0E0EC0FFD1FC05D3A
:10F60000DE4F08811981C053D140E00FF11F2083E4
:10F610000F5F1F4FC05DDE4F19830883C053D14079
:10F6200062270A171B0709F005C9D80196E002C92D
:10F63000261709F010C303C0973009F0FBC87724E0
:10F640009981933109F412C19431C8F4963009F4C8
:10F65000D8C0973050F4923009F406C1933009F4C1
:10F660006DC0913009F059C253C0913109F477C08F
:10F67000923108F0BBC0903109F04FC2F5C098310B
:10F6800009F487C0993150F4953109F4EFC09531F0
:10F6900008F4C6C1963109F040C2C2C19A3109F4DA
:10F6A0006CC09A3108F491C09B3109F45BC09D3164
:10F6B00009F033C29D81903359F48F81882311F46E
:10F6C0009EE11CC0813011F091E018C098E916C08D
:10F6D000892F807591F0903539F4E0E0F0E089E011
:10F6E0008093570094910AC0983539F4E3E0F0E034
:10F6F00089E080935700949101C090E01A821B82A8
:10F700008D818C831D829E831F8227E030E009C299
:10F710001A8288E08B8381E48C8386E58D8382E581
:10F720008E8389E48F8383E5888780E589878FE5E9
:10F730008A8782E38B872BE030E0F3C18A818139AD
:10F7400041F0823941F0803911F48FE005C080E04A
:10F7500003C082E001C08AE01A828B8344C0772410
:10F76000739482C08D81882311F48EE12CC0813086
:10F7700011F081E028C088E926C01A82E1E0F0E0BB
:10F7800089E08093570084918B831C8224E030E0D1
:10F79000C8C18B81803589F48C81883039F4E2E0EE
:10F7A000F0E089E08093570084910DC0E0E0F0E044
:10F7B00089E080935700849106C0E3E0F0E089E09F
:10F7C0008093570084911A82DFCF8D81836C99E0FA
:10F7D000E1E0F0E0082E90935700E89507B600FCB2
:10F7E000FDCF1A821B8223E030E09BC180EC8A832C
:10F7F000CE5CDE4F188219821A821B82C253D1401E
:10F800008EC18A8190E0A0E0B0E0582F44273327D2
:10F8100022278B8190E0A0E0B0E0DC0199278827C7
:10F82000282B392B4A2B5B2B8D8190E0A0E0B0E098
:10F83000282B392B4A2B5B2B8C8190E0A0E0B0E089
:10F84000BA2FA92F982F8827282B392B4A2B5B2BCF
:10F85000220F331F441F551FC05EDE4F288339839C
:10F860004A835B83C052D1401A8259C13A81C95C34
:10F87000DE4F3883C753D140CA5CDE4F1882C6536F
:10F88000D1408B81C82EDD24CA5CDE4F488159816E
:10F89000C653D140C42AD52A933109F082C0CE5C28
:10F8A000DE4F88819981AA81BB81C253D1408050AB
:10F8B000904CA340B04030F583E0CE5CDE4FE88052
:10F8C000F9800A811B81C253D140F70100935B008C
:10F8D00080935700E89507B600FCFDCFCE5CDE4F65
:10F8E000088119812A813B81C253D14000501F4FAA
:10F8F0002F4F3F4FCE5CDE4F088319832A833B8313
:10F90000C253D140C05EDE4F488159816A817B81FC
:10F91000C052D140DE011B9631E08C9111962C91A2
:10F9200011971296C75CDE4F2883C953D140C85C3B
:10F93000DE4F1882C853D14090E0C85CDE4FE881AA
:10F94000F981C853D1408E2B9F2B0C01FA01609393
:10F950005B0030935700E89511244E5F5F4F6F4F67
:10F960007F4F0EEFE02E0FEFF02ECE0CDF1CC114F8
:10F97000D10499F685E0C05EDE4F088119812A81A5
:10F980003B81C052D140F80120935B008093570027
:10F99000E89507B600FCFDCF81E180935700E8951C
